:100000000C94E8100D94F2470D94C7470D949C474B
:100010000D9471470D9446470D941B470D94F0467F
:100020000D94C5460C9419110C9419110C941911C6
:100030000C9419110C9419110C9419110D94D23EB1
:100040000C9419110C943A5C0C94305A0C94F6D31D
:100050000C9419110C9419110C9419110D94535DF1
:100060000C9419110D9485490D9445490C9419115E
:100070000C9419110C9419110C9419110C94191158
:100080000D94773B0D94FC3A0D94813A0C94191120
:100090000C9419110C9419110C9419110C94191138
:1000A0000C9419110C9419110D9410390D94063AF1
:1000B0000D948B390C9419110C9419110D947638F8
:1000C0000D94DC370D9442370C9419110C941911CE
:1000D0000C9419110C9419110D940E490D94CE48DD
:1000E0000C9419110C94F8CB0D9442300C94141507
:1000F0000D9438300D94FC280C94E02B0C94E72BD5
:100100000D9434300C9403C10D94FA0C0C9482FAC3
:100110000C94165F0C94EDA60C9403B50C94C66277
:100120000C9470C10C945ABC0C94A5A40C944DC2B0
:100130000C943DD70C94D7A20C94719F0C9486110B
:100140000D94414F0D94A1650D943D4F0D949A0C63
:100150000C94076D0C948ECA0C940B870C94BFC83A
:100160000C94D82B0C94B8C00C946CC20C94348EA4
:100170000C94B7C10C9443C10D94574F0C9466C2B4
:100180000C94DA290D9430300C94494B0C94CEF237
:100190000D9471060C943BC20C948A8D0C94AF2B79
:1001A0000D9492480D94514F0D943E480C94C4CD3B
:1001B0000D9483770C945EC10C9402870C94ED6FC0
:1001C0000C943E7A0D94E5440C9477C20C94B67C62
:1001D0000C942FCD0D94814F0C94A1C50D94511901
:1001E0000C9487850C94D75F0C94B17D0C9494C1CA
:1001F0000C9412D80C94C95F0C94ADBC0D941729C3
:100200000D945D4F0C948EC10C943E880C9413FA9F
:100210000C94E5C00C94AB7C0C94FAC00C94C415FF
:100220000C94E1290C9460880C94E76E0C9429F3EB
:100230000C94EEC90C94E25E0C940A1A0C9406C15C
:100240000C9497C10C9468900C9477CD0C9497AB58
:100250000C940A7D0D9448300C9437C10C9450399D
:100260000C9410A70C944FC10D94AF180C942079E6
:100270000C9481980C94ADAE0C94C0BB0C94708B14
:100280000C948AF20D9400450C94C5BE0D940E7624
:100290000C940AD90C94EBC00D9412450C94ED45C6
:1002A0000D9446480C94ACD80D941A130C9454C277
:1002B0000C9440C10C9451630D94960C0C9447C25D
:1002C0000C94B82B0C94B4C10D94AC480C94C51D7F
:1002D0000C9481630C9477840C94AE5E0C94FE189D
:1002E0000D94B57A0C94075F0C945DC20D94580D73
:1002F0000C9498130C94605F0D942F1E0D94147B36
:100300000C947CA10C9422700C9477710C9436FAA6
:100310000C9488C10D9448480D94E2280D94323015
:100320000C9417D60C9474C20C9499C00C9402636C
:100330000D94C80D0D94C40D0D9467650D9411773F
:100340000C94A68B0C94587E0D94180B0C9434C10D
:100350000C94CDC00C94C7E60D9434270C94DFC1E7
:100360000C9485C10C9423C70C94E5120C941B11BA
:100370000C9491C10C94316E0C9484180D94374FE9
:100380000D942C300C94C89C0C9444C20C941B8784
:100390000C947DC20C94F7A70C941BC10C9426A559
:1003A0000C9479C10D946F4F0D9461480C9464C105
:1003B0000D94CC080D9434060D949A1D0D9436308E
:1003C0000C94F5FA0C940D630C9455C10C9479CBF4
:1003D0000C9497850D94C5160C94464E0D94862763
:1003E0000C94BEC00D946F0B0C9472220C948AC7AF
:1003F0000C9469C20C94F62B0D9469170C947663D7
:100400000C9415150D9453140C94AF2A0C946C6332
:100410000D942E300C94F4CA0C9426A40D943B1B1E
:100420000C9459BB0C9445370C94F55F0C9441C265
:100430000C944E1E0D94A6280D9443280D94B44898
:100440000D94390F0D941C080C94CAC00C94CDC1A6
:100450000C94D1BA0D94040D0C9421630C94317852
:100460000D94730B0C94D4970C9487150C943663ED
:100470000D9423680C94501F0D9431290C94784DE1
:100480000C94D96F0C94E2C00D948D4F0D9440489C
:100490000C94F4290D94D5060C9400C10C9486BDDF
:1004A0000C940E2A0C94DD6F0C940C140C94C92B34
:1004B0000C946E7E0C9434870C9458C10C94F95EA5
:1004C0000D94EE260C94F0C10C94D7980C94FDC0BA
:1004D0000C9476C10C9486CC0C94232C0D943C3057
:1004E0000C945B700D94320C0C94F46E0C942B6392
:1004F0000D949F0E0C94A6C10C94415F0D94C728D7
:100500000C94606E0C94DFC00C94EF6E0D943C4F15
:100510000C9494D00C9486C20C94EEA60C94854452
:100520000C9448B00D949D670C9474A70D941E46CE
:100530000C9470C20C94216E0C94012A0C946017D8
:100540000C9447430D9440300C94AA1C0C94CAF9A7
:100550000C94AAC50C94AC8C0C9446A60C94FA2965
:100560000C94312C0D94E51D0C9463C20C9473C152
:100570000C9494880C9416BC0C943EC20C946F9905
:100580000C94D8A20C9409890C94558C0C9440605E
:100590000D9474280D94501D0C94D3C00C945D716F
:1005A0000C94BD200C946F970C94EF2B0C9420842A
:1005B0000C9411A70C949AC10C94142A0C94548D89
:1005C0000D94634F0C94BC290D9454760C94AFC0D9
:1005D0000C94F6180D94C00D0C94674A0C947E92FE
:1005E0000D94DB660C94F7C00C949DC10D94874F5D
:1005F0000C949CC00D94020E0C949FC00C9432205D
:100600000C942A2C0D948E0C0D94A0480C94A78861
:100610000C941E7D0C94DC620D94754F0C94C16F8C
:100620000C9416C20C9450B10D9463280C947586EA
:100630000C94218B0C94335F0D94B6280C94BD5E02
:100640000C94FF7C0C947E4C0C94A6C00D94640D0D
:100650000D94600D0C94B2C00C9414880C94F89214
:100660000C9486C90C9400D00D94B6760C945088E6
:100670000D94B8450D944B4F0D9444300D94CF0B11
:100680000D943E300C947EBF0D94A8100D940B7BFE
:100690000D9411450C94B02B0C94C7C00C946AC1F6
:1006A0000C944CC10C949BFA0D94BC640C94D9C06E
:1006B0000C9481D10C94C36D0C94E66F0C949A1336
:1006C0000D943A300D947C090C9482C10D942A1635
:1006D0000D94B6770C94D9A90C94299A0C94CC7CDF
:1006E0000C94AE930C9465170C94F7620C94F4C0C0
:1006F0000C9403910C94B1A50C94AA860C94A9CEE9
:100700000C940D140C94031B0D947F120C948BC14C
:100710000C945BC10C94072A0D94C2750D94920C35
:100720000D940B180D947F5E0C9416600C9418C1F8
:100730000C9487780C941D840D94F77A0C9409C15D
:100740000C942C6E0C94CE3E0D947B4F0D94B813EC
:100750000C947A2C0C94BBC00C94FFA10C94D6A2E0
:100760000D943D7B0C948A5F0C94A0880C94189E89
:100770000C94512C0C9460C20C946D880D94F60C62
:100780000C94B5C00C94FF4C0C94D9780C94379B06
:100790000C9409C80C94ACC00D945C0D0D94860C9F
:1007A0000D94F5190D942D7B0C949C6C0C9419C22E
:1007B0000C94A9C00D94257B0C949F1B0D94C048EC
:1007C0000C9441C90C94EBBD0D948A0C0C943AC165
:1007D0000D942A300C94B8F30C9467C10C9420BF8C
:1007E0000C9438B30C94802A0D9430670D94454FC7
:1007F0000C94B64B0D9472100C949E780C94872A2E
:100800000C94637E0C94EE160C94496D0C948CA29F
:100810000C947AC20D94694F0C941D7A0D946C0758
:100820000C94DD4A0C9418BD0D9481480D94051D5F
:100830000C948F2A0C9424230C94EEC00C942D1B42
:100840000C94226F0C949FD90C9449C10C940FF412
:100850000C94C1C00C9461BE0D946E460C94AFC153
:100860000C947CC10C9431880C9461C10D94461198
:100870000C94B8990C9425390C9478C60C946D2B73
:100880000C943C2A0D9444480C948D6E0C9431C108
:100890000C94C4C00D94E1110C94A9620C9467905F
:1008A0000C94D6C00C94B4190C942A980C94194C3E
:1008B0000D948C150C94A0C10C94F1C00C94C6C17D
:1008C0000C94255F0C94BC7D0D94FE0C0C94A2C07E
:1008D0000C9415C10D94CE1E0D941D7B0C94D0C0AC
:1008E0000C94792A0C9493C00D94D70F0C94F58B2B
:1008F0000C9414700C946DC10C94B0880D94C40ABF
:100900000C94C1D80C940FC10C94E8C00C946EF3F5
:100910000C9490C00C94DCC00C94A3C10C94A778E8
:100920000C9451B50C944AC20C940CC10C94D54D46
:100930000C9408740C948C630C94C3CA0D94D60662
:100940000D94D0090C94C23B0D9446300C9496C083
:100950000C94F2290C9448470C94C17C0D945328B4
:100960000D94FC920C9497A80D94F1140C9452C120
:100970000C94D02B0D94971A0D9442480D942E0C84
:100980000C9417630C944AF30C94AE780C9412C137
:100990000C9457C20C94256E0C94A9C10D94CC0DE7
:1009A0000C947FC10D945A460C948C620C948BCF9E
:1009B0000C9480C20C949E910C9483C20C941E746F
:1009C0000C9413C20D944A480C9425A40C943DC178
:1009D0000C9446C10C945AC20D94020D0C942D95A2
:1009E0000D947E1E0C94ED160C9499130D945329BE
:1009F0000C945671526573657420636F6E74726FD8
:100A00006C2069732063757272656E746C792064F2
:100A1000697361626C65642E00436F6D6D7320684D
:100A2000616C7465642E204E6578742062797465FB
:100A30002077696C6C20726573657420746865201A
:100A400041726475696E6F2E000A50616765206897
:100A50006173206E6F74206265656E20696D706CC5
:100A6000656D656E74656420796574000A426F6F08
:100A70007374206C6F6F6B7570207461626C6500AD
:100A80000A326E642049676E6974696F6E204D6129
:100A900070000A326E64204675656C204D617000EE
:100AA0000A50616765203920436667000A547269FD
:100AB0006D2031205461626C65000A565654204DF9
:100AC0006170000A426F6F7374204D6170000A50AC
:100AD00067203620436F6E666967000A41465220E0
:100AE0004D6170000A5067203420436667000A4950
:100AF000676E6974696F6E204D6170000A506720DF
:100B00003220436667000A5645204D6170004572E9
:100B1000723A20556E6B6E6F776E20636D64000ABB
:100B20003D3D3D436F6D6D616E642048656C703D69
:100B30003D3D0A0A416C6C20636F6D6D616E64739C
:100B4000206172652073696E676C652063686172ED
:100B5000616374657220616E642061726520636FE9
:100B60006E636174656E6174656420776974682072
:100B7000746865697220706172616D657465727305
:100B8000200A776974686F75742073706163657388
:100B90002E53796E7461783A20203C636F6D6D61DD
:100BA0006E643E2B3C706172616D65746572313E9E
:100BB0002B3C706172616D65746572323E2B3C70C6
:100BC0006172616D657465724E3E0A0A3D3D3D4C31
:100BD000697374206F6620436F6D6D616E64733D41
:100BE0003D3D0A0A41202D20446973706C61797380
:100BF000203331206279746573206F6620637572CB
:100C000072656E745374617475732076616C75656A
:100C10007320696E2062696E61727920286C697632
:100C2000652064617461290A42202D204275726E2C
:100C30002063757272656E74206D617020616E64E0
:100C400020636F6E666967506167652076616C75B9
:100C5000657320746F20656570726F6D0A43202D77
:100C6000205465737420434F4D20706F72742E2092
:100C700020557365642062792054756E65727374B3
:100C80007564696F20746F2073656520776865747B
:100C900068657220616E20454355206973206F6E30
:100CA000206120676976656E2073657269616C20CA
:100CB0000A20202020706F72742E20526574757285
:100CC0006E7320612062696E617279206E756D624B
:100CD00065722E0A4E202D205072696E74206E654A
:100CE00077206C696E652E0A50202D205365742084
:100CF00063757272656E7420706167652E20205373
:100D0000796E7461783A2020502B3C706167654E93
:100D1000756D6265723E0A52202D2053616D65200B
:100D20006173204120636F6D6D616E640A53202DE5
:100D300020446973706C6179207369676E617475A2
:100D40007265206E756D6265720A51202D205361A7
:100D50006D65206173205320636F6D6D616E640A51
:100D600056202D20446973706C6179206D6170206C
:100D70006F7220636F6E6669675061676520766188
:100D80006C75657320696E2062696E6172790A57AD
:100D9000202D20536574206F6E6520627974652064
:100DA000696E206D6170206F7220636F6E66696777
:100DB000506167652E2020457870656374732062EA
:100DC000696E61727920706172616D6574657273AC
:100DD0002E200A2020202053796E7461783A20203A
:100DE000572B3C6F66667365743E2B3C6E6577626D
:100DF0007974653E0A74202D205365742063616CFC
:100E00006962726174696F6E2076616C7565732EAC
:100E10002020457870656374732062696E61727911
:100E200020706172616D65746572732E202054614B
:100E3000626C6520696E64657820697320656974E9
:100E400068657220302C200A20202020312C206F51
:100E50007220322E202053796E7461783A202074EB
:100E60002B3C74626C655F6964783E2B3C6E6577E1
:100E700056616C7565313E2B3C6E657756616C75BD
:100E800065323E2B3C6E657756616C75654E3E0A49
:100E90005A202D20446973706C61792063616C69FC
:100EA00062726174696F6E2076616C7565730A5445
:100EB000202D20446973706C61797320323536209F
:100EC000746F6F7468206C6F6720656E74726965EB
:100ED0007320696E2062696E6172790A72202D201A
:100EE000446973706C6179732032353620746F6F8A
:100EF0007468206C6F6720656E74726965730A553B
:100F0000202D205072657061726520666F722066B8
:100F100069726D77617265207570646174652E20E9
:100F2000546865206E6578742062797465207265F6
:100F30006365697665642077696C6C20636175739D
:100F400065207468652041726475696E6F20746FE6
:100F50002072657365742E0A3F202D2044697370DA
:100F60006C61797320746869732068656C70207097
:100F7000616765002C2000575545004F3200496ECF
:100F80006C65742074656D7000436F6F6C616E7476
:100F900000526573657420636F6E74726F6C2069A4
:100FA000732063757272656E746C79206469736105
:100FB000626C65642E00436F6D6D732068616C74A4
:100FC00065642E204E657874206279746520776997
:100FD0006C6C20726573657420746865204172645E
:100FE00075696E6F2E00537065656475696E6F204C
:100FF0003230323230372E32007370656564756975
:101000006E6F20323032323037004552523B204929
:101010006E636F727265637420454550524F4D2068
:1010200073697A65003030310020002000200020F4
:1010300000202020200000008000200120018000EE
:1010400020018000F0008001C000C0002001C0002D
:10105000800020010001040E11191B20292B2D2FC7
:1010600031333537393B3D3F414345474B4D4F5178
:101070005557595D61666D77537065656475696E26
:101080006F00537065656475696E6F203230313959
:101090002E30382D73657200537065656475696E06
:1010A0006F2063737830323031392E3800000020E1
:1010B000002300260029002C002F00320000010030
:1010C0000003010601090100002100240027002A75
:1010D000002D003000330001010000040107010A67
:1010E0000100002200250028002B002E00310034D2
:1010F0000002010000050108010B010505050507B7
:101100000508080808020202020A0A080804040482
:1011100004010101010101010103030303030303AE
:1011200003040707070C0C0C0C0C0C0C0C0202023D
:101130000206060606060606060B0B0B0B0B0B0B30
:101140000B010210202008081020401020408002CF
:1011500001020108040201010204081020408080FD
:101160004020100804020180040201804020100881
:101170000402010804020101020408102040800159
:101180000204081020408000000A0B02090C0D0E1A
:101190000807030401000000000000000000000038
:1011A000000000000000000000000000000000003F
:1011B00000000012111000000000000000000000FC
:1011C000000000000000000000000000000000001F
:1011D00000963007772C610EEEBA51099919C46D4B
:1011E000078FF46A7035A563E9A395649E3288DBA6
:1011F0000EA4B8DC791EE9D5E088D9D2972B4CB67D
:1012000009BD7CB17E072DB8E7911DBF906410B772
:101210001DF220B06A4871B9F3DE41BE847DD4DA94
:101220001AEBE4DD6D51B5D4F4C785D38356986CC1
:1012300013C0A86B647AF962FDECC9658A4F5C0142
:1012400014D96C0663633D0FFAF50D088DC8206E46
:101250003B5E10694CE44160D5727167A2D1E40332
:101260003C47D4044BFD850DD26BB50AA5FAA8B551
:10127000356C98B242D6C9BBDB40F9BCACE36CD844
:1012800032755CDF45CF0DD6DC593DD1ABAC30D9E2
:10129000263A00DE518051D7C81661D0BFB5F4B4EC
:1012A0002123C4B3569995BACF0FA5BDB89EB802F5
:1012B000280888055FB2D90CC624E90BB1877C6F7A
:1012C0002F114C6858AB1D61C13D2D66B69041DCB5
:1012D000760671DB01BC20D2982A10D5EF8985B142
:1012E000711FB5B606A5E4BF9F33D4B8E8A2C907FD
:1012F0007834F9000F8EA8099618980EE1BB0D6A94
:101300007F2D3D6D08976C6491015C63E6F4516B31
:101310006B62616C1CD83065854E0062F2ED9506FB
:101320006C7BA5011BC1F4088257C40FF5C6D9B068
:101330006550E9B712EAB8BE8B7C88B9FCDF1DDDC9
:1013400062492DDA15F37CD38C654CD4FB5861B21D
:101350004DCE51B53A7400BCA3E230BBD441A5DFF9
:101360004AD795D83D6DC4D1A4FBF4D6D36AE969B8
:1013700043FCD96E34468867ADD0B860DA732D046B
:1013800044E51D03335F4C0AAAC97C0DDD3C7105A1
:1013900050AA41022710100BBE86200CC925B56843
:1013A00057B3856F2009D466B99FE461CE0EF9DE8C
:1013B0005E98C9D9292298D0B0B4A8D7C7173DB331
:1013C00059810DB42E3B5CBDB7AD6CBAC02083B85B
:1013D000EDB6B3BF9A0CE2B6039AD2B1743947D5D1
:1013E000EAAF77D29D1526DB048316DC73120B63FC
:1013F000E3843B64943E6A6D0DA85A6A7A0BCF0E63
:10140000E49DFF099327AE000AB19E077D44930F28
:10141000F0D2A3088768F2011EFEC206695D57621A
:10142000F7CB67658071366C19E7066B6E761BD457
:10143000FEE02BD3895A7ADA10CC4ADD676FDFB928
:10144000F9F9EFBE8E43BEB717D58EB060E8A3D6CC
:10145000D67E93D1A1C4C2D83852F2DF4FF167BB18
:10146000D16757BCA6DD06B53F4B36B248DA2B0D27
:10147000D84C1B0AAFF64A0336607A0441C3EF60CA
:10148000DF55DF67A8EF8E6E3179BE69468CB36198
:10149000CB1A8366BCA0D26F2536E2685295770CD2
:1014A000CC03470BBBB91602222F260555BE3BBA0B
:1014B000C5280BBDB2925AB42B046AB35CA7FFD700
:1014C000C231CFD0B58B9ED92C1DAEDE5BB0C264CD
:1014D0009B26F263EC9CA36A750A936D02A9060928
:1014E0009C3F360EEB8567077213570005824ABF93
:1014F00095147AB8E2AE2BB17B381BB60C9B8ED21A
:10150000920DBED5E5B7EFDC7C21DFDB0BD4D2D367
:101510008642E2D4F1F8B3DD686E83DA1FCD16BEE1
:10152000815B26B9F6E177B06F7747B718E65A08BE
:1015300088706A0FFFCA3B06665C0B0111FF9E654F
:101540008F69AE62F8D3FF6B6145CF6C1678E20A03
:10155000A0EED20DD75483044EC2B303396126677F
:10156000A7F71660D04D476949DB776E3E4A6AD1CE
:10157000AEDC5AD6D9660BDF40F03BD83753AEBC51
:10158000A9C59EBBDE7FCFB247E9FFB5301CF2BDD7
:10159000BD8AC2BACA3093B353A6A3B4240536D0C9
:1015A000BA9306D7CD2957DE54BF67D9232E7A6662
:1015B000B3B84A61C4021B685D942B6F2A37BE0B17
:1015C000B4A18E0CC31BDF055A8DEF022D00000065
:1015D0000041311B1982623632C3532D2B04C56C76
:1015E0006445F4777D86A75A56C796414F088AD935
:1015F000C849BBC2D18AE8EFFACBD9F4E30C4FB5A6
:10160000AC4D7EAEB58E2D839ECF1C98875112C2F5
:101610004A1023D953D370F4789241EF6155D7AE75
:101620002E14E6B537D7B5981C9684830559981BB8
:101630008218A9009BDBFA2DB09ACB36A95D5D77A5
:10164000E61C6C6CFFDF3F41D49E0E5ACDA2248471
:1016500095E3159F8C2046B2A76177A9BEA6E1E865
:10166000F1E7D0F3E82483DEC365B2C5DAAAAE5D44
:101670005DEB9F464428CC6B6F69FD7076AE6B3195
:1016800039EF5A2A202C09070B6D381C12F3364605
:10169000DFB2075DC6715470ED30656BF4F7F32A65
:1016A000BBB6C231A275911C8934A00790FBBC9FC8
:1016B00017BA8D840E79DEA92538EFB23CFF79F395
:1016C00073BE48E86A7D1BC5413C2ADE58054F7948
:1016D000F0447E62E9872D4FC2C61C54DB018A1597
:1016E0009440BB0E8D83E823A6C2D938BF0DC5A098
:1016F000384CF4BB218FA7960ACE968D130900CCE7
:101700005C4831D7458B62FA6ECA53E177545DBBB2
:10171000BA156CA0A3D63F8D88970E96915098D796
:10172000DE11A9CCC7D2FAE1EC93CBFAF55CD76213
:10173000721DE6796BDEB554409F844F5958120EE6
:10174000161923150FDA7038249B41233DA76BFD32
:1017500065E65AE67C2509CB576438D04EA3AE9196
:1017600001E29F8A1821CCA73360FDBC2AAFE12497
:10177000ADEED03FB42D83129F6CB20986AB2448E6
:10178000C9EA1553D029467EFB687765E2F6793FB2
:101790002FB7482436741B091D352A1204F2BC5396
:1017A0004BB38D485270DE657931EF7E60FEF3E613
:1017B000E7BFC2FDFE7C91D0D53DA0CBCCFA368AE6
:1017C00083BB07919A7854BCB13965A7A84B98831D
:1017D0003B0AA99822C9FAB50988CBAE104F5DEF34
:1017E0005F0E6CF446CD3FD96D8C0EC27443125A15
:1017F000F3022341EAC1706CC1804177D847D736E4
:101800009706E62D8EC5B500A584841BBC1A8A41B7
:10181000715BBB5A6898E87743D9D96C5A1E4F2D33
:10182000155F7E360C9C2D1B27DD1C003E12009898
:10183000B9533183A09062AE8BD153B59216C5F4E3
:10184000DD57F4EFC494A7C2EFD596D9F6E9BC07EB
:10185000AEA88D1CB76BDE319C2AEF2A85ED796B23
:10186000CAAC4870D36F1B5DF82E2A46E1E136DE24
:1018700066A007C57F6354E8542265F34DE5F3B2D3
:1018800002A4C2A91B6791843026A09F29B8AEC5C7
:10189000E4F99FDEFD3ACCF3D67BFDE8CFBC6BA923
:1018A00080FD5AB2993E099FB27F3884ABB0241CA8
:1018B0002CF115073532462A1E73773107B4E170D3
:1018C00048F5D06B513683467A77B25D634ED7FACE
:1018D000CB0FE6E1D2CCB5CCF98D84D7E04A129695
:1018E000AF0B238DB6C870A09D8941BB84465D2394
:1018F00003076C381AC43F1531850E0E2842984FE5
:101900006703A9547EC0FA795581CB624C1FC53854
:10191000815EF423989DA70EB3DC9615AA1B005494
:10192000E55A314FFC996262D7D85379CE174FE10F
:1019300049567EFA50952DD77BD41CCC62138A8DE4
:101940002D52BB963491E8BB1FD0D9A006ECF37E94
:101950005EADC265476E91486C2FA05375E8361294
:101960003AA90709236A5424082B653F11E479A793
:1019700096A548BC8F661B91A4272A8ABDE0BCCBE4
:10198000F2A18DD0EB62DEFDC023EFE6D9BDE1BC54
:1019900014FCD0A70D3F838A267EB2913FB924D094
:1019A00070F815CB693B46E6427A77FD5BB56B650F
:1019B000DCF45A7EC5370953EE763848F7B1AE09E4
:1019C000B8F09F12A133CC3F8A72FD24930000002F
:1019D00000376AC2016ED4840359BE4602DCA809EE
:1019E00007EBC2CB06B27C8D0485164F05B85113A8
:1019F0000E8F3BD10FD685970DE1EF550C64F91A88
:101A0000095393D8080A2D9E0A3D475C0B70A32604
:101A10001C47C9E41D1E77A21F291D601EAC0B2F99
:101A20001B9B61ED1AC2DFAB18F5B56919C8F23519
:101A300012FF98F713A626B111914C7310145A3C5B
:101A4000152330FE147A8EB8164DE47A17E0464D11
:101A500038D72C8F398E92C93BB9F80B3A3CEE44FB
:101A60003F0B84863E523AC03C6550023D58175E9B
:101A7000366F7D9C3736C3DA3501A9183484BF57D9
:101A800031B3D59530EA6BD332DD01113390E56B7C
:101A900024A78FA925FE31EF27C95B2D264C4D6267
:101AA000237B27A0222299E62015F3242128B4784D
:101AB0002A1FDEBA2B4660FC29710A3E28F41C71ED
:101AC0002DC376B32C9AC8F52EADA2372FC08D9AB0
:101AD00070F7E75871AE591E739933DC721C259369
:101AE000772B4F517672F11774459BD57578DC8949
:101AF0007E4FB64B7F16080D7D2162CF7CA474808B
:101B000079931E4278CAA0047AFDCAC67BB02EBC67
:101B10006C87447E6DDEFA386FE990FA6E6C86B59C
:101B20006B5BEC776A025231683538F369087FAF36
:101B3000623F156D6366AB2B6151C1E960D4D7A6D6
:101B400065E3BD6464BA0322668D69E06720CBD784
:101B50004817A115494E1F534B7975914AFC63DE16
:101B60004FCB091C4E92B75A4CA5DD984D989AC49C
:101B700046AFF00647F64E4045C12482444432CD7C
:101B80004173580F402AE649421D8C8B435068F13F
:101B900054670233553EBC755709D6B7568CC0F80A
:101BA00053BBAA3A52E2147C50D57EBE51E839E2CA
:101BB0005ADF53205B86ED6659B187A4583491EB08
:101BC0005D03FB295C5A456F5E6D2FAD5F801B3551
:101BD000E1B771F7E0EECFB1E2D9A573E35CB33CB6
:101BE000E66BD9FEE73267B8E5050D7AE4384A2698
:101BF000EF0F20E4EE569EA2EC61F460EDE4E22FDC
:101C0000E8D388EDE98A36ABEBBD5C69EAF0B8133E
:101C1000FDC7D2D1FC9E6C97FEA90655FF2C101A69
:101C2000FA1B7AD8FB42C49EF975AE5CF848E9000D
:101C3000F37F83C2F2263D84F0115746F1944109A7
:101C4000F4A32BCBF5FA958DF7CDFF4FF6605D78B9
:101C5000D95737BAD80E89FCDA39E33EDBBCF571C7
:101C6000DE8B9FB3DFD221F5DDE54B37DCD80C6B83
:101C7000D7EF66A9D6B6D8EFD481B22DD504A46229
:101C8000D033CEA0D16A70E6D35D1A24D210FE5EA6
:101C9000C527949CC47E2ADAC6494018C7CC56573B
:101CA000C2FB3C95C3A282D3C195E811C0A8AF4D39
:101CB000CB9FC58FCAC67BC9C8F1110BC974074435
:101CC000CC436D86CD1AD3C0CF2DB902CE4096AF8E
:101CD0009177FC6D902E422B921928E9939C3EA699
:101CE00096AB546497F2EA2295C580E094F8C7BC9D
:101CF0009FCFAD7E9E9613389CA179FA9D246FB537
:101D000098130577994ABB319B7DD1F39A30358979
:101D10008D075F4B8C5EE10D8E698BCF8FEC9D80C4
:101D20008ADBF7428B82490489B523C68888649A86
:101D300083BF0E5882E6B01E80D1DADC8154CC938A
:101D40008463A651853A1817870D72D586A0D0E214
:101D5000A997BA20A8CE0466AAF96EA4AB7C78EB4A
:101D6000AE4B1229AF12AC6FAD25C6ADAC1881F1E8
:101D7000A72FEB33A6765575A4413FB7A5C429F824
:101D8000A0F3433AA1AAFD7CA39D97BEA2D073C441
:101D9000B5E71906B4BEA740B689CD82B70CDBCD36
:101DA000B23BB10FB3620F49B155658BB06822D712
:101DB000BB5F4815BA06F653B8319C91B9B48ADEB8
:101DC000BC83E01CBDDA5E5ABFED3498BE00000053
:101DD000006567BCB88BC809AAEEAFB51257976209
:101DE0008F32F0DE37DC5F6B25B938D79DEF28B432
:101DF000C58A4F087D64E0BD6F018701D7B8BFD6A3
:101E00004ADDD86AF23377DFE0561063589F5719DE
:101E100050FA30A5E8149F10FA71F8AC42C8C07BA4
:101E2000DFADA7C76743087275266FCECD707FAD53
:101E3000951518112DFBB7A43F9ED0188727E8CF22
:101E40001A428F73A2AC20C6B0C9477A083EAF329F
:101E5000A05BC88E18B5673B0AD00087B2693850BE
:101E60002F0C5FEC97E2F059858797E53DD1878687
:101E700065B4E03ADD5A4F8FCF3F2833778610E4C0
:101E8000EAE37758520DD8ED4068BF51F8A1F82B1E
:101E9000F0C49F97482A30225A4F579EE2F66F4966
:101EA0007F9308F5C77DA740D518C0FC6D4ED09F25
:101EB000352BB7238DC518969FA07F2A271947FD7C
:101EC000BA7C204102928FF410F7E848A83D5814DC
:101ED0009B583FA823B6901D31D3F7A1896ACF76CE
:101EE000140FA8CAACE1077FBE8460C306D270A0FD
:101EF0005EB7171CE659B8A9F43CDF154C85E7C25C
:101F0000D1E0807E690E2FCB7B6B4877C3A20F0D8B
:101F1000CBC768B17329C704614CA0B8D9F5986FD5
:101F20004490FFD3FC7E5066EE1B37DA564D27B93E
:101F30000E284005B6C6EFB0A4A3880C1C1AB0DB6F
:101F4000817FD767399178D22BF41F6E9303F726E0
:101F50003B66909A83883F2F91ED589329546044B3
:101F6000B43107F80CDFA84D1EBACFF1A6ECDF9212
:101F7000FE89B82E4667179B54027027ECBB48F0C9
:101F800071DE2F4CC93080F9DB55E745639CA03FDB
:101F90006BF9C783D3176836C1720F8A79CB375D67
:101FA000E4AE50E15C40FF544E2598E8F673888B10
:101FB000AE16EF3716F84082049D273EBC241FE979
:101FC0002141785599AFD7E08BCAB05C333BB65905
:101FD000ED5ED1E555B07E5047D519ECFF6C213B45
:101FE00062094687DAE7E932C8828E8E70D49EEDA8
:101FF00028B1F951905F56E4823A31583A83098FFB
:10200000A7E66E331F08C1860D6DA63AB5A4E14060
:10201000BDC186FC052F2949174A4EF5AFF376223C
:102020003296119E8A78BE2B981DD997204BC9F401
:10203000782EAE48C0C001FDD2A566416A1C5E96EE
:10204000F779392A4F97969F5DF2F123E505196BD1
:102050004D607ED7F58ED162E7EBB6DE5F528E091A
:10206000C237E9B57AD9460068BC21BCD0EA31DF75
:10207000888F56633061F9D622049E6A9ABDA6BD48
:1020800007D8C101BF366EB4AD530908159A4E7218
:102090001DFF29CEA511867BB774E1C70FCDD910DE
:1020A00092A8BEAC2A461119382376A5807566C65B
:1020B000D810017A60FEAECF729BC973CA22F1A418
:1020C00057479618EFA939ADFDCC5E114506EE4D88
:1020D000766389F1CE8D2644DCE841F86451792F8E
:1020E000F9341E9341DAB12653BFD69AEBE9C6F90B
:1020F000B38CA1450B620EF01907694CA1BE519B30
:102100003CDB3627843599929650FE2E2E99B95491
:1021100026FCDEE89E12715D8C7716E134CE2E36F9
:10212000A9AB498A1145E63F03208183BB7691E044
:10213000E313F65C5BFD59E949983E55F1210682AF
:102140006C44613ED4AACE8BC6CFA9377E38417F7E
:10215000D65D26C36EB389767CD6EECAC46FD61D13
:10216000590AB1A1E1E41E14F38179A84BD769CBD8
:1021700013B20E77AB5CA1C2B939C67E0180FEA94D
:102180009CE59915240B36A0366E511C8EA7166659
:1021900086C271DA3E2CDE6F2C49B9D394F08104EB
:1021A0000995E6B8B17B490DA31E2EB11B483ED25E
:1021B000432D596EFBC3F6DBE9A69167511FA9B009
:1021C000CC7ACE0C749461B966F10605DE00B004D9
:1021D00011241FBECFEFD1E2DEBFCDBF00E00CBFA8
:1021E00012E0A0E0B2E0E0EAF3E303E00BBF02C0DC
:1021F00007900D92AE39B107D9F720E2AEE9B2E00F
:1022000001C01D92A833B207E1F710E1C8EED0E19A
:1022100000E006C021970109802FFE010F9430983D
:10222000C73ED10780E00807A9F70F949D5D0D9484
:10223000CE990C9400009091E81E8091481D8C71FD
:102240008C3071F19A30BCF41916A4F421E030E01E
:10225000309366032093650343E050E0509364039A
:1022600040936303309362032093610350936003B0
:1022700040935F03089564E070E070936603609399
:102280006503A2E0B0E0B0936403A093630370938E
:10229000620360936103B0936003A0935F030895AA
:1022A0009A30DCF4191634F7E1E0F0E0F0936603BD
:1022B000E093650383E090E090936403809363036D
:1022C00025E030E0309362032093610347E050E063
:1022D0005093600340935F03089568E070E070934B
:1022E000660360936503A2E0B0E0B0936403A0933B
:1022F0006303E4E0F0E0F0936203E093610386E0BF
:1023000090E09093600380935F0308958F929F9273
:10231000AF92BF92CF92DF92EF92FF92CF93DF9373
:102320002091B61E3091B71E80914F1F9091501F83
:102330002817390708F037C1A090B51EAA2009F464
:102340008EC0A0907F0CB090800CC090810CD0907B
:10235000820CAB28AC28AD2809F4F0C0C0907B0CEF
:10236000D0907C0CE0907D0CF0907E0CCD28CE2897
:10237000CF2809F4E3C0F8948090790C90907A0CFF
:1023800080917F0C9091800CA091810CB091820C77
:1023900040917B0C50917C0C60917D0C70917E0C77
:1023A000841B950BA60BB70B78946C017D01CC0CAC
:1023B000DD1CEE1CFF1CCC0CDD1CEE1CFF1CCC0C31
:1023C000DD1CEE1CFF1C8C0D9D1DAE1DBF1D6C0188
:1023D0007D01CC0CDD1CEE1CFF1CCC0CDD1CEE1CAE
:1023E000FF1C092C000CAA08BB08A501940160E899
:1023F0007DE88BE590E00F941498A70196010F9467
:10240000AA97E901D701C601880F991FAA1FBB1F10
:10241000880F991FAA1FBB1FC80ED91EEA1EFB1EDC
:10242000C701B601660F771F881F991FA501940188
:102430000F94AA972093840C3093850C4093860CBC
:102440005093870C8BE498E9A5E0B0E080931E02DE
:1024500090931F02A0932002B093210271C0B0900C
:10246000B51EBB2009F478C04091231F5091241F52
:102470006091251F7091261F452B462B472B09F491
:102480006FC06091B3047091B4048091B5049091D1
:10249000B604672B682B692B09F462C02091AF0446
:1024A0003091B0044091B1045091B204232B242BFD
:1024B000252B09F455C0F8948091B3049091B4048D
:1024C000A091B504B091B6048090AF049090B00490
:1024D000A090B104B090B20488199909AA09BB0967
:1024E0008093840C9093850CA093860CB093870CFA
:1024F0007894C090840CD090850CE090860CF0907D
:10250000870CF694E794D794C794C092840CD09229
:10251000850CE092860CF092870C60E077E883E906
:1025200093E0A70196010F94AA97E901203536445C
:1025300008F1C091B61ED091B71E1CC0D0E0C0E01B
:10254000CE01DF91CF91FF90EF90DF90CF90BF90C1
:10255000AF909F908F900895C090511FC4FC84CF7E
:10256000C090840CD090850CE090860CF090870C85
:10257000D0E0C0E0CC0CDD1CEE1CFF1C8BE4C816C8
:1025800088E9D80685E0E806F104B0F44BE458E9A0
:1025900065E070E040931E0250931F02609320029A
:1025A00070932102CDCF8090B51E81106ACF90909C
:1025B000511F94FC66CFD4CFC0921E02D0921F024E
:1025C000E0922002F0922102BBCF0F942D5D609328
:1025D0005B0370935C0380935D0390935E03809133
:1025E0005B0390915C03A0915D03B0915E03409109
:1025F0001C0C50911D0C60911E0C70911F0C841BC3
:10260000950BA60BB70B80936F0390937003A09369
:102610007103B09372032091051F21FD4AC03091D0
:10262000B51E332309F445C040916F0350917003E8
:1026300060917103709172038091E8049091E904B4
:10264000A091EA04B091EB04481759076A077B0789
:1026500078F120915B0330915C0340915D035091D0
:102660005E0320931C0C30931D0C40931E0C509362
:102670001F0C60916F0370917003809171039091B2
:102680007203609367037093680380936903909368
:102690006A03A091190CB0911A0C1196B0931A0C00
:1026A000A093190CE0914F0BF091500B319771F002
:1026B00008956CED75E080E090E06093EC04709319
:1026C000ED048093EE049093EF04AECF40915B0352
:1026D00050915C0360915D0370915E0380917F0C6B
:1026E0009091800CA091810CB091820C8417950779
:1026F000A607B707E8F680915B0390915C03A09171
:102700005D03B0915E0320917F0C3091800C40916D
:10271000810C5091820C821B930BA40BB50B809300
:10272000300690933106A0933206B0933306089595
:10273000089508958091B51E811104C02091511F04
:1027400024FF67C04091B61E5091B71E60914F1F85
:102750007091501F4617570768F48091231F90917E
:10276000241FA091251FB091261F892B8A2B8B2B0C
:1027700009F44FC02091B3043091B4044091B504E2
:102780005091B604232B242B252B09F442C04091F1
:10279000AF045091B0046091B1047091B204452B24
:1027A000462B472BB1F1F8948091B3049091B40477
:1027B000A091B504B091B6042091AF043091B0045B
:1027C0004091B1045091B204821B930BA40BB50B42
:1027D0008093840C9093850CA093860CB093870C07
:1027E00078942091840C3091850C4091860C509106
:1027F000870C60E077E883E993E00F94AA97C9011A
:10280000803526E4920738F08091B61E9091B71E6D
:10281000089590E080E00895089580916B03909171
:102820006C03A0916D03B0916E0380936703909346
:102830006803A0936903B0936A030F942D5D6093BE
:102840007303709374038093750390937603809160
:10285000730390917403A0917503B0917603409136
:102860007F0C5091800C6091810C7091820C841BC4
:10287000950BA60BB70B80936B0390936C03A093FF
:102880006D03B0936E03A0914F0BB091500B119656
:10289000B093500BA0934F0B21E02093E70460917D
:1028A0004F0B7091500B6D30710509F459C0E091D8
:1028B0004F0BF091500B319709F45CC08091670386
:1028C00090916803A0916903B0916A03B695A795AA
:1028D000979587958093520390935303A093540345
:1028E000B093550340916B0350916C0360916D035D
:1028F00070916E038091520390915303A091540301
:10290000B0915503481759076A077B0708F12091D2
:102910007F0C3091800C4091810C5091820C20935F
:102920007B0C30937C0C40937D0C50937E0C60911B
:102930007303709174038091750390917603609393
:102940007F0C7093800C8093810C9093820C08957F
:102950001092500B10924F0B71E07093B51E0895BA
:102960003091B51E332309F4A2CF1092500B109270
:102970004F0B08955091B51E552309F49FCF4091F8
:10298000B3045091B4046091B5047091B6044093BF
:10299000AF045093B0046093B1047093B20480917B
:1029A000730390917403A0917503B09176038093A3
:1029B000B3049093B404A093B504B093B6042091EB
:1029C000231F3091241F4091251F5091261F2F5FF8
:1029D0003F4F4F4F5F4F2093231F3093241F40934F
:1029E000251F5093261F60917F0C7091800C809161
:1029F000810C9091820C60937B0C70937C0C809383
:102A00007D0C90937E0C4091730350917403609100
:102A100075037091760340937F0C5093800C609304
:102A2000810C7093820C089508958091B51E8111D8
:102A300004C02091511F24FF67C04091B61E5091E1
:102A4000B71E60914F1F7091501F4617570768F4CB
:102A50008091231F9091241FA091251FB091261FC4
:102A6000892B8A2B8B2B09F44FC02091B304309112
:102A7000B4044091B5045091B604232B242B252B8C
:102A800009F442C04091AF045091B0046091B10488
:102A90007091B204452B462B472BB1F1F8948091ED
:102AA000B3049091B404A091B504B091B604209100
:102AB000AF043091B0044091B1045091B204821B34
:102AC000930BA40BB50B8093840C9093850CA0936F
:102AD000860CB093870C78942091840C3091850CEF
:102AE0004091860C5091870C60E077E883E993E091
:102AF0000F94AA97C901803526E4920738F0809197
:102B0000B61E9091B71E089590E080E008958091E0
:102B1000B51E882301F12091421D27FD2AC0409156
:102B2000231F5091241F6091251F7091261F44364A
:102B300051056105710558F460914F0B7091500B70
:102B40006D32710521F01092500B10924F0B91E0F5
:102B500090935A0308951092500B10924F0B51E02E
:102B60005093B51E73E070931B0C91E090935A0341
:102B700008951092500B10924F0B33E030931B0CC2
:102B800091E090935A0308950F942D5D6093730321
:102B9000709374038093750390937603809173030D
:102BA00090917403A0917503B091760340914E0308
:102BB00050914F036091500370915103841B950B0A
:102BC000A60BB70B80936B0390936C03A0936D03DC
:102BD000B0936E0320916B0330916C0340916D03B1
:102BE00050916E036091EC047091ED048091EE04BD
:102BF0009091EF04621773078407950768F080913E
:102C0000231F9091241FA091251FB091261F892B6F
:102C10008A2B8B2B09F0B6C030911B0C3F5F309391
:102C20001B0C5091B51E552309F49CC070911B0CD0
:102C3000733008F4A7C091E09093E70440917303C8
:102C400050917403609175037091760340934E0325
:102C500050934F03609350037093510310921B0CD9
:102C6000A0914F0BB091500B1196B093500BA093C5
:102C70004F0BE0914F0BF091500B319741F02091A9
:102C80004F0B3091500B2E32310508F440C061E0FB
:102C900070E07093500B60934F0B8091B304909150
:102CA000B404A091B504B091B6048093AF0490939E
:102CB000B004A093B104B093B20440917303509157
:102CC000740360917503709176034093B30450933D
:102CD000B4046093B5047093B604B0915A03F1E064
:102CE000BF27B0935A032091231F3091241F409196
:102CF000251F5091261F2F5F3F4F4F4F5F4F20934F
:102D0000231F3093241F4093251F5093261F40916B
:102D10006B0350916C0360916D0370916E03309161
:102D2000481D307639F03032D1F1303409F448C0E2
:102D3000303649F11092EC041092ED041092EE043A
:102D40001092EF0460917F0C7091800C8091810C47
:102D50009091820C60937B0C70937C0C80937D0C23
:102D600090937E0C8091730390917403A0917503EE
:102D7000B091760380937F0C9093800CA093810C8C
:102D8000B093820C0895DB01CA01880F991FAA1F16
:102D9000BB1F840F951FA61FB71FAC01BD01769501
:102DA00067955795479576956795579547954093BD
:102DB000EC045093ED046093EE047093EF04C2CFE3
:102DC00076956795579547954093EC045093ED049D
:102DD0006093EE047093EF04B5CF08958091B51E13
:102DE000811104C02091511F24FF67C04091B61E7D
:102DF0005091B71E60914F1F7091501F4617570793
:102E000068F48091231F9091241FA091251FB091F9
:102E1000261F892B8A2B8B2B09F44FC02091B304DA
:102E20003091B4044091B5045091B604232B242B67
:102E3000252B09F442C04091AF045091B004609139
:102E4000B1047091B204452B462B472BB1F1F89495
:102E50008091B3049091B404A091B504B091B604EC
:102E60002091AF043091B0044091B1045091B2046C
:102E7000821B930BA40BB50B8093840C9093850C51
:102E8000A093860CB093870C78942091840C309199
:102E9000850C4091860C5091870C60E077E883E9BF
:102EA00093E00F94AA97C901803526E4920738F081
:102EB0008091B61E9091B71E089590E080E008952D
:102EC0001092500B10924F0B089580914F0B9091E0
:102ED000500B0D9709F4A7C00F942D5D60937303F9
:102EE00070937403809375039093760380917303BA
:102EF00090917403A0917503B091760340917F0C7B
:102F00005091800C6091810C7091820C841B950B08
:102F1000A60BB70B80936B0390936C03A0936D0388
:102F2000B0936E0320916B0330916C0340916D035D
:102F300050916E036091EC047091ED048091EE0469
:102F40009091EF04261737074807590708F46AC01D
:102F5000A0914F0BB091500BAB2B09F467C0E091DF
:102F60004F0BF091500B3196F093500BE0934F0BB9
:102F7000A0914F0BB091500BE0914F0BF091500B83
:102F8000AA0FBB1FAB54BB4FEE0FFF1FED54FB4FFF
:102F90008D919C9140815181841B950B90937A0C6B
:102FA0008093790C40916B0350916C0360916D0399
:102FB00070916E039091481D907649F0903209F41B
:102FC00085C0903409F493C0903609F473C0109210
:102FD000EC041092ED041092EE041092EF0451E014
:102FE0005093E70420917F0C3091800C4091810C2C
:102FF0005091820C20937B0C30937C0C40937D0C81
:1030000050937E0C609173037091740380917503EB
:103010009091760360937F0C7093800C8093810C69
:103020009093820C08951092B51E089521E030E02F
:103030003093500B20934F0B6091B3047091B40404
:103040008091B5049091B6046093AF047093B0047E
:103050008093B1049093B2048091730390917403B0
:10306000A0917503B09176038093B3049093B40458
:10307000A093B504B093B60431E03093B51E4091EF
:10308000231F5091241F6091251F7091261F4F5FB1
:103090005F4F6F4F7F4F4093231F5093241F6093C8
:1030A000251F7093261FACE3B0E0B0937A0CA09379
:1030B000790C78CFDB01CA01880F991FAA1FBB1FAB
:1030C000840F951FA61FB71FAC01BD0176956795AC
:1030D0005795479576956795579547954093EC0496
:1030E0005093ED046093EE047093EF0478CF7695DF
:1030F0006795579547954093EC045093ED04609382
:10310000EE047093EF046BCF8091B51E811104C063
:103110002091511F24FF67C04091B61E5091B71EE9
:1031200060914F1F7091501F4617570768F48091A8
:10313000231F9091241FA091251FB091261F892B3A
:103140008A2B8B2B09F44FC02091B3043091B40427
:103150004091B5045091B604232B242B252B09F460
:1031600042C04091AF045091B0046091B10470919D
:10317000B204452B462B472BB1F1F8948091B30450
:103180009091B404A091B504B091B6042091AF041D
:103190003091B0044091B1045091B204821B930B62
:1031A000A40BB50B8093840C9093850CA093860C94
:1031B000B093870C78942091840C3091850C4091C9
:1031C000860C5091870C60E077E883E993E00F94D8
:1031D000AA97C901803526E4920738F08091B61E7F
:1031E0009091B71E089590E080E008951092500BE2
:1031F00010924F0B81E080935A03089580914F0BFA
:103200009091500B499709F4ACC00F942D5D6093D9
:103210007303709374038093750390937603809186
:10322000730390917403A0917503B091760340915C
:103230007F0C5091800C6091810C7091820C841BEA
:10324000950BA60BB70B80936B0390936C03A09325
:103250006D03B0936E03A0914F0BB091500BAB2B4D
:10326000B9F1E0914F0BF091500B3196F093500B68
:10327000E0934F0BA0914F0BB091500BE0914F0B8F
:10328000F091500BAA0FBB1FAB54BB4FEE0FFF1FAB
:10329000ED54FB4F6D917C9120813181621B730B4A
:1032A00070937A0C6093790C51E05093E70480910D
:1032B000730390917403A0917503B091760380938A
:1032C0007F0C9093800CA093810CB093820C089596
:1032D00081E090E09093500B80934F0B4091B304AA
:1032E0005091B4046091B5047091B6044093AF045A
:1032F0005093B0046093B1047093B204609173036F
:103300007091740380917503909176036093B30478
:103310007093B4048093B5049093B60430915A032B
:1033200091E0392730935A039093B51E2091231FC3
:103330003091241F4091251F5091261F2F5F3F4F32
:103340004F4F5F4F2093231F3093241F4093251F1F
:103350005093261FAFE0B0E0B0937A0CA093790CA5
:10336000A3CF1092B51E08958091A70E807F803460
:10337000F1F08036D9F42091481D2C712C3089F160
:1033800046E050E0509366034093650362E070E0CE
:103390007093640360936303A4E0B0E0B0936203AE
:1033A000A09361037093600360935F03089530916D
:1033B000481D3C713C30A9F0E4E0F0E0F093660376
:1033C000E093650382E090E090936403809363034D
:1033D000F0936203E09361039093600380935F0333
:1033E000089528E030E0309366032093650342E0BF
:1033F00050E0509364034093630364E070E0709383
:10340000620360936103A6E0B0E0B0936003A09311
:103410005F0308958091B51E0F942D5D60935B034B
:1034200070935C0380935D0390935E0380915B03D4
:1034300090915C03A0915D03B0915E0340911C0CE0
:1034400050911D0C60911E0C70911F0C841B950BEC
:10345000A60BB70B80936F0390937003A093710337
:10346000B093720320916F03309170034091710308
:10347000509172036091E8047091E9048091EA042C
:103480009091EB04261737074807590708F471C0D5
:1034900080915B0390915C03A0915D03B0915E030A
:1034A00080931C0C90931D0CA0931E0CB0931F0CCA
:1034B00051E05093E70460916F0370917003809125
:1034C00071039091720396958795779567956093B0
:1034D000E8047093E9048093EA049093EB0430913C
:1034E000B51E311132C08CED95E0A0E0B0E08093C4
:1034F000EC049093ED04A093EE04B093EF0460917C
:10350000E8047091E9048091EA049091EB049695A7
:103510008795779567956093E8047093E9048093A5
:10352000EA049093EB04E091A504F091A604908145
:103530007091A404A091A70EA07F972301F1A0345D
:1035400009F453C0A03609F448C04091B61E50910A
:10355000B71EE0914F1FF091501F4E175F0750F4B8
:10356000F091B51EFF2329F05091A70E507F5034E3
:1035700091F00895B091421DB7FDF2CF0895A034A7
:1035800021F720914F0B3091500B25303105E9F692
:103590005093B51EDACF0F942D5D80914A03909120
:1035A0004B03A0914C03B0914D03E091A504F09121
:1035B000A60430819091A4043923D9F2A0914F0B35
:1035C000B091500BA830B105C9F01092B51E7091A2
:1035D000601F7F5F7093601F089580914F0B9091E3
:1035E000500B079709F0B1CFD3CF60914F0B70917B
:1035F000500B6830710509F0A8CFCACFB093500BBB
:10360000A0934F0B08958091E81E82319CF026E034
:1036100030E0309366032093650341E050E050931F
:1036200064034093630364E070E07093620360930B
:1036300061030895A7E0B0E0B0936603A09365032B
:10364000E2E0F0E0F0936403E093630385E090E050
:10365000909362038093610308958091B51E811158
:1036600004C02091511F24FF67C04091B61E5091A5
:10367000B71E60914F1F7091501F4617570768F48F
:103680008091231F9091241FA091251FB091261F88
:10369000892B8A2B8B2B09F44FC02091B3043091D6
:1036A000B4044091B5045091B604232B242B252B50
:1036B00009F442C04091AF045091B0046091B1044C
:1036C0007091B204452B462B472BB1F1F8948091B1
:1036D000B3049091B404A091B504B091B6042091C4
:1036E000AF043091B0044091B1045091B204821BF8
:1036F000930BA40BB50B8093840C9093850CA09333
:10370000860CB093870C78942091840C3091850CB2
:103710004091860C5091870C60E077E883E993E054
:103720000F94AA97C901803526E4920738F080915A
:10373000B61E9091B71E089590E080E008958091A4
:103740009F0B9091A00B20913C1D30913D1D821B41
:10375000930B4091190250911A0284179507F4F1C6
:10376000841B950B3091A70E32953F70343009F4CD
:103770003FC0353008F44DC0363009F44CC0383005
:1037800009F0A2C0BC016B5571096A35710508F4D6
:103790006FC0DC01A55BB109AA35B10508F4A8C06A
:1037A00001978E30914008F0BCC0E1E0F0E0F0936A
:1037B0006603E093650382E090E090936403809356
:1037C000630323E030E0309362032093610344E01D
:1037D00050E05093600340935F03089597FFC2CF7A
:1037E000840F951F3091A70E32953F70343009F643
:1037F0000197843B910578F162E070E07093660375
:1038000060936503A1E0B0E0B0936403A093630309
:1038100008953330F9F4BC016957710968377105AF
:1038200008F43FC00197803F910508F44EC023E0A3
:1038300030E0309366032093650341E050E05093FD
:1038400064034093630362E070E0709362036093EB
:1038500061030895089521E030E0309366032093DA
:10386000650342E050E0509364034093630308957E
:10387000E2E0F0E0F0936603E093650383E090E01C
:10388000909364038093630324E030E030936203F9
:103890002093610341E050E05093600340935F0345
:1038A0000895A2E0B0E0B0936603A0936503E3E05F
:1038B000F0E0F0936403E093630381E090E0909381
:1038C00062038093610308950895A1E0B0E0B0938E
:1038D0006603A0936503E2E0F0E0F0936403E093F5
:1038E000630383E090E09093620380936103089503
:1038F00023E030E0309366032093650344E050E01A
:10390000509364034093630361E070E0709362033B
:1039100060936103A2E0B0E0B0936003A0935F0303
:10392000089564E070E07093660360936503A1E01E
:10393000B0E0B0936403A0936303E2E0F0E0F0939F
:103940006203E093610383E090E0909360038093CF
:103950005F030895CF92DF92EF92FF922091B61EFF
:103960003091B71E80914F1F9091501F2817390733
:1039700008F096C0C090231FD090241FE090251F10
:10398000F090261F8091471D90E0B0E0A0E0C8169F
:10399000D906EA06FB0608F45AC0E090B51EEE20F0
:1039A00009F451C040917F0C5091800C6091810CC2
:1039B0007091820C452B462B472B09F448C060912F
:1039C0007B0C70917C0C80917D0C90917E0C672B10
:1039D000682B692BE1F120917F0C3091800C409194
:1039E000810C5091820C80917B0C90917C0CA09169
:1039F0007D0CB0917E0C82179307A407B50738F5AC
:103A0000A091A904F89420917F0C3091800C4091F2
:103A1000810C5091820CC0907B0CD0907C0CE0907B
:103A20007D0CF0907E0C2C193D094E095F09B0E029
:103A30000F94F2976093840C7093850C8093860C9E
:103A40009093870C68C0F090511FF4FCABCFC090EE
:103A5000840CD090850CE090860CF090870C30E0C0
:103A600020E0CC0CDD1CEE1CFF1C8BE4C81688E9A2
:103A7000D80685E0E806F10408F079C04BE458E97F
:103A800065E070E040931E0250931F026093200295
:103A900070932102C901FF90EF90DF90CF900895BD
:103AA000C090B51ECC2009F45DC04091B304509184
:103AB000B4046091B5047091B604452B462B472B96
:103AC00031F26091AF047091B0048091B104909193
:103AD000B204672B682B692B09F4B9CFF894809155
:103AE000B3049091B404A091B504B091B6042091B0
:103AF000AF043091B0044091B1045091B204821BE4
:103B0000930BA40BB50B8093840C9093850CA0931E
:103B1000860CB093870C7894C090840CD090850C60
:103B2000E090860CF090870CF694E794D794C794B5
:103B3000C092840CD092850CE092860CF092870C97
:103B400060E077E883E993E0A70196010F94AA97D4
:103B5000203586E4380708F484CF2091B61E3091D2
:103B6000B71E7FCFD090511FD4FC9FCF70CFC09293
:103B70001E02D0921F02E0922002F0922102C9019F
:103B8000FF90EF90DF90CF90089520914B1D30E093
:103B90008091481D8C718C3009F479C0E0913C1DF6
:103BA000F0913D1D6091790C70917A0C80919F0B82
:103BB0009091A00B8E1B9F0B0F94639726173707CE
:103BC0000CF047C0621B730B709366036093650330
:103BD0006091790C70917A0C80916C0B90916D0BC7
:103BE0008E1B9F0B0F946397261737070CF048C066
:103BF000621B730B70936403609363036091790C91
:103C000070917A0C80916A0B90916B0B8E1B9F0BBD
:103C10000F946397261737076CF5621B730B70932D
:103C20006203609361036091790C70917A0C8091CA
:103C3000660B9091670B8E1B9F0B0F946397261753
:103C4000370774F4621B730B7093600360935F0318
:103C50000895161617060CF4B7CF620F731FB4CF72
:103C6000161617068CF3620F731F70936003609330
:103C70005F0308951616170694F2620F731FCFCFD5
:103C8000161617060CF4B6CF620F731FB3CF409110
:103C9000411D41FD83CF220F331F80CFCF92DF9292
:103CA000EF92FF92CF93DF930F942D5D60935B03B0
:103CB00070935C0380935D0390935E0380915B033C
:103CC00090915C03A0915D03B0915E0340911C0C48
:103CD00050911D0C60911E0C70911F0C841B950B54
:103CE000A60BB70B80936F0390937003A09371039F
:103CF000B0937203C0906F03D0907003E090710393
:103D0000F09072032091E8043091E9044091EA04B4
:103D10005091EB04C216D306E406F50608F465C01C
:103D200080915B0390915C03A0915D03B0915E0371
:103D300080931C0C90931D0CA0931E0CB0931F0C31
:103D400040916F0350917003609171037091720301
:103D500076956795579547957695679557954795C5
:103D60004093E8045093E9046093EA047093EB04F1
:103D7000D090B51EDD2009F453C0C090231FD09011
:103D8000241FE090251FF090261F8091471D90E092
:103D9000B0E0A0E08C159D05AE05BF0508F040C061
:103DA00080914B1D90E0E0904F0BF090500B8E15E2
:103DB0009F0591F02091231F3091241F4091251FD2
:103DC0005091261F233031054105510528F03091CF
:103DD000601F3F5F3093601FF090421DF7FE56C09A
:103DE0009093500B80934F0B51C06091840C709155
:103DF000850C8091860C9091870C96958795779588
:103E000067956093E8047093E9048093EA049093C3
:103E1000EB04DF91CF91FF90EF90DF90CF9008956A
:103E20000F942D5D60937F0C7093800C8093810CB8
:103E30009093820C0F942D5D6B017C01C0914B1D02
:103E40002C2F30E050E040E060E87DE88BE590E02A
:103E50000F947797C21AD30AE40AF50AC0927B0C32
:103E6000D0927C0CE0927D0CF0927E0CD0E0D0934E
:103E7000500BC0934F0B1092EC041092ED04109273
:103E8000EE041092EF0451E05093B51E71E0709370
:103E90005A03DF91CF91FF90EF90DF90CF9008957C
:103EA000EF92FF920F931F93CF93DF9300914B1DDF
:103EB00010E08091481D8C718C3009F4CAC0F80163
:103EC00030E020E0E0903C1DF0903D1D6091790CC9
:103ED00070917A0C80919F0B9091A00B8E199F0985
:103EE0000F94639761507109E617F7070CF0A2C0B1
:103EF0006E1B7F0BC091A904D091AA04C617D707E7
:103F000020F4061717070CF0A2C02C0F3D1F922FAC
:103F1000432F6217730710F4962F472F9093650372
:103F2000409366036091790C70917A0C80916C0BD0
:103F300090916D0B8E199F090F94639761507109D1
:103F4000E617F7070CF06FC06E1B7F0BC617D7077D
:103F500020F4061717070CF078C0522FA32F621712
:103F6000730710F4562FA72F50936303A093640395
:103F70006091790C70917A0C80916A0B90916B0B27
:103F80008E199F090F94639761507109E617F7071F
:103F90000CF042C06E1B7F0BC617D70720F4061724
:103FA00017070CF050C0B22F832F6217730710F45D
:103FB000B62F872FB0936103809362036091790CD1
:103FC00070917A0C8091660B9091670B8E199F0906
:103FD0000F94639761507109E617F707BCF46E1BE5
:103FE0007F0BC617D70718F40617170754F52617BF
:103FF000370708F09B013093600320935F03DF9144
:10400000CF911F910F91FF90EF900895161617060C
:1040100044F36E0F7F1FE5CF161617060CF4BCCFC6
:104020006E0F7F1FB9CF161617060CF48FCF6E0FC9
:104030007F1F8CCF161617060CF45CCF6E0F7F1FF8
:1040400059CFBE01D4CFBE01AECFBE0186CFBE01D7
:104050005CCFE090411DE1FC32CF9801F801EE0FFA
:10406000FF1F30CFCF92DF92EF92FF92E091AD0B26
:10407000F091AE0B1995AC01893621E092070CF452
:1040800043C09C0129563140A3E8BDE20F94059836
:104090000024880F991F001C880F991F001C892F6E
:1040A000902D8770992748565140493621E0520794
:1040B0005CF1009719F181309105D1F082309105C2
:1040C000A9F08330910581F08430910559F0853055
:1040D000910531F0069711F048565140485651402D
:1040E0004856514048565140485651404856514014
:1040F00048565140493621E0520734F040545B4065
:10410000493681E05807D4F780913C1D90913D1DC0
:10411000481B590B2091B51F2370223031F4C090F9
:10412000B51DD090B61D4C195D09E091B81D9A01DE
:10413000220F331FF0E0A0E0B1E0AE1BBF0B0F94E5
:1041400038986B017C01A091791FB0917A1F9F0173
:104150000F944098C60ED71EE81EF91ECD2CDE2CFB
:10416000EF2CFF24E7FCFA94D0927A1FC092791FBB
:10417000FF90EF90DF90CF900895CF92DF92EF9273
:10418000FF920F942D5D60935B0370935C038093AB
:104190005D0390935E0380915B0390915C03A0911B
:1041A0005D03B0915E0340911C0C50911D0C609119
:1041B0001E0C70911F0C841B950BA60BB70B8093E4
:1041C0006F0390937003A0937103B0937203C09038
:1041D0001C0CD0901D0CE0901E0CF0901F0CCD28F4
:1041E000CE28CF28C1F410926F0310927003109262
:1041F00071031092720320915B0330915C03409134
:104200005D0350915E0320931C0C30931D0C409372
:104210001E0C50931F0C40916F03509170036091DE
:104220007103709172038091E8049091E904A09168
:10423000EA04B091EB04481759076A077B07C0F1FD
:104240003091441D3F77313009F4C1C0311120C095
:1042500051E050935A0360916F0370917003809105
:104260007103909172039695879577956795609302
:10427000E8047093E9048093EA049093EB04A0911E
:10428000190CB0911A0C1196B0931A0CA093190C3A
:10429000C0905B03D0905C03E0905D03F0905E0300
:1042A000C0921C0CD0921D0CE0921E0CF0921F0CC0
:1042B000D090AF1FD5FE86C0E0905A03EE2009F4DF
:1042C00081C0E091AD0BF091AE0B1995AC01893630
:1042D00021E092070CF442C09C0129563140A3E82A
:1042E000BDE20F9405980024880F991F001C880FC9
:1042F000991F001C892F902D87709927485651408F
:10430000493621E0520754F1009711F181309105AF
:10431000C9F082309105A1F08330910579F08430A5
:10432000910551F08530910529F0069709F0B5C047
:1043300048565140485651404856514048565140C1
:104340004856514048565140493621E0520734F012
:1043500040545B40493681E05807D4F720913C1D1A
:1043600030913D1D421B530B7091B51F737072301D
:1043700031F48091771E9091781E481B590BE09183
:10438000B81D9A01220F331FF0E0A0E0B1E0AE1B90
:10439000BF0B0F9438986B017C01A091651FB09101
:1043A000661F9F010F944098C60ED71EE81EF91E87
:1043B000CD2CDE2CEF2CFF24E7FCFA94D092661F64
:1043C000C092651FFF90EF90DF90CF90089580918D
:1043D0001C0C90911D0CA0911E0CB0911F0CC09054
:1043E000AB04D090AC04E090AD04F090AE048C1916
:1043F0009D09AE09BF09AC01BD01440F551F661FE1
:10440000771F840F951FA61FB71FB695A795979581
:1044100087958093560390935703A0935803B093C6
:10442000590320911C0C30911D0C40911E0C509191
:104430001F0C2093AB043093AC044093AD04509315
:10444000AE0440916F0350917003609171037091BD
:1044500072038091560390915703A0915803B09135
:104460005903481759076A077B0730F4E091190C84
:10447000F0911A0C3497A0F081E090E090931A0C20
:104480008093190C80935A031092E8041092E90467
:104490001092EA041092EB04FBCE4856514048CFEC
:1044A00060916F037091700380917103909172031A
:1044B000969587957795679596958795779567955E
:1044C0006093E8047093E9048093EA049093EB040A
:1044D000A091190CB0911A0C1196B0931A0CA093DC
:1044E000190CD6CECF93DF931092E70481E080932E
:1044F000E7042091F5042330F1F0223091F02130CF
:1045000029F4E091F104F091F20419956091641F8F
:10451000662321F07091E704711117C0DF91CF91EC
:104520000895E091A204F091A30430819091A10438
:10453000392339F3EBCFC091A204D091A304488171
:104540005091A1044523E9F6E1CF80916F0390914A
:104550007003A0917103B0917203A091021FA6FD98
:10456000DDCFB091631FB111D9CFC091EC0BD091C9
:10457000ED0BC553DD4F1882E091A504F091A60420
:10458000D081F091A404DF2309F045C0E091A2049A
:10459000F091A30420813091A104232349F0C0911C
:1045A000EC0BD091ED0BC553DD4F98819260988351
:1045B000E091EC0BF091ED0BE553FD4F4081446031
:1045C00040835091B51E552349F0C091EC0BD0911A
:1045D000ED0BC553DD4F688168606883C091EC0BBB
:1045E000D091ED0B0F942D5DCC0FDD1FCC0FDD1F97
:1045F000CD5AD64F688379838A839B83A091EC0B35
:10460000B091ED0BAE37B10580F07091021F706470
:104610007093021F83CFC091EC0BD091ED0BC5536B
:10462000DD4F888181608883B1CF8091EC0B9091C0
:10463000ED0B01969093ED0B8093EC0BB091021F64
:10464000BF7BB093021F6ACFCF93DF931092E70432
:104650008091F604833009F481C08230B9F0813052
:10466000F1F4E091F304F091F40419957091631F53
:10467000772301F1A091E704A1117BC0B1E0D091B3
:10468000641FD1111CC0DF91CF910895E091A50462
:10469000F091A60420819091A404292311F3509154
:1046A000631F552339F06091E704662339F3DF91E6
:1046B000CF910895B0E0D091641FDD2321F34091A4
:1046C0006B0350916C0360916D0370916E03F091D8
:1046D000021FF6FDD8CFC091EC0BD091ED0BB111BC
:1046E0006FC0C553DD4F1882E091A504F091A60478
:1046F00080812091A404822309F082C0E091A20469
:10470000F091A30430815091A104352349F0C09168
:10471000EC0BD091ED0BC553DD4F6881626068836F
:104720007091B51E772349F0E091EC0BF091ED0B01
:10473000E553FD4FA081A860A083C091EC0BD09100
:10474000ED0B0F942D5DCC0FDD1FCC0FDD1FCD5A6F
:10475000D64F688379838A839B833CC0C091A5042C
:10476000D091A60438814091A404342309F079CF74
:1047700096CF20916B0330916C0340916D03509163
:104780006E03B091021FB6FD7ECFE091EC0BF0916D
:10479000ED0BEE0FFF1FEE0FFF1FED5AF64F2083BC
:1047A0003183428353838091EC0B9091ED0B8E37D4
:1047B0009105B8F0D091021FD064D093021F63CF4F
:1047C000CC0FDD1FCC0FDD1FCD5AD64F4883598348
:1047D0006A837B834091EC0B5091ED0B4E37510572
:1047E00048F7A091EC0BB091ED0B1196B093ED0B47
:1047F000A093EC0BF091021FFF7BF093021F43CFBD
:10480000C091EC0BD091ED0BC553DD4F98819160B9
:10481000988374CFCF92DF92EF92FF92AB01DC01CD
:104820001396FC91139711962D913C91EF2FEF71F8
:104830002115310539F52F2FFF0F330B220F232FB1
:10484000221F330B8FEF9FEF0E2E02C0880F991F90
:104850000A94E2F780959095BA01770F660B762F50
:1048600086239723840F951F02C095958795EA9517
:10487000E2F782279327821B930BFF90EF90DF9044
:10488000CF900895DB010F9438986C01FF24D7FC7A
:10489000F094EF2CC601F6FF0EC02F2FFF0F330B45
:1048A000220F232F221F330BCA0182279327821B3B
:1048B000930B8C0D9D1D02C095958795EA95E2F7A7
:1048C00097FD0196FF90EF90DF90CF900895EF92C3
:1048D000FF920F931F93CF93DF938C01EB01109204
:1048E000B4071092B30710922A0C8D2F0F94AB4F80
:1048F0008C2F0F94AB4FD093BE08C093BD08209768
:1049000009F451C0F801AE01400F511FFF24F39488
:104910006FE370E0E190F092B80F9091BB0F80913F
:10492000BC0FA091B00FB091B10F981709F4A6C0B9
:104930002091BB0F30E02F5F3F4F2F733327322F73
:1049400003C00FB607FE63C09091BC0F3917C9F3BF
:10495000A091BB0FB0E0A350B04FEC92EFB6F8942B
:104960002093BB0FA091B20FB091B30F8C918062D6
:104970008C93EFBE8091B3079091B407019690930A
:10498000B4078093B3079091BB0F8091BC0F981729
:1049900008F06DC0891B990B0197892B71F14E1797
:1049A0005F0709F0B7CFF0902A0CF11029C04FEF44
:1049B0005FEFBA0140932F20509330206093312055
:1049C0007093322021E0AE01B8018FE290E20E94A4
:1049D0005FFFEB01182F892F0F94AB4F812F0F949E
:1049E000AB4F8D2F0F94AB4F8C2FDF91CF911F9139
:1049F0000F91FF90EF900D94AB4F01E000932A0CC4
:104A0000DF91CF911F910F91FF90EF9008959C91AE
:104A100095FF9ACFA091BC0FB0E0A350B04F8C91FE
:104A2000A091BC0FB0E01196AF73BB27A093BC0F51
:104A3000A091B60FB091B70F8C93A091B00FB09129
:104A4000B10F9C91937090649C93B091BB0F809137
:104A5000BC0FB81307C0A091B20FB091B30F9C91D7
:104A60009F7D9C93A091B00FB091B10F6DCF9B0132
:104A7000291B3109820F932F911D8FCF2C9125FF78
:104A800057CF2FB7F894A091B60FB091B70FEC9213
:104A9000A091B00FB091B10F3C91337030643C9352
:104AA0002FBF68CF833023E0920709F4F7C258F193
:104AB000813123E0920709F4D9C208F060C08A303E
:104AC00023E0920709F4DEC208F0E8C0863023E054
:104AD000920709F461C208F44BC2883023E09207C0
:104AE00009F4B7C108F4F7C35091291F51FF06C05C
:104AF0006091100674E0672760931006A09110067D
:104B0000A2FFD9C108958C3022E0920709F4D6C2E1
:104B1000D8F4853022E0920709F4E0C208F0D2C050
:104B2000813022E0920709F46BC208F4D5C18330CA
:104B300022E0920709F46DC108F4A9C35091291F1E
:104B400051FFE0CF0C94218B833122E0920709F4CE
:104B50009FC208F46BC0873122E0920709F43DC37D
:104B600008F0F5C0853122E0920709F41CC108F471
:104B7000ECC27091291F71FFC5CF0D94271C88319D
:104B800023E0920709F4B6C208F46EC0833029E925
:104B9000920709F44BC208F0AFC0813029E99207AF
:104BA00009F417C108F035C38115994909F0C3C349
:104BB000F8948091D00887FD8C5F18160CF0A1C383
:104BC000082E000C990BFC01EE0FFF1FEE0FFF1FCC
:104BD000EF52F74F2081318142815381880F991F15
:104BE000880F991FFC01E353F74F80819181A281C7
:104BF000B381281B390B4A0B5B0B789421153105C7
:104C00004105510509F47ECF60E077E883E993E040
:104C10000F94AA973093EB0E2093EA0E0F943B5219
:104C2000A091511FA860A093511F08958F3022E0DA
:104C3000920709F4EBC108F45EC1813122E09207CA
:104C400009F49FC008F441C37091291F71FF06C089
:104C5000A091110690E2A927A0931106B091110628
:104C6000B5FD50CF0D94051D843123E0920709F462
:104C7000A8C208F46EC1863123E0920709F48DC002
:104C800008F447C23091291F31FF3CCF0F94D6065C
:104C9000409110064F774093100608958D3023E021
:104CA000920709F49BC108F43BC18F3023E09207BF
:104CB00009F4BFC008F498C19091291F91FF22CF39
:104CC0000D947008883022E0920709F432C208F48B
:104CD000F4C08A3022E0920709F475C008F489C252
:104CE0009091291F91FF0ECF0F94CC0DA09111062A
:104CF000A77FA09311060895853029E9920709F44A
:104D0000B4C008F42EC28630994909F013C320912B
:104D10006F1F3091701F2115310509F4F3CEA0E10A
:104D2000B7E20F9405982091B61E3091B71E50E05F
:104D300040E00F94AA973093F80E2093F70E0F944B
:104D40003B529091511F98609093511F089581306C
:104D500023E0920709F4A9C008F0A5C28831924067
:104D600009F0E7C2F091291FF1FF05C080911106FB
:104D70008058809311062091110627FDC3CE0D9413
:104D8000DD1BE091291FE1FFBDCE0F94051DF091C1
:104D90001106FF7DF093110608955091291F51FFD0
:104DA000B1CE0D941D07A091291FA1FF06C0B0919F
:104DB000110690E4B927B0931106E0911106E6FDC3
:104DC000A1CE0D94701CB091291FB1FF9BCE0D9404
:104DD0002F1E20916F1F3091701F2115310509F48E
:104DE00091CEA0E1B7E20F9405982091B61E3091C4
:104DF000B71E50E040E00F94AA973093EE0E209338
:104E0000ED0E0F943B52E091511FE860E093511F6B
:104E100008956091291F61FF06C07091110691E00D
:104E2000792770931106A0911106A0FD6BCE0C940A
:104E3000708BF091291FF1FF06C08091100620E1D0
:104E40008227809310063091100634FD5BCE0D94BE
:104E5000CC08B091291FB1FF55CE0F94C40AE09140
:104E60001006EB7FE0931006089520916F1F30919C
:104E7000701F2115310509F445CEA0E1B7E20F946A
:104E800005982091B61E3091B71E50E040E00F9477
:104E9000AA973093F60E2093F50E0F943B52209173
:104EA000511F28602093511F08955091291F51FFD1
:104EB00029CE0D94640D0D94C40A863022E0920729
:104EC00009F46FC18730924009F037C2E091291F81
:104ED000E1FF18CE0D94CE1E811521E0920709F452
:104EE000B8C18130914009F027C28091291F8260AA
:104EF0008093291F08958D3022E0920709F4DFC1C5
:104F00008E30924009F013C23091291F31FFFACD43
:104F10000F949A1D409111064F7E409311060895FB
:104F20008B3023E0920709F44DC08C30934009F098
:104F300005C23091291F31FF06C04091100658E08C
:104F40004527409310066091100663FDDBCD0D945C
:104F50007C09823123E0920709F4C3C18331934075
:104F600009F0E6C16091291F61FFCCCD0D94C00707
:104F7000843023E0920701F18530934009F0D6C1D7
:104F80008091291F81FFBECD0F94320C2091100615
:104F90002D7F2093100608959091291F91FF06C040
:104FA000F091100682E0F827F09310062091100689
:104FB00021FDA8CD0D94320C3091291F31FFA2CDD7
:104FC0000D949A0C7091291F71FF9CCD0F947C0950
:104FD000A0911006A77FA093100608954091291F65
:104FE00041FF90CD0D942009B091291FB1FF8ACDCA
:104FF0000F94CC08E0911006EF7EE0931006089520
:10500000B091291FB1FF7ECD0C94A68B8091291FF2
:1050100081FF06C02091110630E12327209311065D
:105020004091110644FD6ECD0D949A1D20916F1F85
:105030003091701F2115310509F464CDA0E1B7E26C
:105040000F9405982091B61E3091B71E50E040E0B5
:105050000F94AA973093F20E2093F10E0F943B52C7
:105060003091511F38603093511F08957091291F5E
:1050700071FF48CD0F941C08809110068F7D80939E
:10508000100608955091291F51FF3CCD0D94180A28
:10509000A091291FA1FF36CD0D94BB1CA091291F03
:1050A000A1FF06C0B0911006E1E0BE27B093100644
:1050B0009091100690FD26CD0D94040DB091291FFE
:1050C000B1FF06C0E091110698E0E927E0931106D0
:1050D000F0911106F3FD16CD0D94CC0D8091291F92
:1050E00081FF10CD0F947210209111062D7F209317
:1050F000110608954091291F41FF05C050911006E7
:105100005058509310066091100667FDFBCC0D942B
:10511000D6069091291F91FF06C0F091100680E4F9
:10512000F827F09310062091100626FDEBCC0D9485
:105130006C07E091291FE1FFE5CC0F947E1EF091F2
:105140001106FB7FF093110608955091291F51FF1E
:10515000D9CC0F94701C609111066F7B609311067F
:10516000089520916F1F3091701F2115310509F4AA
:10517000C9CCA0E1B7E20F9405982091B61E3091FA
:10518000B71E50E040E00F94AA973093F40E20939E
:10519000F30E0F943B52F091511FF860F093511FA2
:1051A0000895F091291FF1FF06C08091110622E0B9
:1051B0008227809311063091110631FDA3CC0D9406
:1051C00072106091291F61FF9DCC0F946C07709144
:1051D00010067F7B7093100608956091291F61FF70
:1051E00091CC0F94DD1B709111067F77709311069F
:1051F00008954091291F41FF06C05091110664E0B7
:105200005627509311067091110672FD7BCC0D94B8
:105210007E1E20916F1F3091701F2115310509F4FA
:1052200071CCA0E1B7E20F9405982091B61E3091A1
:10523000B71E50E040E00F94AA973093F00E2093F1
:10524000EF0E0F943B52B091511FB860B093511FB5
:1052500008952091291F2D7F2093291F0F94040D5D
:105260000F94320C0F94C40A0F947C090E94708B27
:105270000F9472100F947E1E0F94CC0D0F949A1DF4
:105280000F94051D1092110610921006089530918A
:10529000291F31FF37CC0E94708B409111064E7F41
:1052A0004093110608953091291F31FF2BCC0F94A4
:1052B000040D409110064E7F4093100608955091C2
:1052C000291F51FF1FCC0D94E51D6091291F61FF1F
:1052D00019CC0D94501D4091291F41FF13CC0D9402
:1052E000730B7091291F71FF06C0A0911006B0E2E8
:1052F000AB27A0931006E0911006E5FD03CC0D94BA
:105300001C082091D1083091D2084091D3085091C7
:10531000D4088091DD089091DE08A091DF08B0915B
:10532000E008281B390B4A0B5B0B67CC08950895E6
:105330000895089508950895089508950895982F5B
:10534000803110F00F94C299E82FF0E08827E455DF
:10535000F64D8F4F0D943098F229F429DA29FA2965
:10536000012A072A0E2A142A3C2A792A802A872A07
:105370008F2AAF2ABC29E129603281E07807F8F44E
:105380008EE997E16F3F710509F008F420C16031A3
:10539000F1E07F0708F045C17727660F771F680F98
:1053A000791FFB01E95FFE4F6081718182E892E025
:1053B0000C940A24603221E0720708F4D7C080E020
:1053C00008956035710508F4D7C06F3F710509F085
:1053D000B0F76055710923E93CE0620F731FFB01D0
:1053E00080810895892F08956038710540F723E87A
:1053F0003EE0F3CF603231E0730708F785EE98E1C5
:10540000C1CF60387105D8F62CE33DE1E6CF6032BC
:1054100081E07807A0F687E596E1B4CF60387105A2
:1054200070F62FEA3FE1D9CF6035710508F4A7C0C7
:10543000603A710508F4AEC0603F710508F0BFCF57
:10544000605A7109A0EFB5E1262F6034710508F4A8
:10545000B5C06834710508F0F3C02054E22FF0E0C5
:10546000EE0FFF1FEA0FFB1FE95BFF4F60817181A9
:1054700082E892E00C940A246033710508F482C03B
:105480006036710508F48BC06039710508F4B6C048
:10549000603C710508F4F1C0603F710508F4F2C08A
:1054A0006032E1E07E0708F4F2C06035F1E07F078A
:1054B00008F4F2C0603821E0720708F080CF605530
:1054C0007140A5EDB1E1262F6432710508F489C061
:1054D0006A32710508F097C0245230E0220F331F62
:1054E000A20FB31FFD0163A574A582E892E00C949E
:1054F0000A24603C710508F062CF23EC3DE06DCFDB
:10550000603C710508F05BCF25EF3DE166CF60326E
:1055100031E0730708F053CF8CE29AE133CF603566
:10552000710538F1603A710580F1683B710508F04A
:1055300046CF605A710960317105B0F1643171056F
:1055400008F08CC06051E62FF0E0EE0FFF1FEB5328
:10555000FE4E6081718182E892E00C940A246038EA
:10556000710508F02CCF23E43DE037CF83E79BE1C2
:1055700009CFADEEB3E168CFA2E2B5E165CFA9E80E
:10558000B5E162CFAAEAB3E19ECF60557109A4E507
:10559000B4E15ACF60557109ABEBB4E155CF60531C
:1055A0007109A7E6B3E18FCFE62FE370EA5FEE0F54
:1055B000E61BF0E0E255FE4E878108952770245ED9
:1055C000220F261BA20FB11DFD0187810895762FA2
:1055D0007F707858770F761B870F911DFC018781AC
:1055E00008953BEA639F412D112446954695542F1B
:1055F000550F450F440F241B215FE2CF6056710900
:10560000A4E2B3E160CF2A5230E0220F331FA21B85
:10561000B30BFD01EF5BFF4F8081918195958795DD
:1056200008956051262F30E0220F331F821B930B09
:10563000FC01EB5BFE4F80819181959587950895E4
:10564000285430E0220F331FA21BB30BFD01EB598E
:10565000FF4F808191819595879508956451E62F3C
:10566000F0E0EE0FFF1FF195E195F109ED52FE4ECE
:105670008081918195958795089560597109A1EE72
:10568000B2E121CF605C7109AEE9B2E11CCF605F8D
:105690007109ABE5B2E117CF60527140A8E1B2E108
:1056A00012CF803110F00F94C299E82FF0E08827D4
:1056B000E35AF44D8F4F0D943098AF2BC92BD02B5C
:1056C000D82BE02BE72BEF2BF62B6D2B232C2A2C42
:1056D000312C512C7A2CB02BB82B6033710508F487
:1056E00023C16036710508F42CC16039710508F4D6
:1056F00060C1603C710508F4A3C1603F710508F406
:10570000A4C1603281E0780708F4A4C16035E1E00B
:105710007E0708F4A4C16038F1E07F0700F560550A
:105720007140A5EDB1E1862F6432710508F42DC1F9
:105730006A32710508F042C18452E82FF0E0EE0FA2
:10574000FF1FEA0FFB1F34E6439FC001112494A7FB
:1057500083A74FEF5FE713965C934E9312970895DC
:105760006032E1E07E0708F0D4C0AEE9B7E180C066
:105770006035710508F4CFC06F3F710509F078F707
:105780006055710983E99CE0680F791FFB01408334
:1057900008956038710508F0B6C083E89EE0F4CF44
:1057A000603281E0780708F0B3C0A3E7BBE160C0D6
:1057B0006032E1E07E0708F0AAC0A5EEB8E158C06B
:1057C0006038710508F0A2C08CE39DE1DDCF603246
:1057D000F1E07F0708F099C0A7E5B6E149C060385D
:1057E000710508F091C08FEA9FE1CECF6035710559
:1057F00008F497C0603A710508F49EC0603F7105D7
:1058000008F0ADCF605A7109E0EFF5E1862F603402
:10581000710508F4A5C06834710508F0F0C0805423
:10582000A82FB0E0AA0FBB1FAE0FBF1FA95BBF4FD1
:1058300074E6479FB00111246D937C938FEF9FE72F
:10584000938382830895603C710508F05BC083EC0C
:105850009DE09ACF603C710508F053C085EF9DE153
:1058600093CF603281E0780708F04AC0ACE2BAE139
:105870006F3F710509F008F47EC06031E1E07E07FA
:1058800008F0ACC0FB01FF27EE0FFF1FEA0FFB1F64
:10589000E95FFE4F54E6459F900111243183208338
:1058A00058CF60357105D0F1603A710508F43FC0FA
:1058B000683B710508F053CF605A7109603171057A
:1058C00008F444C06431710508F0A9C06051E62FA6
:1058D000F0E0EE0FFF1FEB53FE4E24E6429FA001C7
:1058E0001124518340836FEF7FE77093B111609370
:1058F000B01108956038710568F483E49DE044CFE9
:1059000008950895089508950895089508950895AF
:10591000089508950895E2E2F5E178CFEDEEF3E120
:1059200075CFE9E8F5E172CFAAEAB3E1FCCE6055A4
:105930007109E4E5F4E16ACF60557109EBEBF4E13C
:1059400065CF60537109A7E6B3E1EDCEE62FE370B2
:10595000EA5FEE0FE61BF0E0E255FE4E4783C3CF51
:10596000A62FA770A45EAA0FA61BAE0FBF2FB11D56
:1059700017964C9363CFE62FEF70E858EE0FE61BB7
:10598000EA0FFB2FF11D4783E4CE8BEA689F812D40
:10599000112486958695982F990F890F880FE62FE9
:1059A000E81BE15FEE0FE61BEA0FFB2FF11D4783BB
:1059B000D0CE60567109A4E2B3E1B5CE8A5290E030
:1059C000880F991FFD01E81BF90BEF5BFF4F842F38
:1059D00090E0880F991F91838083BBCE6051862F02
:1059E00090E0880F991FFD01E81BF90BEB5BFE4F60
:1059F000842F90E0880F991F91838083AACE8854CA
:105A000090E0880F991FDF01A81BB90BAB59BF4F5E
:105A1000842F90E0880F991F8D939C930FCF645132
:105A2000E62FF0E0EE0FFF1FF195E195F109ED5241
:105A3000FE4E842F90E0880F991F9183808353CF6F
:105A400060597109A1EEB2E16ECE605C7109AEE9F8
:105A5000B2E169CE605F7109ABE5B2E164CE60523C
:105A60007140A8E1B2E15FCE2F923F924F925F92D8
:105A70006F927F928F929F92AF92BF92CF92DF925E
:105A8000EF92FF920F931F93CF93DF93CDB7DEB7C3
:105A9000AD970FB6F894DEBF0FBECDBF2C016CA33F
:105AA000633009F4E8C608F4D1C62CA1243009F407
:105AB000FAC2253009F0FBC69C012B5B3E4F895092
:105AC0009F4FA201495051095EA34DA300E110E090
:105AD0001BA70AA760EF7FEF78A76FA311E019A7B4
