:100000000C94E8100D943E4A0D94134A0D94E8495F
:100010000D94BD490D9492490D9467490D943C4946
:100020000D9411490C9419110C9419110C94191177
:100030000C9419110C9419110C9419110D941E4162
:100040000C9419110C945D590C9453570C94ACD327
:100050000C9419110C9419110C9419110D949F5FA3
:100060000C9419110D94D14B0D94914B0C941911C2
:100070000C9419110C9419110C9419110C94191158
:100080000D94C33D0D94483D0D94CD3C0C94191135
:100090000C9419110C9419110C9419110C94191138
:1000A0000C9419110C9419110D945C3B0D94523C55
:1000B0000D94D73B0C9419110C9419110D94C23A5C
:1000C0000D94283A0D948E390C9419110C94191131
:1000D0000C9419110C9419110D945A4B0D941A4B40
:1000E0000C9419110C94BEE80C94C6C00D94F60D36
:1000F0000C94C5280C946D830C942A5C0C94E79E98
:100100000C945EC20C940CA70D94D1160D94E328A8
:100110000C94001A0C946CC10C94AF600C94A983DD
:100120000C94FF7A0C94C9C00C943EC20D948D516E
:100130000C94E4B40D9489510C943CC10C94478206
:100140000C94BDC00C948DA10C94D2C00C9429AA1F
:100150000C9451180C945AFC0C9499600C944439EA
:100160000C9470890D94D5280C94F0C00C94676C95
:100170000D94A3510C9487C10C948F600C94A679B4
:100180000C9461C20C94B37F0C9430600C949DB2BB
:100190000C94A4C90D94DE4A0C9460C50D949D5135
:1001A0000D948A4A0D9431470C9490C10C949B266F
:1001B0000D94CD510C94BE280C94B36A0D94C901D2
:1001C0000C94F3C00C94645C0C9491110C945279CF
:1001D0000D94D7280C945FBF0C94C09F0C94357578
:1001E0000C943ABB0D94A9510C9484C10C9436A381
:1001F0000C94E6B20C94AF4A0C94DAAE0C9486766A
:100200000C94891A0C9451C20C94DC830C940A7BD4
:100210000C9477C00C94CCBD0D94AF0F0C942B169E
:100220000C94516A0C945CFF0C94A7760C94F3D652
:100230000C94597F0C9468790C9488130C94DB8B84
:100240000C94B2BA0C9441CF0D94D91F0C948C83AA
:100250000C944AA40C94D0260C94326C0C941BC1C0
:100260000C94395C0C9416A20D944C470C94565C7B
:100270000C94D8C00D944A1C0C9486260D945E47AD
:100280000D94924A0C943B750C943CCC0D94F7154C
:100290000C94C0D80C94F66C0D942B200D94F84A55
:1002A0000C943E690C94BA6A0C94BB8C0C9424C1D7
:1002B0000D9422130C942C750C9445840C94F9BC69
:1002C0000D948E000C94F7C80C9480C00D94917816
:1002D0000D94DF0E0D94D1280D94AB020C948A2856
:1002E0000C944AD00C9496C00C9489750C94CF88C9
:1002F0000C9446E90C94EF8E0C941FC20D94944A12
:100300000C94EE6A0D9408210C948F110C943BBC54
:100310000C94485C0C949CE90C9471C00C9415C12D
:100320000C9443270C94AD5C0C948E260C94A1A2E3
:100330000C946DA50C94B3760C94E2AF0C94FF472B
:100340000C947ACD0C94E1C00D94EB280C944D7A6A
:100350000D947A7D0C9490430C9451C10C941B1114
:100360000C94C0C00C94DFE80D9483510C940719D1
:100370000D94EA030C94D9330C9463C10C948AC194
:100380000C94CC740C947A830D94BC210C94884BFF
:100390000C9414270C9422C20C94E4C00C94DBC07F
:1003A0000C946D1C0C946E880C94EC5C0D943C0ABF
:1003B0000D94BB510C9475260D94AD4A0D94E7280D
:1003C0000C94C3800C9432B50C94CFC00C94554956
:1003D0000C94118C0C94A6FC0D9407090C94B21388
:1003E0000D945B210C94E3830C94AF6A0C9470829F
:1003F0000C9457820C94BA790D94DF280C94B76F43
:100400000C944BC10C94D0830D94004B0C9442750A
:100410000C9412350C9474280C947AC00C94D23637
:100420000D94E1280C9474C00C9466C10C94946CE7
:100430000C945F1F0D9487210C94B7280C9401BF76
:100440000C9430C10C94C2490C940DA10C9464C25C
:100450000D949E030C94BBEF0C9450260C94B7C0E3
:100460000C9499C00C942E6B0C94F6C00D945C0EF9
:100470000D943E0D0C946FC10C94A5C00D941D15E8
:100480000C94F4C10C9404F00D94D9510D94460FC2
:100490000D948C4A0D94DB280C940D880C94FCC0B0
:1004A0000D94E5280C94CAB10D943E000C94EC8395
:1004B0000C94587A0C946E260C94D3800C944E6055
:1004C0000C9458C20C94ABC00C94FAC10C943E82AC
:1004D0000C9478150C948B1B0C948AC00D94C079E5
:1004E0000D94A6130C94EB440C94395D0C949CC0B1
:1004F0000C945BFC0C9440EA0C9428920C94596C7C
:100500000C94B1C00C94F56A0C941EC10C9490111B
:100510000D9488510D94A1210D94931F0C94F9C052
:100520000C9472C10D94B1140D944E790C94CDD5E8
:100530000C94266D0C94F47A0C94F29A0D946A48FB
:100540000D94E9280D948E0D0C94A2260C94D1C123
:100550000C9444CA0C942DCD0C94A7C10C94119802
:100560000C94118A0C9425600D94F8210C94744815
:100570000D9431010D941E120C94B4960C945D14DC
:100580000C94749F0C945AC10D9434110C94D9C6D8
:100590000C942EC60C9403120C9442BE0C940128A9
:1005A0000C94144B0C9456960D94B7110C9475C181
:1005B0000C94E5CC0D942B1C0C9457C10C941C5C32
:1005C0000D94AF510D94DD280C9405910C94AB76ED
:1005D0000D946C210D9427140C94EE8E0C94508382
:1005E0000C94DFA30C944AC20C9444280C94296CFC
:1005F0000D94D3510C94185D0C943CC90C94321793
:100600000C94FF5F0C942A130D94FF770D94E8204F
:100610000C945D790C94B4740C94635D0C948DC04F
:100620000C94C3C00C9460C10C94F0E90D94EC4A96
:100630000C942D4A0C9457C50C9443280C9493C0E9
:100640000C943E880C9479CA0C94E0730C943A6034
:100650000D94C1510C9472910C9410FF0C942327AB
:100660000D94CF280C94BFC70C946C280D9475087A
:100670000C94B4C00D946A7D0C9439C10C945D86C1
:100680000C94C7860C945BC20C9478C10C94C8D7A8
:100690000C9483C00C941A600C9425900C94B6CFE3
:1006A0000C94BAC00C9455D90C942FCB0C9405899A
:1006B0000C94CAB30C9441120D94DF670C9427F08C
:1006C0000C9475C80D9497510C948A8F0C94A6893C
:1006D0000C9433C10C94AD1E0C944C280C94B312A2
:1006E0000D945D470C9498C10C9428C20D949910F8
:1006F0000D9440070C9483280C943A890C9454C1AF
:100700000C94503C0C9437E40C94DDA30C94A96930
:100710000D949D060D94AA090C94F2FC0C944B9C2C
:100720000D94487D0C9440120C94E95F0C942AC1FE
:100730000C94D15B0C940D270C9441C20D944B7812
:100740000C946BA80C9440C70C947C8A0C949F88E2
:100750000C94BF9F0D94CB600C9444600C945DC1CD
:100760000C949C830C94569E0C94D1740D94F27C42
:100770000C9477D80D94D3280D94C7510C9448C18C
:100780000D94A1120C94F7BB0C94CC5F0C94A6BEF4
:100790000C94B1810C94AECB0C94E5280C94DEA3A0
:1007A0000D94D6210D94347D0C9438C20C94C4FE63
:1007B0000C9437D10C9432130D94F8200C9455C23C
:1007C0000C94AACA0C94BF6A0D9419210D94627DF1
:1007D0000D946E690D94616A0C948CF00C94FA5C23
:1007E0000C947DC00C947B280C943FAD0D940B06AB
:1007F0000C943BC20D940C4B0C94EAC00C9445C174
:100800000C943FC10C949B790C94C0C10D94196950
:100810000D9436040C94FFE80D94FB020C9444C232
:100820000C9459600D94DB690C9469C10C94CCC094
:100830000C9424140D9491510D9418050D94651683
:100840000C9467C20C9412C10C941B270C9488263C
:100850000C94A2C00C94ED6C0C9487C00C944DC207
:100860000D947D010D944B210C94338B0C948EA62A
:100870000C94E7C00C94EA480D94B5510D94F378AC
:100880000C941D110D94F3790D94DF0A0D94CD4A4B
:100890000C9467BD0C94A7930C94AEC00D948B156B
:1008A0000C94A8260C947BC10C9425C20C94DB8973
:1008B0000C94E05B0C94BE9F0C9495C10D94BA48C7
:1008C0000C9411740C942EC20C94D5C00C9435C2A7
:1008D0000C9421C10D94A60C0C94DEC00C941C1138
:1008E0000D94710B0C94A7360C942BC20D94904A66
:1008F0000D94D2070C94835C0C94C9400C94E6814F
:100900000C945D280D94C4470C9462D80D94A5678F
:100910000C9473F00C94AEC10C940EA10D945A7DFE
:100920000C9436C10C94E6F00C94A1BB0C9474604A
:100930000C9490C00C94EB690C94DC8A0C94CD6FF1
:100940000C947EC10C942DC10C9418C10C944EC112
:100950000C9447C20C94CDA40C9407420C94055CF3
:100960000C94AF5F0D94D9280C9427C10D94369543
:100970000D9468050C949FC00C948EBC0C9457B3D6
:100980000C9471970C94A8C00C945C7F0D948E4AC3
:100990000C94E9950C94B8120C9464280D94ED28ED
:1009A0000D94FA660C941CC20C9413970C949286C6
:1009B0000C9481C10C945FCE0C9447790C94A46084
:1009C0000C940C6D0C94A2990D94A6480D943010C3
:1009D0000C9442C10C94F7C10C940E290C949526EA
:1009E0000D94964A0C94EDC00D94140C0C94F81CC4
:1009F0000D94517D526573657420636F6E74726FD0
:100A00006C2069732063757272656E746C792064F2
:100A1000697361626C65642E00436F6D6D7320684D
:100A2000616C7465642E204E6578742062797465FB
:100A30002077696C6C20726573657420746865201A
:100A400041726475696E6F2E000A50616765206897
:100A50006173206E6F74206265656E20696D706CC5
:100A6000656D656E74656420796574000A426F6F08
:100A70007374206C6F6F6B7570207461626C6500AD
:100A80000A326E642049676E6974696F6E204D6129
:100A900070000A326E64204675656C204D617000EE
:100AA0000A50616765203920436667000A547269FD
:100AB0006D2031205461626C65000A565654204DF9
:100AC0006170000A426F6F7374204D6170000A50AC
:100AD00067203620436F6E666967000A41465220E0
:100AE0004D6170000A5067203420436667000A4950
:100AF000676E6974696F6E204D6170000A506720DF
:100B00003220436667000A5645204D6170004572E9
:100B1000723A20556E6B6E6F776E20636D64000ABB
:100B20003D3D3D436F6D6D616E642048656C703D69
:100B30003D3D0A0A416C6C20636F6D6D616E64739C
:100B4000206172652073696E676C652063686172ED
:100B5000616374657220616E642061726520636FE9
:100B60006E636174656E6174656420776974682072
:100B7000746865697220706172616D657465727305
:100B8000200A776974686F75742073706163657388
:100B90002E53796E7461783A20203C636F6D6D61DD
:100BA0006E643E2B3C706172616D65746572313E9E
:100BB0002B3C706172616D65746572323E2B3C70C6
:100BC0006172616D657465724E3E0A0A3D3D3D4C31
:100BD000697374206F6620436F6D6D616E64733D41
:100BE0003D3D0A0A41202D20446973706C61797380
:100BF000203331206279746573206F6620637572CB
:100C000072656E745374617475732076616C75656A
:100C10007320696E2062696E61727920286C697632
:100C2000652064617461290A42202D204275726E2C
:100C30002063757272656E74206D617020616E64E0
:100C400020636F6E666967506167652076616C75B9
:100C5000657320746F20656570726F6D0A43202D77
:100C6000205465737420434F4D20706F72742E2092
:100C700020557365642062792054756E65727374B3
:100C80007564696F20746F2073656520776865747B
:100C900068657220616E20454355206973206F6E30
:100CA000206120676976656E2073657269616C20CA
:100CB0000A20202020706F72742E20526574757285
:100CC0006E7320612062696E617279206E756D624B
:100CD00065722E0A4E202D205072696E74206E654A
:100CE00077206C696E652E0A50202D205365742084
:100CF00063757272656E7420706167652E20205373
:100D0000796E7461783A2020502B3C706167654E93
:100D1000756D6265723E0A52202D2053616D65200B
:100D20006173204120636F6D6D616E640A53202DE5
:100D300020446973706C6179207369676E617475A2
:100D40007265206E756D6265720A51202D205361A7
:100D50006D65206173205320636F6D6D616E640A51
:100D600056202D20446973706C6179206D6170206C
:100D70006F7220636F6E6669675061676520766188
:100D80006C75657320696E2062696E6172790A57AD
:100D9000202D20536574206F6E6520627974652064
:100DA000696E206D6170206F7220636F6E66696777
:100DB000506167652E2020457870656374732062EA
:100DC000696E61727920706172616D6574657273AC
:100DD0002E200A2020202053796E7461783A20203A
:100DE000572B3C6F66667365743E2B3C6E6577626D
:100DF0007974653E0A74202D205365742063616CFC
:100E00006962726174696F6E2076616C7565732EAC
:100E10002020457870656374732062696E61727911
:100E200020706172616D65746572732E202054614B
:100E3000626C6520696E64657820697320656974E9
:100E400068657220302C200A20202020312C206F51
:100E50007220322E202053796E7461783A202074EB
:100E60002B3C74626C655F6964783E2B3C6E6577E1
:100E700056616C7565313E2B3C6E657756616C75BD
:100E800065323E2B3C6E657756616C75654E3E0A49
:100E90005A202D20446973706C61792063616C69FC
:100EA00062726174696F6E2076616C7565730A5445
:100EB000202D20446973706C61797320323536209F
:100EC000746F6F7468206C6F6720656E74726965EB
:100ED0007320696E2062696E6172790A72202D201A
:100EE000446973706C6179732032353620746F6F8A
:100EF0007468206C6F6720656E74726965730A553B
:100F0000202D205072657061726520666F722066B8
:100F100069726D77617265207570646174652E20E9
:100F2000546865206E6578742062797465207265F6
:100F30006365697665642077696C6C20636175739D
:100F400065207468652041726475696E6F20746FE6
:100F50002072657365742E0A3F202D2044697370DA
:100F60006C61797320746869732068656C70207097
:100F7000616765002C2000575545004F3200496ECF
:100F80006C65742074656D7000436F6F6C616E7476
:100F900000526573657420636F6E74726F6C2069A4
:100FA000732063757272656E746C79206469736105
:100FB000626C65642E00436F6D6D732068616C74A4
:100FC00065642E204E657874206279746520776997
:100FD0006C6C20726573657420746865204172645E
:100FE00075696E6F2E00537065656475696E6F204C
:100FF0003230323230372E31007370656564756976
:101000006E6F20323032323037004552523B204929
:101010006E636F727265637420454550524F4D2068
:1010200073697A65003030310020002000200020F4
:1010300000202020200000008000200120018000EE
:1010400020018000F0008001C000C0002001C0002D
:10105000800020010001040E11191B20292B2D2FC7
:1010600031333537393B3D3F414345474B4D4F5178
:101070005557595D61666D77537065656475696E26
:101080006F00537065656475696E6F203230313959
:101090002E30382D73657200537065656475696E06
:1010A0006F2063737830323031392E3800000020E1
:1010B000002300260029002C002F00320000010030
:1010C0000003010601090100002100240027002A75
:1010D000002D003000330001010000040107010A67
:1010E0000100002200250028002B002E00310034D2
:1010F0000002010000050108010B010505050507B7
:101100000508080808020202020A0A080804040482
:1011100004010101010101010103030303030303AE
:1011200003040707070C0C0C0C0C0C0C0C0202023D
:101130000206060606060606060B0B0B0B0B0B0B30
:101140000B010210202008081020401020408002CF
:1011500001020108040201010204081020408080FD
:101160004020100804020180040201804020100881
:101170000402010804020101020408102040800159
:101180000204081020408000000A0B02090C0D0E1A
:101190000807030401000000000000000000000038
:1011A000000000000000000000000000000000003F
:1011B00000000012111000000000000000000000FC
:1011C000000000000000000000000000000000001F
:1011D00000963007772C610EEEBA51099919C46D4B
:1011E000078FF46A7035A563E9A395649E3288DBA6
:1011F0000EA4B8DC791EE9D5E088D9D2972B4CB67D
:1012000009BD7CB17E072DB8E7911DBF906410B772
:101210001DF220B06A4871B9F3DE41BE847DD4DA94
:101220001AEBE4DD6D51B5D4F4C785D38356986CC1
:1012300013C0A86B647AF962FDECC9658A4F5C0142
:1012400014D96C0663633D0FFAF50D088DC8206E46
:101250003B5E10694CE44160D5727167A2D1E40332
:101260003C47D4044BFD850DD26BB50AA5FAA8B551
:10127000356C98B242D6C9BBDB40F9BCACE36CD844
:1012800032755CDF45CF0DD6DC593DD1ABAC30D9E2
:10129000263A00DE518051D7C81661D0BFB5F4B4EC
:1012A0002123C4B3569995BACF0FA5BDB89EB802F5
:1012B000280888055FB2D90CC624E90BB1877C6F7A
:1012C0002F114C6858AB1D61C13D2D66B69041DCB5
:1012D000760671DB01BC20D2982A10D5EF8985B142
:1012E000711FB5B606A5E4BF9F33D4B8E8A2C907FD
:1012F0007834F9000F8EA8099618980EE1BB0D6A94
:101300007F2D3D6D08976C6491015C63E6F4516B31
:101310006B62616C1CD83065854E0062F2ED9506FB
:101320006C7BA5011BC1F4088257C40FF5C6D9B068
:101330006550E9B712EAB8BE8B7C88B9FCDF1DDDC9
:1013400062492DDA15F37CD38C654CD4FB5861B21D
:101350004DCE51B53A7400BCA3E230BBD441A5DFF9
:101360004AD795D83D6DC4D1A4FBF4D6D36AE969B8
:1013700043FCD96E34468867ADD0B860DA732D046B
:1013800044E51D03335F4C0AAAC97C0DDD3C7105A1
:1013900050AA41022710100BBE86200CC925B56843
:1013A00057B3856F2009D466B99FE461CE0EF9DE8C
:1013B0005E98C9D9292298D0B0B4A8D7C7173DB331
:1013C00059810DB42E3B5CBDB7AD6CBAC02083B85B
:1013D000EDB6B3BF9A0CE2B6039AD2B1743947D5D1
:1013E000EAAF77D29D1526DB048316DC73120B63FC
:1013F000E3843B64943E6A6D0DA85A6A7A0BCF0E63
:10140000E49DFF099327AE000AB19E077D44930F28
:10141000F0D2A3088768F2011EFEC206695D57621A
:10142000F7CB67658071366C19E7066B6E761BD457
:10143000FEE02BD3895A7ADA10CC4ADD676FDFB928
:10144000F9F9EFBE8E43BEB717D58EB060E8A3D6CC
:10145000D67E93D1A1C4C2D83852F2DF4FF167BB18
:10146000D16757BCA6DD06B53F4B36B248DA2B0D27
:10147000D84C1B0AAFF64A0336607A0441C3EF60CA
:10148000DF55DF67A8EF8E6E3179BE69468CB36198
:10149000CB1A8366BCA0D26F2536E2685295770CD2
:1014A000CC03470BBBB91602222F260555BE3BBA0B
:1014B000C5280BBDB2925AB42B046AB35CA7FFD700
:1014C000C231CFD0B58B9ED92C1DAEDE5BB0C264CD
:1014D0009B26F263EC9CA36A750A936D02A9060928
:1014E0009C3F360EEB8567077213570005824ABF93
:1014F00095147AB8E2AE2BB17B381BB60C9B8ED21A
:10150000920DBED5E5B7EFDC7C21DFDB0BD4D2D367
:101510008642E2D4F1F8B3DD686E83DA1FCD16BEE1
:10152000815B26B9F6E177B06F7747B718E65A08BE
:1015300088706A0FFFCA3B06665C0B0111FF9E654F
:101540008F69AE62F8D3FF6B6145CF6C1678E20A03
:10155000A0EED20DD75483044EC2B303396126677F
:10156000A7F71660D04D476949DB776E3E4A6AD1CE
:10157000AEDC5AD6D9660BDF40F03BD83753AEBC51
:10158000A9C59EBBDE7FCFB247E9FFB5301CF2BDD7
:10159000BD8AC2BACA3093B353A6A3B4240536D0C9
:1015A000BA9306D7CD2957DE54BF67D9232E7A6662
:1015B000B3B84A61C4021B685D942B6F2A37BE0B17
:1015C000B4A18E0CC31BDF055A8DEF022D00000065
:1015D0000041311B1982623632C3532D2B04C56C76
:1015E0006445F4777D86A75A56C796414F088AD935
:1015F000C849BBC2D18AE8EFFACBD9F4E30C4FB5A6
:10160000AC4D7EAEB58E2D839ECF1C98875112C2F5
:101610004A1023D953D370F4789241EF6155D7AE75
:101620002E14E6B537D7B5981C9684830559981BB8
:101630008218A9009BDBFA2DB09ACB36A95D5D77A5
:10164000E61C6C6CFFDF3F41D49E0E5ACDA2248471
:1016500095E3159F8C2046B2A76177A9BEA6E1E865
:10166000F1E7D0F3E82483DEC365B2C5DAAAAE5D44
:101670005DEB9F464428CC6B6F69FD7076AE6B3195
:1016800039EF5A2A202C09070B6D381C12F3364605
:10169000DFB2075DC6715470ED30656BF4F7F32A65
:1016A000BBB6C231A275911C8934A00790FBBC9FC8
:1016B00017BA8D840E79DEA92538EFB23CFF79F395
:1016C00073BE48E86A7D1BC5413C2ADE58054F7948
:1016D000F0447E62E9872D4FC2C61C54DB018A1597
:1016E0009440BB0E8D83E823A6C2D938BF0DC5A098
:1016F000384CF4BB218FA7960ACE968D130900CCE7
:101700005C4831D7458B62FA6ECA53E177545DBBB2
:10171000BA156CA0A3D63F8D88970E96915098D796
:10172000DE11A9CCC7D2FAE1EC93CBFAF55CD76213
:10173000721DE6796BDEB554409F844F5958120EE6
:10174000161923150FDA7038249B41233DA76BFD32
:1017500065E65AE67C2509CB576438D04EA3AE9196
:1017600001E29F8A1821CCA73360FDBC2AAFE12497
:10177000ADEED03FB42D83129F6CB20986AB2448E6
:10178000C9EA1553D029467EFB687765E2F6793FB2
:101790002FB7482436741B091D352A1204F2BC5396
:1017A0004BB38D485270DE657931EF7E60FEF3E613
:1017B000E7BFC2FDFE7C91D0D53DA0CBCCFA368AE6
:1017C00083BB07919A7854BCB13965A7A84B98831D
:1017D0003B0AA99822C9FAB50988CBAE104F5DEF34
:1017E0005F0E6CF446CD3FD96D8C0EC27443125A15
:1017F000F3022341EAC1706CC1804177D847D736E4
:101800009706E62D8EC5B500A584841BBC1A8A41B7
:10181000715BBB5A6898E87743D9D96C5A1E4F2D33
:10182000155F7E360C9C2D1B27DD1C003E12009898
:10183000B9533183A09062AE8BD153B59216C5F4E3
:10184000DD57F4EFC494A7C2EFD596D9F6E9BC07EB
:10185000AEA88D1CB76BDE319C2AEF2A85ED796B23
:10186000CAAC4870D36F1B5DF82E2A46E1E136DE24
:1018700066A007C57F6354E8542265F34DE5F3B2D3
:1018800002A4C2A91B6791843026A09F29B8AEC5C7
:10189000E4F99FDEFD3ACCF3D67BFDE8CFBC6BA923
:1018A00080FD5AB2993E099FB27F3884ABB0241CA8
:1018B0002CF115073532462A1E73773107B4E170D3
:1018C00048F5D06B513683467A77B25D634ED7FACE
:1018D000CB0FE6E1D2CCB5CCF98D84D7E04A129695
:1018E000AF0B238DB6C870A09D8941BB84465D2394
:1018F00003076C381AC43F1531850E0E2842984FE5
:101900006703A9547EC0FA795581CB624C1FC53854
:10191000815EF423989DA70EB3DC9615AA1B005494
:10192000E55A314FFC996262D7D85379CE174FE10F
:1019300049567EFA50952DD77BD41CCC62138A8DE4
:101940002D52BB963491E8BB1FD0D9A006ECF37E94
:101950005EADC265476E91486C2FA05375E8361294
:101960003AA90709236A5424082B653F11E479A793
:1019700096A548BC8F661B91A4272A8ABDE0BCCBE4
:10198000F2A18DD0EB62DEFDC023EFE6D9BDE1BC54
:1019900014FCD0A70D3F838A267EB2913FB924D094
:1019A00070F815CB693B46E6427A77FD5BB56B650F
:1019B000DCF45A7EC5370953EE763848F7B1AE09E4
:1019C000B8F09F12A133CC3F8A72FD24930000002F
:1019D00000376AC2016ED4840359BE4602DCA809EE
:1019E00007EBC2CB06B27C8D0485164F05B85113A8
:1019F0000E8F3BD10FD685970DE1EF550C64F91A88
:101A0000095393D8080A2D9E0A3D475C0B70A32604
:101A10001C47C9E41D1E77A21F291D601EAC0B2F99
:101A20001B9B61ED1AC2DFAB18F5B56919C8F23519
:101A300012FF98F713A626B111914C7310145A3C5B
:101A4000152330FE147A8EB8164DE47A17E0464D11
:101A500038D72C8F398E92C93BB9F80B3A3CEE44FB
:101A60003F0B84863E523AC03C6550023D58175E9B
:101A7000366F7D9C3736C3DA3501A9183484BF57D9
:101A800031B3D59530EA6BD332DD01113390E56B7C
:101A900024A78FA925FE31EF27C95B2D264C4D6267
:101AA000237B27A0222299E62015F3242128B4784D
:101AB0002A1FDEBA2B4660FC29710A3E28F41C71ED
:101AC0002DC376B32C9AC8F52EADA2372FC08D9AB0
:101AD00070F7E75871AE591E739933DC721C259369
:101AE000772B4F517672F11774459BD57578DC8949
:101AF0007E4FB64B7F16080D7D2162CF7CA474808B
:101B000079931E4278CAA0047AFDCAC67BB02EBC67
:101B10006C87447E6DDEFA386FE990FA6E6C86B59C
:101B20006B5BEC776A025231683538F369087FAF36
:101B3000623F156D6366AB2B6151C1E960D4D7A6D6
:101B400065E3BD6464BA0322668D69E06720CBD784
:101B50004817A115494E1F534B7975914AFC63DE16
:101B60004FCB091C4E92B75A4CA5DD984D989AC49C
:101B700046AFF00647F64E4045C12482444432CD7C
:101B80004173580F402AE649421D8C8B435068F13F
:101B900054670233553EBC755709D6B7568CC0F80A
:101BA00053BBAA3A52E2147C50D57EBE51E839E2CA
:101BB0005ADF53205B86ED6659B187A4583491EB08
:101BC0005D03FB295C5A456F5E6D2FAD5F801B3551
:101BD000E1B771F7E0EECFB1E2D9A573E35CB33CB6
:101BE000E66BD9FEE73267B8E5050D7AE4384A2698
:101BF000EF0F20E4EE569EA2EC61F460EDE4E22FDC
:101C0000E8D388EDE98A36ABEBBD5C69EAF0B8133E
:101C1000FDC7D2D1FC9E6C97FEA90655FF2C101A69
:101C2000FA1B7AD8FB42C49EF975AE5CF848E9000D
:101C3000F37F83C2F2263D84F0115746F1944109A7
:101C4000F4A32BCBF5FA958DF7CDFF4FF6605D78B9
:101C5000D95737BAD80E89FCDA39E33EDBBCF571C7
:101C6000DE8B9FB3DFD221F5DDE54B37DCD80C6B83
:101C7000D7EF66A9D6B6D8EFD481B22DD504A46229
:101C8000D033CEA0D16A70E6D35D1A24D210FE5EA6
:101C9000C527949CC47E2ADAC6494018C7CC56573B
:101CA000C2FB3C95C3A282D3C195E811C0A8AF4D39
:101CB000CB9FC58FCAC67BC9C8F1110BC974074435
:101CC000CC436D86CD1AD3C0CF2DB902CE4096AF8E
:101CD0009177FC6D902E422B921928E9939C3EA699
:101CE00096AB546497F2EA2295C580E094F8C7BC9D
:101CF0009FCFAD7E9E9613389CA179FA9D246FB537
:101D000098130577994ABB319B7DD1F39A30358979
:101D10008D075F4B8C5EE10D8E698BCF8FEC9D80C4
:101D20008ADBF7428B82490489B523C68888649A86
:101D300083BF0E5882E6B01E80D1DADC8154CC938A
:101D40008463A651853A1817870D72D586A0D0E214
:101D5000A997BA20A8CE0466AAF96EA4AB7C78EB4A
:101D6000AE4B1229AF12AC6FAD25C6ADAC1881F1E8
:101D7000A72FEB33A6765575A4413FB7A5C429F824
:101D8000A0F3433AA1AAFD7CA39D97BEA2D073C441
:101D9000B5E71906B4BEA740B689CD82B70CDBCD36
:101DA000B23BB10FB3620F49B155658BB06822D712
:101DB000BB5F4815BA06F653B8319C91B9B48ADEB8
:101DC000BC83E01CBDDA5E5ABFED3498BE00000053
:101DD000006567BCB88BC809AAEEAFB51257976209
:101DE0008F32F0DE37DC5F6B25B938D79DEF28B432
:101DF000C58A4F087D64E0BD6F018701D7B8BFD6A3
:101E00004ADDD86AF23377DFE0561063589F5719DE
:101E100050FA30A5E8149F10FA71F8AC42C8C07BA4
:101E2000DFADA7C76743087275266FCECD707FAD53
:101E3000951518112DFBB7A43F9ED0188727E8CF22
:101E40001A428F73A2AC20C6B0C9477A083EAF329F
:101E5000A05BC88E18B5673B0AD00087B2693850BE
:101E60002F0C5FEC97E2F059858797E53DD1878687
:101E700065B4E03ADD5A4F8FCF3F2833778610E4C0
:101E8000EAE37758520DD8ED4068BF51F8A1F82B1E
:101E9000F0C49F97482A30225A4F579EE2F66F4966
:101EA0007F9308F5C77DA740D518C0FC6D4ED09F25
:101EB000352BB7238DC518969FA07F2A271947FD7C
:101EC000BA7C204102928FF410F7E848A83D5814DC
:101ED0009B583FA823B6901D31D3F7A1896ACF76CE
:101EE000140FA8CAACE1077FBE8460C306D270A0FD
:101EF0005EB7171CE659B8A9F43CDF154C85E7C25C
:101F0000D1E0807E690E2FCB7B6B4877C3A20F0D8B
:101F1000CBC768B17329C704614CA0B8D9F5986FD5
:101F20004490FFD3FC7E5066EE1B37DA564D27B93E
:101F30000E284005B6C6EFB0A4A3880C1C1AB0DB6F
:101F4000817FD767399178D22BF41F6E9303F726E0
:101F50003B66909A83883F2F91ED589329546044B3
:101F6000B43107F80CDFA84D1EBACFF1A6ECDF9212
:101F7000FE89B82E4667179B54027027ECBB48F0C9
:101F800071DE2F4CC93080F9DB55E745639CA03FDB
:101F90006BF9C783D3176836C1720F8A79CB375D67
:101FA000E4AE50E15C40FF544E2598E8F673888B10
:101FB000AE16EF3716F84082049D273EBC241FE979
:101FC0002141785599AFD7E08BCAB05C333BB65905
:101FD000ED5ED1E555B07E5047D519ECFF6C213B45
:101FE00062094687DAE7E932C8828E8E70D49EEDA8
:101FF00028B1F951905F56E4823A31583A83098FFB
:10200000A7E66E331F08C1860D6DA63AB5A4E14060
:10201000BDC186FC052F2949174A4EF5AFF376223C
:102020003296119E8A78BE2B981DD997204BC9F401
:10203000782EAE48C0C001FDD2A566416A1C5E96EE
:10204000F779392A4F97969F5DF2F123E505196BD1
:102050004D607ED7F58ED162E7EBB6DE5F528E091A
:10206000C237E9B57AD9460068BC21BCD0EA31DF75
:10207000888F56633061F9D622049E6A9ABDA6BD48
:1020800007D8C101BF366EB4AD530908159A4E7218
:102090001DFF29CEA511867BB774E1C70FCDD910DE
:1020A00092A8BEAC2A461119382376A5807566C65B
:1020B000D810017A60FEAECF729BC973CA22F1A418
:1020C00057479618EFA939ADFDCC5E114506EE4D88
:1020D000766389F1CE8D2644DCE841F86451792F8E
:1020E000F9341E9341DAB12653BFD69AEBE9C6F90B
:1020F000B38CA1450B620EF01907694CA1BE519B30
:102100003CDB3627843599929650FE2E2E99B95491
:1021100026FCDEE89E12715D8C7716E134CE2E36F9
:10212000A9AB498A1145E63F03208183BB7691E044
:10213000E313F65C5BFD59E949983E55F1210682AF
:102140006C44613ED4AACE8BC6CFA9377E38417F7E
:10215000D65D26C36EB389767CD6EECAC46FD61D13
:10216000590AB1A1E1E41E14F38179A84BD769CBD8
:1021700013B20E77AB5CA1C2B939C67E0180FEA94D
:102180009CE59915240B36A0366E511C8EA7166659
:1021900086C271DA3E2CDE6F2C49B9D394F08104EB
:1021A0000995E6B8B17B490DA31E2EB11B483ED25E
:1021B000432D596EFBC3F6DBE9A69167511FA9B009
:1021C000CC7ACE0C749461B966F10605DE00B604D3
:1021D00011241FBECFEFD1E2DEBFCDBF00E00CBFA8
:1021E00012E0A0E0B2E0E4E1F8E303E00BBF02C0DC
:1021F00007900D92A43AB107D9F720E2A4EAB2E021
:1022000001C01D92AE33B207E1F710E1C8EED0E194
:1022100000E006C021970109802FFE010F946A9A01
:10222000C73ED10780E00807A9F70F94E95F0D9436
:10223000089C0C940000089508958091BB1E8111A4
:1022400004C02091571F24FF67C04091BC1E5091CD
:10225000BD1E6091551F7091561F4617570768F4B1
:102260008091291F90912A1FA0912B1FB0912C1FA4
:10227000892B8A2B8B2B09F44FC02091B904309104
:10228000BA044091BB045091BC04232B242B252B72
:1022900009F442C04091B5045091B6046091B7046E
:1022A0007091B804452B462B472BB1F1F8948091DF
:1022B000B9049091BA04A091BB04B091BC042091E0
:1022C000B5043091B6044091B7045091B804821B14
:1022D000930BA40BB50B80938A0C90938B0CA0935B
:1022E0008C0CB0938D0C789420918A0C30918B0CCF
:1022F00040918C0C50918D0C60E077E883E993E07D
:102300000F94E499C901803526E4920738F0809152
:10231000BC1E9091BD1E089590E080E00895089540
:1023200008958091BB1E811104C02091571F24FF86
:1023300067C04091BC1E5091BD1E6091551F7091A9
:10234000561F4617570768F48091291F90912A1F3E
:10235000A0912B1FB0912C1F892B8A2B8B2B09F45A
:102360004FC02091B9043091BA044091BB04509100
:10237000BC04232B242B252B09F442C04091B50427
:102380005091B6046091B7047091B804452B462B68
:10239000472BB1F1F8948091B9049091BA04A091BF
:1023A000BB04B091BC042091B5043091B6044091B7
:1023B000B7045091B804821B930BA40BB50B809308
:1023C0008A0C90938B0CA0938C0CB0938D0C78940A
:1023D00020918A0C30918B0C40918C0C50918D0C7B
:1023E00060E077E883E993E00F94E499C9018035D0
:1023F00026E4920738F08091BC1E9091BD1E08958E
:1024000090E080E008958091BB1E882301F1209127
:10241000481D27FD2AC04091291F50912A1F609115
:102420002B1F70912C1F443651056105710558F41E
:102430006091550B7091560B6D32710521F0109221
:10244000560B1092550B91E09093600308951092F3
:10245000560B1092550B51E05093BB1E73E07093D6
:10246000210C91E09093600308951092560B109206
:10247000550B33E03093210C91E090936003089565
:1024800008958091BB1E811104C02091571F24FF25
:1024900067C04091BC1E5091BD1E6091551F709148
:1024A000561F4617570768F48091291F90912A1FDD
:1024B000A0912B1FB0912C1F892B8A2B8B2B09F4F9
:1024C0004FC02091B9043091BA044091BB0450919F
:1024D000BC04232B242B252B09F442C04091B504C6
:1024E0005091B6046091B7047091B804452B462B07
:1024F000472BB1F1F8948091B9049091BA04A0915E
:10250000BB04B091BC042091B5043091B604409155
:10251000B7045091B804821B930BA40BB50B8093A6
:102520008A0C90938B0CA0938C0CB0938D0C7894A8
:1025300020918A0C30918B0C40918C0C50918D0C19
:1025400060E077E883E993E00F94E499C90180356E
:1025500026E4920738F08091BC1E9091BD1E08952C
:1025600090E080E008951092560B1092550B08955C
:102570008091BB1E811104C02091571F24FF67C0AA
:102580004091BC1E5091BD1E6091551F7091561F09
:102590004617570768F48091291F90912A1FA09130
:1025A0002B1FB0912C1F892B8A2B8B2B09F44FC02A
:1025B0002091B9043091BA044091BB045091BC04FD
:1025C000232B242B252B09F442C04091B5045091B4
:1025D000B6046091B7047091B804452B462B472B85
:1025E000B1F1F8948091B9049091BA04A091BB0420
:1025F000B091BC042091B5043091B6044091B70469
:102600005091B804821B930BA40BB50B80938A0CDA
:1026100090938B0CA0938C0CB0938D0C789420919C
:102620008A0C30918B0C40918C0C50918D0C60E099
:1026300077E883E993E00F94E499C901803526E4B3
:10264000920738F08091BC1E9091BD1E089590E0D5
:1026500080E008951092560B1092550B81E0809304
:10266000600308958091AD0E807F8034F1F0803654
:10267000D9F420914E1D2C712C3089F146E050E0A8
:1026800050936C0340936B0362E070E070936A03B5
:1026900060936903A4E0B0E0B0936803A09367037C
:1026A0007093660360936503089530914E1D3C71ED
:1026B0003C30A9F0E4E0F0E0F0936C03E0936B03AE
:1026C00082E090E090936A0380936903F09368033B
:1026D000E09367039093660380936503089528E071
:1026E00030E030936C0320936B0342E050E0509352
:1026F0006A034093690364E070E070936803609339
:102700006703A6E0B0E0B0936603A0936503089565
:102710008091EE1E82319CF026E030E030936C0315
:1027200020936B0341E050E050936A0340936903A8
:1027300064E070E070936803609367030895A7E016
:10274000B0E0B0936C03A0936B03E2E0F0E0F09391
:102750006A03E093690385E090E0909368038093B7
:10276000670308958091BB1E811104C02091571FFB
:1027700024FF67C04091BC1E5091BD1E6091551F43
:102780007091561F4617570768F48091291F909142
:102790002A1FA0912B1FB0912C1F892B8A2B8B2BCA
:1027A00009F44FC02091B9043091BA044091BB04A0
:1027B0005091BC04232B242B252B09F442C04091BB
:1027C000B5045091B6046091B7047091B804452BDC
:1027D000462B472BB1F1F8948091B9049091BA043B
:1027E000A091BB04B091BC042091B5043091B60413
:1027F0004091B7045091B804821B930BA40BB50B06
:1028000080938A0C90938B0CA0938C0CB0938D0CBE
:10281000789420918A0C30918B0C40918C0C5091C3
:102820008D0C60E077E883E993E00F94E499C901A7
:10283000803526E4920738F08091BC1E9091BD1E31
:10284000089590E080E008958091A50B9091A60BEB
:102850002091421D3091431D821B930B4091190220
:1028600050911A02841795079CF0841B950B0197D1
:10287000843B9105A8F461E070E070936C03609371
:102880006B03A2E0B0E0B0936A03A09369030895DC
:1028900097FFEDCF840F951F0197843B910558F367
:1028A000E2E0F0E0F0936C03E0936B0381E090E0F2
:1028B00090936A03809369030895CF92DF92EF9219
:1028C000FF922091BC1E3091BD1E8091551F9091AA
:1028D000561F2817390708F096C0C090291FD090BE
:1028E0002A1FE0902B1FF0902C1F80914D1D90E02F
:1028F000B0E0A0E0C816D906EA06FB0608F45AC004
:10290000E090BB1EEE2009F451C04091850C50911F
:10291000860C6091870C7091880C452B462B472BB9
:1029200009F448C06091810C7091820C8091830CF5
:102930009091840C672B682B692BE1F12091850C19
:102940003091860C4091870C5091880C8091810CBD
:102950009091820CA091830CB091840C8217930704
:10296000A407B50738F5A091AF04F8942091850C21
:102970003091860C4091870C5091880CC090810C4E
:10298000D090820CE090830CF090840C2C193D09BF
:102990004E095F09B0E00F942C9A60938A0C7093F3
:1029A0008B0C80938C0C90938D0C68C0F090571F0B
:1029B000F4FCABCFC0908A0CD0908B0CE0908C0CC8
:1029C000F0908D0C30E020E0CC0CDD1CEE1CFF1CE8
:1029D0008BE4C81688E9D80685E0E806F10408F01B
:1029E00079C04BE458E965E070E040931E025093D3
:1029F0001F026093200270932102C901FF90EF90A3
:102A0000DF90CF900895C090BB1ECC2009F45DC02C
:102A10004091B9045091BA046091BB047091BC0418
:102A2000452B462B472B31F26091B5047091B604CB
:102A30008091B7049091B804672B682B692B09F437
:102A4000B9CFF8948091B9049091BA04A091BB04D5
:102A5000B091BC042091B5043091B6044091B70404
:102A60005091B804821B930BA40BB50B80938A0C76
:102A700090938B0CA0938C0CB0938D0C7894C09099
:102A80008A0CD0908B0CE0908C0CF0908D0CF6940E
:102A9000E794D794C794C0928A0CD0928B0CE092A2
:102AA0008C0CF0928D0C60E077E883E993E0A7014D
:102AB00096010F94E499203586E4380708F484CF12
:102AC0002091BC1E3091BD1E7FCFD090571FD4FCEB
:102AD0009FCF70CFC0921E02D0921F02E0922002C0
:102AE000F0922102C901FF90EF90DF90CF900895FE
:102AF0000F94795F60936103709362038093630323
:102B0000909364038091610390916203A0916303A9
:102B1000B09164034091220C5091230C6091240CDD
:102B20007091250C841B950BA60BB70B8093750336
:102B300090937603A0937703B093780320910B1FB3
:102B400021FD4AC03091BB1E332309F445C040919A
:102B500075035091760360917703709178038091AB
:102B6000EE049091EF04A091F004B091F1044817A5
:102B700059076A077B0778F120916103309162035E
:102B800040916303509164032093220C3093230CF3
:102B90004093240C5093250C60917503709176033B
:102BA000809177039091780360936D0370936E0327
:102BB00080936F0390937003A0911F0CB091200C31
:102BC0001196B093200CA0931F0CE091550BF0913F
:102BD000560B319771F008956CED75E080E090E050
:102BE0006093F2047093F3048093F4049093F504DB
:102BF000AECF409161035091620360916303709185
:102C000064038091850C9091860CA091870CB09103
:102C1000880C84179507A607B707E8F6809161032B
:102C200090916203A0916303B09164032091850C9D
:102C30003091860C4091870C5091880C821B930B2D
:102C4000A40BB50B8093360690933706A0933806F5
:102C5000B093390608958091710390917203A09109
:102C60007303B091740380936D0390936E03A093EC
:102C70006F03B09370030F94795F6093790370933F
:102C80007A0380937B0390937C03809179039091E6
:102C90007A03A0917B03B0917C034091850C509105
:102CA000860C6091870C7091880C841B950BA60B89
:102CB000B70B8093710390937203A0937303B09347
:102CC0007403A091550BB091560B1196B093560B0F
:102CD000A093550B21E02093ED046091550B70916A
:102CE000560B6D30710509F459C0E091550BF09108
:102CF000560B319709F45CC080916D0390916E037F
:102D0000A0916F03B0917003B695A795979587959D
:102D10008093580390935903A0935A03B0935B0395
:102D20004091710350917203609173037091740329
:102D30008091580390915903A0915A03B0915B037D
:102D4000481759076A077B0708F12091850C3091D5
:102D5000860C4091870C5091880C2093810C309305
:102D6000820C4093830C5093840C60917903709192
:102D70007A0380917B0390917C036093850C709320
:102D8000860C8093870C9093880C08951092560BB4
:102D90001092550B71E07093BB1E08953091BB1ECD
:102DA000332309F4A2CF1092560B1092550B0895BD
:102DB0005091BB1E552309F49FCF4091B904509107
:102DC000BA046091BB047091BC044093B504509365
:102DD000B6046093B7047093B8048091790390911E
:102DE0007A03A0917B03B0917C038093B904909304
:102DF000BA04A093BB04B093BC042091291F309166
:102E00002A1F40912B1F50912C1F2F5F3F4F4F4F78
:102E10005F4F2093291F30932A1F40932B1F5093FD
:102E20002C1F6091850C7091860C8091870C90917D
:102E3000880C6093810C7093820C8093830C909328
:102E4000840C4091790350917A0360917B037091D7
:102E50007C034093850C5093860C6093870C709391
:102E6000880C08958091550B9091560B0D9709F49D
:102E7000A7C00F94795F6093790370937A0380936E
:102E80007B0390937C038091790390917A03A091C6
:102E90007B03B0917C034091850C5091860C60912E
:102EA000870C7091880C841B950BA60BB70B809335
:102EB000710390937203A0937303B09374032091F2
:102EC00071033091720340917303509174036091C8
:102ED000F2047091F3048091F4049091F5042617A4
:102EE00037074807590708F46AC0A091550BB091FD
:102EF000560BAB2B09F467C0E091550BF091560BC4
:102F00003196F093560BE093550BA091550BB09171
:102F1000560BE091550BF091560BAA0FBB1FA55411
:102F2000BB4FEE0FFF1FE754FB4F8D919C914081EB
:102F30005181841B950B9093800C80937F0C409162
:102F400071035091720360917303709174039091B7
:102F50004E1D907649F0903209F485C0903409F402
:102F600093C0903609F473C01092F2041092F304E7
:102F70001092F4041092F50451E05093ED04209166
:102F8000850C3091860C4091870C5091880C2093D1
:102F9000810C3093820C4093830C5093840C60918D
:102FA000790370917A0380917B0390917C03609305
:102FB000850C7093860C8093870C9093880C0895F1
:102FC0001092BB1E089521E030E03093560B209301
:102FD000550B6091B9047091BA048091BB04909133
:102FE000BC046093B5047093B6048093B7049093C7
:102FF000B8048091790390917A03A0917B03B091FA
:103000007C038093B9049093BA04A093BB04B0935B
:10301000BC0431E03093BB1E4091291F50912A1F00
:1030200060912B1F70912C1F4F5F5F4F6F4F7F4F31
:103030004093291F50932A1F60932B1F70932C1FBE
:10304000ACE3B0E0B093800CA0937F0C78CFDB01B1
:10305000CA01880F991FAA1FBB1F840F951FA61FA7
:10306000B71FAC01BD017695679557954795769545
:103070006795579547954093F2045093F3046093F6
:10308000F4047093F50478CF769567955795479536
:103090004093F2045093F3046093F4047093F504A6
:1030A0006BCF8091550B9091560B499709F4ACC0AA
:1030B0000F94795F6093790370937A0380937B0315
:1030C00090937C038091790390917A03A0917B0384
:1030D000B0917C034091850C5091860C6091870CD7
:1030E0007091880C841B950BA60BB70B8093710312
:1030F00090937203A0937303B0937403A091550B44
:10310000B091560BAB2BB9F1E091550BF091560BEA
:103110003196F093560BE093550BA091550BB0915F
:10312000560BE091550BF091560BAA0FBB1FA554FF
:10313000BB4FEE0FFF1FE754FB4F6D917C91208139
:103140003181621B730B7093800C60937F0C51E094
:103150005093ED048091790390917A03A0917B03C1
:10316000B0917C038093850C9093860CA093870C80
:10317000B093880C089581E090E09093560B809373
:10318000550B4091B9045091BA046091BB04709101
:10319000BC044093B5045093B6046093B704709395
:1031A000B8046091790370917A0380917B039091C8
:1031B0007C036093B9047093BA048093BB0490932A
:1031C000BC043091600391E0392730936003909301
:1031D000BB1E2091291F30912A1F40912B1F509117
:1031E0002C1F2F5F3F4F4F4F5F4F2093291F30936E
:1031F0002A1F40932B1F50932C1FAFE0B0E0B093D9
:10320000800CA0937F0CA3CF1092BB1E08958091D9
:10321000BB1E0F94795F6093610370936203809388
:103220006303909364038091610390916203A09182
:103230006303B09164034091220C5091230C609180
:10324000240C7091250C841B950BA60BB70B809357
:10325000750390937603A0937703B093780320913E
:103260007503309176034091770350917803609114
:10327000EE047091EF048091F0049091F104261710
:1032800037074807590708F471C08091610390918E
:103290006203A0916303B09164038093220C909326
:1032A000230CA093240CB093250C51E05093ED0413
:1032B0006091750370917603809177039091780304
:1032C00096958795779567956093EE047093EF04D4
:1032D0008093F0049093F1043091BB1E311132C001
:1032E0008CED95E0A0E0B0E08093F2049093F304BD
:1032F000A093F404B093F5046091EE047091EF0490
:103300008091F0049091F104969587957795679553
:103310006093EE047093EF048093F0049093F104B3
:10332000E091AB04F091AC0490817091AA04A0915B
:10333000AD0EA07F972301F1A03409F453C0A0364D
:1033400009F448C04091BC1E5091BD1EE091551F2C
:10335000F091561F4E175F0750F4F091BB1EFF23EC
:1033600029F05091AD0E507F503491F00895B091F6
:10337000481DB7FDF2CF0895A03421F72091550BD9
:103380003091560B25303105E9F65093BB1EDACF4C
:103390000F94795F8091500390915103A091520353
:1033A000B0915303E091AB04F091AC043081909163
:1033B000AA043923D9F2A091550BB091560BA8302D
:1033C000B105C9F01092BB1E7091661F7F5F7093AC
:1033D000661F08958091550B9091560B079709F041
:1033E000B1CFD3CF6091550B7091560B68307105FA
:1033F00009F0A8CFCACFB093560BA093550B0895F0
:103400002091511D30E080914E1D8C718C3009F45B
:1034100079C0E091421DF091431D60917F0C709145
:10342000800C8091A50B9091A60B8E1B9F0B0F9487
:103430009D99261737070CF047C0621B730B7093DA
:103440006C0360936B0360917F0C7091800C809192
:10345000720B9091730B8E1B9F0B0F949D992617E7
:1034600037070CF048C0621B730B70936A036093BC
:10347000690360917F0C7091800C8091700B90912A
:10348000710B8E1B9F0B0F949D99261737076CF5B8
:10349000621B730B709368036093670360917F0CEA
:1034A0007091800C80916C0B90916D0B8E1B9F0B1B
:1034B0000F949D992617370774F4621B730B709352
:1034C0006603609365030895161617060CF4B7CFCC
:1034D000620F731FB4CF161617068CF3620F731F9B
:1034E000709366036093650308951616170694F2A9
:1034F000620F731FCFCF161617060CF4B6CF620FEC
:10350000731FB3CF4091471D41FD83CF220F331F5F
:1035100080CFCF92DF92EF92FF92CF93DF930F9401
:10352000795F609361037093620380936303909368
:1035300064038091610390916203A0916303B09151
:1035400064034091220C5091230C6091240C7091E3
:10355000250C841B950BA60BB70B809375039093DA
:103560007603A0937703B0937803C0907503D0904F
:103570007603E0907703F09078032091EE04309189
:10358000EF044091F0045091F104C216D306E40612
:10359000F50608F465C08091610390916203A091E3
:1035A0006303B09164038093220C9093230CA09347
:1035B000240CB093250C40917503509176036091D3
:1035C000770370917803769567955795479576952B
:1035D0006795579547954093EE045093EF04609399
:1035E000F0047093F104D090BB1EDD2009F453C0A9
:1035F000C090291FD0902A1FE0902B1FF0902C1F05
:1036000080914D1D90E0B0E0A0E08C159D05AE05C9
:10361000BF0508F040C08091511D90E0E090550B2F
:10362000F090560B8E159F0591F02091291F309137
:103630002A1F40912B1F50912C1F2330310541052B
:10364000510528F03091661F3F5F3093661FF09060
:10365000481DF7FE56C09093560B8093550B51C0F2
:1036600060918A0C70918B0C80918C0C90918D0CD8
:1036700096958795779567956093EE047093EF0420
:103680008093F0049093F104DF91CF91FF90EF903D
:10369000DF90CF9008950F94795F6093850C7093BD
:1036A000860C8093870C9093880C0F94795F6B0144
:1036B0007C01C091511D2C2F30E050E040E060E8CB
:1036C0007DE88BE590E00F94B199C21AD30AE40A21
:1036D000F50AC092810CD092820CE092830CF09299
:1036E000840CD0E0D093560BC093550B1092F2048B
:1036F0001092F3041092F4041092F50451E05093E8
:10370000BB1E71E070936003DF91CF91FF90EF904B
:10371000DF90CF900895EF92FF920F931F93CF9376
:10372000DF930091511D10E080914E1D8C718C3003
:1037300009F4CAC0F80130E020E0E090421DF090AA
:10374000431D60917F0C7091800C8091A50B90912E
:10375000A60B8E199F090F949D9961507109E61768
:10376000F7070CF0A2C06E1B7F0BC091AF04D09185
:10377000B004C617D70720F4061717070CF0A2C02D
:103780002C0F3D1F922F432F6217730710F4962FB3
:10379000472F90936B0340936C0360917F0C709163
:1037A000800C8091720B9091730B8E199F090F946E
:1037B0009D9961507109E617F7070CF06FC06E1BF9
:1037C0007F0BC617D70720F4061717070CF078C031
:1037D000522FA32F6217730710F4562FA72F509361
:1037E0006903A0936A0360917F0C7091800C8091B3
:1037F000700B9091710B8E199F090F949D996150D8
:103800007109E617F7070CF042C06E1B7F0BC61755
:10381000D70720F4061717070CF050C0B22F832FDC
:103820006217730710F4B62F872FB0936703809346
:10383000680360917F0C7091800C80916C0B90916B
:103840006D0B8E199F090F949D9961507109E617B0
:10385000F707BCF46E1B7F0BC617D70718F40617C3
:10386000170754F52617370708F09B0130936603B6
:1038700020936503DF91CF911F910F91FF90EF90FF
:1038800008951616170644F36E0F7F1FE5CF161620
:1038900017060CF4BCCF6E0F7F1FB9CF1616170694
:1038A0000CF48FCF6E0F7F1F8CCF161617060CF4FB
:1038B0005CCF6E0F7F1F59CFBE01D4CFBE01AECFFC
:1038C000BE0186CFBE015CCFE090471DE1FC32CF48
:1038D0009801F801EE0FFF1F30CFCF92DF92EF92E9
:1038E000FF92E091B30BF091B40B1995AC018936BE
:1038F00021E092070CF443C09C0129563140A3E813
:10390000BDE20F943F9A0024880F991F001C880F76
:10391000991F001C892F902D877099274856514078
:10392000493621E052075CF1009719F18130910589
:10393000D1F082309105A9F08330910581F0843077
:10394000910559F08530910531F0069711F04856F0
:1039500051404856514048565140485651404856AB
:1039600051404856514048565140493621E052078F
:1039700034F040545B40493681E05807D4F78091D9
:10398000421D9091431D481B590B2091BB1F237072
:10399000223031F4C090BB1DD090BC1D4C195D0984
:1039A000E091BE1D9A01220F331FF0E0A0E0B1E0CC
:1039B000AE1BBF0B0F94729A6B017C01A0917F1F0D
:1039C000B091801F9F010F947A9AC60ED71EE81EF1
:1039D000F91ECD2CDE2CEF2CFF24E7FCFA94D092BC
:1039E000801FC0927F1FFF90EF90DF90CF900895CF
:1039F000CF92DF92EF92FF920F94795F6093610311
:103A000070936203809363039093640380916103D6
:103A100090916203A0916303B09164034091220CE2
:103A20005091230C6091240C7091250C841B950BF4
:103A3000A60BB70B8093750390937603A09377033F
:103A4000B0937803C090220CD090230CE090240C0B
:103A5000F090250CCD28CE28CF28C1F41092750304
:103A600010927603109277031092780320916103ED
:103A70003091620340916303509164032093220CC0
:103A80003093230C4093240C5093250C40917503E4
:103A90005091760360917703709178038091EE04E2
:103AA0009091EF04A091F004B091F10448175907E8
:103AB0006A077B07C0F130914A1D3F77313009F426
:103AC000C1C0311120C051E0509360036091750373
:103AD00070917603809177039091780396958795FE
:103AE000779567956093EE047093EF048093F004EC
:103AF0009093F104A0911F0CB091200C1196B093FB
:103B0000200CA0931F0CC0906103D0906203E09042
:103B10006303F0906403C092220CD092230CE092D5
:103B2000240CF092250CD090B51FD5FE86C0E090F5
:103B30006003EE2009F481C0E091B30BF091B40B67
:103B40001995AC01893621E092070CF442C09C0122
:103B500029563140A3E8BDE20F943F9A0024880F14
:103B6000991F001C880F991F001C892F902D8770AA
:103B7000992748565140493621E0520754F10097A1
:103B800011F181309105C9F082309105A1F08330A7
:103B9000910579F08430910551F08530910529F037
:103BA000069709F0B5C0485651404856514048560E
:103BB0005140485651404856514048565140493668
:103BC00021E0520734F040545B40493681E0580709
:103BD000D4F72091421D3091431D421B530B70912D
:103BE000BB1F7370723031F480917D1E90917E1EE8
:103BF000481B590BE091BE1D9A01220F331FF0E0C4
:103C0000A0E0B1E0AE1BBF0B0F94729A6B017C0178
:103C1000A0916B1FB0916C1F9F010F947A9AC60EF2
:103C2000D71EE81EF91ECD2CDE2CEF2CFF24E7FC5E
:103C3000FA94D0926C1FC0926B1FFF90EF90DF90B0
:103C4000CF9008958091220C9091230CA091240C88
:103C5000B091250CC090B104D090B204E090B304B0
:103C6000F090B4048C199D09AE09BF09AC01BD01E7
:103C7000440F551F661F771F840F951FA61FB71F80
:103C8000B695A7959795879580935C0390935D0370
:103C9000A0935E03B0935F032091220C3091230C1C
:103CA0004091240C5091250C2093B1043093B20420
:103CB0004093B3045093B40440917503509176033C
:103CC000609177037091780380915C0390915D031C
:103CD000A0915E03B0915F03481759076A077B07FD
:103CE00030F4E0911F0CF091200C3497A0F081E0AB
:103CF00090E09093200C80931F0C809360031092AF
:103D0000EE041092EF041092F0041092F104FBCE36
:103D10004856514048CF6091750370917603809169
:103D20007703909178039695879577956795969503
:103D30008795779567956093EE047093EF04809371
:103D4000F0049093F104A0911F0CB091200C1196F7
:103D5000B093200CA0931F0CD6CECF93DF9310927C
:103D6000ED0481E08093ED042091FB042330F1F019
:103D7000223091F0213029F4E091F704F091F80419
:103D8000199560916A1F662321F07091ED047111FD
:103D900017C0DF91CF910895E091A804F091A90494
:103DA00030819091A704392339F3EBCFC091A80457
:103DB000D091A90448815091A7044523E9F6E1CFA9
:103DC0008091750390917603A0917703B091780369
:103DD000A091081FA6FDDDCFB091691FB111D9CF09
:103DE000C091F20BD091F30BCF52DD4F1882E091CE
:103DF000AB04F091AC04D081F091AA04DF2309F068
:103E000045C0E091A804F091A90420813091A70455
:103E1000232349F0C091F20BD091F30BCF52DD4F29
:103E2000988192609883E091F20BF091F30BEF523E
:103E3000FD4F4081446040835091BB1E552349F0A3
:103E4000C091F20BD091F30BCF52DD4F68816860C7
:103E50006883C091F20BD091F30B0F94795FCC0F74
:103E6000DD1FCC0FDD1FC75AD64F688379838A8345
:103E70009B83A091F20BB091F30BAE37B10580F0AC
:103E80007091081F70647093081F83CFC091F20B6C
:103E9000D091F30BCF52DD4F888181608883B1CF01
:103EA0008091F20B9091F30B01969093F30B80931A
:103EB000F20BB091081FBF7BB093081F6ACFCF935E
:103EC000DF931092ED048091FC04833009F481C0EB
:103ED0008230B9F08130F1F4E091F904F091FA0404
:103EE00019957091691F772301F1A091ED04A1113B
:103EF0007BC0B1E0D0916A1FD1111CC0DF91CF917E
:103F00000895E091AB04F091AC0420819091AA0453
:103F1000292311F35091691F552339F06091ED0465
:103F2000662339F3DF91CF910895B0E0D0916A1FF5
:103F3000DD2321F34091710350917203609173036B
:103F400070917403F091081FF6FDD8CFC091F20B69
:103F5000D091F30BB1116FC0CF52DD4F1882E091B9
:103F6000AB04F091AC0480812091AA04822309F073
:103F700082C0E091A804F091A90430815091A70477
:103F8000352349F0C091F20BD091F30BCF52DD4FA6
:103F90006881626068837091BB1E772349F0E0916D
:103FA000F20BF091F30BEF52FD4FA081A860A083BC
:103FB000C091F20BD091F30B0F94795FCC0FDD1F02
:103FC000CC0FDD1FC75AD64F688379838A839B83C2
:103FD0003CC0C091AB04D091AC0438814091AA049C
:103FE000342309F079CF96CF209171033091720379
:103FF0004091730350917403B091081FB6FD7ECFBA
:10400000E091F20BF091F30BEE0FFF1FEE0FFF1F8D
:10401000E75AF64F20833183428353838091F20B1A
:104020009091F30B8E379105B8F0D091081FD064B2
:10403000D093081F63CFCC0FDD1FCC0FDD1FC75AF5
:10404000D64F488359836A837B834091F20B50910A
:10405000F30B4E37510548F7A091F20BB091F30BDB
:104060001196B093F30BA093F20BF091081FFF7B16
:10407000F093081F43CFC091F20BD091F30BCF52B6
:10408000DD4F98819160988374CFCF92DF92EF9249
:10409000FF92AB01DC011396FC91139711962D91C1
:1040A0003C91EF2FEF712115310539F52F2FFF0FBF
:1040B000330B220F232F221F330B8FEF9FEF0E2E78
:1040C00002C0880F991F0A94E2F780959095BA0173
:1040D000770F660B762F86239723840F951F02C0D8
:1040E00095958795EA95E2F782279327821B930B94
:1040F000FF90EF90DF90CF900895DB010F94729ABC
:104100006C01FF24D7FCF094EF2CC601F6FF0EC023
:104110002F2FFF0F330B220F232F221F330BCA0128
:1041200082279327821B930B8C0D9D1D02C09595B2
:104130008795EA95E2F797FD0196FF90EF90DF9063
:10414000CF9008958F929F92AF92BF92CF92DF92BD
:10415000EF92FF920F931F93CF93DF935C018B013C
:104160001092BA071092B9071092300C812F0F9459
:10417000F751802F0F94F7511093C4080093C30890
:104180000115110509F4DDC045018FE3E82EF12C7E
:104190006501C00ED11EC80183709927009709F4EC
:1041A00059C081309105C1F10297D9F0E50189919B
:1041B0004E010F94F751A091B907B091BA0711962B
:1041C000B093BA07A093B9079091C10F8091C20F25
:1041D000981708F0F4C0891B990B0197892B09F4F3
:1041E00092C0F40181914F010F94F7518091B9076A
:1041F0009091BA0701969093BA078093B90790916E
:10420000C10F8091C20F981708F0D2C0891B990B7B
:104210000197892B09F477C0E40189914E010F942D
:10422000F751A091B907B091BA071196B093BA07A8
:10423000A093B9079091C10F8091C20F981708F011
:1042400059C0891B990B019709F45DC0C814D904A2
:1042500009F477C0E40189910F94F751E091B9070F
:10426000F091BA073196F093BA07E093B9079091AD
:10427000C10F8091C20F981708F055C0891B990B88
:104280000197892B09F43FC088810F94F7518091E1
:10429000B9079091BA0701969093BA078093B9072E
:1042A0009091C10F8091C20F981708F043C0891BED
:1042B000990B0197892B39F189810F94F751A091BE
:1042C000B907B091BA071196B093BA07A093B9078E
:1042D0009091C10F8091C20F981708F062C0891B9E
:1042E000990B0197892B79F04E01F3E08F0E911C09
:1042F0008A8195CF9701291B3109820F932F911D38
:10430000892B09F0A3CF01E00093300CDF91CF910E
:104310001F910F91FF90EF90DF90CF90BF90AF90E3
:104320009F908F9008959701291B3109820F932F39
:10433000911DA7CF9701291B3109820F932F911D42
:10434000B9CF8090300C8110E1CF2FEF3FEFA90162
:1043500020933520309336204093372050933820D7
:1043600021E0A801B50185E390E20E9450F5EB0140
:10437000182F892F0F94F751812F0F94F7518D2FFC
:104380000F94F7518C2FDF91CF911F910F91FF90D8
:10439000EF90DF90CF90BF90AF909F908F900D9453
:1043A000F7519701291B3109820F932F911D9ACF45
:1043B0009701291B3109820F932F911D2ACF970155
:1043C000291B3109820F932F911D08CF833023E0E1
:1043D000920709F4F7C258F1813123E0920709F4FA
:1043E000D9C208F060C08A3023E0920709F4DEC227
:1043F00008F0E8C0863023E0920709F461C208F4AF
:104400004BC2883023E0920709F4B7C108F4F7C320
:1044100050912F1F51FF06C06091160674E0672768
:1044200060931606A0911606A2FFD9C108958C309C
:1044300022E0920709F4D6C2D8F4853022E0920730
:1044400009F4E0C208F0D2C0813022E0920709F4FA
:104450006BC208F4D5C1833022E0920709F46DC124
:1044600008F4A9C350912F1F51FFE0CF0C94A689E7
:10447000833122E0920709F49FC208F46BC08731B0
:1044800022E0920709F43DC308F0F5C0853122E02F
:10449000920709F41CC108F4ECC270912F1F71FF40
:1044A000C5CF0C947D87883123E0920709F4B6C20A
:1044B00008F46EC0833029E9920709F44BC208F072
:1044C000AFC0813029E9920709F417C108F035C35C
:1044D0008115994909F0C3C3F8948091D60887FDE6
:1044E0008C5F18160CF0A1C3082E000C990BFC0170
:1044F000EE0FFF1FEE0FFF1FE952F74F20813181B2
:1045000042815381880F991F880F991FFC01ED523A
:10451000F74F80819181A281B381281B390B4A0B0F
:104520005B0B7894211531054105510509F47ECFC7
:1045300060E077E883E993E00F94E4993093F10E1B
:104540002093F00E0F948754A091571FA860A0935A
:10455000571F08958F3022E0920709F4EBC108F449
:104560005EC1813122E0920709F49FC008F441C383
:1045700070912F1F71FF06C0A091170690E2A92726
:10458000A0931706B0911706B5FD50CF0C940D8877
:10459000843123E0920709F4A8C208F46EC1863181
:1045A00023E0920709F48DC008F447C230912F1F11
:1045B00031FF3CCF0E945BFC409116064F77409341
:1045C000160608958D3023E0920709F49BC108F484
:1045D0003BC18F3023E0920709F4BFC008F498C1B3
:1045E00090912F1F91FF22CF0D945B02883022E023
:1045F000920709F432C208F4F4C08A3022E092072C
:1046000009F475C008F489C290912F1F91FF0ECF55
:104610000E94CF88A0911706A77FA0931706089540
:10462000853029E9920709F4B4C008F42EC2863017
:10463000994909F013C32091751F3091761F2115F8
:10464000310509F4F3CEA0E1B7E20F943F9A20912F
:10465000BC1E3091BD1E50E040E00F94E4993093B1
:10466000FE0E2093FD0E0F9487549091571F986073
:104670009093571F0895813023E0920709F4A9C051
:1046800008F0A5C28831924009F0E7C2F0912F1FCF
:10469000F1FF05C08091170680588093170620917E
:1046A000170627FDC3CE0C944D87E0912F1FE1FF25
:1046B000BDCE0E940D88F0911706FF7DF09317067E
:1046C000089550912F1F51FFB1CE0C9483FDA091FE
:1046D0002F1FA1FF06C0B091170690E4B927B09331
:1046E0001706E0911706E6FDA1CE0C94AC87B091B9
:1046F0002F1FB1FF9BCE0C9405892091751F30911F
:10470000761F2115310509F491CEA0E1B7E20F948F
:104710003F9A2091BC1E3091BD1E50E040E00F94A6
:10472000E4993093F40E2093F30E0F948754E091A4
:10473000571FE860E093571F089560912F1F61FF96
:1047400006C07091170691E0792770931706A09123
:104750001706A0FD6BCE0C94DB89F0912F1FF1FFA3
:1047600006C08091160620E18227809316063091BC
:10477000160634FD5BCE0D949E03B0912F1FB1FF42
:1047800055CE0E9410FFE0911606EB7FE0931606CF
:1047900008952091751F3091761F2115310509F478
:1047A00045CEA0E1B7E20F943F9A2091BC1E309114
:1047B000BD1E50E040E00F94E4993093FC0E20932E
:1047C000FB0E0F9487542091571F28602093571F8A
:1047D000089550912F1F51FF29CE0D9418050C9468
:1047E00010FF863022E0920709F46FC187309240B3
:1047F00009F037C2E0912F1FE1FF18CE0C945D86BF
:10480000811521E0920709F4B8C18130914009F087
:1048100027C280912F1F826080932F1F08958D30B3
:1048200022E0920709F4DFC18E30924009F013C2F2
:1048300030912F1F31FFFACD0E946E8840911706EC
:104840004F7E4093170608958B3023E0920709F4BA
:104850004DC08C30934009F005C230912F1F31FFBD
:1048600006C04091160658E0452740931606609111
:10487000160663FDDBCD0C94A6FC823123E0920783
:1048800009F4C3C18331934009F0E6C160912F1F41
:1048900061FFCCCD0C94EEFF843023E0920701F150
:1048A0008530934009F0D6C180912F1F81FFBECD86
:1048B0000F947D01209116062D7F209316060895F2
:1048C00090912F1F91FF06C0F091160682E0F82705
:1048D000F09316062091160621FDA8CD0D947D01BA
:1048E00030912F1F31FFA2CD0D94AB0270912F1F7D
:1048F00071FF9CCD0E94A6FCA0911606A77FA093F5
:104900001606089540912F1F41FF90CD0D94C804C5
:10491000B0912F1FB1FF8ACD0F949E03E091160630
:10492000EF7EE09316060895B0912F1FB1FF7ECD64
:104930000C94928680912F1F81FF06C0209117064C
:1049400030E12327209317064091170644FD6ECDD2
:104950000C946E882091751F3091761F21153105BA
:1049600009F464CDA0E1B7E20F943F9A2091BC1EF8
:104970003091BD1E50E040E00F94E4993093F80E62
:104980002093F70E0F9487543091571F386030935F
:10499000571F089570912F1F71FF48CD0F9431015B
:1049A000809116068F7D80931606089550912F1FD3
:1049B00051FF3CCD0C94D2FDA0912F1FA1FF36CD0D
:1049C0000C94DD87A0912F1FA1FF06C0B0911606A1
:1049D000E1E0BE27B09316069091160690FD26CD15
:1049E0000D94EA03B0912F1FB1FF06C0E0911706A6
:1049F00098E0E927E0931706F0911706F3FD16CD2E
:104A00000C94CF8880912F1F81FF10CD0E94708958
:104A1000209117062D7F20931706089540912F1F90
:104A200041FF05C0509116065058509316066091EC
:104A3000160667FDFBCC0C945BFC90912F1F91FF39
:104A400006C0F091160680E4F827F0931606209130
:104A5000160626FDEBCC0C94C4FEE0912F1FE1FF5F
:104A6000E5CC0E943A89F0911706FB7FF093170678
:104A7000089550912F1F51FFD9CC0E94AC876091AF
:104A800017066F7B6093170608952091751F30916C
:104A9000761F2115310509F4C9CCA0E1B7E20F94C6
:104AA0003F9A2091BC1E3091BD1E50E040E00F9413
:104AB000E4993093FA0E2093F90E0F948754F091F5
:104AC000571FF860F093571F0895F0912F1FF1FFC3
:104AD00006C08091170622E0822780931706309146
:104AE000170631FDA3CC0C94708960912F1F61FFD4
:104AF0009DCC0E94C4FE709116067F7B70931606B3
:104B0000089560912F1F61FF91CC0E944D87709195
:104B100017067F7770931706089540912F1F41FF66
:104B200006C05091170664E05627509317067091FF
:104B3000170672FD7BCC0C943A892091751F309139
:104B4000761F2115310509F471CCA0E1B7E20F946D
:104B50003F9A2091BC1E3091BD1E50E040E00F9462
:104B6000E4993093F60E2093F50E0F948754B0918C
:104B7000571FB860B093571F089520912F1F2D7FA6
:104B800020932F1F0F94EA030F947D010E9410FFC2
:104B90000E94A6FC0E94DB890E9470890E943A89CB
:104BA0000E94CF880E946E880E940D88109217067E
:104BB00010921606089530912F1F31FF37CC0E94B6
:104BC000DB89409117064E7F409317060895309178
:104BD0002F1F31FF2BCC0F94EA03409116064E7F16
:104BE00040931606089550912F1F51FF1FCC0C942F
:104BF0009F8860912F1F61FF19CC0C943E884091D3
:104C00002F1F41FF13CC0D943E0070912F1F71FF99
:104C100006C0A0911606B0E2AB27A0931606E0915D
:104C20001606E5FD03CC0D9431012091D708309193
:104C3000D8084091D9085091DA088091E308909102
:104C4000E408A091E508B091E608281B390B4A0B4F
:104C50005B0B67CC0895089508950895089508950D
:104C6000089508950895982F803110F00F94FC9BBB
:104C7000E82FF0E08827E05CF94D8F4F0D946A9A99
:104C8000862688266E268E2695269B26A226A82670
:104C9000D0260D2714271B272327432750267526A8
:104CA000603281E07807F8F484EA97E16F3F71059C
:104CB00009F008F420C16031F1E07F0708F045C138
:104CC0007727660F771F680F791FFB01E95FFE4F9B
:104CD0006081718188E892E00C944520603221E087
:104CE000720708F4D7C080E008956035710508F4B4
:104CF000D7C06F3F710509F0B0F76055710929E918
:104D00003CE0620F731FFB0180810895892F089595
:104D10006038710540F729E83EE0F3CF603231E0BA
:104D2000730708F78BEE98E1C1CF60387105D8F6AC
:104D300022E43DE1E6CF603281E07807A0F68DE520
:104D400096E1B4CF6038710570F625EB3FE1D9CF1D
:104D50006035710508F4A7C0603A710508F4AEC06B
:104D6000603F710508F0BFCF605A7109A6EFB5E149
:104D7000262F6034710508F4B5C06834710508F059
:104D8000F3C02054E22FF0E0EE0FFF1FEA0FFB1FED
:104D9000E95BFF4F6081718188E892E00C944520C7
:104DA0006033710508F482C06036710508F48BC069
:104DB0006039710508F4B6C0603C710508F4F1C0B3
:104DC000603F710508F4F2C06032E1E07E0708F44C
:104DD000F2C06035F1E07F0708F4F2C0603821E0EE
:104DE000720708F080CF60557140ABEDB1E1262F1E
:104DF0006432710508F489C06A32710508F097C001
:104E0000245230E0220F331FA20FB31FFD0163A510
:104E100074A588E892E00C944520603C710508F088
:104E200062CF29EC3DE06DCF603C710508F05BCFAF
:104E30002BEF3DE166CF603231E0730708F053CFCE
:104E400082E39AE133CF6035710538F1603A71053C
:104E500080F1683B710508F046CF605A71096031F6
:104E60007105B0F16431710508F08CC06051E62F16
:104E7000F0E0EE0FFF1FE553FE4E6081718188E880
:104E800092E00C9445206038710508F02CCF29E49D
:104E90003DE037CF89E79BE109CFA3EFB3E168CFCE
:104EA000A8E2B5E165CFAFE8B5E162CFA0EBB3E131
:104EB0009ECF60557109AAE5B4E15ACF60557109DA
:104EC000A1ECB4E155CF60537109ADE6B3E18FCFEA
:104ED000E62FE370EA5FEE0FE61BF0E0EC54FE4EC7
:104EE000878108952770245E220F261BA20FB11D13
:104EF000FD0187810895762F7F707858770F761B94
:104F0000870F911DFC01878108953BEA639F412D26
:104F1000112446954695542F550F450F440F241BD9
:104F2000215FE2CF60567109AAE2B3E160CF2A5255
:104F300030E0220F331FA21BB30BFD01EF5BFF4FCD
:104F4000808191819595879508956051262F30E055
:104F5000220F331F821B930BFC01EB5BFE4F808102
:104F60009181959587950895285430E0220F331F3D
:104F7000A21BB30BFD01EB59FF4F808191819595E9
:104F8000879508956451E62FF0E0EE0FFF1FF1952D
:104F9000E195F109E752FE4E8081918195958795C3
:104FA000089560597109A7EEB2E121CF605C7109E3
:104FB000A4EAB2E11CCF605F7109A1E6B2E117CFAC
:104FC00060527140AEE1B2E112CF803110F00F9427
:104FD000FC9BE82FF0E08827EF50F84D8F4F0D94A1
:104FE0006A9A43285D2864286C2874287B288328C3
:104FF0008A280128B728BE28C528E5280E29442874
:105000004C286033710508F423C16036710508F43B
:105010002CC16039710508F460C1603C710508F469
:10502000A3C1603F710508F4A4C1603281E0780734
:1050300008F4A4C16035E1E07E0708F4A4C160383B
:10504000F1E07F0700F560557140ABEDB1E1862FCF
:105050006432710508F42DC16A32710508F042C14D
:105060008452E82FF0E0EE0FFF1FEA0FFB1F34E63B
:10507000439FC001112494A783A74FEF5FE71396C6
:105080005C934E93129708956032E1E07E0708F03A
:10509000D4C0A4EAB7E180C06035710508F4CFC080
:1050A0006F3F710509F078F76055710989E99CE057
:1050B000680F791FFB01408308956038710508F07F
:1050C000B6C089E89EE0F4CF603281E0780708F04E
:1050D000B3C0A9E7BBE160C06032E1E07E0708F041
:1050E000AAC0ABEEB8E158C06038710508F0A2C0A4
:1050F00082E49DE1DDCF6032F1E07F0708F099C0E6
:10510000ADE5B6E149C06038710508F091C085EBA6
:105110009FE1CECF6035710508F497C0603A710504
:1051200008F49EC0603F710508F0ADCF605A710968
:10513000E6EFF5E1862F6034710508F4A5C0683408
:10514000710508F0F0C08054A82FB0E0AA0FBB1F73
:10515000AE0FBF1FA95BBF4F74E6479FB00111247C
:105160006D937C938FEF9FE7938382830895603CD8
:10517000710508F05BC089EC9DE09ACF603C710539
:1051800008F053C08BEF9DE193CF603281E0780748
:1051900008F04AC0A2E3BAE16F3F710509F008F4D4
:1051A0007EC06031E1E07E0708F0ACC0FB01FF2764
:1051B000EE0FFF1FEA0FFB1FE95FFE4F54E6459F0E
:1051C000900111243183208358CF60357105D0F1CF
:1051D000603A710508F43FC0683B710508F053CF91
:1051E000605A71096031710508F444C06431710579
:1051F00008F0A9C06051E62FF0E0EE0FFF1FE55365
:10520000FE4E24E6429FA0011124518340836FEF9C
:105210007FE77093B7116093B611089560387105F8
:1052200068F489E49DE044CF0895089508950895B1
:105230000895089508950895089508950895E8E259
:10524000F5E178CFE3EFF3E175CFEFE8F5E172CF69
:10525000A0EBB3E1FCCE60557109EAE5F4E16ACF59
:1052600060557109E1ECF4E165CF60537109ADE679
:10527000B3E1EDCEE62FE370EA5FEE0FE61BF0E060
:10528000EC54FE4E4783C3CFA62FA770A45EAA0F8F
:10529000A61BAE0FBF2FB11D17964C9363CFE62F01
:1052A000EF70E858EE0FE61BEA0FFB2FF11D478366
:1052B000E4CE8BEA689F812D112486958695982FE0
:1052C000990F890F880FE62FE81BE15FEE0FE61BB1
:1052D000EA0FFB2FF11D4783D0CE60567109AAE279
:1052E000B3E1B5CE8A5290E0880F991FFD01E81B0B
:1052F000F90BEF5BFF4F842F90E0880F991F91838C
:105300008083BBCE6051862F90E0880F991FFD01EE
:10531000E81BF90BEB5BFE4F842F90E0880F991F81
:1053200091838083AACE885490E0880F991FDF0173
:10533000A81BB90BAB59BF4F842F90E0880F991F62
:105340008D939C930FCF6451E62FF0E0EE0FFF1F7B
:10535000F195E195F109E752FE4E842F90E0880F18
:10536000991F9183808353CF60597109A7EEB2E1F1
:105370006ECE605C7109A4EAB2E169CE605F71092A
:10538000A1E6B2E164CE60527140AEE1B2E15FCE1F
:105390002F923F924F925F926F927F928F929F9245
:1053A000AF92BF92CF92DF92EF92FF920F931F9333
:1053B000CF93DF93CDB7DEB7AD970FB6F894DEBFCE
:1053C0000FBECDBF2C016CA3633009F4E8C608F40E
:1053D000D1C62CA1243009F4FAC2253009F0FBC64D
:1053E0009C012B5B3E4F89509F4FA20149505109B0
:1053F0005EA34DA300E110E01BA70AA760EF7FEFBB
:1054000078A76FA311E019A72DA03EA02816390692
:1054100009F499C19BA38AA32E5F3F4F3DA72CA7F8
:1054200070EA272E72E0372E01E0EAE08E2E912CF2
:10543000A12CB12C11E0ECA5FDA592918291FDA7C4
:10544000ECA739A5313009F48AC6D82E93E6EDE2EF
:10545000F0E19D1508F087C22D2D30E050E040E0CE
:1054600019A2CE0181966C01CA01B901A50194016E
:105470000F94E499605DF60162936F012115310587
:105480004105510589F73097E9F101900020E9F7CE
:10549000AF01F601415051094E175F0799F1D190C4
:1054A0000093BE0F7090C10FE090C20FA091B60F95
:1054B000B091B70F7E1409F4FEC22091C10F30E005
:1054C0002F5F3F4F2F733327322F03C00FB607FED6
:1054D00091C27091C20F3717C9F3A091C10FB0E00C
:1054E000AD5FBF4EDC926FB7F8942093C10FA091CF
:1054F000B80FB091B90F9C9190629C936FBF4E17FB
:105500005F0769F6EFE2F0E14491442399F10093DB
:10551000BE0F5091C10FD090C20FA091B60FB091A5
:10552000B70F5D1509F40CC32091C10F30E02F5F58
:105530003F4F2F733327E22E03C00FB607FECFC2B3
:10554000F090C20FEF14C9F3A091C10FB0E0AD5FAE
:10555000BF4E4C939FB7F8942093C10FA091B80F02
:10556000B091B90F8C9180628C939FBF319644911A
:105570004111CDCF6AA07BA0EAA4FBA46E0C7F1CD6
:105580008AA19BA17C018615970509F499C0F701B2
:1055900021917F01EDE2F0E1243608F4FAC230E017
:1055A00050E040E019A2CE0181966C01CA01B90118
:1055B000A50194010F94E499605DF60162936F0177
:1055C000211531054105510589F73097E9F1019021
:1055D0000020E9F7AF01F601415051094E175F076E
:1055E00099F1D1901093BE0F2091C10F3091C20F4D
:1055F000A091B60FB091B70F231709F45FC32091A4
:10560000C10F30E02F5F3F4F2F733327922F03C01E
:105610000FB607FEF2C27091C20F9717C9F3A0919F
:10562000C10FB0E0AD5FBF4EDC92CFB6F8942093CF
:10563000C10FA091B80FB091B90F8C9180628C937B
:10564000CFBE4E175F0769F6EFE2F0E144914423C5
:1056500099F11093BE0F5091C10FD090C20FA0913D
:10566000B60FB091B70F5D1509F46DC32091C10F4E
:1056700030E02F5F3F4F2F733327C22E03C00FB68A
:1056800007FE30C36091C20FC616C9F3A091C10FC7
:10569000B0E0AD5FBF4E4C937FB7F8942093C10F3D
:1056A000A091B80FB091B90F8C9180628C937FBF9D
:1056B000319644914111CDCF6E147F0409F067CF2C
:1056C000AEE9B2E07D900093BE0FF090C10FC090A4
:1056D000C20FE091B60FF091B70FFC1409F4F1C3BB
:1056E0002091C10F30E02F5F3F4F2F733327922F50
:1056F00003C00FB607FE84C38091C20F9817C9F389
:10570000E091C10FF0E0ED5FFF4E70825FB7F8945B
:105710002093C10FE091B80FF091B90F3081306242
:1057200030835FBF2A163B0669F6EAA0FBA0CFA034
:10573000D8A4EC0CFD1CFBA2EAA28DA19EA18E15A3
:105740009F0509F078CE01E310E108C086EA9FE0EA
:105750000F945E470F5F1F4F892B21F0F801649172
:105760006111F4CFBCA1B53008F04AC5B33008F0E0
:10577000F9C4B23009F027C572015FE1E50EF11CF2
:1057800087E1480E511C4E145F0409F4B3C011E0C8
:105790005AE0852E912CA12CB12CF201A191B1914E
:1057A0002F012CEE31E50F947A9A9C0135952795BF
:1057B00035952795359527953595279535952795D1
:1057C000022F37FD0395EDE2F0E1043608F4E4C260
:1057D000202F30E050E040E019A2CE0181961C015C
:1057E000CA01B901A50194010F94E499605DF1012A
:1057F00062931F01211531054105510589F7309745
:10580000E9F101900020E9F7AF01D10141505109C0
:10581000A417B50799F13D901093BE0F7090C10F7A
:10582000D090C20FE091B60FF091B70F7D1409F43C
:105830000DC42091C10F30E02F5F3F4F2F733327EE
:10584000922F03C00FB607FE0CC37091C20F9717BB
:10585000C9F3E091C10FF0E0ED5FFF4E3082CFB6AB
:10586000F8942093C10FE091B80FF091B90F208107
:1058700020622083CFBEA417B50769F6EFE2F0E1FE
:105880004491442399F11093BE0F5091C10F309071
:10589000C20FA091B60FB091B70F531509F41BC4F6
:1058A0002091C10F30E02F5F3F4F2F733327D22E4F
:1058B00003C00FB607FEDEC37091C20FD716C9F33F
:1058C000A091C10FB0E0AD5FBF4E4C93CFB6F8943E
:1058D0002093C10FA091B80FB091B90F2C91206205
:1058E0002C93CFBE319644914111CDCFE414F504F1
:1058F00009F053CF6DE086EA9FE00F945E47892B55
:1059000009F48AC46AE086EA9FE0AD960FB6F8947F
:10591000DEBF0FBECDBFDF91CF911F910F91FF90E2
:10592000EF90DF90CF90BF90AF909F908F907F903F
:105930006F905F904F903F902F900D945E47EC904A
:10594000E5FE21C02FB7F894A091BC0FB091BD0F18
:105950006C92A091B60FB091B70F4C914370406418
:105960004C932FBF31966490662009F4E0C30093F6
:10597000BE0F7090C10FC090C20FA091B60FB09132
:10598000B70F7C14E1F22091C10F30E02F5F3F4F41
:105990002F733327F22E03C00FB607FE5BC0509162
:1059A000C20FF516C9F3A091C10FB0E0AD5FBF4EB5
:1059B0006C924FB7F8942093C10FA091B80FB0919B
:1059C000B90F8C9180628C934FBF3196CCCF9C01E4
:1059D0002B593F4FCF96D2011197BEA3ADA3E8E05C
:1059E000F0E0FBA7EAA748EF5FEF58A74FA372E0EC
:1059F00079A70ACD6C9065FE6CCDA091C20FB0E086
:105A0000AD5FBF4E8C91A091C20FB0E01196AF7305
:105A1000BB27A093C20FA091BC0FB091BD0F8C9378
:105A2000A091B60FB091B70F7C91737070647C93A6
:105A3000B091C10FC090C20FBC1107C0A091B80FA8
:105A4000B091B90F6C916F7D6C93A091B60FB0912E
:105A5000B70F3FCD7C9175FFA2CFA091C20FB0E0F0
:105A6000AD5FBF4E3C916091C20F70E06F5F7F4FA2
:105A70006F7377276093C20FA091BC0FB091BD0FD9
:105A80003C93A091B60FB091B70F6C9163706064B6
:105A90006C93B091C10F9091C20FB91307C0A09140
:105AA000B80FB091B90F5C915F7D5C93A091B60F78
:105AB000B091B70F74CFFC90F5FEFFCC2FB7F894E0
:105AC000A091BC0FB091BD0FDC92A091B60FB09128
:105AD000B70F3C91337030643C932FBFDDCC6C909A
