:100000000C94E7100D949B4A0D94704A0D94454A48
:100010000D941A4A0D94EF490D94C4490D949949D1
:100020000D946E490C9418110C9418110C9418111D
:100030000C9418110C9418110C9418110D947B4108
:100040000C9418110C940B5C0C94015A0C9491D4E0
:100050000C9418110C9418110C9418110D94FC5F49
:100060000C9418110D942E4C0D94EE4B0C94181109
:100070000C9418110C9418110C9418110C9418115C
:100080000D94203E0D94A53D0D942A3D0C9418111D
:100090000C9418110C9418110C9418110C9418113C
:1000A0000C9418110C9418110D94B93B0D94AF3C9D
:1000B0000D94343C0C9418110C9418110D941F3BA2
:1000C0000D94853A0D94EB390C9418110C94181179
:1000D0000C9418110C9418110D94B74B0D94774B88
:1000E0000C9418110D9476210C94C2A20C9447C262
:1000F0000C94366F0C9448EA0C94AD620C94CCCB03
:100100000C94B0C10C9456FD0C9465AE0D943B6AF2
:100110000C944EC30C948FC20C9466C80C94013797
:100120000C94852B0C94B6C10C9419C20C945D638D
:100130000C9456C20D94C4020C945FCE0C9420C350
:100140000C943EC20D94E5670D9436290D944A290E
:100150000D945D4B0C94E9C10C945D620C94C32921
:100160000D9489010D9440290C94A85F0D9455219C
:100170000C940F8A0C940AC20D94B8210C9462CA94
:100180000D940C520C94034C0C9417CE0D94201625
:100190000C949BC20C947DB40D94E5040C94F65E13
:1001A0000D9431120C940DC20C94749A0C944DC29F
:1001B0000C945EC30D9448290C9459C20C94136D91
:1001C0000D940B0F0D941F680D94CE690C9497132A
:1001D0000C9438C20C94F2EA0C94ACCE0C94296FB7
:1001E0000C94F5850D94F14A0D94F9770C94C24D59
:1001F0000C9489C20C947F5E0C947EC30D948E4740
:100200000D9499040C94ED160C94FD180C949762BF
:100210000C944BC30C94DF2B0C9410A40C949C8472
:100220000C948A3E0C94D0A70C94F2C10C9497C104
:100230000C94996C0C9459990C94E6C20C943BC2A2
:100240000C94F31C0C9470780C94E2A60C949D29E9
:100250000C94D5210D94554B0C9474C20C94A4C2EB
:100260000C94D85E0D94E4210C9485C00C94414408
:100270000D941E520C9451C30C9470A80C94E6C1BA
:100280000C9475940C946B2A0C9480C20D94EF75A9
:100290000C94726E0D94881C0C9483C20C94FB7B9E
:1002A0000C94B0C20C94CACA0C94E1380C94ECC102
:1002B0000D9444290C9481C30C946E7C0C94292BCE
:1002C0000C94818C0C94716D0D9424520C94C3A2E7
:1002D0000D94ED4A0C94B22B0D943B760C94FE7762
:1002E0000C9427C00C94F5180C9458B60C94898380
:1002F0000C946EC20C947DC60C946BC20C941A11B3
:100300000C94A0C10D94890E0C949A5F0C94817783
:100310000C9413470C94FBC10C94F1910D94E05193
:100320000D9439010D9488200C94BE8F0C9467C3F2
:100330000D94494B0C94D71B0C9422630D941852C6
:100340000C94B4BD0C94F8C10C94F7C20D94817652
:100350000C941C7C0C9428930C94E8620C94F2622C
:100360000C94C3B30C94B9C10C9498130D94EB4A3C
:100370000C949F860C94376E0C9444C20D943052AA
:100380000C94BD290C94AAC20C94ED2B0D943C291D
:100390000C94E5C80D94710F0C94B35E0C9484C357
:1003A0000C947DC20C94E75F0D9455220D943E771A
:1003B0000C94DAC10C94B7990C94E3C10D942B966C
:1003C0000C94C3150D943A290D946C0C0C94AB2B22
:1003D0000D9428610C944FAB0D9442290C94076343
:1003E0000C943D630D94C9210C946C860C940C39CB
:1003F0000C9400B00D94CD080C94798A0C94149B45
:100400000D94A9470D94E74A0C947C1D0C94EAA125
:100410000C94F2910C940D850C94F5C10C94315F01
:100420000D94370B0C94A1FD0C94B6290D94FA5140
:100430000C9414150C947E3B0C94DB4C0C94D4C29D
:100440000C9460D90C945F170C947E1E0C94224B74
:100450000C9492C20C94E62B0C94942B0C94208C4C
:100460000C94DBCC0D9441100D94390E0C94B3C157
:100470000C94C7BC0D9445210C9473C30C94E6F105
:100480000D9430170C94FC620C945B5F0D9446291C
:100490000D949A120C940C140C94B78C0C94E0A646
:1004A0000C941DBD0C94C8620D94AD690C94A59C70
:1004B0000C94FD840C949BC90C9490A40C945BC385
:1004C0000C9496290C94CCBF0C94AD4A0C94951FB7
:1004D0000D94167E0D940B000D9455140C942B95D1
:1004E0000D942E290C94F2BE0C94C0E90D94BB47D8
:1004F0000C94021B0C943D6F0D94D1130D94302974
:100500000C94EDFD0C9468C20C9483180D94961510
:100510000C9455FD0C94C8C10D9463060C94C65FF1
:100520000C94D5D10C9427F10C94B8450C941DCAA9
:100530000C9486C60C94D3620C94F8290C94F48421
:100540000C94362C0C94576C0C9467D20C9491A993
:100550000C945FC20D94A71C0C9404C20D943B4BE9
:100560000C94E0C10C940AB60C9491CF0D94DA0F60
:100570000C9450C20C94ADC10D9412520C94756D34
:100580000C94D8BB0C94D1C10D94FE210D94F97D2F
:100590000C948CF10C9495C20C9467840D941749BB
:1005A0000C94A1C20D94BA470C948DC30C94E4D75B
:1005B0000C9486150C9410C20C94446E0D94B77D67
:1005C0000D943A670C9416C20C9493860C9435895A
:1005D0000D9406520C941FC20C946C2B0C94FFC704
:1005E0000C94E4120C94448A0C94EC980D94614899
:1005F0000C9403430C945CCC0C94169A0D94322901
:100600000C94816D0C944DA70C941AC30C947A62CF
:100610000C9477C20D9403490C944E9F0C94A6C180
:100620000C9464C30C94704C0D943F7E0C94A32BDB
:100630000C9411A40C9470C30C94CA5E0C9419A56C
:100640000C940E8E0C94F0B20D94DA0B0C94C386BD
:100650000C948E790D943B080C9447630C94017DA7
:100660000C94C5C10C945A7C0C9469820C94BEC243
:100670000C94EC6B0D94E5510C94E2860C94518C27
:100680000C9475D90C9452630C9413150C94F08B44
:100690000C9401C20C94BBF00C94D4C10D94F603DD
:1006A0000C94D0290C948AC30C949DC10D94F01F16
:1006B0000C9413C20C94BCC10D9401130C9448C348
:1006C0000D9436200C94B37D0C94CEC10C946D79AE
:1006D0000C9411600C9468CB0C9442C30D9458692F
:1006E0000D94F34A0C9477A20D94277E0C9468BF66
:1006F0000C94578D0C9412820C9429780D94E37607
:100700000C9461BD0C94EC8E0C942D6F0C94ADC2C6
:100710000C9477C30C9453DA0C941DC30C9401EA27
:100720000C94A6700C94EFC10C943F6E0C94851140
:100730000C94AA960D94A50A0D9431050C94EC1610
:100740000C94432A0C9454C30D94A10D0C94BFFF38
:100750000C948E5E0C9407C20C944AC20C94C2C1D5
:100760000C94A6860C9479830D94C7480C94EC8C59
:100770000C9442EB0D94EF4A0D9470090C94CBC18C
:100780000D9498070C94B3190C940CB40C947AC281
:100790000C94DD6D0C94742B0D94BC140C94C6D881
:1007A0000C9478290C941FBE0D94E6510C94B1D68C
:1007B0000D941F7E0C944E860D94020A0D94E94A06
:1007C0000D940F0D0C94E1A60D942A150C940B14A6
:1007D0000C945CC20C947BC30D9434290C94F59D4D
:1007E0000C94FEC10C94FF880C94B0290C94067CE8
:1007F0000D94EA510C9439A60C9439E50D94130626
:100800000C9461C30C9420200C94B06D0C94CDC258
:100810000C94EE770D94F4510C9498C20C946ECD18
:100820000C948D920C940F820C948CC20D940052F7
:100830000C94364E0C946B2B0C944B2A0C9471C276
:100840000D942A520D940A4B0D94C5100D94B07757
:100850000C94E8D00C946E730C947C6D0C94B6C21E
:100860000D948C160C940C7D0C94C1A20C9486C231
:100870000C94CA290C94BFC10D942C290C9460BC13
:100880000C94A9C10C94BE7D0C94BED90D94652125
:100890000C9415850C9408940C94A3C10C945D4D94
:1008A0000D9419220C949EEA0D94694B0C948722A6
:1008B0000C949EC20C94C7700C9441C20C94091AFB
:1008C0000C949E1B0C9454C70D940D7E0C94352AE9
:1008D0000C94F0B40C9499130C94A87D0C949BCBBD
:1008E0000C9453C20C9465C20C9459A10C94B78D0E
:1008F0000D94EE510C942C1B0D942A4B0C94AB6F61
:100900000D94A8210C946B890D942C020D947802FF
:100910000C9408B10D946A130D943E290C94BF8B6E
:100920000C941CC20C94AD700C944F7C0C945F869C
:100930000C946DC30C94D7C10C94F7770C94DE62C1
:100940000D9457000C946AC30C9487C30C940D2C1F
:100950000C94228D0C948C2B0C94D7770C94125FF2
:100960000C9457860C94B68E0C94D0860C94DDC1F2
:100970000C9464170D94B0110C94BBC20C94AE2966
:100980000C9473F10C9458730D942C110C94984B97
:100990000D942F7E0D9433220C949C2B0C9445C304
:1009A0000C94E1E90C942F4A0C943C2A0D94365295
:1009B0000C94116F0C94E75E0C9473D00C949AC154
:1009C0000C94A7C20C9404F10C9422C20C948DBE1A
:1009D0000C94646F0C94045F0C9462C20C94117CB0
:1009E0000D9406070C94A4A50D9438290C94726FED
:1009F0000D94A603526573657420636F6E74726FF5
:100A00006C2069732063757272656E746C792064F2
:100A1000697361626C65642E00436F6D6D7320684D
:100A2000616C7465642E204E6578742062797465FB
:100A30002077696C6C20726573657420746865201A
:100A400041726475696E6F2E000A50616765206897
:100A50006173206E6F74206265656E20696D706CC5
:100A6000656D656E74656420796574000A426F6F08
:100A70007374206C6F6F6B7570207461626C6500AD
:100A80000A326E642049676E6974696F6E204D6129
:100A900070000A326E64204675656C204D617000EE
:100AA0000A50616765203920436667000A547269FD
:100AB0006D2031205461626C65000A565654204DF9
:100AC0006170000A426F6F7374204D6170000A50AC
:100AD00067203620436F6E666967000A41465220E0
:100AE0004D6170000A5067203420436667000A4950
:100AF000676E6974696F6E204D6170000A506720DF
:100B00003220436667000A5645204D6170004572E9
:100B1000723A20556E6B6E6F776E20636D64000ABB
:100B20003D3D3D436F6D6D616E642048656C703D69
:100B30003D3D0A0A416C6C20636F6D6D616E64739C
:100B4000206172652073696E676C652063686172ED
:100B5000616374657220616E642061726520636FE9
:100B60006E636174656E6174656420776974682072
:100B7000746865697220706172616D657465727305
:100B8000200A776974686F75742073706163657388
:100B90002E53796E7461783A20203C636F6D6D61DD
:100BA0006E643E2B3C706172616D65746572313E9E
:100BB0002B3C706172616D65746572323E2B3C70C6
:100BC0006172616D657465724E3E0A0A3D3D3D4C31
:100BD000697374206F6620436F6D6D616E64733D41
:100BE0003D3D0A0A41202D20446973706C61797380
:100BF000203331206279746573206F6620637572CB
:100C000072656E745374617475732076616C75656A
:100C10007320696E2062696E61727920286C697632
:100C2000652064617461290A42202D204275726E2C
:100C30002063757272656E74206D617020616E64E0
:100C400020636F6E666967506167652076616C75B9
:100C5000657320746F20656570726F6D0A43202D77
:100C6000205465737420434F4D20706F72742E2092
:100C700020557365642062792054756E65727374B3
:100C80007564696F20746F2073656520776865747B
:100C900068657220616E20454355206973206F6E30
:100CA000206120676976656E2073657269616C20CA
:100CB0000A20202020706F72742E20526574757285
:100CC0006E7320612062696E617279206E756D624B
:100CD00065722E0A4E202D205072696E74206E654A
:100CE00077206C696E652E0A50202D205365742084
:100CF00063757272656E7420706167652E20205373
:100D0000796E7461783A2020502B3C706167654E93
:100D1000756D6265723E0A52202D2053616D65200B
:100D20006173204120636F6D6D616E640A53202DE5
:100D300020446973706C6179207369676E617475A2
:100D40007265206E756D6265720A51202D205361A7
:100D50006D65206173205320636F6D6D616E640A51
:100D600056202D20446973706C6179206D6170206C
:100D70006F7220636F6E6669675061676520766188
:100D80006C75657320696E2062696E6172790A57AD
:100D9000202D20536574206F6E6520627974652064
:100DA000696E206D6170206F7220636F6E66696777
:100DB000506167652E2020457870656374732062EA
:100DC000696E61727920706172616D6574657273AC
:100DD0002E200A2020202053796E7461783A20203A
:100DE000572B3C6F66667365743E2B3C6E6577626D
:100DF0007974653E0A74202D205365742063616CFC
:100E00006962726174696F6E2076616C7565732EAC
:100E10002020457870656374732062696E61727911
:100E200020706172616D65746572732E202054614B
:100E3000626C6520696E64657820697320656974E9
:100E400068657220302C200A20202020312C206F51
:100E50007220322E202053796E7461783A202074EB
:100E60002B3C74626C655F6964783E2B3C6E6577E1
:100E700056616C7565313E2B3C6E657756616C75BD
:100E800065323E2B3C6E657756616C75654E3E0A49
:100E90005A202D20446973706C61792063616C69FC
:100EA00062726174696F6E2076616C7565730A5445
:100EB000202D20446973706C61797320323536209F
:100EC000746F6F7468206C6F6720656E74726965EB
:100ED0007320696E2062696E6172790A72202D201A
:100EE000446973706C6179732032353620746F6F8A
:100EF0007468206C6F6720656E74726965730A553B
:100F0000202D205072657061726520666F722066B8
:100F100069726D77617265207570646174652E20E9
:100F2000546865206E6578742062797465207265F6
:100F30006365697665642077696C6C20636175739D
:100F400065207468652041726475696E6F20746FE6
:100F50002072657365742E0A3F202D2044697370DA
:100F60006C61797320746869732068656C70207097
:100F7000616765002C2000575545004F3200496ECF
:100F80006C65742074656D7000436F6F6C616E7476
:100F900000526573657420636F6E74726F6C2069A4
:100FA000732063757272656E746C79206469736105
:100FB000626C65642E00436F6D6D732068616C74A4
:100FC00065642E204E657874206279746520776997
:100FD0006C6C20726573657420746865204172645E
:100FE00075696E6F2E00537065656475696E6F204C
:100FF000323032322E303700737065656475696E39
:101000006F20323032323037004552523B20496E29
:10101000636F727265637420454550524F4D207363
:10102000697A650030303100200020002000200067
:1010300020202020000000800020012001800020CE
:10104000018000F0008001C000C0002001C00080CD
:101050000020010001040E11191B20292B2D2F3116
:10106000333537393B3D3F414345474B4D4F515554
:1010700057595D61666D77537065656475696E6F0C
:1010800000537065656475696E6F20323031392E9A
:1010900030382D73657200537065656475696E6FC5
:1010A0002063737830323031392E38000000200050
:1010B0002300260029002C002F0032000001000030
:1010C00003010601090100002100240027002A0075
:1010D0002D003000330001010000040107010A0166
:1010E00000002200250028002B002E0031003400D3
:1010F00002010000050108010B01050505050705B2
:1011000008080808020202020A0A08080404040483
:1011100001010101010101010303030303030303AF
:10112000040707070C0C0C0C0C0C0C0C020202023E
:1011300006060606060606060B0B0B0B0B0B0B0B27
:1011400001021020200808102040102040800201D9
:1011500002010804020101020408102040808040BE
:1011600020100804020180040201804020100804BD
:10117000020108040201010204081020408001025B
:1011800004081020408000000A0B02090C0D0E0814
:101190000703040100000000000000000000000040
:1011A000000000000000000000000000000000003F
:1011B00000001211100000000000000000000000FC
:1011C000000000000000000000000000000000001F
:1011D000963007772C610EEEBA51099919C46D0744
:1011E0008FF46A7035A563E9A395649E3288DB0E9F
:1011F000A4B8DC791EE9D5E088D9D2972B4CB60982
:10120000BD7CB17E072DB8E7911DBF906410B71D5E
:10121000F220B06A4871B9F3DE41BE847DD4DA1A97
:10122000EBE4DD6D51B5D4F4C785D38356986C13C8
:10123000C0A86B647AF962FDECC9658A4F5C011441
:10124000D96C0663633D0FFAF50D088DC8206E3B1F
:101250005E10694CE44160D5727167A2D1E4033C31
:1012600047D4044BFD850DD26BB50AA5FAA8B53558
:101270006C98B242D6C9BBDB40F9BCACE36CD83247
:10128000755CDF45CF0DD6DC593DD1ABAC30D926EE
:101290003A00DE518051D7C81661D0BFB5F4B421F1
:1012A00023C4B3569995BACF0FA5BDB89EB80228EE
:1012B0000888055FB2D90CC624E90BB1877C6F2F73
:1012C000114C6858AB1D61C13D2D66B69041DC766E
:1012D0000671DB01BC20D2982A10D5EF8985B17147
:1012E0001FB5B606A5E4BF9F33D4B8E8A2C90778F6
:1012F00034F9000F8EA8099618980EE1BB0D6A7F8D
:101300002D3D6D08976C6491015C63E6F4516B6B45
:1013100062616C1CD83065854E0062F2ED95066CFA
:101320007BA5011BC1F4088257C40FF5C6D9B0656F
:1013300050E9B712EAB8BE8B7C88B9FCDF1DDD62CC
:10134000492DDA15F37CD38C654CD4FB5861B24D32
:10135000CE51B53A7400BCA3E230BBD441A5DF4AFC
:10136000D795D83D6DC4D1A4FBF4D6D36AE96943BF
:10137000FCD96E34468867ADD0B860DA732D04446A
:10138000E51D03335F4C0AAAC97C0DDD3C71055095
:10139000AA41022710100BBE86200CC925B568573C
:1013A000B3856F2009D466B99FE461CE0EF9DE5E85
:1013B00098C9D9292298D0B0B4A8D7C7173DB35936
:1013C000810DB42E3B5CBDB7AD6CBAC02083B8EDC7
:1013D000B6B3BF9A0CE2B6039AD2B1743947D5EAD4
:1013E000AF77D29D1526DB048316DC73120B63E303
:1013F000843B64943E6A6D0DA85A6A7A0BCF0EE462
:101400009DFF099327AE000AB19E077D44930FF01C
:10141000D2A3088768F2011EFEC206695D5762F713
:10142000CB67658071366C19E7066B6E761BD4FE50
:10143000E02BD3895A7ADA10CC4ADD676FDFB9F92D
:10144000F9EFBE8E43BEB717D58EB060E8A3D6D6EF
:101450007E93D1A1C4C2D83852F2DF4FF167BBD11D
:101460006757BCA6DD06B53F4B36B248DA2B0DD820
:101470004C1B0AAFF64A0336607A0441C3EF60DFC3
:1014800055DF67A8EF8E6E3179BE69468CB361CBAC
:101490001A8366BCA0D26F2536E2685295770CCCD1
:1014A00003470BBBB91602222F260555BE3BBAC512
:1014B000280BBDB2925AB42B046AB35CA7FFD7C203
:1014C00031CFD0B58B9ED92C1DAEDE5BB0C2649BF4
:1014D00026F263EC9CA36A750A936D02A906099C27
:1014E0003F360EEB8567077213570005824ABF959A
:1014F000147AB8E2AE2BB17B381BB60C9B8ED2921D
:101500000DBED5E5B7EFDC7C21DFDB0BD4D2D38673
:1015100042E2D4F1F8B3DD686E83DA1FCD16BE81E6
:101520005B26B9F6E177B06F7747B718E65A0888B7
:10153000706A0FFFCA3B06665C0B0111FF9E658F48
:1015400069AE62F8D3FF6B6145CF6C1678E20AA0F2
:10155000EED20DD75483044EC2B30339612667A778
:10156000F71660D04D476949DB776E3E4A6AD1AEC7
:10157000DC5AD6D9660BDF40F03BD83753AEBCA956
:10158000C59EBBDE7FCFB247E9FFB5301CF2BDBDC3
:101590008AC2BACA3093B353A6A3B4240536D0BACC
:1015A0009306D7CD2957DE54BF67D9232E7A66B369
:1015B000B84A61C4021B685D942B6F2A37BE0BB416
:1015C000A18E0CC31BDF055A8DEF022D0000000019
:1015D00041311B1982623632C3532D2B04C56C6412
:1015E00045F4777D86A75A56C796414F088AD9C8D1
:1015F00049BBC2D18AE8EFFACBD9F4E30C4FB5ACC2
:101600004D7EAEB58E2D839ECF1C98875112C24A57
:101610001023D953D370F4789241EF6155D7AE2E91
:1016200014E6B537D7B5981C9684830559981B8264
:1016300018A9009BDBFA2DB09ACB36A95D5D77E641
:101640001C6C6CFFDF3F41D49E0E5ACDA2248495C2
:10165000E3159F8C2046B2A76177A9BEA6E1E8F109
:10166000E7D0F3E82483DEC365B2C5DAAAAE5D5DD8
:10167000EB9F464428CC6B6F69FD7076AE6B3139B9
:10168000EF5A2A202C09070B6D381C12F33646DF5F
:10169000B2075DC6715470ED30656BF4F7F32ABB89
:1016A000B6C231A275911C8934A00790FBBC9F176C
:1016B000BA8D840E79DEA92538EFB23CFF79F37339
:1016C000BE48E86A7D1BC5413C2ADE58054F79F0CB
:1016D000447E62E9872D4FC2C61C54DB018A1594F3
:1016E00040BB0E8D83E823A6C2D938BF0DC5A038F4
:1016F0004CF4BB218FA7960ACE968D130900CC5CC3
:101700004831D7458B62FA6ECA53E177545DBBBA54
:10171000156CA0A3D63F8D88970E96915098D7DE72
:1017200011A9CCC7D2FAE1EC93CBFAF55CD762727F
:101730001DE6796BDEB554409F844F5958120E1642
:101740001923150FDA7038249B41233DA76BFD65E3
:10175000E65AE67C2509CB576438D04EA3AE9101FA
:10176000E29F8A1821CCA73360FDBC2AAFE124ADEB
:10177000EED03FB42D83129F6CB20986AB2448C9CA
:10178000EA1553D029467EFB687765E2F6793F2F4C
:10179000B7482436741B091D352A1204F2BC534B7A
:1017A000B38D485270DE657931EF7E60FEF3E6E777
:1017B000BFC2FDFE7C91D0D53DA0CBCCFA368A834A
:1017C000BB07919A7854BCB13965A7A84B98833B65
:1017D0000AA99822C9FAB50988CBAE104F5DEF5F10
:1017E0000E6CF446CD3FD96D8C0EC27443125AF381
:1017F000022341EAC1706CC1804177D847D7369740
:1018000006E62D8EC5B500A584841BBC1A8A4171DD
:101810005BBB5A6898E87743D9D96C5A1E4F2D158F
:101820005F7E360C9C2D1B27DD1C003E120098B9F4
:10183000533183A09062AE8BD153B59216C5F4DDBF
:1018400057F4EFC494A7C2EFD596D9F6E9BC07AE1A
:10185000A88D1CB76BDE319C2AEF2A85ED796BCA07
:10186000AC4870D36F1B5DF82E2A46E1E136DE6688
:10187000A007C57F6354E8542265F34DE5F3B20237
:10188000A4C2A91B6791843026A09F29B8AEC5E4E5
:10189000F99FDEFD3ACCF3D67BFDE8CFBC6BA98087
:1018A000FD5AB2993E099FB27F3884ABB0241C2CFC
:1018B000F115073532462A1E73773107B4E17048B7
:1018C000F5D06B513683467A77B25D634ED7FACB4B
:1018D0000FE6E1D2CCB5CCF98D84D7E04A1296AFB1
:1018E0000B238DB6C870A09D8941BB84465D230340
:1018F000076C381AC43F1531850E0E2842984F6781
:1019000003A9547EC0FA795581CB624C1FC538813A
:101910005EF423989DA70EB3DC9615AA1B0054E530
:101920005A314FFC996262D7D85379CE174FE149AB
:10193000567EFA50952DD77BD41CCC62138A8D2D00
:1019400052BB963491E8BB1FD0D9A006ECF37E5E63
:10195000ADC265476E91486C2FA05375E836123AB8
:10196000A90709236A5424082B653F11E479A79637
:10197000A548BC8F661B91A4272A8ABDE0BCCBF288
:10198000A18DD0EB62DEFDC023EFE6D9BDE1BC1432
:10199000FCD0A70D3F838A267EB2913FB924D07038
:1019A000F815CB693B46E6427A77FD5BB56B65DCA3
:1019B000F45A7EC5370953EE763848F7B1AE09B808
:1019C000F09F12A133CC3F8A72FD249300000000E7
:1019D000376AC2016ED4840359BE4602DCA80907E7
:1019E000EBC2CB06B27C8D0485164F05B851130EA1
:1019F0008F3BD10FD685970DE1EF550C64F91A098D
:101A00005393D8080A2D9E0A3D475C0B70A3261CF1
:101A100047C9E41D1E77A21F291D601EAC0B2F1B9A
:101A20009B61ED1AC2DFAB18F5B56919C8F2351222
:101A3000FF98F713A626B111914C7310145A3C1558
:101A40002330FE147A8EB8164DE47A17E0464D38EE
:101A5000D72C8F398E92C93BB9F80B3A3CEE443FF4
:101A60000B84863E523AC03C6550023D58175E36A4
:101A70006F7D9C3736C3DA3501A9183484BF5731DE
:101A8000B3D59530EA6BD332DD01113390E56B2489
:101A9000A78FA925FE31EF27C95B2D264C4D622368
:101AA0007B27A0222299E62015F3242128B4782A46
:101AB0001FDEBA2B4660FC29710A3E28F41C712DEA
:101AC000C376B32C9AC8F52EADA2372FC08D9A706D
:101AD000F7E75871AE591E739933DC721C25937762
:101AE0002B4F517672F11774459BD57578DC897E42
:101AF0004FB64B7F16080D7D2162CF7CA474807990
:101B0000931E4278CAA0047AFDCAC67BB02EBC6C74
:101B100087447E6DDEFA386FE990FA6E6C86B56B9D
:101B20005BEC776A025231683538F369087FAF623F
:101B30003F156D6366AB2B6151C1E960D4D7A665D3
:101B4000E3BD6464BA0322668D69E06720CBD748A1
:101B500017A115494E1F534B7975914AFC63DE4F0F
:101B6000CB091C4E92B75A4CA5DD984D989AC446A5
:101B7000AFF00647F64E4045C12482444432CD4181
:101B800073580F402AE649421D8C8B435068F1542C
:101B9000670233553EBC755709D6B7568CC0F8530B
:101BA000BBAA3A52E2147C50D57EBE51E839E25AC3
:101BB000DF53205B86ED6659B187A4583491EB5D05
:101BC00003FB295C5A456F5E6D2FAD5F801B35E1CD
:101BD000B771F7E0EECFB1E2D9A573E35CB33CE6B1
:101BE0006BD9FEE73267B8E5050D7AE4384A26EF8F
:101BF0000F20E4EE569EA2EC61F460EDE4E22FE8E3
:101C0000D388EDE98A36ABEBBD5C69EAF0B813FD29
:101C1000C7D2D1FC9E6C97FEA90655FF2C101AFA6C
:101C20001B7AD8FB42C49EF975AE5CF848E900F314
:101C30007F83C2F2263D84F0115746F1944109F4A6
:101C4000A32BCBF5FA958DF7CDFF4FF6605D78D9D4
:101C50005737BAD80E89FCDA39E33EDBBCF571DEC2
:101C60008B9FB3DFD221F5DDE54B37DCD80C6BD78A
:101C7000EF66A9D6B6D8EFD481B22DD504A462D030
:101C800033CEA0D16A70E6D35D1A24D210FE5EC5B1
:101C900027949CC47E2ADAC6494018C7CC5657C23E
:101CA000FB3C95C3A282D3C195E811C0A8AF4DCB30
:101CB0009FC58FCAC67BC9C8F1110BC9740744CC34
:101CC000436D86CD1AD3C0CF2DB902CE4096AF91C9
:101CD00077FC6D902E422B921928E9939C3EA69694
:101CE000AB546497F2EA2295C580E094F8C7BC9F94
:101CF000CFAD7E9E9613389CA179FA9D246FB5983E
:101D0000130577994ABB319B7DD1F39A3035898D84
:101D1000075F4B8C5EE10D8E698BCF8FEC9D808AC7
:101D2000DBF7428B82490489B523C68888649A838D
:101D3000BF0E5882E6B01E80D1DADC8154CC938489
:101D400063A651853A1817870D72D586A0D0E2A9EF
:101D500097BA20A8CE0466AAF96EA4AB7C78EBAE45
:101D60004B1229AF12AC6FAD25C6ADAC1881F1A7EF
:101D70002FEB33A6765575A4413FB7A5C429F8A02B
:101D8000F3433AA1AAFD7CA39D97BEA2D073C4B52C
:101D9000E71906B4BEA740B689CD82B70CDBCDB239
:101DA0003BB10FB3620F49B155658BB06822D7BB09
:101DB0005F4815BA06F653B8319C91B9B48ADEBCB7
:101DC00083E01CBDDA5E5ABFED3498BE000000000F
:101DD0006567BCB88BC809AAEEAFB5125797628F7A
:101DE00032F0DE37DC5F6B25B938D79DEF28B4C5FC
:101DF0008A4F087D64E0BD6F018701D7B8BFD64A1E
:101E0000DDD86AF23377DFE0561063589F571950D8
:101E1000FA30A5E8149F10FA71F8AC42C8C07BDF15
:101E2000ADA7C76743087275266FCECD707FAD959D
:101E30001518112DFBB7A43F9ED0188727E8CF1A9D
:101E4000428F73A2AC20C6B0C9477A083EAF32A019
:101E50005BC88E18B5673B0AD00087B26938502F2F
:101E60000C5FEC97E2F059858797E53DD187866551
:101E7000B4E03ADD5A4F8FCF3F2833778610E4EA3B
:101E8000E37758520DD8ED4068BF51F8A1F82BF018
:101E9000C49F97482A30225A4F579EE2F66F497FD7
:101EA0009308F5C77DA740D518C0FC6D4ED09F356F
:101EB0002BB7238DC518969FA07F2A271947FDBAF7
:101EC0007C204102928FF410F7E848A83D58149BFB
:101ED000583FA823B6901D31D3F7A1896ACF761455
:101EE0000FA8CAACE1077FBE8460C306D270A05EB3
:101EF000B7171CE659B8A9F43CDF154C85E7C2D1E9
:101F0000E0807E690E2FCB7B6B4877C3A20F0DCB91
:101F1000C768B17329C704614CA0B8D9F5986F445C
:101F200090FFD3FC7E5066EE1B37DA564D27B90E74
:101F3000284005B6C6EFB0A4A3880C1C1AB0DB81FC
:101F40007FD767399178D22BF41F6E9303F7263B26
:101F500066909A83883F2F91ED589329546044B43A
:101F60003107F80CDFA84D1EBACFF1A6ECDF92FEC8
:101F700089B82E4667179B54027027ECBB48F07156
:101F8000DE2F4CC93080F9DB55E745639CA03F6BE1
:101F9000F9C783D3176836C1720F8A79CB375DE4EE
:101FA000AE50E15C40FF544E2598E8F673888BAE46
:101FB00016EF3716F84082049D273EBC241FE92106
:101FC00041785599AFD7E08BCAB05C333BB659ED39
:101FD0005ED1E555B07E5047D519ECFF6C213B62D0
:101FE000094687DAE7E932C8828E8E70D49EED28E2
:101FF000B1F951905F56E4823A31583A83098FA77C
:10200000E66E331F08C1860D6DA63AB5A4E140BD4A
:10201000C186FC052F2949174A4EF5AFF3762232C7
:1020200096119E8A78BE2B981DD997204BC9F478BB
:102030002EAE48C0C001FDD2A566416A1C5E96F76F
:1020400079392A4F97969F5DF2F123E505196B4D7B
:10205000607ED7F58ED162E7EBB6DE5F528E09C2A5
:1020600037E9B57AD9460068BC21BCD0EA31DF88AF
:102070008F56633061F9D622049E6A9ABDA6BD07C9
:10208000D8C101BF366EB4AD530908159A4E721D02
:10209000FF29CEA511867BB774E1C70FCDD9109269
:1020A000A8BEAC2A461119382376A5807566C6D815
:1020B00010017A60FEAECF729BC973CA22F1A45799
:1020C000479618EFA939ADFDCC5E114506EE4D7669
:1020D0006389F1CE8D2644DCE841F86451792FF90B
:1020E000341E9341DAB12653BFD69AEBE9C6F9B351
:1020F0008CA1450B620EF01907694CA1BE519B3CA7
:10210000DB3627843599929650FE2E2E99B95426A7
:10211000FCDEE89E12715D8C7716E134CE2E36A976
:10212000AB498A1145E63F03208183BB7691E0E30A
:1021300013F65C5BFD59E949983E55F12106826C26
:1021400044613ED4AACE8BC6CFA9377E38417FD614
:102150005D26C36EB389767CD6EECAC46FD61D5990
:102160000AB1A1E1E41E14F38179A84BD769CB131E
:10217000B20E77AB5CA1C2B939C67E0180FEA99CC4
:10218000E59915240B36A0366E511C8EA71666866F
:10219000C271DA3E2CDE6F2C49B9D394F081040968
:1021A00095E6B8B17B490DA31E2EB11B483ED24324
:1021B0002D596EFBC3F6DBE9A69167511FA9B0CC80
:1021C0007ACE0C749461B966F10605DEDE01112445
:1021D0001FBECFEFD1E2DEBFCDBF00E00CBF12E0EB
:1021E000A0E0B2E0EEEFF9E303E00BBF02C007901E
:1021F0000D92A23AB107D9F720E2A2EAB2E001C0FB
:102200001D92AC33B207E1F710E1C7EED0E100E078
:1022100006C021970109802FFE010F945F9BC63EE7
:10222000D10780E00807A9F70F9446600D94FD9C44
:102230000C9400009091EC1E80914C1D8C718C30A0
:1022400071F19A30BCF41916A4F421E030E0309317
:102250006A032093690343E050E05093680340937E
:1022600067033093660320936503509364034093A0
:102270006303089564E070E070936A0360936903F8
:10228000A2E0B0E0B0936803A09367037093660385
:1022900060936503B0936403A093630308959A3039
:1022A000DCF4191634F7E1E0F0E0F0936A03E09310
:1022B000690383E090E0909368038093670325E0CF
:1022C00030E0309366032093650347E050E050937D
:1022D000640340936303089568E070E070936A03B9
:1022E00060936903A2E0B0E0B0936803A093670332
:1022F000E4E0F0E0F0936603E093650386E090E0AD
:10230000909364038093630308958F929F92AF929A
:10231000BF92CF92DF92EF92FF92CF93DF93209103
:10232000BA1E3091BB1E8091531F9091541F2817E5
:10233000390708F037C1A090B91EAA2009F48EC051
:10234000A090830CB090840CC090850CD090860C2B
:10235000AB28AC28AD2809F4F0C0C0907F0CD09019
:10236000800CE090810CF090820CCD28CE28CF28F4
:1023700009F4E3C0F89480907D0C90907E0C8091DD
:10238000830C9091840CA091850CB091860C4091A7
:102390007F0C5091800C6091810C7091820C841B99
:1023A000950BA60BB70B78946C017D01CC0CDD1C52
:1023B000EE1CFF1CCC0CDD1CEE1CFF1CCC0CDD1C31
:1023C000EE1CFF1C8C0D9D1DAE1DBF1D6C017D0103
:1023D000CC0CDD1CEE1CFF1CCC0CDD1CEE1CFF1C11
:1023E000092C000CAA08BB08A501940160E87DE84F
:1023F0008BE590E00F94439BA70196010F94D99A27
:10240000E901D701C601880F991FAA1FBB1F880FBA
:10241000991FAA1FBB1FC80ED91EEA1EFB1EC701AB
:10242000B601660F771F881F991FA50194010F94AD
:10243000D99A2093880C3093890C40938A0C50933E
:102440008B0C8BE498E9A5E0B0E080931E0290939A
:102450001F02A0932002B093210271C0B090B91E58
:10246000BB2009F478C04091271F5091281F60912C
:10247000291F70912A1F452B462B472B09F46FC04B
:102480006091B7047091B8048091B9049091BA0436
:10249000672B682B692B09F462C02091B30430913B
:1024A000B4044091B5045091B604232B242B252B62
:1024B00009F455C0F8948091B7049091B804A091A4
:1024C000B904B091BA048090B3049090B404A09081
:1024D000B504B090B60488199909AA09BB0980937C
:1024E000880C9093890CA0938A0CB0938B0C7894F1
:1024F000C090880CD090890CE0908A0CF0908B0CE6
:10250000F694E794D794C794C092880CD092890C23
:10251000E0928A0CF0928B0C60E077E883E993E01C
:10252000A70196010F94D99AE9012035364408F1A4
:10253000C091BA1ED091BB1E1CC0D0E0C0E0CE013D
:10254000DF91CF91FF90EF90DF90CF90BF90AF9051
:102550009F908F900895C090551FC4FC84CFC09069
:10256000880CD090890CE0908A0CF0908B0CD0E015
:10257000C0E0CC0CDD1CEE1CFF1C8BE4C81688E907
:10258000D80685E0E806F104B0F44BE458E965E0CC
:1025900070E040931E0250931F02609320027093DC
:1025A0002102CDCF8090B91E81106ACF9090551F27
:1025B00094FC66CFD4CFC0921E02D0921F02E0924C
:1025C0002002F0922102BBCF0F94D65F60935F038D
:1025D00070936003809361039093620380915F0323
:1025E00090916003A0916103B09162034091240C2B
:1025F0005091250C6091260C7091270C841B950B33
:10260000A60BB70B8093730390937403A093750389
:10261000B09376032091091F21FD4AC03091B91E65
:10262000332309F445C040917303509174036091C2
:102630007503709176038091EC049091ED04A09164
:10264000EE04B091EF04481759076A077B0778F149
:1026500020915F03309160034091610350916203C8
:102660002093240C3093250C4093260C5093270C78
:102670006091730370917403809175039091760358
:1026800060936B0370936C0380936D0390936E0360
:10269000A091210CB091220C1196B093220CA09322
:1026A000210CE091530BF091540B319771F0089588
:1026B0006CED75E080E090E06093F0047093F104BD
:1026C0008093F2049093F304AECF40915F03509156
:1026D000600360916103709162038091830C90911B
:1026E000840CA091850CB091860C84179507A607E1
:1026F000B707E8F680915F0390916003A0916103B2
:10270000B09162032091830C3091840C4091850C30
:102710005091860C821B930BA40BB50B809334064F
:1027200090933506A0933606B09337060895089522
:1027300008958091B91E811104C02091551F24FF76
:1027400067C04091BA1E5091BB1E6091531F70919B
:10275000541F4617570768F48091271F9091281F30
:10276000A091291FB0912A1F892B8A2B8B2B09F44A
:102770004FC02091B7043091B8044091B9045091F2
:10278000BA04232B242B252B09F442C04091B30417
:102790005091B4046091B5047091B604452B462B5A
:1027A000472BB1F1F8948091B7049091B804A091AF
:1027B000B904B091BA042091B3043091B4044091AB
:1027C000B5045091B604821B930BA40BB50B8093F8
:1027D000880C9093890CA0938A0CB0938B0C7894FE
:1027E0002091880C3091890C40918A0C50918B0C6F
:1027F00060E077E883E993E00F94D99AC9018035C6
:1028000026E4920738F08091BA1E9091BB1E08957D
:1028100090E080E00895089580916F039091700397
:10282000A0917103B091720380936B0390936C033A
:10283000A0936D03B0936E030F94D65F60937703FC
:10284000709378038093790390937A038091770350
:1028500090917803A0917903B0917A034091830C11
:102860005091840C6091850C7091860C841B950BA3
:10287000A60BB70B80936F0390937003A093710323
:10288000B0937203A091530BB091540B1196B09377
:10289000540BA093530B21E02093EB046091530B56
:1028A0007091540B6D30710509F459C0E091530BD0
:1028B000F091540B319709F45CC080916B039091B7
:1028C0006C03A0916D03B0916E03B695A795979593
:1028D00087958093560390935703A0935803B09322
:1028E000590340916F03509170036091710370918F
:1028F00072038091560390915703A0915803B091B1
:102900005903481759076A077B0708F12091830C80
:102910003091840C4091850C5091860C20937F0C53
:102920003093800C4093810C5093820C609177031C
:10293000709178038091790390917A036093830C6E
:102940007093840C8093850C9093860C089510925C
:10295000540B1092530B71E07093B91E089530918F
:10296000B91E332309F4A2CF1092540B1092530BCB
:1029700008955091B91E552309F49FCF4091B70493
:102980005091B8046091B9047091BA044093B304B3
:102990005093B4046093B5047093B60480917703A8
:1029A00090917803A0917903B0917A038093B70452
:1029B0009093B804A093B904B093BA042091271F50
:1029C0003091281F4091291F50912A1F2F5F3F4FA0
:1029D0004F4F5F4F2093271F3093281F4093291F8D
:1029E00050932A1F6091830C7091840C8091850C08
:1029F0009091860C60937F0C7093800C8093810C77
:102A00009093820C40917703509178036091790301
:102A100070917A034093830C5093840C6093850CDF
:102A20007093860C089508958091B91E811104C099
:102A30002091551F24FF67C04091BA1E5091BB1EC4
:102A40006091531F7091541F4617570768F4809187
:102A5000271F9091281FA091291FB0912A1F892B11
:102A60008A2B8B2B09F44FC02091B7043091B80406
:102A70004091B9045091BA04232B242B252B09F43F
:102A800042C04091B3045091B4046091B504709178
:102A9000B604452B462B472BB1F1F8948091B7042F
:102AA0009091B804A091B904B091BA042091B304F4
:102AB0003091B4044091B5045091B604821B930B3D
:102AC000A40BB50B8093880C9093890CA0938A0C6F
:102AD000B0938B0C78942091880C3091890C4091A4
:102AE0008A0C50918B0C60E077E883E993E00F94B7
:102AF000D99AC901803526E4920738F08091BA1E30
:102B00009091BB1E089590E080E008958091B91ED9
:102B1000882301F12091461D27FD2AC04091271FDF
:102B20005091281F6091291F70912A1F443651052A
:102B30006105710558F46091530B7091540B6D321F
:102B4000710521F01092540B1092530B91E0909369
:102B50005E0308951092540B1092530B51E0509362
:102B6000B91E73E07093230C91E090935E03089577
:102B70001092540B1092530B33E03093230C91E0DE
:102B800090935E0308950F94D65F609377037093DC
:102B900078038093790390937A03809177039091DF
:102BA0007803A0917903B0917A0340915203509138
:102BB00053036091540370915503841B950BA60B2E
:102BC000B70B80936F0390937003A0937103B0933E
:102BD000720320916F033091700340917103509103
:102BE00072036091F0047091F1048091F20490916D
:102BF000F304621773078407950768F08091271F15
:102C00009091281FA091291FB0912A1F892B8A2BF0
:102C10008B2B09F0B6C03091230C3F5F3093230C0F
:102C20005091B91E552309F49CC07091230C733048
:102C300008F4A7C091E09093EB0440917703509182
:102C400078036091790370917A0340935203509313
:102C5000530360935403709355031092230CA09177
:102C6000530BB091540B1196B093540BA093530B8C
:102C7000E091530BF091540B319741F02091530B9D
:102C80003091540B2E32310508F440C061E070E001
:102C90007093540B6093530B8091B7049091B804D8
:102CA000A091B904B091BA048093B3049093B40492
:102CB000A093B504B093B604409177035091780384
:102CC0006091790370917A034093B7045093B804EC
:102CD0006093B9047093BA04B0915E03F1E0BF272A
:102CE000B0935E032091271F3091281F4091291F28
:102CF00050912A1F2F5F3F4F4F4F5F4F2093271F49
:102D00003093281F4093291F50932A1F40916F032F
:102D100050917003609171037091720330914C1D5A
:102D2000307639F03032D1F1303409F448C03036E1
:102D300049F11092F0041092F1041092F2041092F2
:102D4000F3046091830C7091840C8091850C9091B8
:102D5000860C60937F0C7093800C8093810C909311
:102D6000820C8091770390917803A0917903B091C0
:102D70007A038093830C9093840CA093850CB0937A
:102D8000860C0895DB01CA01880F991FAA1FBB1F7B
:102D9000840F951FA61FB71FAC01BD0176956795DF
:102DA0005795479576956795579547954093F004C5
:102DB0005093F1046093F2047093F304C2CF7695BC
:102DC0006795579547954093F0045093F1046093AD
:102DD000F2047093F304B5CF08958091B91E811168
:102DE00004C02091551F24FF67C04091BA1E509126
:102DF000BB1E6091531F7091541F4617570768F40C
:102E00008091271F9091281FA091291FB0912A1F00
:102E1000892B8A2B8B2B09F44FC02091B70430915A
:102E2000B8044091B9045091BA04232B242B252BCC
:102E300009F442C04091B3045091B4046091B504C8
:102E40007091B604452B462B472BB1F1F894809135
:102E5000B7049091B804A091B904B091BA0420913C
:102E6000B3043091B4044091B5045091B604821B70
:102E7000930BA40BB50B8093880C9093890CA093B3
:102E80008A0CB0938B0C78942091880C3091890C2B
:102E900040918A0C50918B0C60E077E883E993E0D5
:102EA0000F94D99AC901803526E4920738F08091B1
:102EB000BA1E9091BB1E089590E080E00895109294
:102EC000540B1092530B08958091530B9091540B17
:102ED0000D9709F4A7C00F94D65F609377037093A2
:102EE00078038093790390937A038091770390918C
:102EF0007803A0917903B0917A034091830C5091AB
:102F0000840C6091850C7091860C841B950BA60B2C
:102F1000B70B80936F0390937003A0937103B093EA
:102F2000720320916F0330917003409171035091AF
:102F300072036091F0047091F1048091F204909119
:102F4000F304261737074807590708F46AC0A09109
:102F5000530BB091540BAB2B09F467C0E091530BAA
:102F6000F091540B3196F093540BE093530BA091D6
:102F7000530BB091540BE091530BF091540BAA0FEB
:102F8000BB1FA754BB4FEE0FFF1FE954FB4F8D91A2
:102F90009C9140815181841B950B90937E0C809372
:102FA0007D0C40916F03509170036091710370919B
:102FB000720390914C1D907649F0903209F485C0CF
:102FC000903409F493C0903609F473C01092F00461
:102FD0001092F1041092F2041092F30451E0509315
:102FE000EB042091830C3091840C4091850C50911E
:102FF000860C20937F0C3093800C4093810C50936F
:10300000820C60917703709178038091790390919D
:103010007A036093830C7093840C8093850C909357
:10302000860C08951092B91E089521E030E0309387
:10303000540B2093530B6091B7047091B8048091A6
:10304000B9049091BA046093B3047093B40480936C
:10305000B5049093B6048091770390917803A09182
:103060007903B0917A038093B7049093B804A09346
:10307000B904B093BA0431E03093B91E4091271FD0
:103080005091281F6091291F70912A1F4F5F5F4F39
:103090006F4F7F4F4093271F5093281F6093291F26
:1030A00070932A1FACE3B0E0B0937E0CA0937D0C2C
:1030B00078CFDB01CA01880F991FAA1FBB1F840F9D
:1030C000951FA61FB71FAC01BD0176956795579553
:1030D000479576956795579547954093F00450939B
:1030E000F1046093F2047093F30478CF76956795BA
:1030F000579547954093F0045093F1046093F20480
:103100007093F3046BCF8091B91E811104C020919C
:10311000551F24FF67C04091BA1E5091BB1E60919D
:10312000531F7091541F4617570768F48091271F4B
:103130009091281FA091291FB0912A1F892B8A2BBB
:103140008B2B09F44FC02091B7043091B804409103
:10315000B9045091BA04232B242B252B09F442C027
:103160004091B3045091B4046091B5047091B604D9
:10317000452B462B472BB1F1F8948091B7049091E1
:10318000B804A091B904B091BA042091B30430916D
:10319000B4044091B5045091B604821B930BA40B68
:1031A000B50B8093880C9093890CA0938A0CB093F4
:1031B0008B0C78942091880C3091890C40918A0C6A
:1031C00050918B0C60E077E883E993E00F94D99AF3
:1031D000C901803526E4920738F08091BA1E90919B
:1031E000BB1E089590E080E008951092540B109259
:1031F000530B81E080935E0308958091530B90916F
:10320000540B499709F4ACC00F94D65F60937703D1
:10321000709378038093790390937A038091770376
:1032200090917803A0917903B0917A034091830C37
:103230005091840C6091850C7091860C841B950BC9
:10324000A60BB70B80936F0390937003A093710349
:10325000B0937203A091530BB091540BAB2BB9F107
:10326000E091530BF091540B3196F093540BE09393
:10327000530BA091530BB091540BE091530BF09171
:10328000540BAA0FBB1FA754BB4FEE0FFF1FE954EF
:10329000FB4F6D917C9120813181621B730B709388
:1032A0007E0C60937D0C51E05093EB04809177038A
:1032B00090917803A0917903B0917A038093830C65
:1032C0009093840CA093850CB093860C089581E0B4
:1032D00090E09093540B8093530B4091B70450911E
:1032E000B8046091B9047091BA044093B304509348
:1032F000B4046093B5047093B60460917703709141
:1033000078038091790390917A036093B704709366
:10331000B8048093B9049093BA0430915E0391E0AD
:10332000392730935E039093B91E2091271F309167
:10333000281F4091291F50912A1F2F5F3F4F4F4F49
:103340005F4F2093271F3093281F4093291F5093CE
:103350002A1FAFE0B0E0B0937E0CA0937D0CA3CF0A
:103360001092B91E08958091AB0E807F8034F1F0E9
:103370008036D9F420914C1D2C712C3089F146E017
:1033800050E050936A034093690362E070E07093E9
:10339000680360936703A4E0B0E0B0936603A09372
:1033A00065037093640360936303089530914C1D2B
:1033B0003C713C30A9F0E4E0F0E0F0936A03E09364
:1033C000690382E090E09093680380936703F09331
:1033D0006603E09365039093640380936303089509
:1033E00028E030E030936A032093690342E050E024
:1033F000509368034093670364E070E07093660342
:1034000060936503A6E0B0E0B0936403A093630308
:1034100008958091B91E0F94D65F60935F037093F7
:103420006003809361039093620380915F039091A6
:103430006003A0916103B09162034091240C50910C
:10344000250C6091260C7091270C841B950BA60B04
:10345000B70B8093730390937403A0937503B09399
:10346000760320917303309174034091750350915A
:1034700076036091EC047091ED048091EE049091DC
:10348000EF04261737074807590708F471C08091E1
:103490005F0390916003A0916103B09162038093F8
:1034A000240C9093250CA093260CB093270C51E08C
:1034B0005093EB04609173037091740380917503D2
:1034C0009091760396958795779567956093EC0430
:1034D0007093ED048093EE049093EF043091B91E45
:1034E000311132C08CED95E0A0E0B0E08093F004A3
:1034F0009093F104A093F204B093F3046091EC0470
:103500007091ED048091EE049091EF04969587956B
:10351000779567956093EC047093ED048093EE04C7
:103520009093EF04E091A904F091AA049081709126
:10353000A804A091AB0EA07F972301F1A03409F459
:1035400053C0A03609F448C04091BA1E5091BB1E2A
:10355000E091531FF091541F4E175F0750F4F09104
:10356000B91EFF2329F05091AB0E507F503491F0DB
:103570000895B091461DB7FDF2CF0895A03421F70C
:103580002091530B3091540B25303105E9F65093BF
:10359000B91EDACF0F94D65F80914E0390914F03FE
:1035A000A0915003B0915103E091A904F091AA04B5
:1035B00030819091A8043923D9F2A091530BB09196
:1035C000540BA830B105C9F01092B91E7091641F58
:1035D0007F5F7093641F08958091530B9091540BFB
:1035E000079709F0B1CFD3CF6091530B7091540B73
:1035F0006830710509F0A8CFCACFB093540BA093DF
:10360000530B08958091EC1E82319CF026E030E04F
:1036100030936A032093690341E050E050936803BC
:103620004093670364E070E0709366036093650302
:103630000895A7E0B0E0B0936A03A0936903E2E0C5
:10364000F0E0F0936803E093670385E090E09093E7
:1036500066038093650308958091B91E811104C0AB
:103660002091551F24FF67C04091BA1E5091BB1E88
:103670006091531F7091541F4617570768F480914B
:10368000271F9091281FA091291FB0912A1F892BD5
:103690008A2B8B2B09F44FC02091B7043091B804CA
:1036A0004091B9045091BA04232B242B252B09F403
:1036B00042C04091B3045091B4046091B50470913C
:1036C000B604452B462B472BB1F1F8948091B704F3
:1036D0009091B804A091B904B091BA042091B304B8
:1036E0003091B4044091B5045091B604821B930B01
:1036F000A40BB50B8093880C9093890CA0938A0C33
:10370000B0938B0C78942091880C3091890C409167
:103710008A0C50918B0C60E077E883E993E00F947A
:10372000D99AC901803526E4920738F08091BA1EF3
:103730009091BB1E089590E080E008958091A30BC6
:103740009091A40B2091401D3091411D821B930B41
:103750004091190250911A02841795079CF0841B1E
:10376000950B0197843B9105A8F461E070E070939C
:103770006A0360936903A2E0B0E0B0936803A0938A
:103780006703089597FFEDCF840F951F0197843B42
:10379000910558F3E2E0F0E0F0936A03E0936903E7
:1037A00081E090E090936803809367030895CF923F
:1037B000DF92EF92FF922091BA1E3091BB1E809152
:1037C000531F9091541F2817390708F0A4C0E091A7
:1037D000AD04F091AE04C090271FD090281FE09058
:1037E000291FF0902A1F80914B1D90E0B0E0A0E0CF
:1037F000C816D906EA06FB0608F459C0E090B91EBF
:10380000EE2009F450C04091830C5091840C6091DB
:10381000850C7091860C452B462B472B09F447C02D
:1038200060917F0C7091800C8091810C9091820C42
:10383000672B682B692BD9F12091830C3091840C74
:103840004091850C5091860C80917F0C9091800C5A
:10385000A091810CB091820C82179307A407B50741
:1038600030F5F8942091830C3091840C4091850CB4
:103870005091860CC0907F0CD090800CE090810C11
:10388000F090820C2C193D094E095F09AE2FB0E073
:103890000F94219B6093880C7093890C80938A0C01
:1038A00090938B0C74C0F090551FF4FCACCFC0907B
:1038B000880CD090890CE0908A0CF0908B0C30E052
:1038C00020E0CC0CDD1CEE1CFF1CC0921E02D0922E
:1038D0001F02E0922002F09221028091AD049091AB
:1038E000AE048BE4C81688E9D80685E0E806F10442
:1038F00060F44BE458E965E070E040931E02509399
:103900001F026093200270932102C901FF90EF9083
:10391000DF90CF900895C090B91ECC2009F45EC00E
:103920004091B7045091B8046091B9047091BA0401
:10393000452B462B472B09F4BACF6091B304709105
:10394000B4048091B5049091B604672B682B692B61
:1039500009F4ADCFF8948091B7049091B804A09188
:10396000B904B091BA042091B3043091B4044091E9
:10397000B5045091B604821B930BA40BB50B809336
:10398000880C9093890CA0938A0CB0938B0C78943C
:10399000C090880CD090890CE0908A0CF0908B0C31
:1039A000F694E794D794C794C092880CD092890C6F
:1039B000E0928A0CF0928B0C60E077E883E993E068
:1039C000A70196010F94D99A203586E4380708F4A8
:1039D00078CF2091BA1E3091BB1E73CFD090551F67
:1039E000D4FC9ECF64CF20914F1D30E080914C1DC0
:1039F0008C718C3009F479C0E091401DF091411D2B
:103A000060917D0C70917E0C8091A30B9091A40B22
:103A10008E1B9F0B0F94929A261737070CF047C006
:103A2000621B730B70936A036093690360917D0C52
:103A300070917E0C8091700B9091710B8E1B9F0B7F
:103A40000F94929A261737070CF048C0621B730B2D
:103A5000709368036093670360917D0C70917E0C96
:103A600080916E0B90916F0B8E1B9F0B0F94929A0F
:103A7000261737076CF5621B730B70936603609310
:103A8000650360917D0C70917E0C80916A0B909122
:103A90006B0B8E1B9F0B0F94929A2617370774F4AB
:103AA000621B730B7093640360936303089516168F
:103AB00017060CF4B7CF620F731FB4CF1616170694
:103AC0008CF3620F731F7093640360936303089514
:103AD0001616170694F2620F731FCFCF161617062D
:103AE0000CF4B6CF620F731FB3CF4091451D41FD5B
:103AF00083CF220F331F80CFCF92DF92EF92FF92BE
:103B0000CF93DF930F94D65F60935F03709360034E
:103B1000809361039093620380915F0390916003AF
:103B2000A0916103B09162034091240C5091250C47
:103B30006091260C7091270C841B950BA60BB70B7C
:103B40008093730390937403A0937503B0937603EB
:103B5000C0907303D0907403E0907503F0907603E7
:103B60002091EC043091ED044091EE045091EF046B
:103B7000C216D306E406F50608F465C080915F031B
:103B800090916003A0916103B09162038093240C33
:103B90009093250CA093260CB093270C40917303AF
:103BA00050917403609175037091760376956795D3
:103BB0005795479576956795579547954093EC04AB
:103BC0005093ED046093EE047093EF04D090B91E0F
:103BD000DD2009F453C0C090271FD090281FE0902B
:103BE000291FF0902A1F80914B1D90E0B0E0A0E0CB
:103BF0008C159D05AE05BF0508F040C080914F1D96
:103C000090E0E090530BF090540B8E159F0591F0CF
:103C10002091271F3091281F4091291F50912A1F62
:103C2000233031054105510528F03091641F3F5F75
:103C30003093641FF090461DF7FE56C09093540BCE
:103C40008093530B51C06091880C7091890C8091C6
:103C50008A0C90918B0C96958795779567956093D4
:103C6000EC047093ED048093EE049093EF04DF91E5
:103C7000CF91FF90EF90DF90CF9008950F94D65F93
:103C80006093830C7093840C8093850C9093860CC6
:103C90000F94D65F6B017C01C0914F1D2C2F30E03B
:103CA00050E040E060E87DE88BE590E00F94A69A54
:103CB000C21AD30AE40AF50AC0927F0CD092800C93
:103CC000E092810CF092820CD0E0D093540BC09320
:103CD000530B1092F0041092F1041092F20410921F
:103CE000F30451E05093B91E71E070935E03DF91CD
:103CF000CF91FF90EF90DF90CF9008950F931F9397
:103D0000CF93DF93E0914F1DF0E080914C1D8C71BB
:103D10008C3009F401C1EF0130E020E00091401D3A
:103D20001091411D60917D0C70917E0C8091A30BD0
:103D30009091A40B801B910B0F94929A6150710982
:103D4000C617D7070CF0CDC06C1B7D0B4091AD049E
:103D50005091AE044617570720F4E617F7070CF00A
:103D6000D6C0A091AD04B091AE04A20FB31FA617A8
:103D7000B70730F46091AD047091AE04620F731F09
:103D800070936A036093690360917D0C70917E0C5F
:103D90008091700B9091710B801B910B0F94929AF4
:103DA00061507109C617D7070CF094C06C1B7D0BCE
:103DB0008091AD049091AE048617970720F4E61722
:103DC000F7070CF09FC04091AD045091AE04420F34
:103DD000531F4617570730F46091AD047091AE043D
:103DE000620F731F709368036093670360917D0C8B
:103DF00070917E0C80916E0B90916F0B801B910BDC
:103E00000F94929A61507109C617D7070CF05BC0E6
:103E10006C1B7D0BA091AD04B091AE04A617B70743
:103E200020F4E617F7070CF068C08091AD0490917C
:103E3000AE04820F931F8617970730F46091AD048C
:103E40007091AE04620F731F7093660360936503F5
:103E500060917D0C70917E0C80916A0B90916B0B40
:103E6000801B910B0F94929A61507109C617D70766
:103E700024F56C1B7D0BC091AD04D091AE04C61728
:103E8000D70718F4E617F7079CF5E091AD04F09119
:103E9000AE04E20FF31FE617F70730F46091AD04AC
:103EA0007091AE04620F731F709364036093630399
:103EB000DF91CF911F910F91089516161706DCF22E
:103EC0006C0F7D1FD8CF161617060CF4A3CF6C0FFE
:103ED0007D1FA0CF161617060CF46ACF6C0F7D1F3E
:103EE00067CF161617060CF431CF6C0F7D1F2ECF3F
:103EF0006091AD047091AE04C8CF6091AD04709133
:103F0000AE0493CF6091AD047091AE045CCF60912C
:103F1000AD047091AE0425CF0091451D01FDFBCE8F
:103F20009F01EF01CC0FDD1FF9CECF92DF92EF9210
:103F3000FF92E091B10BF091B20B1995AC0189366B
:103F400021E092070CF443C09C0129563140A3E8BC
:103F5000BDE20F94349B0024880F991F001C880F2A
:103F6000991F001C892F902D877099274856514022
:103F7000493621E052075CF1009719F18130910533
:103F8000D1F082309105A9F08330910581F0843021
:103F9000910559F08530910531F0069711F048569A
:103FA0005140485651404856514048565140485655
:103FB00051404856514048565140493621E0520739
:103FC00034F040545B40493681E05807D4F7809183
:103FD000401D9091411D481B590B2091B91F237022
:103FE000223031F4C090B91DD090BA1D4C195D0932
:103FF000E091BC1D9A01220F331FF0E0A0E0B1E078
:10400000AE1BBF0B0F94679B6B017C01A0917D1FC2
:10401000B0917E1F9F010F946F9BC60ED71EE81EA6
:10402000F91ECD2CDE2CEF2CFF24E7FCFA94D09265
:104030007E1FC0927D1FFF90EF90DF90CF9008957C
:10404000CF92DF92EF92FF920F94D65F60935F035F
:1040500070936003809361039093620380915F0388
:1040600090916003A0916103B09162034091240C90
:104070005091250C6091260C7091270C841B950B98
:10408000A60BB70B8093730390937403A0937503EF
:10409000B0937603C090240CD090250CE090260CB1
:1040A000F090270CCD28CE28CF28C1F410927303AE
:1040B00010927403109275031092760320915F039F
:1040C0003091600340916103509162032093240C6E
:1040D0003093250C4093260C5093270C409173038A
:1040E0005091740360917503709176038091EC0494
:1040F0009091ED04A091EE04B091EF044817590798
:104100006A077B07C0F13091481D3F77313009F4D1
:10411000C1C0311120C051E050935E036091730320
:1041200070917403809175039091760396958795AD
:10413000779567956093EC047093ED048093EE049B
:104140009093EF04A091210CB091220C1196B093A2
:10415000220CA093210CC0905F03D0906003E090EC
:104160006103F0906203C092240CD092250CE0927F
:10417000260CF092270CD090B31FD5FE86C0E0909D
:104180005E03EE2009F481C0E091B10BF091B20B17
:104190001995AC01893621E092070CF442C09C01CC
:1041A00029563140A3E8BDE20F94349B0024880FC8
:1041B000991F001C880F991F001C892F902D877054
:1041C000992748565140493621E0520754F100974B
:1041D00011F181309105C9F082309105A1F0833051
:1041E000910579F08430910551F08530910529F0E1
:1041F000069709F0B5C048565140485651404856B8
:104200005140485651404856514048565140493611
:1042100021E0520734F040545B40493681E05807B2
:10422000D4F72091401D3091411D421B530B7091DA
:10423000B91F7370723031F480917B1E90917C1E97
:10424000481B590BE091BC1D9A01220F331FF0E06F
:10425000A0E0B1E0AE1BBF0B0F94679B6B017C012C
:10426000A091691FB0916A1F9F010F946F9BC60EAA
:10427000D71EE81EF91ECD2CDE2CEF2CFF24E7FC08
:10428000FA94D0926A1FC092691FFF90EF90DF905E
:10429000CF9008958091240C9091250CA091260C2C
:1042A000B091270CC090AF04D090B004E090B1045E
:1042B000F090B2048C199D09AE09BF09AC01BD0193
:1042C000440F551F661F771F840F951FA61FB71F2A
:1042D000B695A7959795879580935A0390935B031E
:1042E000A0935C03B0935D032091240C3091250CC6
:1042F0004091260C5091270C2093AF043093B004CA
:104300004093B1045093B2044091730350917403ED
:10431000609175037091760380915A0390915B03CD
:10432000A0915C03B0915D03481759076A077B07AA
:1043300030F4E091210CF091220C3497A0F081E050
:1043400090E09093220C8093210C80935E03109256
:10435000EC041092ED041092EE041092EF04FBCEE8
:104360004856514048CF6091730370917403809117
:1043700075039091760396958795779567959695B1
:104380008795779567956093EC047093ED0480931F
:10439000EE049093EF04A091210CB091220C1196A1
:1043A000B093220CA093210CD6CECF93DF93109222
:1043B000EB0481E08093EB042091F9042330F1F0C9
:1043C000223091F0213029F4E091F504F091F604C7
:1043D00019956091681F662321F07091EB047111AB
:1043E00017C0DF91CF910895E091A604F091A70442
:1043F00030819091A504392339F3EBCFC091A60405
:10440000D091A70448815091A5044523E9F6E1CF56
:104410008091730390917403A0917503B09176031A
:10442000A091061FA6FDDDCFB091671FB111D9CFB6
:10443000C091F40BD091F50BC153DD4F1882E09180
:10444000A904F091AA04D081F091A804DF2309F017
:1044500045C0E091A604F091A70420813091A50405
:10446000232349F0C091F40BD091F50BC153DD4FDC
:10447000988192609883E091F40BF091F50BE153F1
:10448000FD4F4081446040835091B91E552349F04F
:10449000C091F40BD091F50BC153DD4F688168607A
:1044A0006883C091F40BD091F50B0F94D65FCC0FBD
:1044B000DD1FCC0FDD1FC95AD64F688379838A83ED
:1044C0009B83A091F40BB091F50BAE37B10580F052
:1044D0007091061F70647093061F83CFC091F40B18
:1044E000D091F50BC153DD4F888181608883B1CFB6
:1044F0008091F40B9091F50B01969093F50B8093BE
:10450000F40BB091061FBF7BB093061F6ACFCF9309
:10451000DF931092EB048091FA04833009F481C098
:104520008230B9F08130F1F4E091F704F091F804B1
:1045300019957091671F772301F1A091EB04A111E8
:104540007BC0B1E0D091681FD1111CC0DF91CF9129
:104550000895E091A904F091AA0420819091A80403
:10456000292311F35091671F552339F06091EB0413
:10457000662339F3DF91CF910895B0E0D091681FA1
:10458000DD2321F340916F0350917003609171031B
:1045900070917203F091061FF6FDD8CFC091F40B15
:1045A000D091F50BB1116FC0C153DD4F1882E0916E
:1045B000A904F091AA0480812091A804822309F023
:1045C00082C0E091A604F091A70430815091A50427
:1045D000352349F0C091F40BD091F50BC153DD4F59
:1045E0006881626068837091B91E772349F0E09119
:1045F000F40BF091F50BE153FD4FA081A860A0836F
:10460000C091F40BD091F50B0F94D65FCC0FDD1F4A
:10461000CC0FDD1FC95AD64F688379838A839B8369
:104620003CC0C091A904D091AA0438814091A8044B
:10463000342309F079CF96CF20916F033091700326
:104640004091710350917203B091061FB6FD7ECF69
:10465000E091F40BF091F50BEE0FFF1FEE0FFF1F33
:10466000E95AF64F20833183428353838091F40BC0
:104670009091F50B8E379105B8F0D091061FD0645C
:10468000D093061F63CFCC0FDD1FCC0FDD1FC95A9F
:10469000D64F488359836A837B834091F40B5091B2
:1046A000F50B4E37510548F7A091F40BB091F50B7F
:1046B0001196B093F50BA093F40BF091061FFF7BBE
:1046C000F093061F43CFC091F40BD091F50BC1536B
:1046D000DD4F98819160988374CFCF92DF92EF92F3
:1046E000FF92AB01DC011396FC91139711962D916B
:1046F0003C91EF2FEF712115310539F52F2FFF0F69
:10470000330B220F232F221F330B8FEF9FEF0E2E21
:1047100002C0880F991F0A94E2F780959095BA011C
:10472000770F660B762F86239723840F951F02C081
:1047300095958795EA95E2F782279327821B930B3D
:10474000FF90EF90DF90CF900895DB010F94679B6F
:104750006C01FF24D7FCF094EF2CC601F6FF0EC0CD
:104760002F2FFF0F330B220F232F221F330BCA01D2
:1047700082279327821B930B8C0D9D1D02C095955C
:104780008795EA95E2F797FD0196FF90EF90DF900D
:10479000CF9008958F929F92AF92BF92CF92DF9267
:1047A000EF92FF920F931F93CF93DF935C018B01E6
:1047B0001092B8071092B70710922E0C812F0F9409
:1047C0003C52802F0F943C521093C2080093C108B2
:1047D0000115110509F4DDC045018FE3E82EF12C28
:1047E0006501C00ED11EC80183709927009709F496
:1047F00059C081309105C1F10297D9F0E501899145
:104800004E010F943C52A091B707B091B807119692
:10481000B093B807A093B7079091BF0F8091C00FD6
:10482000981708F0F4C0891B990B0197892B09F49C
:1048300092C0F40181914F010F943C528091B707CF
:104840009091B80701969093B8078093B70790911D
:10485000BF0F8091C00F981708F0D2C0891B990B29
:104860000197892B09F477C0E40189914E010F94D7
:104870003C52A091B707B091B8071196B093B80712
:10488000A093B7079091BF0F8091C00F981708F0C1
:1048900059C0891B990B019709F45DC0C814D9044C
:1048A00009F477C0E40189910F943C52E091B70775
:1048B000F091B8073196F093B807E093B70790915D
:1048C000BF0F8091C00F981708F055C0891B990B36
:1048D0000197892B09F43FC088810F943C52809145
:1048E000B7079091B80701969093B8078093B707E0
:1048F0009091BF0F8091C00F981708F043C0891B9B
:10490000990B0197892B39F189810F943C52A09121
:10491000B707B091B8071196B093B807A093B7073F
:104920009091BF0F8091C00F981708F062C0891B4B
:10493000990B0197892B79F04E01F3E08F0E911CB2
:104940008A8195CF9701291B3109820F932F911DE1
:10495000892B09F0A3CF01E000932E0CDF91CF91BA
:104960001F910F91FF90EF90DF90CF90BF90AF908D
:104970009F908F9008959701291B3109820F932FE3
:10498000911DA7CF9701291B3109820F932F911DEC
:10499000B9CF80902E0C8110E1CF2FEF3FEFA9010E
:1049A0002093332030933420409335205093362089
:1049B00021E0A801B50183E390E20E944BF6EB01F0
:1049C000182F892F0F943C52812F0F943C528D2F1A
:1049D0000F943C528C2FDF91CF911F910F91FF903C
:1049E000EF90DF90CF90BF90AF909F908F900D94FD
:1049F0003C529701291B3109820F932F911D9ACFA9
:104A00009701291B3109820F932F911D2ACF9701FE
:104A1000291B3109820F932F911D08CF833023E08A
:104A2000920709F4F7C258F1813123E0920709F4A3
:104A3000D9C208F060C08A3023E0920709F4DEC2D0
:104A400008F0E8C0863023E0920709F461C208F458
:104A50004BC2883023E0920709F4B7C108F4F7C3CA
:104A600050912D1F51FF06C06091140674E0672716
:104A700060931406A0911406A2FFD9C108958C304A
:104A800022E0920709F4D6C2D8F4853022E09207DA
:104A900009F4E0C208F0D2C0813022E0920709F4A4
:104AA0006BC208F4D5C1833022E0920709F46DC1CE
:104AB00008F4A9C350912D1F51FFE0CF0C94228D13
:104AC000833122E0920709F49FC208F46BC087315A
:104AD00022E0920709F43DC308F0F5C0853122E0D9
:104AE000920709F41CC108F4ECC270912D1F71FFEC
:104AF000C5CF0C942F8B883123E0920709F4B6C2FE
:104B000008F46EC0833029E9920709F44BC208F01B
:104B1000AFC0813029E9920709F417C108F035C305
:104B20008115994909F0C3C3F8948091D40887FD91
:104B30008C5F18160CF0A1C3082E000C990BFC0119
:104B4000EE0FFF1FEE0FFF1FEB52F74F2081318159
:104B500042815381880F991F880F991FFC01EF52E2
:104B6000F74F80819181A281B381281B390B4A0BB9
:104B70005B0B7894211531054105510509F47ECF71
:104B800060E077E883E993E00F94D99A3093EF0ED1
:104B90002093EE0E0F94CC54A091551FA860A093C3
:104BA000551F08958F3022E0920709F4EBC108F4F5
:104BB0005EC1813122E0920709F49FC008F441C32D
:104BC00070912D1F71FF06C0A091150690E2A927D4
:104BD000A0931506B0911506B5FD50CF0C94BF8B70
:104BE000843123E0920709F4A8C208F46EC186312B
:104BF00023E0920709F48DC008F447C230912D1FBD
:104C000031FF3CCF0E9456FD409114064F774093F0
:104C1000140608958D3023E0920709F49BC108F42F
:104C20003BC18F3023E0920709F4BFC008F498C15C
:104C300090912D1F91FF22CF0D945603883022E0D2
:104C4000920709F432C208F4F4C08A3022E09207D5
:104C500009F475C008F489C290912D1F91FF0ECF01
:104C60000E94818CA0911506A77FA0931506089538
:104C7000853029E9920709F4B4C008F42EC28630C1
:104C8000994909F013C32091731F3091741F2115A6
:104C9000310509F4F3CEA0E1B7E20F94349B2091E3
:104CA000BA1E3091BB1E50E040E00F94D99A309369
:104CB000FC0E2093FB0E0F94CC549091551F9860DE
:104CC0009093551F0895813023E0920709F4A9C0FD
:104CD00008F0A5C28831924009F0E7C2F0912D1F7B
:104CE000F1FF05C08091150680588093150620912C
:104CF000150627FDC3CE0C94FF8AE0912D1FE1FF1E
:104D0000BDCE0E94BF8BF0911506FF7DF093150676
:104D1000089550912D1F51FFB1CE0C947EFEA091AD
:104D20002D1FA1FF06C0B091150690E4B927B093DE
:104D30001506E0911506E6FDA1CE0C945E8BB091B0
:104D40002D1FB1FF9BCE0C94B78C2091731F309117
:104D5000741F2115310509F491CEA0E1B7E20F943B
:104D6000349B2091BA1E3091BB1E50E040E00F945E
:104D7000D99A3093F20E2093F10E0F94CC54E09117
:104D8000551FE860E093551F089560912D1F61FF46
:104D900006C07091150691E0792770931506A091D1
:104DA0001506A0FD6BCE0C943589F0912D1FF1FFF7
:104DB00006C08091140620E182278093140630916A
:104DC000140634FD5BCE0D949904B0912D1FB1FFF4
:104DD00055CE0F940B00E0911406EB7FE093140680
:104DE00008952091731F3091741F2115310509F426
:104DF00045CEA0E1B7E20F94349B2091BA1E3091CA
:104E0000BB1E50E040E00F94D99A3093FA0E2093E5
:104E1000F90E0F94CC542091551F28602093551FF4
:104E2000089550912D1F51FF29CE0D9413060D9416
:104E30000B00863022E0920709F46FC18730924060
:104E400009F037C2E0912D1FE1FF18CE0C940F8AB4
:104E5000811521E0920709F4B8C18130914009F031
:104E600027C280912D1F826080932D1F08958D3061
:104E700022E0920709F4DFC18E30924009F013C29C
:104E800030912D1F31FFFACD0E94208C40911506E4
:104E90004F7E4093150608958B3023E0920709F466
:104EA0004DC08C30934009F005C230912D1F31FF69
:104EB00006C04091140658E04527409314066091BF
:104EC000140663FDDBCD0C94A1FD823123E0920733
:104ED00009F4C3C18331934009F0E6C160912D1FED
:104EE00061FFCCCD0D94E900843023E0920701F1FD
:104EF0008530934009F0D6C180912D1F81FFBECD32
:104F00000F947802209114062D7F209314060895A3
:104F100090912D1F91FF06C0F091140682E0F827B2
:104F2000F09314062091140621FDA8CD0D9478026B
:104F300030912D1F31FFA2CD0D94A60370912D1F2E
:104F400071FF9CCD0E94A1FDA0911406A77FA093A4
:104F50001406089540912D1F41FF90CD0D94C30577
:104F6000B0912D1FB1FF8ACD0F949904E0911406E2
:104F7000EF7EE09314060895B0912D1FB1FF7ECD12
:104F80000C94448A80912D1F81FF06C02091150644
:104F900030E12327209315064091150644FD6ECD80
:104FA0000C94208C2091731F3091741F21153105B2
:104FB00009F464CDA0E1B7E20F94349B2091BA1EAE
:104FC0003091BB1E50E040E00F94D99A3093F60E1A
:104FD0002093F50E0F94CC543091551F38603093C8
:104FE000551F089570912D1F71FF48CD0F942C020D
:104FF000809114068F7D80931406089550912D1F83
:1050000051FF3CCD0C94CDFEA0912D1FA1FF36CDBC
:105010000C948F8BA0912D1FA1FF06C0B091140698
:10502000E1E0BE27B09314069091140690FD26CDC2
:105030000D94E504B0912D1FB1FF06C0E091150657
:1050400098E0E927E0931506F0911506F3FD16CDDB
:105050000C94818C80912D1F81FF10CD0E94EC8CCF
:10506000209115062D7F20931506089540912D1F40
:1050700041FF05C05091140650585093140660919A
:10508000140667FDFBCC0C9456FD90912D1F91FFEB
:1050900006C0F091140680E4F827F09314062091DE
:1050A000140626FDEBCC0C94BFFFE0912D1FE1FF11
:1050B000E5CC0E94FF88F0911506FB7FF093150662
:1050C000089550912D1F51FFD9CC0E945E8B6091A5
:1050D00015066F7B6093150608952091731F30911C
:1050E000741F2115310509F4C9CCA0E1B7E20F9472
:1050F000349B2091BA1E3091BB1E50E040E00F94CB
:10510000D99A3093F80E2093F70E0F94CC54F09167
:10511000551FF860F093551F0895F0912D1FF1FF72
:1051200006C08091150622E08227809315063091F3
:10513000150631FDA3CC0C94EC8C60912D1F61FF02
:105140009DCC0E94BFFF709114067F7B7093140664
:10515000089560912D1F61FF91CC0E94FF8A70918C
:1051600015067F7770931506089540912D1F41FF16
:1051700006C05091150664E05627509315067091AD
:10518000150672FD7BCC0C94FF882091731F309123
:10519000741F2115310509F471CCA0E1B7E20F9419
:1051A000349B2091BA1E3091BB1E50E040E00F941A
:1051B000D99A3093F40E2093F30E0F94CC54B091FF
:1051C000551FB860B093551F089520912D1F2D7F56
:1051D00020932D1F0F94E5040F9478020F940B0079
:1051E0000E94A1FD0E9435890E94EC8C0E94FF88DC
:1051F0000E94818C0E94208C0E94BF8B1092150609
:1052000010921406089530912D1F31FF37CC0E9463
:105210003589409115064E7F4093150608953091CB
:105220002D1F31FF2BCC0F94E504409114064E7FC7
:1052300040931406089550912D1F51FF1FCC0C94DC
:10524000518C60912D1F61FF19CC0C94F08B409113
:105250002D1F41FF13CC0D94390170912D1F71FF4B
:1052600006C0A0911406B0E2AB27A0931406E0910B
:105270001406E5FD03CC0D942C022091D508309145
:10528000D6084091D7085091D8088091E1089091B4
:10529000E208A091E308B091E408281B390B4A0BFF
:1052A0005B0B67CC089508950895089508950895B7
:1052B000089508950895982F803110F00F94F19C6F
:1052C000E82FF0E08827E859F64D8F4F0D945F9B4B
:1052D000AE29B0299629B629BD29C329CA29D029C2
:1052E000F829352A3C2A432A4B2A6B2A78299D29FA
:1052F000603281E07807F8F482EA97E16F3F710548
:1053000009F008F420C16031F1E07F0708F045C1E1
:105310007727660F771F680F791FFB01E95FFE4F44
:105320006081718186E892E00C946D23603221E007
:10533000720708F4D7C080E008956035710508F45D
:10534000D7C06F3F710509F0B0F76055710927E9C3
:105350003CE0620F731FFB0180810895892F08953F
:105360006038710540F727E83EE0F3CF603231E066
:10537000730708F789EE98E1C1CF60387105D8F658
:1053800020E43DE1E6CF603281E07807A0F68BE5CE
:1053900096E1B4CF6038710570F623EB3FE1D9CFC9
:1053A0006035710508F4A7C0603A710508F4AEC015
:1053B000603F710508F0BFCF605A7109A4EFB5E1F5
:1053C000262F6034710508F4B5C06834710508F003
:1053D000F3C02054E22FF0E0EE0FFF1FEA0FFB1F97
:1053E000E95BFF4F6081718186E892E00C946D2348
:1053F0006033710508F482C06036710508F48BC013
:105400006039710508F4B6C0603C710508F4F1C05C
:10541000603F710508F4F2C06032E1E07E0708F4F5
:10542000F2C06035F1E07F0708F4F2C0603821E097
:10543000720708F080CF60557140A9EDB1E1262FC9
:105440006432710508F489C06A32710508F097C0AA
:10545000245230E0220F331FA20FB31FFD0163A5BA
:1054600074A586E892E00C946D23603C710508F009
:1054700062CF27EC3DE06DCF603C710508F05BCF5B
:1054800029EF3DE166CF603231E0730708F053CF7A
:1054900080E39AE133CF6035710538F1603A7105E8
:1054A00080F1683B710508F046CF605A71096031A0
:1054B0007105B0F16431710508F08CC06051E62FC0
:1054C000F0E0EE0FFF1FE753FE4E6081718186E82A
:1054D00092E00C946D236038710508F02CCF27E41E
:1054E0003DE037CF87E79BE109CFA1EFB3E168CF7C
:1054F000A6E2B5E165CFADE8B5E162CFAEEAB3E1D2
:105500009ECF60557109A8E5B4E15ACF6055710985
:10551000AFEBB4E155CF60537109ABE6B3E18FCF88
:10552000E62FE370EA5FEE0FE61BF0E0EE54FE4E6E
:10553000878108952770245E220F261BA20FB11DBC
:10554000FD0187810895762F7F707858770F761B3D
:10555000870F911DFC01878108953BEA639F412DD0
:10556000112446954695542F550F450F440F241B83
:10557000215FE2CF60567109A8E2B3E160CF2A5201
:1055800030E0220F331FA21BB30BFD01EF5BFF4F77
:10559000808191819595879508956051262F30E0FF
:1055A000220F331F821B930BFC01EB5BFE4F8081AC
:1055B0009181959587950895285430E0220F331FE7
:1055C000A21BB30BFD01EB59FF4F80819181959593
:1055D000879508956451E62FF0E0EE0FFF1FF195D7
:1055E000E195F109E952FE4E80819181959587956B
:1055F000089560597109A5EEB2E121CF605C71098F
:10560000A2EAB2E11CCF605F7109AFE5B2E117CF4A
:1056100060527140ACE1B2E112CF803110F00F94D2
:10562000F19CE82FF0E08827E75EF44D8F4F0D9452
:105630005F9B6B2B852B8C2B942B9C2BA32BAB2B49
:10564000B22B292BDF2BE62BED2B0D2C362C6C2BC4
:10565000742B6033710508F423C16036710508F4BA
:105660002CC16039710508F460C1603C710508F413
:10567000A3C1603F710508F4A4C1603281E07807DE
:1056800008F4A4C16035E1E07E0708F4A4C16038E5
:10569000F1E07F0700F560557140A9EDB1E1862F7B
:1056A0006432710508F42DC16A32710508F042C1F7
:1056B0008452E82FF0E0EE0FFF1FEA0FFB1F34E6E5
:1056C000439FC001112494A783A74FEF5FE7139670
:1056D0005C934E93129708956032E1E07E0708F0E4
:1056E000D4C0A2EAB7E180C06035710508F4CFC02C
:1056F0006F3F710509F078F76055710987E99CE003
:10570000680F791FFB01408308956038710508F028
:10571000B6C087E89EE0F4CF603281E0780708F0F9
:10572000B3C0A7E7BBE160C06032E1E07E0708F0EC
:10573000AAC0A9EEB8E158C06038710508F0A2C04F
:1057400080E49DE1DDCF6032F1E07F0708F099C091
:10575000ABE5B6E149C06038710508F091C083EB54
:105760009FE1CECF6035710508F497C0603A7105AE
:1057700008F49EC0603F710508F0ADCF605A710912
:10578000E4EFF5E1862F6034710508F4A5C06834B4
:10579000710508F0F0C08054A82FB0E0AA0FBB1F1D
:1057A000AE0FBF1FA95BBF4F74E6479FB001112426
:1057B0006D937C938FEF9FE7938382830895603C82
:1057C000710508F05BC087EC9DE09ACF603C7105E5
:1057D00008F053C089EF9DE193CF603281E07807F4
:1057E00008F04AC0A0E3BAE16F3F710509F008F480
:1057F0007EC06031E1E07E0708F0ACC0FB01FF270E
:10580000EE0FFF1FEA0FFB1FE95FFE4F54E6459FB7
:10581000900111243183208358CF60357105D0F178
:10582000603A710508F43FC0683B710508F053CF3A
:10583000605A71096031710508F444C06431710522
:1058400008F0A9C06051E62FF0E0EE0FFF1FE7530C
:10585000FE4E24E6429FA0011124518340836FEF46
:105860007FE77093B5116093B411089560387105A6
:1058700068F487E49DE044CF08950895089508955D
:105880000895089508950895089508950895E6E205
:10589000F5E178CFE1EFF3E175CFEDE8F5E172CF17
:1058A000AEEAB3E1FCCE60557109E8E5F4E16ACFF8
:1058B00060557109EFEBF4E165CF60537109ABE618
:1058C000B3E1EDCEE62FE370EA5FEE0FE61BF0E00A
:1058D000EE54FE4E4783C3CFA62FA770A45EAA0F37
:1058E000A61BAE0FBF2FB11D17964C9363CFE62FAB
:1058F000EF70E858EE0FE61BEA0FFB2FF11D478310
:10590000E4CE8BEA689F812D112486958695982F89
:10591000990F890F880FE62FE81BE15FEE0FE61B5A
:10592000EA0FFB2FF11D4783D0CE60567109A8E224
:10593000B3E1B5CE8A5290E0880F991FFD01E81BB4
:10594000F90BEF5BFF4F842F90E0880F991F918335
:105950008083BBCE6051862F90E0880F991FFD0198
:10596000E81BF90BEB5BFE4F842F90E0880F991F2B
:1059700091838083AACE885490E0880F991FDF011D
:10598000A81BB90BAB59BF4F842F90E0880F991F0C
:105990008D939C930FCF6451E62FF0E0EE0FFF1F25
:1059A000F195E195F109E952FE4E842F90E0880FC0
:1059B000991F9183808353CF60597109A5EEB2E19D
:1059C0006ECE605C7109A2EAB2E169CE605F7109D6
:1059D000AFE5B2E164CE60527140ACE1B2E15FCEBE
:1059E0002F923F924F925F926F927F928F929F92EF
:1059F000AF92BF92CF92DF92EF92FF920F931F93DD
:105A0000CF93DF93CDB7DEB7AD970FB6F894DEBF77
:105A10000FBECDBF2C016CA3633009F4E8C608F4B7
:105A2000D1C62CA1243009F4FAC2253009F0FBC6F6
:105A30009C012B5B3E4F89509F4FA2014950510959
:105A40005EA34DA300E110E01BA70AA760EF7FEF64
:105A500078A76FA311E019A72DA03EA0281639063C
:105A600009F499C19BA38AA32E5F3F4F3DA72CA7A2
:105A70007EE9272E72E0372E01E0EAE08E2E912C8F
:105A8000A12CB12C11E0ECA5FDA592918291FDA76E
:105A9000ECA739A5313009F48AC6D82E93E6ECE29A
:105AA000F0E19D1508F087C22D2D30E050E040E078
:105AB00019A2CE0181966C01CA01B901A501940118
:105AC0000F94D99A605DF60162936F01211531053B
:105AD0004105510589F73097E9F101900020E9F778
