:100000000C94AB100D94343E0D94093E0D94DE3DDE
:100010000D94B33D0D94883D0D945D3D0D94323D9E
:100020000D94073D0C94DC100C94DC100C94DC1047
:100030000C94DC100C94DC100C94DC100D947B34CC
:100040000C94DC100C9403520C94F94F0C94BECD1C
:100050000C94DC100C94DC100C94DC100D94D25B2E
:100060000C94DC100D94C73F0D94873F0C94DC106A
:100070000C94DC100C94DC100C94DC100C94DC1050
:100080000D9420310D94A5300D942A300C94DC1081
:100090000C94DC100C94DC100C94DC100C94DC1030
:1000A0000C94DC100C94DC100D94B92E0D94AF2F31
:1000B0000D94342F0C94DC100C94DC100D941F2E36
:1000C0000D94852D0D94EB2C0C94DC100C94DC100D
:1000D0000C94DC100C94DC100D94503F0D94103FE8
:1000E0000C94DC100C948D150C945BBF0C943B624B
:1000F0000D940E010D940E4C0C9484BF0C9483BE91
:100100000C94ABF90C9443700C9421C00C9467BF11
:100110000C94C6150C9440580C94E7B70C94F2BD9F
:100120000D94EB4A0D94004C0C94DB730D948708EE
:100130000C9448BF0C94696C0C94433B0D941502CD
:100140000C943C660C9460170D94F1090C94D6A3A2
:100150000C94709D0C94548C0C94BCBD0D94794AF5
:100160000C941CBE0D94881D0C941DBF0D94C97772
:100170000C94436D0C94B91B0C94BEBE0C94E565B5
:100180000D94564C0C94BFBD0C9418A20D943807D6
:100190000C94AB640C94EEF80C9416BE0C948ABFCD
:1001A0000C941C710D940B0E0D94B3900C942D2493
:1001B0000C9441E30C944E250C9485540C9473CB11
:1001C0000C9426240D9480050C9482700C94F8FCF9
:1001D0000C9478EA0C94B6BE0C94B8FA0C9434548F
:1001E0000D946C630C9446700C9413BE0D94981D82
:1001F0000C94418A0C948EFF0C9447250C9401BEFC
:100200000C9414310C94DDBD0C94A8920D942278BA
:100210000C94E0BD0D94863E0C94816C0C94C5BD8D
:100220000C947BBF0D94780B0D94970C0C944EBFDF
:100230000C94917F0C9477F60D94110B0D949C0106
:100240000C9443130C9431BC0C9477D20C943EBEA6
:100250000C94F9540D94901D0C9468BE0C94916B01
:100260000C9496910D94FE5C0C941C150D94A66351
:100270000D9468730D9433100C94DD940D9457080D
:100280000C945C6A0D94AA730C945F890C945511BC
:100290000C94B0BD0C94ABC30C94ADBE0C94296609
:1002A0000C94B1580C9454BF0C9477BF0D94823EBB
:1002B0000C94B1730C94ECA60C94C77D0C94B054C0
:1002C0000D9407000C9454580C94CDBE0D940A4C18
:1002D0000C94F2CB0C94CBBD0D9403070C94B6BDDB
:1002E0000D9495000C942B6B0C9465250C94127A4C
:1002F0000C9445BF0C94EF320D94324C0C9487BF94
:100300000C9491B70D94C1090C9493620D94910EC5
:100310000C94897D0C94F8BD0C94C6650C94EDBBCF
:100320000D94504C0C941F240D94160C0D94810DBB
:100330000C943C860D94FF0E0C9470BF0D94C54B2D
:100340000C946B7B0C94B5E80C9479190C94ABEA83
:100350000C947ABE0C943FBB0D948C3E0C94D32528
:100360000C94F2920D94A41D0C9468540D94260ADA
:100370000C9464BF0C94206D0C94D4BD0C94D1BD2E
:100380000C9491C40C946EBE0C945A950C94DBD0D2
:100390000C94F2140C94F59A0C9480BE0C94D365D2
:1003A0000C9405EA0D943B480C948FA90C94A4BEC0
:1003B0000C9402660C9488230C94CAC50C94ECBD72
:1003C0000D94C33E0C9410BE0C941D7A0C94A9237A
:1003D0000C94E16C0C94EFBD0C9442BF0C9409702A
:1003E0000C94D7160C944F110D9402100C943725D1
:1003F0000C94817B0C9480230C94A2540C94C9CA55
:100400000C949EBE0C946D250C94B7230C949DBB4C
:100410000C9495BE0C94D46F0D94054C0D948A3EAB
:100420000C94D4BE0C94C67D0C94A0720C9449C755
:100430000C9499800D941A4C0C9482FC0C94DF79E6
:100440000D9443790C94E9BD0C94CE110C9459BED3
:100450000C940ABA0D94F63E0C947CC20C9420586D
:100460000C94C77F0C9445660C94A6BD0C944E70FA
:100470000D9462470C94DDC90C9446550D94BE73DF
:100480000C94D8C40C94B3250D94B9070C9471BE88
:100490000C94BC580C9499410D944B770C94A3BDCB
:1004A0000C9462180D948C1D0C94BF6B0C94352425
:1004B0000C9435660C9454110C94DC940C9453BE3B
:1004C0000D94B5050C94FEC20C9456250C941A3369
:1004D0000C945E250D94444C0C94053A0C9450BE3B
:1004E0000C94A5B90D9479780D949A1D0D94941DD2
:1004F0000D949A100D94E0730D948E1D0C94FE9C37
:100500000C94927E0C9416580C9404BE0C9447C123
:100510000C9409430D94883E0C94B3BD0C947E88D2
:100520000C94F4FB0C942C410C94E5230C94425451
:100530000D942C490C94C6110C9443C30C947DBEAD
:100540000C940C9F0C943E620C94C2BD0C9420BF82
:100550000C9441AD0C94E8700C949E8B0D94533B1D
:100560000D942C4C0C94C8BD0D94144C0C94956BAC
:100570000D94023F0C946D230C9468960D949D4A43
:100580000C948F230D9460650D94E9040D94A21DC5
:100590000C94C8970C9480BA0D949E1D0D94BA3B90
:1005A0000D94423B0C9465BE0C94BBC80C947863CC
:1005B0000D94814A0C9462BE0C94B9BD0D94D07315
:1005C0000D94E23E0C94CF7A0C9464B80C94F392A0
:1005D0000C94FEBD0C9487E40C94B1F60C94A59792
:1005E0000C9407840D94D8730C9419BE0C94F1E20A
:1005F0000C94767B0C94BD840C94A9650C94FF9CA0
:100600000C940ABE0C94719D0C94A7580D94603CF8
:100610000C94F9130D9435060C94E0DE0C94BC6B2D
:100620000C94C6C10C94E4BA0D9424490C946455FE
:100630000D9423090C9422420C946B1C0C945EBF05
:100640000C948C350D943E4C0C94E29D0C9451BF4F
:100650000C9444BE0C9482230C9433980C94C85789
:100660000D94861D0C946ABF0C949BBE0C94B464CC
:100670000C9494540C948FBE0C949A830C94CCB824
:100680000D944A4C0C941FBE0C94A9BD0C94C86BDD
:100690000D9423040C948DBF0C948C580C94E3BDE2
:1006A0000C94A3E30D94C7730C948F930C9422BE07
:1006B0000C94F5240D94D0110C94FBBD0C949F6602
:1006C0000C94C0720C94D4640C945C8D0D94961DA3
:1006D0000C94D7BD0C9456990C94E1700C947EBF89
:1006E0000C9477BE0D94264C0C944CD30C949DBD69
:1006F0000C948CBE0C9487FE0D9406110C94D48936
:100700000C94B6980C9400FF0C948FAD0C94E78B6E
:100710000D94273B0C94ED8E0C944B9C0D94843ED1
:100720000C949F8A0C944DC90D94921D0C942B58D7
:100730000C942AC00D94384C0C9476F60D94204CF1
:100740000C9447BE0C94CF540D949C3C0C94515483
:100750000C94D6D10C9436580C94E6BE0D94A33E5E
:100760000C9478F80C944ABE0C9486BE0C94BBBED4
:100770000D94A5040C94041A0D94D0100C94C1731C
:100780000C94ADBD0D94AA030C946DBF0C94C97963
:100790000C94296D0C94F3FA0C94BCE90C946BBE88
:1007A0000C94DE100C9485550C94B3810D948D0A35
:1007B0000C943D900C94317A0D94D4490C94E0C083
:1007C0000C94AF230C94AACF0C9438550C94327E21
:1007D0000C94DB6F0C94F5BD0C9438BE0D94CD6574
:1007E0000C9410E40C9409C50C94B0BE0D94543BC9
:1007F0000C94FE8A0C94ED700C9471580C94A49790
:100800000C9474BE0C94E3950C9437B90C9498BE78
:100810000D9443480C944DBE0C9481BF0C944A58DF
:100820000D94000D0C94B6C60C9466E40C94C0D2E2
:100830000C9492BE0D9490770C94E9880C94A0BD12
:100840000C94F5650C9464D20C94F9FD0C94E6BDFF
:100850000C9473BF0D940B650C944BBF0D941C034B
:100860000C945CBE0C9455700C94DABD0D94803ED3
:100870000C94EFF90D9464100C9474250C94A82535
:100880000C94C06A0C9400580C94C3E30D94D43EAD
:100890000C94153E0C9477AB0C94CEBD0C947DFA61
:1008A0000C9487700C9424120C94B5FD0C947D4329
:1008B0000C9456BE0D94EE3E0C94F4920C94BA82B5
:1008C0000C94BDFC0C9407BE0C94AABE0D94A01D04
:1008D0000C9479230D94064C0C940DBE0C943F257A
:1008E0000C94D9C70C9453640D94A3020C940A6D14
:1008F0000C94C4640C94A4420C94C8230C94B0FBD4
:100900000C94A7BE0D9454470C94C7970C940B9F5E
:100910000C9476540C94B3F80D94EF110C94FD964E
:100920000C945FBE0C94D4790C9438250D94EE652C
:100930000C941ABF0C94779A0C949ABD0C9497BDA2
:100940000C9461BF0D948A1D0C94BA3C0C9489BE22
:100950000C94E97E0D944B480D9476460C94C47A21
:100960000C9468630D949E790C94ECF60C9487A813
:100970000C943BBE0D94BC080C9427920C942ACA8C
:100980000C94E3570C94F7BE0C94A1250C9441BE33
:100990000C9425EA0D948D620D949C1D0C94EF77B8
:1009A0000C94A1BE0D94B03C0D94F0730A50616795
:1009B0006520686173206E6F74206265656E2069C2
:1009C0006D706C656D656E74656420796574000A80
:1009D000326E642049676E6974696F6E204D617074
:1009E000000A326E64204675656C204D6170000A05
:1009F00050616765203920436667000A5472696D4B
:100A00002031205461626C65000A565654204D61B5
:100A100070000A426F6F7374204D6170000A506756
:100A2000203620436F6E666967000A414652204DAA
:100A30006170000A5067203420436667000A4967E6
:100A40006E6974696F6E204D6170000A50672032C4
:100A500020436667000A5645204D6170004572725A
:100A60003A20556E6B6E6F776E20636D64000A3DA1
:100A70003D3D436F6D6D616E642048656C703D3D1A
:100A80003D0A0A416C6C20636F6D6D616E6473206A
:100A90006172652073696E676C652063686172615D
:100AA0006374657220616E642061726520636F6E8D
:100AB000636174656E61746564207769746820741D
:100AC0006865697220706172616D6574657273200A
:100AD0000A776974686F7574207370616365732E2B
:100AE00053796E7461783A20203C636F6D6D616E4E
:100AF000643E2B3C706172616D65746572313E2B92
:100B00003C706172616D65746572323E2B3C706140
:100B100072616D657465724E3E0A0A3D3D3D4C69D9
:100B20007374206F6620436F6D6D616E64733D3D1D
:100B30003D0A0A41202D20446973706C617973204D
:100B40003331206279746573206F66206375727229
:100B5000656E745374617475732076616C7565731A
:100B600020696E2062696E61727920286C697665F1
:100B70002064617461290A42202D204275726E2022
:100B800063757272656E74206D617020616E642091
:100B9000636F6E666967506167652076616C756525
:100BA0007320746F20656570726F6D0A43202D206D
:100BB0005465737420434F4D20706F72742E202043
:100BC000557365642062792054756E65727374750F
:100BD00064696F20746F2073656520776865746839
:100BE000657220616E20454355206973206F6E2029
:100BF0006120676976656E2073657269616C200A91
:100C000020202020706F72742E2052657475726ED1
:100C10007320612062696E617279206E756D626504
:100C2000722E0A4E202D205072696E74206E6577E8
:100C3000206C696E652E0A50202D20536574206348
:100C4000757272656E7420706167652E202053790D
:100C50006E7461783A2020502B3C706167654E7548
:100C60006D6265723E0A52202D2053616D652061D0
:100C700073204120636F6D6D616E640A53202D20D7
:100C8000446973706C6179207369676E6174757201
:100C900065206E756D6265720A51202D2053616D5D
:100CA00065206173205320636F6D6D616E640A5619
:100CB000202D20446973706C6179206D6170206F04
:100CC0007220636F6E666967506167652076616C3C
:100CD00075657320696E2062696E6172790A5720AA
:100CE0002D20536574206F6E6520627974652069CC
:100CF0006E206D6170206F7220636F6E6669675041
:100D00006167652E20204578706563747320626981
:100D10006E61727920706172616D65746572732E97
:100D2000200A2020202053796E7461783A202057C1
:100D30002B3C6F66667365743E2B3C6E65776279FB
:100D400074653E0A74202D205365742063616C69BC
:100D500062726174696F6E2076616C7565732E20A6
:100D600020457870656374732062696E61727920C2
:100D7000706172616D65746572732E2020546162BA
:100D80006C6520696E646578206973206569746894
:100D9000657220302C200A20202020312C206F72F8
:100DA00020322E202053796E7461783A2020742BE3
:100DB0003C74626C655F6964783E2B3C6E65775667
:100DC000616C7565313E2B3C6E657756616C75655F
:100DD000323E2B3C6E657756616C75654E3E0A5A05
:100DE000202D20446973706C61792063616C6962A5
:100DF000726174696F6E2076616C7565730A542038
:100E00002D20446973706C617973203235362074FB
:100E10006F6F7468206C6F6720656E74726965739C
:100E200020696E2062696E6172790A72202D2044F9
:100E30006973706C6179732032353620746F6F740A
:100E400068206C6F6720656E74726965730A55203F
:100E50002D205072657061726520666F7220666920
:100E6000726D77617265207570646174652E2054AF
:100E70006865206E65787420627974652072656398
:100E800065697665642077696C6C2063617573654C
:100E9000207468652041726475696E6F20746F20DC
:100EA00072657365742E0A3F202D20446973706C3F
:100EB00061797320746869732068656C7020706153
:100EC0006765002C2000575545004F3200496E6C75
:100ED00065742074656D7000436F6F6C616E740093
:100EE000526573657420636F6E74726F6C206973E2
:100EF0002063757272656E746C79206469736162C7
:100F00006C65642E00436F6D6D732068616C746551
:100F1000642E204E65787420627974652077696C40
:100F20006C20726573657420746865204172647505
:100F3000696E6F2E00537065656475696E6F20323F
:100F40003032322E303200737065656475696E6FB1
:100F50002032303232303200303031002000200078
:100F6000200020002020202000526573657420633B
:100F70006F6E74726F6C2069732063757272656E28
:100F8000746C792064697361626C65642E00436FD0
:100F90006D6D732068616C7465642E204E65787485
:100FA00020627974652077696C6C20726573657452
:100FB000207468652041726475696E6F2E000000B0
:100FC000800020012001800020018000F0008001CD
:100FD000C000C0002001C00080002001040E1119D3
:100FE0001B20292B2D2F31333537393B3D3F4143D2
:100FF00045474B4D4F515557595D61666D7753705D
:1010000065656475696E6F00537065656475696EBA
:101010006F20323031392E30382D736572005370A5
:1010200065656475696E6F2063737830323031396D
:101030002E3800000020002300260029002C002F5D
:101040000032000001000003010601090100002137
:1010500000240027002A002D003000330001010089
:1010600000040107010A0100000000963007772CF8
:10107000610EEEBA51099919C46D078FF46A703583
:10108000A563E9A395649E3288DB0EA4B8DC791EC3
:10109000E9D5E088D9D2972B4CB609BD7CB17E0743
:1010A0002DB8E7911DBF906410B71DF220B06A48BB
:1010B00071B9F3DE41BE847DD4DA1AEBE4DD6D5103
:1010C000B5D4F4C785D38356986C13C0A86B647AE3
:1010D000F962FDECC9658A4F5C0114D96C06636343
:1010E0003D0FFAF50D088DC8206E3B5E10694CE48B
:1010F0004160D5727167A2D1E4033C47D4044BFD33
:10110000850DD26BB50AA5FAA8B5356C98B242D652
:10111000C9BBDB40F9BCACE36CD832755CDF45CFB2
:101120000DD6DC593DD1ABAC30D9263A00DE51802A
:1011300051D7C81661D0BFB5F4B42123C4B35699B2
:1011400095BACF0FA5BDB89EB802280888055FB232
:10115000D90CC624E90BB1877C6F2F114C6858ABB2
:101160001D61C13D2D66B69041DC760671DB01BC88
:1011700020D2982A10D5EF8985B1711FB5B606A582
:10118000E4BF9F33D4B8E8A2C9077834F9000F8EC2
:10119000A8099618980EE1BB0D6A7F2D3D6D089742
:1011A0006C6491015C63E6F4516B6B62616C1CD8FA
:1011B0003065854E0062F2ED95066C7BA5011BC182
:1011C000F4088257C40FF5C6D9B06550E9B712EAE2
:1011D000B8BE8B7C88B9FCDF1DDD62492DDA15F3C2
:1011E0007CD38C654CD4FB5861B24DCE51B53A746A
:1011F00000BCA3E230BBD441A5DF4AD795D83D6DF2
:10120000C4D1A4FBF4D6D36AE96943FCD96E344651
:101210008867ADD0B860DA732D0444E51D03335FF1
:101220004C0AAAC97C0DDD3C710550AA4102271069
:10123000100BBE86200CC925B56857B3856F2009F1
:10124000D466B99FE461CE0EF9DE5E98C9D9292231
:1012500098D0B0B4A8D7C7173DB359810DB42E3B71
:101260005CBDB7AD6CBAC02083B8EDB6B3BF9A0C05
:10127000E2B6039AD2B1743947D5EAAF77D29D1559
:1012800026DB048316DC73120B63E3843B64943E19
:101290006A6D0DA85A6A7A0BCF0EE49DFF09932759
:1012A000AE000AB19E077D44930FF0D2A308876871
:1012B000F2011EFEC206695D5762F7CB6765807159
:1012C000366C19E7066B6E761BD4FEE02BD3895A79
:1012D0007ADA10CC4ADD676FDFB9F9F9EFBE8E43D9
:1012E000BEB717D58EB060E8A3D6D67E93D1A1C481
:1012F000C2D83852F2DF4FF167BBD16757BCA6DDC9
:1013000006B53F4B36B248DA2B0DD84C1B0AAFF668
:101310004A0336607A0441C3EF60DF55DF67A8EF08
:101320008E6E3179BE69468CB361CB1A8366BCA0E0
:10133000D26F2536E2685295770CCC03470BBBB9C8
:101340001602222F260555BE3BBAC5280BBDB29208
:101350005AB42B046AB35CA7FFD7C231CFD0B58B88
:101360009ED92C1DAEDE5BB0C2649B26F263EC9C62
:10137000A36A750A936D02A906099C3F360EEB8598
:1013800067077213570005824ABF95147AB8E2AE18
:101390002BB17B381BB60C9B8ED2920DBED5E5B718
:1013A000EFDC7C21DFDB0BD4D2D38642E2D4F1F830
:1013B000B3DD686E83DA1FCD16BE815B26B9F6E118
:1013C00077B06F7747B718E65A0888706A0FFFCA78
:1013D0003B06665C0B0111FF9E658F69AE62F8D318
:1013E000FF6B6145CF6C1678E20AA0EED20DD754A0
:1013F00083044EC2B30339612667A7F71660D04D48
:10140000476949DB776E3E4A6AD1AEDC5AD6D96667
:101410000BDF40F03BD83753AEBCA9C59EBBDE7F87
:10142000CFB247E9FFB5301CF2BDBD8AC2BACA309F
:1014300093B353A6A3B4240536D0BA9306D7CD29C7
:1014400057DE54BF67D9232E7A66B3B84A61C40207
:101450001B685D942B6F2A37BE0BB4A18E0CC31B87
:10146000DF055A8DEF022D0000000041311B19826B
:10147000623632C3532D2B04C56C6445F4777D86E8
:10148000A75A56C796414F088AD9C849BBC2D18AC4
:10149000E8EFFACBD9F4E30C4FB5AC4D7EAEB58E88
:1014A0002D839ECF1C98875112C24A1023D953D343
:1014B00070F4789241EF6155D7AE2E14E6B537D768
:1014C000B5981C9684830559981B8218A9009BDB4C
:1014D000FA2DB09ACB36A95D5D77E61C6C6CFFDF08
:1014E0003F41D49E0E5ACDA2248495E3159F8C20B3
:1014F00046B2A76177A9BEA6E1E8F1E7D0F3E824F8
:1015000083DEC365B2C5DAAAAE5D5DEB9F464428B3
:10151000CC6B6F69FD7076AE6B3139EF5A2A202C97
:1015200009070B6D381C12F33646DFB2075DC67132
:101530005470ED30656BF4F7F32ABBB6C231A27577
:10154000911C8934A00790FBBC9F17BA8D840E793B
:10155000DEA92538EFB23CFF79F373BE48E86A7D17
:101560001BC5413C2ADE58054F79F0447E62E9876D
:101570002D4FC2C61C54DB018A159440BB0E8D83CF
:10158000E823A6C2D938BF0DC5A0384CF4BB218FC3
:10159000A7960ACE968D130900CC5C4831D7458BAF
:1015A00062FA6ECA53E177545DBBBA156CA0A3D63C
:1015B0003F8D88970E96915098D7DE11A9CCC7D24F
:1015C000FAE1EC93CBFAF55CD762721DE6796BDE3B
:1015D000B554409F844F5958120E161923150FDA2F
:1015E0007038249B41233DA76BFD65E65AE67C25B8
:1015F00009CB576438D04EA3AE9101E29F8A1821DF
:10160000CCA73360FDBC2AAFE124ADEED03FB42DB2
:1016100083129F6CB20986AB2448C9EA1553D029BE
:10162000467EFB687765E2F6793F2FB7482436742B
:101630001B091D352A1204F2BC534BB38D4852705E
:10164000DE657931EF7E60FEF3E6E7BFC2FDFE7C2A
:1016500091D0D53DA0CBCCFA368A83BB07919A783E
:1016600054BCB13965A7A84B98833B0AA99822C9F5
:10167000FAB50988CBAE104F5DEF5F0E6CF446CD26
:101680003FD96D8C0EC27443125AF3022341EAC152
:10169000706CC1804177D847D7369706E62D8EC546
:1016A000B500A584841BBC1A8A41715BBB5A68983B
:1016B000E87743D9D96C5A1E4F2D155F7E360C9CA6
:1016C0002D1B27DD1C003E120098B9533183A090DA
:1016D00062AE8BD153B59216C5F4DD57F4EFC494C6
:1016E000A7C2EFD596D9F6E9BC07AEA88D1CB76B9B
:1016F000DE319C2AEF2A85ED796BCAAC4870D36F36
:101700001B5DF82E2A46E1E136DE66A007C57F6341
:1017100054E8542265F34DE5F3B202A4C2A91B6755
:1017200091843026A09F29B8AEC5E4F99FDEFD3A2A
:10173000CCF3D67BFDE8CFBC6BA980FD5AB2993EB5
:10174000099FB27F3884ABB0241C2CF115073532C9
:10175000462A1E73773107B4E17048F5D06B5136D5
:1017600083467A77B25D634ED7FACB0FE6E1D2CCEF
:10177000B5CCF98D84D7E04A1296AF0B238DB6C84D
:1017800070A09D8941BB84465D2303076C381AC451
:101790003F1531850E0E2842984F6703A9547EC02D
:1017A000FA795581CB624C1FC538815EF423989D30
:1017B000A70EB3DC9615AA1B0054E55A314FFC99CD
:1017C0006262D7D85379CE174FE149567EFA5095C9
:1017D0002DD77BD41CCC62138A8D2D52BB963491AD
:1017E000E8BB1FD0D9A006ECF37E5EADC265476EA4
:1017F00091486C2FA05375E836123AA90709236A5D
:101800005424082B653F11E479A796A548BC8F6640
:101810001B91A4272A8ABDE0BCCBF2A18DD0EB623C
:10182000DEFDC023EFE6D9BDE1BC14FCD0A70D3F1F
:10183000838A267EB2913FB924D070F815CB693BDC
:1018400046E6427A77FD5BB56B65DCF45A7EC537B8
:101850000953EE763848F7B1AE09B8F09F12A133BC
:10186000CC3F8A72FD249300000000376AC2016EEB
:10187000D4840359BE4602DCA80907EBC2CB06B2EA
:101880007C8D0485164F05B851130E8F3BD10FD6B2
:1018900085970DE1EF550C64F91A095393D8080A9E
:1018A0002D9E0A3D475C0B70A3261C47C9E41D1EF4
:1018B00077A21F291D601EAC0B2F1B9B61ED1AC266
:1018C000DFAB18F5B56919C8F23512FF98F713A602
:1018D00026B111914C7310145A3C152330FE147A22
:1018E0008EB8164DE47A17E0464D38D72C8F398ED6
:1018F00092C93BB9F80B3A3CEE443F0B84863E520A
:101900003AC03C6550023D58175E366F7D9C3736B5
:10191000C3DA3501A9183484BF5731B3D59530EAFD
:101920006BD332DD01113390E56B24A78FA925FE1F
:1019300031EF27C95B2D264C4D62237B27A0222245
:1019400099E62015F3242128B4782A1FDEBA2B4605
:1019500060FC29710A3E28F41C712DC376B32C9AC1
:10196000C8F52EADA2372FC08D9A70F7E75871AE2B
:10197000591E739933DC721C2593772B4F51767265
:10198000F11774459BD57578DC897E4FB64B7F1671
:10199000080D7D2162CF7CA4748079931E4278CAA1
:1019A000A0047AFDCAC67BB02EBC6C87447E6DDE77
:1019B000FA386FE990FA6E6C86B56B5BEC776A0269
:1019C0005231683538F369087FAF623F156D636641
:1019D000AB2B6151C1E960D4D7A665E3BD6464BA9D
:1019E0000322668D69E06720CBD74817A115494EC1
:1019F0001F534B7975914AFC63DE4FCB091C4E9205
:101A0000B75A4CA5DD984D989AC446AFF00647F6F4
:101A10004E4045C12482444432CD4173580F402A80
:101A2000E649421D8C8B435068F154670233553EA2
:101A3000BC755709D6B7568CC0F853BBAA3A52E2C8
:101A4000147C50D57EBE51E839E25ADF53205B86C4
:101A5000ED6659B187A4583491EB5D03FB295C5ABC
:101A6000456F5E6D2FAD5F801B35E1B771F7E0EE1E
:101A7000CFB1E2D9A573E35CB33CE66BD9FEE732A4
:101A800067B8E5050D7AE4384A26EF0F20E4EE56F4
:101A90009EA2EC61F460EDE4E22FE8D388EDE98AE0
:101AA00036ABEBBD5C69EAF0B813FDC7D2D1FC9E42
:101AB0006C97FEA90655FF2C101AFA1B7AD8FB4228
:101AC000C49EF975AE5CF848E900F37F83C2F22644
:101AD0003D84F0115746F1944109F4A32BCBF5FA5C
:101AE000958DF7CDFF4FF6605D78D95737BAD80E90
:101AF00089FCDA39E33EDBBCF571DE8B9FB3DFD2C4
:101B000021F5DDE54B37DCD80C6BD7EF66A9D6B6EF
:101B1000D8EFD481B22DD504A462D033CEA0D16A3F
:101B200070E6D35D1A24D210FE5EC527949CC47E55
:101B30002ADAC6494018C7CC5657C2FB3C95C3A207
:101B400082D3C195E811C0A8AF4DCB9FC58FCAC63F
:101B50007BC9C8F1110BC9740744CC436D86CD1AFB
:101B6000D3C0CF2DB902CE4096AF9177FC6D902EA9
:101B7000422B921928E9939C3EA696AB546497F2A7
:101B8000EA2295C580E094F8C7BC9FCFAD7E9E96B3
:101B900013389CA179FA9D246FB598130577994A5B
:101BA000BB319B7DD1F39A3035898D075F4B8C5EBD
:101BB000E10D8E698BCF8FEC9D808ADBF7428B82A3
:101BC000490489B523C68888649A83BF0E5882E683
:101BD000B01E80D1DADC8154CC938463A651853A5F
:101BE0001817870D72D586A0D0E2A997BA20A8CE83
:101BF0000466AAF96EA4AB7C78EBAE4B1229AF1247
:101C0000AC6FAD25C6ADAC1881F1A72FEB33A6762E
:101C10005575A4413FB7A5C429F8A0F3433AA1AA3A
:101C2000FD7CA39D97BEA2D073C4B5E71906B4BED0
:101C3000A740B689CD82B70CDBCDB23BB10FB36202
:101C40000F49B155658BB06822D7BB5F4815BA06FE
:101C5000F653B8319C91B9B48ADEBC83E01CBDDA7E
:101C60005E5ABFED3498BE000000006567BCB88BBB
:101C7000C809AAEEAFB5125797628F32F0DE37DC93
:101C80005F6B25B938D79DEF28B4C58A4F087D64AE
:101C9000E0BD6F018701D7B8BFD64ADDD86AF233FD
:101CA00077DFE0561063589F571950FA30A5E814B3
:101CB0009F10FA71F8AC42C8C07BDFADA7C767437D
:101CC000087275266FCECD707FAD951518112DFB5E
:101CD000B7A43F9ED0188727E8CF1A428F73A2ACD3
:101CE00020C6B0C9477A083EAF32A05BC88E18B58F
:101CF000673B0AD00087B26938502F0C5FEC97E23F
:101D0000F059858797E53DD1878665B4E03ADD5A7D
:101D10004F8FCF3F2833778610E4EAE37758520D90
:101D2000D8ED4068BF51F8A1F82BF0C49F97482A1E
:101D300030225A4F579EE2F66F497F9308F5C77DD0
:101D4000A740D518C0FC6D4ED09F352BB7238DC54D
:101D500018969FA07F2A271947FDBA7C204102923E
:101D60008FF410F7E848A83D58149B583FA823B6B5
:101D7000901D31D3F7A1896ACF76140FA8CAACE1C0
:101D8000077FBE8460C306D270A05EB7171CE659F9
:101D9000B8A9F43CDF154C85E7C2D1E0807E690E1E
:101DA0002FCB7B6B4877C3A20F0DCBC768B17329CC
:101DB000C704614CA0B8D9F5986F4490FFD3FC7E5E
:101DC0005066EE1B37DA564D27B90E284005B6C6C9
:101DD000EFB0A4A3880C1C1AB0DB817FD7673991C0
:101DE00078D22BF41F6E9303F7263B66909A838874
:101DF0003F2F91ED589329546044B43107F80CDF1C
:101E0000A84D1EBACFF1A6ECDF92FE89B82E466728
:101E1000179B54027027ECBB48F071DE2F4CC93081
:101E200080F9DB55E745639CA03F6BF9C783D31767
:101E30006836C1720F8A79CB375DE4AE50E15C4001
:101E4000FF544E2598E8F673888BAE16EF3716F8D8
:101E50004082049D273EBC241FE92141785599AF5B
:101E6000D7E08BCAB05C333BB659ED5ED1E555B0D7
:101E70007E5047D519ECFF6C213B62094687DAE7B3
:101E8000E932C8828E8E70D49EED28B1F951905FF0
:101E900056E4823A31583A83098FA7E66E331F0819
:101EA000C1860D6DA63AB5A4E140BDC186FC052FE3
:101EB0002949174A4EF5AFF376223296119E8A7859
:101EC000BE2B981DD997204BC9F4782EAE48C0C0C0
:101ED00001FDD2A566416A1C5E96F779392A4F97B3
:101EE000969F5DF2F123E505196B4D607ED7F58E67
:101EF000D162E7EBB6DE5F528E09C237E9B57AD917
:101F0000460068BC21BCD0EA31DF888F566330615F
:101F1000F9D622049E6A9ABDA6BD07D8C101BF3674
:101F20006EB4AD530908159A4E721DFF29CEA51146
:101F3000867BB774E1C70FCDD91092A8BEAC2A46F4
:101F40001119382376A5807566C6D810017A60FE0F
:101F5000AECF729BC973CA22F1A457479618EFA956
:101F600039ADFDCC5E114506EE4D766389F1CE8D1F
:101F70002644DCE841F86451792FF9341E9341DAA4
:101F8000B12653BFD69AEBE9C6F9B38CA1450B62D3
:101F90000EF01907694CA1BE519B3CDB36278435F6
:101FA00099929650FE2E2E99B95426FCDEE89E1288
:101FB000715D8C7716E134CE2E36A9AB498A114576
:101FC000E63F03208183BB7691E0E313F65C5BFD83
:101FD00059E949983E55F12106826C44613ED4AAE4
:101FE000CE8BC6CFA9377E38417FD65D26C36EB370
:101FF00089767CD6EECAC46FD61D590AB1A1E1E438
:102000001E14F38179A84BD769CB13B20E77AB5C62
:10201000A1C2B939C67E0180FEA99CE59915240BA1
:1020200036A0366E511C8EA7166686C271DA3E2C1B
:10203000DE6F2C49B9D394F081040995E6B8B17BE1
:10204000490DA31E2EB11B483ED2432D596EFBC332
:10205000F6DBE9A69167511FA9B0CC7ACE0C749437
:1020600061B966F10605DE00002200250028002B7C
:10207000002E003100340002010000050108010BB0
:102080000105050505070508080808020202020AFD
:102090000A0808040404040101010101010101030B
:1020A00003030303030303040707070C0C0C0C0CC6
:1020B0000C0C0C0202020206060606060606060BB9
:1020C0000B0B0B0B0B0B0B01021020200808102030
:1020D00040102040800201020108040201010204B4
:1020E0000810204080804020100804020180040273
:1020F00001804020100804020108040201010204CA
:102100000810204080010204081020408000000ACE
:102110000B02090C0D0E080703040100000000006B
:1021200000000000000000000000000000000000AF
:10213000000000000000000000121110000000006C
:10214000000000000000000000000000000000008F
:1021500000000000D40011241FBECFEFD1E2DEBF8B
:10216000CDBF00E00CBF12E0A0E0B2E0ECE3FDE286
:1021700003E00BBF02C007900D92A239B107D9F757
:102180002FE1A2E9B2E001C01D92A032B207E1F74F
:1021900010E1CBEAD0E100E006C021970109802FD1
:1021A000FE010F941996CA3AD10780E00807A9F7F3
:1021B0000F941C5C0D949C960C9400008091A11DC2
:1021C000882309F469C02091A21D3091A31D40917C
:1021D0003B1E50913C1E2417350708F450C08091D7
:1021E000E9049091EA04A091EB04B091EC04892BEE
:1021F0008A2B8B2B09F450C02091E5043091E60422
:102200004091E7045091E804232B242B252B09F45B
:1022100043C0F8948091E9049091EA04A091EB0402
:10222000B091EC044091E5045091E6046091E7041C
:102230007091E804841B950BA60BB70B80937A0A68
:1022400090937B0AA0937C0AB0937D0A78942091A6
:102250007A0A30917B0A40917C0A50917D0A60E0B5
:1022600077E883E993E00F949395C901803526E4DC
:102270009207A0F08091A21D9091A31D08956091F6
:102280000F1E7091101E8091111E9091121E672BCF
:10229000682B692B09F0A3CF90E080E0089510929D
:1022A000690910926809089508958091A11D8823F5
:1022B00009F469C02091A21D3091A31D40913B1EDD
:1022C00050913C1E2417350708F450C08091E90452
:1022D0009091EA04A091EB04B091EC04892B8A2B35
:1022E0008B2B09F450C02091E5043091E604409115
:1022F000E7045091E804232B242B252B09F443C039
:10230000F8948091E9049091EA04A091EB04B091D3
:10231000EC044091E5045091E6046091E70470916B
:10232000E804841B950BA60BB70B80937A0A909355
:102330007B0AA0937C0AB0937D0A789420917A0A54
:1023400030917B0A40917C0A50917D0A60E077E8E9
:1023500083E993E00F949395C901803526E49207B1
:10236000A0F08091A21D9091A31D089560910F1E71
:102370007091101E8091111E9091121E672B682B78
:10238000692B09F0A3CF90E080E0089510926909CD
:102390001092680981E080935B0308958091E40BBB
:1023A000807F8034F1F08036D9F42091341C2C7178
:1023B0002C3089F146E050E050937603409375034A
:1023C00062E070E07093740360937303A4E0B0E084
:1023D000B0937203A09371037093700360936F03C3
:1023E00008953091341C3C713C30A9F0E4E0F0E0F9
:1023F000F0937603E093750382E090E0909374038A
:1024000080937303F0937203E093710390937003CE
:1024100080936F03089528E030E030937603209393
:10242000750342E050E0509374034093730364E0FB
:1024300070E07093720360937103A6E0B0E0B09314
:102440007003A0936F0308958091680990916909C2
:102450000D9709F4A7C00F94AC5B60936103709370
:10246000620380936303909364038091610390916E
:102470006203A0916303B09164034091750A509187
:10248000760A6091770A7091780A841B950BA60BE7
:10249000B70B80935D0390935E03A0935F03B093AB
:1024A000600320915D0330915E0340915F03509182
:1024B00060036091F1047091F2048091F3049091B3
:1024C000F404261737074807590708F46AC0A09193
:1024D0006809B0916909AB2B09F467C0E0916809FC
:1024E000F09169093196F0936909E0936809A09128
:1024F0006809B0916909E0916809F0916909AA0F2A
:10250000BB1FA155BB4FEE0FFF1FE355FB4F8D9136
:102510009C9140815181841B950B9093700A80930C
:102520006F0A40915D0350915E0360915F0370916B
:1025300060039091341C907649F0903209F485C084
:10254000903409F493C0903609F473C01092F104EA
:102550001092F2041092F3041092F40451E050939C
:102560005C032091750A3091760A4091770A509168
:10257000780A2093710A3093720A4093730A509339
:10258000740A60916103709162038091630390917A
:1025900064036093750A7093760A8093770A909328
:1025A000780A08951092A11D089521E030E030933B
:1025B0006909209368096091E9047091EA048091A7
:1025C000EB049091EC046093E5047093E60480932F
:1025D000E7049093E8048091610390916203A091D5
:1025E0006303B09164038093E9049093EA04A09399
:1025F000EB04B093EC0431E03093A11D40910F1E29
:102600005091101E6091111E7091121E4F5F5F4F0E
:102610006F4F7F4F40930F1E5093101E6093111EFB
:102620007093121EACE3B0E0B093700AA0936F0AEF
:1026300078CFDB01CA01880F991FAA1FBB1F840F27
:10264000951FA61FB71FAC01BD01769567955795DD
:10265000479576956795579547954093F104509324
:10266000F2046093F3047093F40478CF7695679541
:10267000579547954093F1045093F2046093F30407
:102680007093F4046BCF8091680990916909499720
:1026900009F4ACC00F94AC5B609361037093620368
:1026A000809363039093640380916103909162032C
:1026B000A0916303B09164034091750A5091760A2A
:1026C0006091770A7091780A841B950BA60BB70B63
:1026D00080935D0390935E03A0935F03B0936003C8
:1026E000A0916809B0916909AB2BB9F1E091680933
:1026F000F09169093196F0936909E0936809A09116
:102700006809B0916909E0916809F0916909AA0F17
:10271000BB1FA155BB4FEE0FFF1FE355FB4F6D9144
:102720007C9120813181621B730B7093700A6093DE
:102730006F0A51E050935C038091610390916203B2
:10274000A0916303B09164038093750A9093760A15
:10275000A093770AB093780A089581E090E090936F
:102760006909809368094091E9045091EA046091F5
:10277000EB047091EC044093E5045093E6046093FD
:10278000E7047093E80460916103709162038091A3
:102790006303909164036093E9047093EA04809367
:1027A000EB049093EC0430915B0391E03927309374
:1027B0005B039093A11D20910F1E3091101E40913C
:1027C000111E5091121E2F5F3F4F4F4F5F4F2093AE
:1027D0000F1E3093101E4093111E5093121EAFE037
:1027E000B0E0B093700AA0936F0AA3CF1092A11D1E
:1027F00008958091A11D0F94AC5B60936903709361
:102800006A0380936B0390936C03809169039091AA
:102810006A03A0916B03B0916C034091170A509129
:10282000180A6091190A70911A0A841B950BA60B5D
:10283000B70B8093650390936603A0936703B093EF
:1028400068032091650330916603409167035091BE
:1028500068036091ED047091EE048091EF04909113
:10286000F004261737074807590708F471C080910C
:10287000690390916A03A0916B03B0916C038093FC
:10288000170A9093180AA093190AB0931A0A51E0F4
:1028900050935C03609165037091660380916703B8
:1028A0009091680396958795779567956093ED0469
:1028B0007093EE048093EF049093F0043091A11D87
:1028C000311132C08CED95E0A0E0B0E08093F104CE
:1028D0009093F204A093F304B093F4046091ED0498
:1028E0007091EE048091EF049091F0049695879595
:1028F000779567956093ED047093EE048093EF04F1
:102900009093F004E091AB04F091AC04908170914D
:10291000AA04A091E40BA07F972301F1A03409F44D
:1029200053C0A03609F448C04091A21D5091A31D88
:10293000E0913B1EF0913C1E4E175F0750F4F09162
:10294000A11DFF2329F05091E40B507F503491F0EA
:102950000895B0912E1CB7FDF2CF0895A03421F751
:10296000209168093091690925303105E9F65093C5
:10297000A11DDACF0F94AC5B809143039091440387
:10298000A0914503B0914603E091AB04F091AC04F3
:1029900030819091AA043923D9F2A0916809B091AD
:1029A0006909A830B105C9F01092A11D70914C1EA3
:1029B0007F5F70934C1E089580916809909169091A
:1029C000079709F0B1CFD3CF609168097091690979
:1029D0006830710509F0A8CFCACFB0936909A093F8
:1029E000680908958091D31D82319CF026E030E083
:1029F000309376032093750341E050E050937403C5
:102A00004093730364E070E070937203609371030A
:102A10000895A7E0B0E0B0937603A0937503E2E0D9
:102A2000F0E0F0937403E093730385E090E09093FB
:102A300072038093710308958091A11D882309F486
:102A400069C02091A21D3091A31D40913B1E509161
:102A50003C1E2417350708F450C08091E90490917A
:102A6000EA04A091EB04B091EC04892B8A2B8B2B08
:102A700009F450C02091E5043091E6044091E70448
:102A80005091E804232B242B252B09F443C0F89400
:102A90008091E9049091EA04A091EB04B091EC04D8
:102AA0004091E5045091E6046091E7047091E804D8
:102AB000841B950BA60BB70B80937A0A90937B0A25
:102AC000A0937C0AB0937D0A789420917A0A309181
:102AD0007B0A40917C0A50917D0A60E077E883E9A7
:102AE00093E00F949395C901803526E49207A0F0F6
:102AF0008091A21D9091A31D089560910F1E709169
:102B0000101E8091111E9091121E672B682B692B4D
:102B100009F0A3CF90E080E008958091AD099091F5
:102B2000AE092091281C3091291C821B930B4091E7
:102B3000190250911A02841795079CF0841B950B7B
:102B40000197843B9105A8F461E070E070937603EF
:102B500060937503A2E0B0E0B0937403A093730395
:102B6000089597FFEDCF840F951F0197843B910542
:102B700058F3E2E0F0E0F0937603E093750381E030
:102B800090E090937403809373030895CF92DF9243
:102B9000EF92FF922091A21D3091A31D80913B1EC8
:102BA00090913C1E2817390708F06CC0E091AF04E3
:102BB000F091B004C0900F1ED090101EE090111E36
:102BC000F090121E8091331C90E0B0E0A0E0C81697
:102BD000D906EA06FB0608F459C0D090A11DDD20F5
:102BE00009F454C04091750A5091760A6091770AB1
:102BF0007091780A452B462B472B09F447C060910A
:102C0000710A7091720A8091730A9091740A672B0D
:102C1000682B692BD9F12091750A3091760A409181
:102C2000770A5091780A8091710A9091720AA09166
:102C3000730AB091740A82179307A407B50730F599
:102C4000F8942091750A3091760A4091770A509154
:102C5000780AC090710AD090720AE090730AF090DE
:102C6000740A2C193D094E095F09AE2FB0E00F948C
:102C7000DB9560937A0A70937B0A80937C0A909329
:102C80007D0A6DC0C090A11DC11033C0C0907A0AEA
:102C9000D0907B0AE0907C0AF0907D0A90E080E082
:102CA000CC0CDD1CEE1CFF1CC0921E02D0921F0239
:102CB000E0922002F09221022091AF043091B00402
:102CC0002BE4C21628E9D20625E0E206F10460F4FE
:102CD0004BE458E965E070E040931E0250931F02F8
:102CE0006093200270932102FF90EF90DF90CF90CD
:102CF00008954091E9045091EA046091EB047091C9
:102D0000EC04452B462B472B09F26091E5047091AA
:102D1000E6048091E7049091E804672B682B692B07
:102D200009F4B4CFF8948091E9049091EA04A09159
:102D3000EB04B091EC042091E5043091E60440915D
:102D4000E7045091E804821B930BA40BB50B80930E
:102D50007A0A90937B0AA0937C0AB0937D0A7894B8
:102D6000C0907A0AD0907B0AE0907C0AF0907D0AAD
:102D7000F694E794D794C794C0927A0AD0927B0ACB
:102D8000E0927C0AF0927D0A60E077E883E993E0C4
:102D9000A70196010F949395C901803526E4920707
:102DA00008F47ECF8091A21D9091A31D79CF209130
:102DB000371C30E08091341C8C718C3009F479C060
:102DC000E091281CF091291C60916F0A7091700AA3
:102DD0008091AD099091AE098E1B9F0B0F944C957D
:102DE000261737070CF047C0621B730B70937603EE
:102DF0006093750360916F0A7091700A80918509E4
:102E0000909186098E1B9F0B0F944C9526173707C0
:102E10000CF048C0621B730B7093740360937303D0
:102E200060916F0A7091700A809183099091840972
:102E30008E1B9F0B0F944C95261737076CF5621B62
:102E4000730B709372036093710360916F0A7091BA
:102E5000700A80917F09909180098E1B9F0B0F94BF
:102E60004C952617370774F4621B730B709370032D
:102E700060936F030895161617060CF4B7CF620F10
:102E8000731FB4CF161617068CF3620F731F70935F
:102E9000700360936F0308951616170694F2620F7D
:102EA000731FCFCF161617060CF4B6CF620F731F21
:102EB000B3CF40912D1C41FD83CF220F331F80CF14
:102EC000CF92DF92EF92FF92CF93DF930F94AC5BA0
:102ED0006093690370936A0380936B0390936C0310
:102EE0008091690390916A03A0916B03B0916C0388
:102EF0004091170A5091180A6091190A70911A0AA4
:102F0000841B950BA60BB70B809365039093660308
:102F1000A0936703B0936803C0906503D0906603E5
:102F2000E0906703F09068032091ED043091EE0487
:102F30004091EF045091F004C216D306E406F50662
:102F400008F465C08091690390916A03A0916B03B6
:102F5000B0916C038093170A9093180AA093190AF2
:102F6000B0931A0A4091650350916603609167031C
:102F7000709168037695679557954795769567950F
:102F8000579547954093ED045093EE046093EF04FA
:102F90007093F004D090A11DDD2009F453C0C090BF
:102FA0000F1ED090101EE090111EF090121E809106
:102FB000331C90E0B0E0A0E08C159D05AE05BF0588
:102FC00008F040C08091371C90E0E0906809F090D4
:102FD00069098E159F0591F020910F1E3091101EEA
:102FE0004091111E5091121E2330310541055105AB
:102FF00028F030914C1E3F5F30934C1EF0902E1CF9
:10300000F7FE56C0909369098093680951C060919A
:103010007A0A70917B0A80917C0A90917D0A96953C
:103020008795779567956093ED047093EE04809390
:10303000EF049093F004DF91CF91FF90EF90DF9039
:10304000CF9008950F94AC5B6093750A7093760AE5
:103050008093770A9093780A0F94AC5B6B017C01A4
:10306000C091371C2C2F30E050E040E060E87DE854
:103070008BE590E00F946095C21AD30AE40AF50A32
:10308000C092710AD092720AE092730AF092740AA6
:10309000D0E0D0936909C09368091092F1041092AE
:1030A000F2041092F3041092F40451E05093A11D25
:1030B00071E070935B03DF91CF91FF90EF90DF9011
:1030C000CF9008950F931F93CF93DF93E091371C18
:1030D000F0E08091341C8C718C3009F401C1EF0157
:1030E00030E020E00091281C1091291C60916F0AAB
:1030F0007091700A8091AD099091AE09801B910B7F
:103100000F944C9561507109C617D7070CF0CDC0CC
:103110006C1B7D0B4091AF045091B00446175707CC
:1031200020F4E617F7070CF0D6C0A091AF04B091D9
:10313000B004A20FB31FA617B70730F46091AF0415
:103140007091B004620F731F7093760360937503E0
:1031500060916F0A7091700A80918509909186093B
:10316000801B910B0F944C9561507109C617D707BE
:103170000CF094C06C1B7D0B8091AF049091B00457
:103180008617970720F4E617F7070CF09FC04091C9
:10319000AF045091B004420F531F4617570730F445
:1031A0006091AF047091B004620F731F7093740349
:1031B0006093730360916F0A7091700A8091830924
:1031C00090918409801B910B0F944C95615071096B
:1031D000C617D7070CF05BC06C1B7D0BA091AF042A
:1031E000B091B004A617B70720F4E617F7070CF064
:1031F00068C08091AF049091B004820F931F86172E
:10320000970730F46091AF047091B004620F731FA0
:10321000709372036093710360916F0A7091700AEA
:1032200080917F0990918009801B910B0F944C95A0
:1032300061507109C617D70724F56C1B7D0BC0912F
:10324000AF04D091B004C617D70718F4E617F707F4
:103250009CF5E091AF04F091B004E20FF31FE61784
:10326000F70730F46091AF047091B004620F731FE0
:103270007093700360936F03DF91CF911F910F9153
:10328000089516161706DCF26C0F7D1FD8CF1616A0
:1032900017060CF4A3CF6C0F7D1FA0CF16161706D0
:1032A0000CF46ACF6C0F7D1F67CF161617060CF44F
:1032B00031CF6C0F7D1F2ECF6091AF047091B004A1
:1032C000C8CF6091AF047091B00493CF6091AF0408
:1032D0007091B0045CCF6091AF047091B00425CFC1
:1032E00000912D1C01FDFBCE9F01EF01CC0FDD1FD6
:1032F000F9CECF92DF92EF92FF92E091BB09F0916D
:10330000BC091995AC01893621E092070CF443C041
:103310009C0129563140A3E8BDE20F94EE950024AC
:10332000880F991F001C880F991F001C892F902D52
:103330008770992748565140493621E052075CF181
:10334000009719F181309105D1F082309105A9F0F3
:103350008330910581F08430910559F085309105D5
:1033600031F0069711F048565140485651404856A2
:103370005140485651404856514048565140485691
:103380005140493621E0520734F040545B40493601
:1033900081E05807D4F78091281C9091291C481B84
:1033A000590B2091A11E2370223031F4C090A11C32
:1033B000D090A21C4C195D09E091A41C9A01220F27
:1033C000331FF0E0A0E0B1E0AE1BBF0B0F942196DD
:1033D0006B017C01A091651EB091661E9F010F9448
:1033E0002996C60ED71EE81EF91ECD2CDE2CEF2C1A
:1033F000FF24E7FCFA94D092661EC092651EFF90EF
:10340000EF90DF90CF900895CF92DF92EF92FF92EE
:103410000F94AC5B6093690370936A0380936B03B2
:1034200090936C038091690390916A03A0916B0360
:10343000B0916C034091170A5091180A6091190AD3
:1034400070911A0A841B950BA60BB70B809365032A
:1034500090936603A0936703B0936803C090170A24
:10346000D090180AE090190AF0901A0ACD28CE28B8
:10347000CF28C1F41092650310926603109267037F
:10348000109268032091690330916A0340916B03A5
:1034900050916C032093170A3093180A4093190A2D
:1034A00050931A0A40916503509166036091670337
:1034B000709168038091ED049091EE04A091EF0467
:1034C000B091F004481759076A077B07C0F13091A3
:1034D000301C3F77313009F4C1C0311120C051E0B8
:1034E00050935B036091650370916603809167035D
:1034F0009091680396958795779567956093ED040D
:103500007093EE048093EF049093F004A091140A5A
:10351000B091150A1196B093150AA093140AC090A1
:103520006903D0906A03E0906B03F0906C03C09243
:10353000170AD092180AE092190AF0921A0AD0904B
:103540009B1ED5FE86C0E0905B03EE2009F481C08F
:10355000E091BB09F091BC091995AC01893621E0D5
:1035600092070CF442C09C0129563140A3E8BDE209
:103570000F94EE950024880F991F001C880F991F47
:10358000001C892F902D8770992748565140493645
:1035900021E0520754F1009711F181309105C9F0F3
:1035A00082309105A1F08330910579F08430910546
:1035B00051F08530910529F0069709F0B5C04856BD
:1035C000514048565140485651404856514048563F
:1035D000514048565140493621E0520734F040549A
:1035E0005B40493681E05807D4F72091281C309180
:1035F000291C421B530B7091A11E7370723031F461
:103600008091631D9091641D481B590BE091A41C8F
:103610009A01220F331FF0E0A0E0B1E0AE1BBF0B18
:103620000F9421966B017C01A091511EB091521E06
:103630009F010F942996C60ED71EE81EF91ECD2CA9
:10364000DE2CEF2CFF24E7FCFA94D092521EC0929D
:10365000511EFF90EF90DF90CF9008958091170A50
:103660009091180AA091190AB0911A0AC090E10429
:10367000D090E204E090E304F090E4048C199D09FA
:10368000AE09BF09AC01BD01440F551F661F771F6E
:10369000840F951FA61FB71FB695A7959795879579
:1036A00080934F0390935003A0935103B093520320
:1036B0002091170A3091180A4091190A50911A0A5C
:1036C0002093E1043093E2044093E3045093E40434
:1036D00040916503509166036091670370916803A0
:1036E00080914F0390915003A0915103B0915203E8
:1036F000481759076A077B0730F4E091140AF091E4
:10370000150A3497A0F081E090E09093150A809319
:10371000140A80935B031092ED041092EE04109251
:10372000EF041092F004FBCE4856514048CF609110
:103730006503709166038091670390916803969585
:103740008795779567959695879577956795609313
:10375000ED047093EE048093EF049093F004A09135
:10376000140AB091150A1196B093150AA093140A81
:10377000D6CECF93DF9310925C0381E080935C03FD
:103780002091FA042330F1F0223091F0213029F415
:10379000E091F604F091F70419956091501E6623AC
:1037A00021F070915C03711117C0DF91CF910895E2
:1037B000E091A804F091A90430819091A7043923E5
:1037C00039F3EBCFC091A804D091A904488150915E
:1037D000A7044523E9F6E1CF809165039091660344
:1037E000A0916703B0916803A091EE1DA6FDDDCF07
:1037F000B0914F1EB111D9CFC091400CD091410C66
:10380000CC53DD4F1882E091AB04F091AC04D08131
:10381000F091AA04DF2309F045C0E091A804F091DB
:10382000A90420813091A704232349F0C091400CC2
:10383000D091410CCC53DD4F988192609883E091F8
:10384000400CF091410CEC53FD4F408144604083AB
:103850005091A11D552349F0C091400CD091410CCD
:10386000CC53DD4F688168606883C091400CD09173
:10387000410C0F94AC5BCC0FDD1FCC0FDD1FCE5B7A
:10388000D34F688379838A839B83A091400CB09146
:10389000410CAE37B10580F07091EE1D70647093ED
:1038A000EE1D83CFC091400CD091410CCC53DD4F25
:1038B000888181608883B1CF8091400C9091410CC8
:1038C00001969093410C8093400CB091EE1DBF7B0C
:1038D000B093EE1D6ACFCF93DF9310925C0380917B
:1038E000FB04833009F481C08230B9F08130F1F4F7
:1038F000E091F804F091F904199570914F1E772327
:1039000001F1A0915C03A1117BC0B1E0D091501EE8
:10391000D1111CC0DF91CF910895E091AB04F091DB
:10392000AC0420819091AA04292311F350914F1ED9
:10393000552339F060915C03662339F3DF91CF9111
:103940000895B0E0D091501EDD2321F340915D0336
:1039500050915E0360915F0370916003F091EE1DE2
:10396000F6FDD8CFC091400CD091410CB1116FC081
:10397000CC53DD4F1882E091AB04F091AC04808110
:103980002091AA04822309F082C0E091A804F0915A
:10399000A90430815091A704352349F0C091400C0F
:1039A000D091410CCC53DD4F688162606883709187
:1039B000A11D772349F0E091400CF091410CEC53AC
:1039C000FD4FA081A860A083C091400CD091410C14
:1039D0000F94AC5BCC0FDD1FCC0FDD1FCE5BD34F44
:1039E000688379838A839B833CC0C091AB04D09168
:1039F000AC0438814091AA04342309F079CF96CFE2
:103A000020915D0330915E0340915F03509160030C
:103A1000B091EE1DB6FD7ECFE091400CF091410CCF
:103A2000EE0FFF1FEE0FFF1FEE5BF34F208331837E
:103A3000428353838091400C9091410C8E379105C5
:103A4000B8F0D091EE1DD064D093EE1D63CFCC0FB3
:103A5000DD1FCC0FDD1FCE5BD34F488359836A83B4
:103A60007B834091400C5091410C4E37510548F7F3
:103A7000A091400CB091410C1196B093410CA093D1
:103A8000400CF091EE1DFF7BF093EE1D43CFC091F3
:103A9000400CD091410CCC53DD4F988191609883BC
:103AA00074CFCF92DF92EF92FF92CF93DF93EC012E
:103AB000AA81BB81E881F981408151811396FC91F3
:103AC000139711962D913C91DF2FDF712115310550
:103AD00041F1DA010F9421966C01FF24D7FCF09498
:103AE000EF2CC601F6FD0EC002C095958795DA95BC
:103AF000E2F797FD0196DF91CF91FF90EF90DF9075
:103B0000CF9008952F2FFF0F330B220F232F221F4B
:103B1000330BCA0182279327821B930B8C0D9D1DAB
:103B2000E3CF2F2FFF0F330B220F232F221F330B37
:103B30008FEF9FEF0D2E02C0880F991F0A94E2F7B6
:103B400080959095BA01770F660B762F8623972381
:103B5000840F951F02C095958795DA95E2F7822725
:103B60009327821B930BDF91CF91FF90EF90DF9013
:103B7000CF9008958F929F92AF92BF92CF92DF9293
:103B8000EF92FF920F931F93CF93DF935C018B0112
:103B90001092C8071092C7071092240A812F0F9421
:103BA0005C4C802F0F945C4C1093D2080093D1088A
:103BB0000115110509F4DDC045018FE3E82EF12C54
:103BC0006501C00ED11EC80183709927009709F4C2
:103BD00059C081309105C1F10297D9F0E501899171
:103BE0004E010F945C4CA091C707B091C807119685
:103BF000B093C807A093C7079091FF0E8091000F64
:103C0000981708F0F4C0891B990B0197892B09F4C8
:103C100092C0F40181914F010F945C4C8091C707D1
:103C20009091C80701969093C8078093C707909119
:103C3000FF0E8091000F981708F0D2C0891B990BD6
:103C40000197892B09F477C0E40189914E010F9403
:103C50005C4CA091C707B091C8071196B093C807F4
:103C6000A093C7079091FF0E8091000F981708F05E
:103C700059C0891B990B019709F45DC0C814D90478
:103C800009F477C0E40189910F945C4CE091C70777
:103C9000F091C8073196F093C807E093C707909159
:103CA000FF0E8091000F981708F055C0891B990BE3
:103CB0000197892B09F43FC088810F945C4C809157
:103CC000C7079091C80701969093C8078093C707CC
:103CD0009091FF0E8091000F981708F043C0891B48
:103CE000990B0197892B39F189810F945C4CA09134
:103CF000C707B091C8071196B093C807A093C7072C
:103D00009091FF0E8091000F981708F062C0891BF8
:103D1000990B0197892B79F04E01F3E08F0E911CDE
:103D20008A8195CF9701291B3109820F932F911D0D
:103D3000892B09F0A3CF01E00093240ADF91CF91F2
:103D40001F910F91FF90EF90DF90CF90BF90AF90B9
:103D50009F908F9008959701291B3109820F932F0F
:103D6000911DA7CF9701291B3109820F932F911D18
:103D7000B9CF8090240A8110E1CF2FEF3FEFA90146
:103D80002093A61B3093A71B4093A81B5093A91BFD
:103D900021E0A801B50186EA9BE10E94F4EEEB0167
:103DA000182F892F0F945C4C812F0F945C4C8D2F12
:103DB0000F945C4C8C2FDF91CF911F910F91FF904E
:103DC000EF90DF90CF90BF90AF909F908F900D9429
:103DD0005C4C9701291B3109820F932F911D9ACFBB
:103DE0009701291B3109820F932F911D2ACF97012B
:103DF000291B3109820F932F911D08CF833023E0B7
:103E0000920709F4F7C258F1813123E0920709F4CF
:103E1000D9C208F060C08A3023E0920709F4DEC2FC
:103E200008F0E8C0863023E0920709F461C208F484
:103E30004BC2883023E0920709F4B7C108F4F7C3F6
:103E40005091151E51FF06C06091240674E067274B
:103E500060932406A0912406A2FFD9C108958C3056
:103E600022E0920709F4D6C2D8F4853022E0920706
:103E700009F4E0C208F0D2C0813022E0920709F4D0
:103E80006BC208F4D5C1833022E0920709F46DC1FA
:103E900008F4A9C35091151E51FFE0CF0D94870877
:103EA000833122E0920709F49FC208F46BC0873186
:103EB00022E0920709F43DC308F0F5C0853122E005
:103EC000920709F41CC108F4ECC27091151E71FF31
:103ED000C5CF0D945105883123E0920709F4B6C28D
:103EE00008F46EC0833029E9920709F44BC208F048
:103EF000AFC0813029E9920709F417C108F035C332
:103F00008115994909F0C3C3F8948091F50887FD9C
:103F10008C5F18160CF0A1C3082E000C990BFC0145
:103F2000EE0FFF1FEE0FFF1FEB51F74F2081318186
:103F300042815381880F991F880F991FFC01EF510F
:103F4000F74F80819181A281B381281B390B4A0BE5
:103F50005B0B7894211531054105510509F47ECF9D
:103F600060E077E883E993E00F9493953093280C11
:103F70002093270C0F949254A0913D1EA860A0930B
:103F80003D1E08958F3022E0920709F4EBC108F43A
:103F90005EC1813122E0920709F49FC008F441C359
:103FA0007091151E71FF06C0A091250690E2A92709
:103FB000A0932506B0912506B5FD50CF0D940210B3
:103FC000843123E0920709F4A8C208F46EC1863157
:103FD00023E0920709F48DC008F447C23091151E02
:103FE00031FF3CCF0E9477F6409124064F774093F3
:103FF000240608958D3023E0920709F49BC108F44C
:104000003BC18F3023E0920709F4BFC008F498C188
:104010009091151E91FF22CF0C946CFB883022E00A
:10402000920709F432C208F4F4C08A3022E0920701
:1040300009F475C008F489C29091151E91FF0ECF46
:104040000F946410A0912506A77FA09325060895DC
:10405000853029E9920709F4B4C008F42EC28630ED
:10406000994909F013C320915B1E30915C1E211504
:10407000310509F4F3CEA0E1B7E20F94EE9520915B
:10408000A21D3091A31D50E040E00F949395309312
:10409000350C2093340C0F94925490913D1E9860EF
:1040A00090933D1E0895813023E0920709F4A9C042
:1040B00008F0A5C28831924009F0E7C2F091151EC0
:1040C000F1FF05C080912506805880932506209138
:1040D000250627FDC3CE0D94A10FE091151EE1FF2B
:1040E000BDCE0F940210F0912506FF7DF0932506BA
:1040F00008955091151E51FFB1CE0C9464F7A09114
:10410000151EA1FF06C0B091250690E4B927B09313
:104110002506E0912506E6FDA1CE0D94D10FB091C4
:10412000151EB1FF9BCE0D94800520915B1E309132
:104130005C1E2115310509F491CEA0E1B7E20F9480
:10414000EE952091A21D3091A31D50E040E00F9408
:10415000939530932B0C20932A0C0F949254E0915A
:104160003D1EE860E0933D1E08956091151E61FFBD
:1041700006C07091250691E0792770932506A091DD
:104180002506A0FD6BCE0D940611F091151EF1FFD2
:1041900006C08091240620E1822780932406309176
:1041A000240634FD5BCE0C9482FCB091151EB1FF49
:1041B00055CE0E94B3F8E0912406EB7FE0932406ED
:1041C000089520915B1E30915C1E2115310509F484
:1041D00045CEA0E1B7E20F94EE952091A21D30915B
:1041E000A31D50E040E00F9493953093330C20933F
:1041F000320C0F94925420913D1E286020933D1E56
:1042000008955091151E51FF29CE0C94B5FD0C94C4
:10421000B3F8863022E0920709F46FC187309240EC
:1042200009F037C2E091151EE1FF18CE0D94030787
:10423000811521E0920709F4B8C18130914009F05D
:1042400027C28091151E82608093151E08958D30BF
:1042500022E0920709F4DFC18E30924009F013C2C8
:104260003091151E31FFFACD0F9433104091250681
:104270004F7E4093250608958B3023E0920709F482
:104280004DC08C30934009F005C23091151E31FFAE
:1042900006C04091240658E04527409324066091CB
:1042A000240663FDDBCD0C94B1F6823123E0920746
:1042B00009F4C3C18331934009F0E6C16091151E32
:1042C00061FFCCCD0C9467F9843023E0920701F1B3
:1042D0008530934009F0D6C18091151E81FFBECD77
:1042E0000E94B8FA209124062D7F20932406089579
:1042F0009091151E91FF06C0F091240682E0F827E8
:10430000F09324062091240621FDA8CD0C94B8FA40
:104310003091151E31FFA2CD0C94B0FB7091151E8B
:1043200071FF9CCD0E94B1F6A0912406A77FA093B7
:10433000240608954091151E41FF90CD0C9471FD07
:10434000B091151EB1FF8ACD0E9482FCE091240637
:10435000EF7EE09324060895B091151EB1FF7ECD47
:104360000D94F1098091151E81FF06C0209125064C
:1043700030E12327209325064091250644FD6ECD8C
:104380000D94331020915B1E30915C1E2115310578
:1043900009F464CDA0E1B7E20F94EE952091A21D3F
:1043A0003091A31D50E040E00F94939530932F0C73
:1043B00020932E0C0F94925430913D1E3860309310
:1043C0003D1E08957091151E71FF48CD0E947DFA23
:1043D000809124068F7D8093240608955091151EA8
:1043E00051FF3CCD0C94A7F7A091151EA1FF36CD2F
:1043F0000D94D306A091151EA1FF06C0B09124060E
:10440000E1E0BE27B09324069091240690FD26CDCE
:104410000C94BDFCB091151EB1FF06C0E0912506BD
:1044200098E0E927E0932506F0912506F3FD16CDE7
:104430000D9464108091151E81FF10CD0F94D01043
:10444000209125062D7F2093250608954091151E65
:1044500041FF05C0509124065058509324066091A6
:10446000240667FDFBCC0C9477F69091151E91FF06
:1044700006C0F091240680E4F827F09324062091EA
:10448000240626FDEBCC0C9478F8E091151EE1FF94
:10449000E5CC0F949A10F0912506FB7FF09325064A
:1044A00008955091151E51FFD9CC0F94D10F6091F2
:1044B00025066F7B60932506089520915B1E309141
:1044C0005C1E2115310509F4C9CCA0E1B7E20F94B7
:1044D000EE952091A21D3091A31D50E040E00F9475
:1044E00093953093310C2093300C0F949254F091AB
:1044F0003D1EF860F0933D1E0895F091151EF1FFEA
:1045000006C08091250622E08227809325063091FF
:10451000250631FDA3CC0D94D0106091151E61FFCE
:104520009DCC0E9478F8709124067F7B70932406BE
:1045300008956091151E61FF91CC0F94A10F7091A9
:1045400025067F777093250608954091151E41FF3B
:1045500006C05091250664E05627509325067091B9
:10456000250672FD7BCC0D949A1020915B1E309134
:104570005C1E2115310509F471CCA0E1B7E20F945E
:10458000EE952091A21D3091A31D50E040E00F94C4
:10459000939530932D0C20932C0C0F949254B09142
:1045A0003D1EB860B0933D1E08952091151E2D7FCD
:1045B0002093151E0E94BDFC0E94B8FA0E94B3F819
:1045C0000E94B1F60F9406110F94D0100F949A1018
:1045D0000F9464100F9433100F940210109225065C
:1045E0001092240608953091151E31FF37CC0F9498
:1045F0000611409125064E7F40932506089530917F
:10460000151E31FF2BCC0E94BDFC409124064E7F2D
:104610004093240608955091151E51FF1FCC0D9410
:10462000C1096091151E61FF19CC0D945708409186
:10463000151E41FF13CC0C94ABF97091151E71FF40
:1046400006C0A0912406B0E2AB27A0932406E09117
:104650002406E5FD03CC0C947DFA2091E508309109
:10466000E6084091E7085091E8088091F1089091A0
:10467000F208A091F308B091F408281B390B4A0BFB
:104680005B0B67CC089508950895089508950895E3
:10469000089508950895CF93DF9300D01F92CDB76A
:1046A000DEB7982F8F3010F00F949096E82FF0E03F
:1046B0008827E25AFC4D8F4F0D9419968023822350
:1046C00088238F23A923AF23B723C823E5231F24DF
:1046D00026242D2435246D2379236038710508F4B0
:1046E000E9C080E00F900F900F900F90DF91CF9175
:1046F0000895603281E07807A0F78AE896E115C056
:10470000892FF0CF6038710560F780EC9BE035C0F1
:10471000603221E0720728F78FE59AE106C0603227
:1047200031E07307F0F681ED97E16F3F710509F015
:1047300008F4EEC06031F1E07F0708F013C1895F33
:104740009E4F7727660F771F680F791F7A836983DB
:10475000A8C06038710528F688E29CE10EC060327E
:1047600081E0780708F0BDCF83E495E1DECF6038C3
:10477000710508F0B6CF8BE99EE1680F791FFB0148
:1047800080810F900F900F900F90DF91CF9108953F
:104790006035710508F491C0603A710508F49BC05A
:1047A000603F710508F09DCF605A71098CED94E16E
:1047B000262F6034710508F4A2C06834710508F032
:1047C000D6C0895B9F4F205432C06033710508F416
:1047D0007AC06036710508F483C06039710508F449
:1047E000A9C0603C710508F4D1C0603F710508F4B0
:1047F000D2C06032E1E07E0708F4D2C06035F1E05B
:104800007F0708F4D2C0603821E0720708F069CF52
:104810006055714088E291E1262F6432710508F4F9
:104820007BC06A32710508F08AC08B96245230E052
:10483000220F331F820F931F9A83898332C0603CFB
:10484000710508F04ECF80E09BE097CF603C71058A
:1048500008F047CF81EE9CE190CF603231E07307E2
:1048600008F03FCF88E199E160CF6035710540F1F4
:10487000603A710558F1683B710508F032CF605A13
:1048800071096031710588F16431710508F073C0F8
:104890006051862F90E0880F991F885E9E4E9A8304
:1048A0008983AFE6B2E0BC83AB83CE0101960E9460
:1048B000511D18CF80E89AE060CF85E794E178CF6A
:1048C00080E493E175CF8DEF92E1A6CF6055710939
:1048D00087EA93E16DCF605571098EE094E168CF6E
:1048E000605371098AEB92E197CFE62FE370EA5F9C
:1048F000EE0FE61BF0E0EF5FFE4E8781F3CE2770F0
:10490000245E220F261B820F911DFC018781EACEB7
:10491000262F2F702858F5CF2BEA629F412D1124A6
:1049200046954695342F330F430F440F262F241BF3
:10493000215FE7CF6056710987E792E16DCF8F5B0A
:104940009F4F2A5230E0220F331F821B930B9A8312
:10495000898367E772E07C836B83CE0101960E94B6
:10496000511DC0CE8B5B9E4F6051262FEBCF8B59D4
:104970009F4F2854E7CF6451862F90E0880F991FEE
:104980009195819591098A5D9E4EE1CF605971099B
:1049900084E392E141CF605C710981EF91E13CCF0A
:1049A000605F71098EEA91E137CF605271408BE60A
:1049B00091E132CF8F3010F00F949096E82FF0E015
:1049C0008827EA51FB4D8F4F0D94199637254725BF
:1049D0004E2556255E2565256D257425F524A125D2
:1049E000A825B325D32538253F256033710508F464
:1049F00012C16036710508F41BC16039710508F4F5
:104A00004FC1603C710508F492C1603F710508F424
:104A100093C1603281E0780708F493C16035E1E02A
:104A20007E0708F493C16038F1E07F0700F5605518
:104A30007140A8E2B1E1862F6432710508F41CC10F
:104A40006A32710508F031C18452E82FF0E0EE0FB0
:104A5000FF1FEA0FFB1F34E6439FC001112494A7F8
:104A600083A78FEF9FE713969C938E9312970895D9
:104A70006038710508F0C7C080E89AE06FC0603206
:104A8000E1E07E0708F0BEC0AAE8B6E173C0603876
:104A9000710508F0B6C080EC9BE060C0603281E038
:104AA000780708F0ADC0AFE5BAE164C06032E1E07C
:104AB0007E0708F0A4C0A1EDB7E15CC060387105C5
:104AC00008F09CC088E29CE149C06032F1E07F07B9
:104AD00008F093C0A3E4B5E14DC06038710508F05B
:104AE0008BC08BE99EE13AC06035710508F490C037
:104AF000603A710508F497C0603F710508F0B7CFC0
:104B0000605A7109ECEDF4E1862F6034710508F408
:104B10009EC06834710508F0E9C08054A82FB0E049
:104B2000AA0FBB1FAE0FBF1FA95BBF4F54E6459F27
:104B3000900111242D933C934FEF5FE75383428301
:104B40000895603C710508F05FC080E09BE006C0FE
:104B5000603C710508F04FC081EE9CE1680F791F41
:104B6000FB0140830895603281E0780708F042C07D
:104B7000A8E1B9E16F3F710509F008F473C0603135
:104B8000E1E07E0708F0A1C0FB01FF27EE0FFF1F49
:104B9000EA0FFB1FE95FFE4F74E6479FB001112447
:104BA000718360835ECF6035710578F1603A71057D
:104BB000A8F1683B710508F05ACF605A710960315D
:104BC0007105D8F16431710508F0A0C06051E62F7D
:104BD000F0E0EE0FFF1FE85EFE4E24E6429FA001CC
:104BE0001124518340836FEF7FE77093041160932A
:104BF0000311089508950895089508950895089556
:104C000008950895089508950895E0E4F3E17CCFB0
:104C1000E5E7F4E179CFADEFB2E10DCF6055710971
:104C2000E7EAF3E171CF60557109EEE0F4E16CCF92
:104C300060537109AAEBB2E1FECEE62FE370EA5FA2
:104C4000EE0FE61BF0E0EF5FFE4E4783CCCFA62FC2
:104C5000A770A45EAA0FA61BAE0FBF2FB11D17969B
:104C60004C936ACFE62FEF70E858EE0FE61BEA0F81
:104C7000FB2FF11D4783F5CE8BEA689F812D112410
:104C800086958695982F990F890F880FE62FE81B38
:104C9000E15FEE0FE61BEA0FFB2FF11D4783E1CE2C
:104CA00060567109A7E7B2E1C6CE8A5290E0880F3C
:104CB000991FFD01E81BF90BEF5BFF4F842F90E07C
:104CC000880F991F91838083CCCE6051862F90E00E
:104CD000880F991FFD01E81BF90BEB5BFE4F842F3A
:104CE00090E0880F991F91838083BBCE885490E019
:104CF000880F991FDF01A81BB90BAB59BF4F842F39
:104D000090E0880F991F8D939C9316CF6451E62FE6
:104D1000F0E0EE0FFF1FF195E195F109EA5DFE4E1F
:104D2000842F90E0880F991F918380835CCF605916
:104D30007109A4E3B2E17FCE605C7109A1EFB1E13A
:104D40007ACE605F7109AEEAB1E175CE6052714012
:104D5000ABE6B1E170CECF92DF92EF92FF921F935C
:104D6000CF93DF937B014091430E5091440E6091AD
:104D7000450E7091460E411551056105710511F4FE
:104D80001092031E4F5F5F4F6F4F7F4F4093430E54
:104D90005093440E6093450E7093460E2091A11DD2
:104DA0005091EF1DC090EF1D30E0319521953109F4
:104DB0002527207833272C252093EF1D1092C90733
:104DC000E114F104A1F06C0110E090E080E0D0E08B
:104DD000C0E08C0D9D1D0E9407BDC753D84F89832D
:104DE0001F5FC12FD0E0CE01CE15DF0590F380917B
:104DF0003D1E877F80933D1EDF91CF911F91FF90D5
:104E0000EF90DF90CF9008952F923F924F925F9254
:104E10006F927F928F929F92AF92BF92CF92DF92CA
:104E2000EF92FF920F931F93CF93DF93CDB7DEB72F
:104E3000AA970FB6F894DEBF0FBECDBF3C016AA3A0
:104E4000633009F451C708F437C72AA1243009F4A4
:104E500027C2253009F05EC79C012B5B3E4F1C0129
:104E600057EF250E311C099798A78FA3F1E080E139
:104E700090E0A0EFBFEFBCA3ABA347E752E05EA377
:104E80004DA34FA058A44214530409F425C2B901FC
:104E90006E5F7F4F7AA769A72101480E591E30E047
:104EA00020E001E0AAE08A2E912CA12CB12C11E087
:104EB000DB015E914E91BAA7A9A7EF2FEF712115E3
:104EC000310509F488C5DA010F9421966C01FF249D
:104ED000D7FCF094EF2CC601F6FF0EC08F2FFF0F0A
:104EE000990B880F892F881F990B48275927481B32
:104EF000590BCA018C0D9D1D02C095958795EA95A9
:104F0000E2F797FD0196D82EB3E6E0E6FFE0B8178A
:104F100008F092C12D2D30E050E040E019A2CE0102
:104F200081966C01CA01B901A50194010F94939572
:104F3000605DD6016E936D01211531054105510566
:104F400089F7109709F43EC0FD0101900020E9F7B0
:104F50009F01FD01215031092E173F0799F1F19072
:104F60000093FC0E7091FF0E4091000FA091F40E83
:104F7000B091F50E741709F40CC34091FF0E50E088
:104F80004F5F5F4F4F735527942F03C00FB607FE37
:104F90009FC25091000F9517C9F3A091FF0EB0E08A
:104FA000AF5BB04FFC92DFB6F8944093FF0EA09138
:104FB000F60EB091F70E8C9180628C93DFBE2E17A7
:104FC0003F0769F6E2E6FFE0F490FF2099F10093D5
:104FD000FC0E3091FF0E2091000FA091F40EB091C5
:104FE000F50E321709F41AC32091FF0E30E02F5F3F
:104FF0003F4F2F733327E22E03C00FB607FEDDC2EB
:105000008091000FE816C9F3A091FF0EB0E0AF5BEE
:10501000B04FFC92CFB6F8942093FF0EA091F60EFD
:10502000B091F70E7C9170627C93CFBE3196F49074
:10503000F110CDCF61014214530409F49BC0D60195
:105040002D916D01E0E6FFE0243608F410C330E056
:1050500050E040E019A2CE0181967C01CA01B9015D
:10506000A50194010F949395605DD7016E937D0126
:10507000211531054105510589F7109709F43EC006
:10508000FD0101900020E9F7AF01FD0141505109F8
:105090004E175F0799F1F1901093FC0E2091FF0ECF
:1050A0003091000FA091F40EB091F50E231709F482
:1050B00073C32091FF0E30E02F5F3F4F2F733327D4
:1050C000622F03C00FB607FE06C39091000F691749
:1050D000C9F3A091FF0EB0E0AF5BB04FFC92EFB60A
:1050E000F8942093FF0EA091F60EB091F70E8C91DC
:1050F00080628C93EFBE4E175F0769F6E2E6FFE031
:105100004491442399F11093FC0E5091FF0EF090BE
:10511000000FA091F40EB091F50E5F1509F481C354
:105120002091FF0E30E02F5F3F4F2F733327922FD8
:1051300003C00FB607FE44C37091000F9717C9F361
:10514000A091FF0EB0E0AF5BB04F4C93EFB6F89478
:105150002093FF0EA091F60EB091F70E8C91806215
:105160008C93EFBE319644914111CDCF4C145D0428
:1051700009F065CFADE8B2E0DD900093FC0E9091B0
:10518000FF0EE090000FE091F40EF091F50E9E15E9
:1051900009F48DC32091FF0E30E02F5F3F4F2F7336
:1051A0003327322F03C00FB607FE50C36091000FA4
:1051B0003617C9F3E091FF0EF0E0EF5BF04FD082BD
:1051C0005FB7F8942093FF0EE091F60EF091F70E82
:1051D0007081706270835FBF6FE872E06A177B074F
:1051E00059F6EBA0FCA02E0C3F1C4E0C5F1C4FA1EF
:1051F00058A54215530509F46FC0ADA1BEA1139681
:10520000FC91139711962D913C91A9A5BAA551CE69
:10521000FC90F5FE21C0EFB6F894A091FA0EB09183
:10522000FB0ECC92A091F40EB091F50E3C91337030
:1052300030643C93EFBE3196C490CC2009F4EEC3A9
:105240000093FC0E9091FF0EE090000FA091F40EE1
:10525000B091F50E9E15E1F22091FF0E30E02F5F28
:105260003F4F2F733327322F03C00FB607FE60C1A5
:105270005091000F3517C9F3A091FF0EB0E0AF5B5E
:10528000B04FCC927FB7F8942093FF0EA091F60E0A
:10529000B091F70E2C9120622C937FBF3196CCCF2A
:1052A0009C012B593F4F1C015FE3250E311CFC0173
:1052B0003197F8A7EFA3F0E088E090E008EF1FEF48
:1052C0001CA30BA363E772E07EA36DA34FA058A4B9
:1052D0004214530409F0DBCD04E61FE008C084EE5D
:1052E0009EE00F94543B0F5F1F4F892B21F0F80174
:1052F00064916111F4CFBAA1B53008F0D1C4B330D4
:1053000008F0BEC4B23009F0C3C473018FE1E80EE7
:10531000F11C97E1690E711C6E147F0409F4B3C08F
:1053200011E02AE0822E912CA12CB12CF301A19145
:10533000B1913F012CEE31E50F9429969C013595F2
:105340002795359527953595279535952795359545
:105350002795022F37FD0395E0E6FFE0043608F4B9
:1053600089C3202F30E050E040E019A2CE018196A1
:105370001C01CA01B901A50194010F949395605DC8
:10538000D1016E931D01211531054105510589F7A4
:105390001097E9F1FD0101900020E9F7AF014150BC
:1053A00051094A175B0799F13D901093FC0E5090FC
:1053B000FF0ED090000FE091F40EF091F50E5D1409
:1053C00009F4EDC32091FF0E30E02F5F3F4F2F73A4
:1053D0003327322F03C00FB607FE80C36091000F42
:1053E0003617C9F3E091FF0EF0E0EF5BF04F30822B
:1053F0004FB6F8942093FF0EE091F60EF091F70E61
:105400002081206220834FBE4A175B0769F6E2E6DF
:10541000FFE04491442399F11093FC0E5091FF0E4C
:105420003090000FA091F40EB091F50E531509F4D1
:10543000FBC32091FF0E30E02F5F3F4F2F733327C8
:10544000D22E03C00FB607FEBEC36091000FD61662
:10545000C9F3A091FF0EB0E0AF5BB04F4C934FB6D5
:10546000F8942093FF0EA091F60EB091F70E2C91B8
:1054700020622C934FBE319644914111CDCFE6145A
:10548000F70409F053CF6DE084EE9EE00F94543B97
:10549000892B09F456C46AE084EE9EE0AA960FB602
:1054A000F894DEBF0FBECDBFDF91CF911F910F915A
:1054B000FF90EF90DF90CF90BF90AF909F908F9034
:1054C0007F906F905F904F903F902F900D94543B42
:1054D000EC90E5FE5ECDA091000FB0E0AF5BB04F69
:1054E000CC90A091000FB0E01196AF73BB27A093B2
:1054F000000FA091FA0EB091FB0ECC92A091F40E89
:10550000B091F50E7C91737070647C93B091FF0E36
:105510006091000FB61307C0A091F60EB091F70E80
:105520005C915F7D5C93A091F40EB091F50E31CD4E
:105530008C9185FF9DCEA091000FB0E0AF5BB04F86
:105540004C916091000F70E06F5F7F4F6F73772712
:105550006093000FA091FA0EB091FB0E4C93A091B6
:10556000F40EB091F50E6C91637060646C93B09121
:10557000FF0E9091000FB91307C0A091F60EB091E5
:10558000F70E5C915F7D5C93A091F40EB091F50EE7
:105590006FCE6C9165FFF1CC4FB7F894A091FA0EE5
:1055A000B091FB0EFC92A091F40EB091F50E9C917F
:1055B000937090649C934FBFCFCC6C9165FF20CDCE
:1055C000A091000FB0E0AF5BB04F5C916091000F15
:1055D00070E06F5F7F4F6F7377276093000FA0912C
:1055E000FA0EB091FB0E5C93A091F40EB091F50E03
:1055F0004C91437040644C93B091FF0E9091000F1A
:10560000B91307C0A091F60EB091F70E3C913F7D03
:105610003C93A091F40EB091F50EF2CCDC90D5FE47
:10562000E3CC2FB7F894A091FA0EB091FB0EFC9248
:10563000A091F40EB091F50E8C91837080648C93E0
:105640002FBF3196F4CC6C9165FF21C05FB7F89401
:10565000A091FA0EB091FB0EFC92A091F40EB091C5
:10566000F50E3C91337030643C935FBF3196F490FB
:10567000FF2009F430C11093FC0EE090FF0E7091F2
:10568000000FA091F40EB091F50EE716E1F24091F3
:10569000FF0E50E04F5F5F4F4F735527542F03C0ED
:1056A0000FB607FE48C09091000F5917C9F3A0919B
:1056B000FF0EB0E0AF5BB04FFC923FB7F894409361
:1056C000FF0EA091F60EB091F70E4C9140624C93F4
:1056D0003FBF3196CCCF3C9135FFF7CCA091000F66
:1056E000B0E0AF5BB04F7C91A091000FB0E011969D
:1056F000AF73BB27A093000FA091FA0EB091FB0EE1
:105700007C93A091F40EB091F50E9C9193709064EF
:105710009C93B091FF0EE090000FBE1107C0A091C6
:10572000F60EB091F70E8C918F7D8C93A091F40EB4
:10573000B091F50ECACC8C9185FFB5CFA091000F2A
:10574000B0E0AF5BB04FEC906091000F70E06F5F26
:105750007F4F6F7377276093000FA091FA0EB0917F
:10576000FB0EEC92A091F40EB091F50E7C9173704B
:1057700070647C93B091FF0E6091000FB61307C068
:10578000A091F60EB091F70E9C919F7D9C93A091F5
:10579000F40EB091F50E87CF7C9175FF8ACC2FB7B0
:1057A000F894A091FA0EB091FB0EFC92A091F40E29
:1057B000B091F50E6C91637060646C932FBF68CCF0
:1057C0006C9165FFB9CCA091000FB0E0AF5BB04F1A
:1057D0005C916091000F70E06F5F7F4F6F73772770
:1057E0006093000FA091FA0EB091FB0E5C93A09114
:1057F000F40EB091F50E3C91337030643C93B0914F
:10580000FF0EF090000FBF1107C0A091F60EB091EF
:10581000F70E7C917F7D7C93A091F40EB091F50EF4
:105820008BCC3C9135FF7CCC2FB7F894A091FA0E2D
:10583000B091FB0E4C93A091F40EB091F50E4C91EB
:10584000437040644C932FBF31968DCCF080F5FEB1
:10585000ADCCE091000FF0E0EF5BF04F4081609144
:10586000000F70E06F5F7F4F6F7377276093000FBB
:10587000E091FA0EF091FB0E4083E091F40EF0916E
:10588000F50E9081937090649083F091FF0EC0901C
:10589000000FFC1107C0E091F60EF091F70E808129
:1058A0008F7D8083E091F40EF091F50E7FCC8081A6
:1058B00085FF70CC2FB7F894E091FA0EF091FB0EB3
:1058C000D082E091F40EF091F50E308133703064A7
:1058D00030832FBF81CCEEE5FFE02A3008F0B7CB54
:1058E000F490FF2009F4B3CB1093FC0E4091FF0E0F
:1058F0008091000FA091F40EB091F50E481709F4B5
:1059000055C04091FF0E50E04F5F5F4F4F735527DA
:10591000942F03C00FB607FE18C07091000F9717A1
:10592000C9F3A091FF0EB0E0AF5BB04FFC926FB730
:10593000F8944093FF0EA091F60EB091F70E5C9193
:1059400050625C936FBF3196CBCF3C9135FFE5CF72
:10595000A091000FB0E0AF5BB04F8C916091000F51
:1059600070E06F5F7F4F6F7377276093000FA09198
:10597000FA0EB091FB0E8C93A091F40EB091F50E3F
:105980007C91737070647C93B091FF0EE090000F77
:10599000BE1107C0A091F60EB091F70E6C916F7D0D
:1059A0006C93A091F40EB091F50EB7CFEC90E5FE9C
:1059B000A8CF4FB7F894A091FA0EB091FB0EFC92CD
:1059C000A091F40EB091F50E9C91937090649C930D
:1059D0004FBF319685CF2F2FFF0F330B220F232F71
:1059E000221F330B8FEF9FEF0E2E02C0880F991FDF
:1059F0000A94E2F780959095BA01770F660B762F9F
:105A000086239723840F951F02C095958795EA9565
:105A1000E2F782279327821B930B75CAF9E0FD15E5
:105A200008F478CA3EE5E32E3FE0F32E0AC084EE88
:105A30009EE00F94543BFFEFEF1AFF0A892B09F405
:105A400069CAF70164916111F2CF64CA5C9155FF94
:105A500021C02FB7F894A091FA0EB091FB0E3C92A2
:105A6000A091F40EB091F50E9C91937090649C936C
:105A70002FBF31963490332009F4EBC01093FC0E05
:105A80005090FF0ED090000FA091F40EB091F50E43
:105A90005D14E1F22091FF0E30E02F5F3F4F2F7336
:105AA0003327922F03C00FB607FE48C07091000F36
:105AB0009717C9F3A091FF0EB0E0AF5BB04F3C92D7
:105AC000CFB6F8942093FF0EA091F60EB091F70E8A
:105AD0008C9180628C93CFBE3196CCCF908195FF14
