:100000000C9452110D94DC570D94B1570D948657F2
:100010000D945B570D9430570D9405570D94DA5697
:100020000D94AF560C9483110C9483110C9483118E
:100030000C9483110C9483110C9483110C9495CB24
:100040000C9483110C9463630C9447610D941B25ED
:100050000C9483110C9483110C9483110D945F798B
:100060000C9483110D946F590D942F590C94831196
:100070000C9483110C9483110C9483110C948311B0
:100080000C943AC80C94BFC70C9444C70C948311C9
:100090000C9483110C9483110C9483110C94831190
:1000A0000C9483110C9483110C94D3C50C94C9C681
:1000B0000C944EC60C9483110C9483110C94E6C4DA
:1000C0000C94F9C30C940CC30C9483110C948311FD
:1000D0000C9483110C9483110D94F8580D94B85816
:1000E0000C9483110C9480DF0C943D930D94930F2A
:1000F0000D94990F0D94B13D0C945F1A0D942B3D06
:100100000C94763E0D94DB0F0C940C7E0C94934073
:100110000D944D0F0D94BF100D94050F0C94E03805
:100120000C94DBF10D94DE0E0C94E8130C945D3806
:100130000C94D06E0C9422530C94A1950C94776B74
:100140000C94691C0C9412900C943C790D94E60E5E
:100150000C945E1A0C94C8900D9432580C947A6FDB
:100160000C94B89E0D94136B0D944C100D94336B3E
:100170000C94FC2A0C9405780C94FEFC0D94D20F80
:100180000D947C170C94ABF60C940D900C94258870
:100190000C94AD2B0C9478AA0D947A4A0D94B10F5F
:1001A0000D94A6100D94FF0F0D9470560C94742BA3
:1001B0000C94D06F0D9427560D94E13C0C94ED2ACD
:1001C0000C94D52C0C944A900C94267E0D94C2105D
:1001D0000D945D6B0D948C1C0C94D52A0C94291DE8
:1001E0000D94900F0C94BB7D0D94440F0D94680FEB
:1001F0000D94276B0D9475190C9483180C94CB8374
:100200000D94C5100C945A520C94EEE50C94429245
:100210000D94176B0C947EA50C9429990D949E5601
:100220000D949D930D94964A0C94AB200C94D7D7C3
:100230000D94170F0D94A3100C94171F0C94A792F4
:100240000D94DE0F0D949E580C9491EC0D947D7AD4
:100250000D9410670C941D9E0D942C0F0D946B58EB
:100260000C946F810D940B0F0D942F0F0D94E120C2
:100270000C942BA10C9480D70C94BF2C0C94A46BE1
:100280000C9433B10D94D5180D9497100C943190B3
:100290000C94AEA80C948F830D94F5660D94960F74
:1002A0000C943E900D94BA0F0C9444900C9422A69A
:1002B0000D9429100C9427B10C940F2B0D94A80FBA
:1002C0000D949D100C94722D0D94E90E0D94F30F66
:1002D0000D944B6B0C9495960D9468560D940210EA
:1002E0000C94F4140C94092B0D94110F0C94F148F8
:1002F0000C9430880C9453160D94470F0C94A8500E
:100300000C94BC390C94E4DE0D94A20F0C94E7130A
:100310000C94192D0C94C38F0C94E9960D94B78E00
:100320000D94E30E0C9415890C94632C0D94EA0F34
:100330000D94B11E0C945A6B0C9431990D94AD42EE
:100340000C9433190D94A8210D942A580D9454003F
:100350000C94ED6E0D94D6910D945A4C0D94452A43
:100360000C94F29F0C94F52A0D947C560C9480F01A
:100370000D94B70F0C9457980D9491100C941B6C1E
:100380000D947F820C94A59A0D942E580D94740FA1
:100390000C9433FE0D94B9100C9430EF0D949A1018
:1003A0000C9482880C947FD80C94E89D0D943B109B
:1003B0000D94230F0D94FF0E0D9419650C94A83B1A
:1003C0000C94B5D80D94AE0F0C94E9130D940583DD
:1003D0000D94D2010C94B8F40C94C4A60C94F71BA1
:1003E0000C945F120C9479540D94260F0D94CB93BA
:1003F0000D940B200D94396B0C942D990C940717C8
:100400000C94E5110D94BA930D943B0F0D943001AB
:100410000D941A0F0D9490060D943E0F0D94DF105D
:100420000C94BC890C9479DA0C949FED0D942156B0
:100430000D94F80E0C94CA8F0C9437910C94608133
:100440000C9403910C94C2900C941F900C943B6FED
:100450000D9428580D9490560D942D560C94B06F11
:100460000C9460260C9428910C94ED510D944D0B36
:100470000C94BE800D94E40F0D945A560C94F53BE9
:100480000D940A450C94FB800C94947D0C94CD78CB
:100490000D94200F0D94E21D0C943BB10D94496610
:1004A0000D94FC4A0C942DAA0C9450EA0D94E70F7D
:1004B0000C945B770C94956F0D94DE4B0D94C115E5
:1004C0000D949D440C9463880D94C68F0D94BD1CAF
:1004D0000C94C6800C943DB10C94A3E90D94128247
:1004E0000C94372B0D94161C0C94E38F0D94061F5F
:1004F0000C9443500C94C67D0D9429560C94DAF15B
:100500000D94C3930D94D6100D94F20E0C947F1D90
:100510000C94D2890C94E1FE0C9437B10C94578161
:100520000C947A170D9496580C94F1760C9491FED5
:100530000C94462D0D94F90F0C94DC2A0C946E88C3
:100540000C94BD9F0C9490F10D94ED0F0C94449C71
:100550000D940E8F0C94CF980C94CF830C94FFA223
:100560000C9484180C945FD90D94FC0F0D949F0F7C
:100570000C94ED930C9487EB0D94AE090D94E6B1B9
:100580000D9408140C945FDB0D94B7140C94E613CF
:100590000D94CF100C94696B0C940AA80D947628D6
:1005A0000D946B0F0D9410000D9444180D94C00F12
:1005B0000C9491990D9487040D94140F0D94C066BA
:1005C0000C9406130D94D50F0C9467980D94A24BC0
:1005D0000C9440970D94C30F0C946F6F0C9485117D
:1005E0000C94DA900D9408170D94080F0C94C378AE
:1005F0000C945B6F0C948F220D945B930D94576B4E
:100600000C94E99E0D9405100C94A04B0D9494103D
:100610000C940C790D94AC100D948A580C94891498
:100620000D9430670C94022B0C94C56F0C94EF2A38
:100630000D94516B0C942CF30D94AB0F0C94FD4C5A
:100640000C94AD210C94F9E90C949D940D941656DC
:100650000C9423B10D94636B0C9435B10C94272D3D
:100660000D94F0440D94B6100C946B980D94B31047
:100670000C945B980D943E800C9499990C942BB13A
:100680000D9439660C940B510D94320F0D94954ACC
:100690000C94D11A0C9425B10D94F60F0C94206F84
:1006A0000D94DB660C94A82C0D94E5100D94CE19D6
:1006B0000D9449560C94B72C0C94CE900D94560F73
:1006C0000D94EC3B0C94E8E70D94CB100C9494FC47
:1006D0000D948D0F0C940F880D944B580C9431B1E0
:1006E0000D94FC290C94CA780C94A51E0D94E2106C
:1006F0000C9457900C94CE6B0C9476440D9410107F
:100700000C9463980C944A9D0C945F980C94364A10
:100710000D94E3930D94380F0C94A2FF0C940D6C80
:100720000D944D290C94C62C0D944E270C94222028
:100730000C9468410D94903D0D94620F0D94547F7C
:100740000C942DB10D94E10F0C9400900C940617AD
:100750000D9422100C94396C0C9474FD0D94BD0F03
:100760000C94D61A0C9420890C94AB780D945C0FE1
:100770000C9481510D947C580D9423560C94E5DE15
:100780000D94EF0E0C94B6800D945A0C0C942DF32E
:100790000D941B1B0C94A0970C94DCF10D94345811
:1007A0000D946E0F0C94516F0D949C0F0C949D77CB
:1007B0000C9429B10D94603C0C94E4800D94A50F29
:1007C0000D94EC0E0C94656F0C94711C0C94DCA4CD
:1007D0000D94BD810D940D6B0D94034C0D94CC0FB5
:1007E0000D944A0F0D942C580D94216B0D9429668D
:1007F0000D946C1A0C9439B10C94D8FD0C94C2AAC7
:100800000D94410F0C9438A40D9430580C9405921B
:100810000C94CB980D94710F0C94C6A10C947B1E74
:100820000D94650F0C943D6B0D943F6B0C94202D33
:100830000C945DF60D940E0F0C94972C0C9403F110
:100840000D94D9100C94C7890C942DE20C948E2C25
:100850000C94C6780C94A69B0C949DA30D94FB0E4F
:100860000D94541D0D94EF4B0C94709B0C94B82A6E
:100870000D94020F0C94D5980D9468900C94C79821
:100880000C94B47D0D94DA2A0C9444970C947B2B31
:100890000D94E7290D94770F0D94EE140C9470824B
:1008A0000C94C07D0D94D3100C944D950C94791735
:1008B0000C94ACE30D940B100D94AA580C9421ECFD
:1008C0000C944B6B0D94290F0D94C8100C941A883E
:1008D0000C9448910C94846C0D9425560C94D398E8
:1008E0000D94FD640D94530F0D94F00F0D94126B45
:1008F0000C9478290D94F50E0C9463900C941C5470
:100900000C9409780C94EB910D941B6B0D94BC1016
:100910000C941FB10C9469810D94CD900C9464A239
:100920000C949D990C9437FF0C9435990C94677D29
:100930000D94A0100D946F100D9484560D94A23C4C
:100940000C94A3530C94266B0D94D80F0D94D39351
:100950000C94799C0D94FE130C94F6180D9432218E
:100960000C942FB10D945F0F0C94D3990C94789044
:100970000D94350F0C94A8780C94C5910D947C16A9
:100980000C94709A0C945D900C94A6920D94500F58
:100990000D94DC100C948F2C0C9496830C948A2B61
:1009A0000C94FF970C94466F0C941B910D942D6B37
:1009B0000D94A7000C94822B0D945A660D947880A8
:1009C0000C9495990D94A9100C9452790C94149D43
:1009D0000D94C60F0C94D4900C94EA540C9421B14D
:1009E0000D949A220D946B650C942DF40C94EB806D
:1009F0000C9403780D941D0F0C94856B0D948C66EC
:100A00000D94590F0D9437510C941BE00C94F26A1D
:100A10000C94F6780C94016B0C941F9F0D945B441E
:100A20000D94B40F0C94EE910D949A640C94CE2C0A
:100A30000C9468A70D942B560D9413100C94A6EAF1
:100A40000D94B1930C94CA3B0C948DA00C9477E157
:100A50000C94A7230D94456B0D949C660D94CF0FB9
:100A60000C943EEB0C94ACF30D9479440C94DE267C
:100A70000C949F260D9481360C94BD520C94AF2C8F
:100A80000C940A6F0C94BA6F0C9403980C94928295
:100A90000C945A6C0D9468910D94C90F526573654E
:100AA0007420636F6E74726F6C206973206375724B
:100AB00072656E746C792064697361626C65642E12
:100AC00000436F6D6D732068616C7465642E204EF9
:100AD00065787420627974652077696C6C20726522
:100AE000736574207468652041726475696E6F2E39
:100AF0000000537065656475696E6F203230323363
:100B00002E303500737065656475696E6F20323004
:100B10003233303500000030303200FF0A50616758
:100B20006520686173206E6F74206265656E206950
:100B30006D706C656D656E74656420796574000A0E
:100B4000426F6F7374206C6F6F6B7570207461628D
:100B50006C65000A326E642049676E6974696F6E55
:100B6000204D6170000A326E64204675656C204D20
:100B70006170000A50616765203920436667000A8A
:100B80005472696D2031205461626C65000A5656BA
:100B900054204D6170000A426F6F7374204D617074
:100BA000000A5067203620436F6E666967000A416D
:100BB0004652204D6170000A50672034204366671A
:100BC000000A49676E6974696F6E204D6170000A92
:100BD0005067203220436667000A5645204D6170F9
:100BE000004572723A20556E6B6E6F776E20636DA2
:100BF00064000A3D3D3D436F6D6D616E6420486544
:100C00006C703D3D3D0A0A416C6C20636F6D6D61F7
:100C10006E6473206172652073696E676C65206312
:100C2000686172616374657220616E6420617265CF
:100C300020636F6E636174656E61746564207769AB
:100C4000746820746865697220706172616D657482
:100C5000657273200A776974686F757420737061A8
:100C60006365732E53796E7461783A20203C636F0C
:100C70006D6D616E643E2B3C706172616D65746573
:100C800072313E2B3C706172616D65746572323EEB
:100C90002B3C706172616D657465724E3E0A0A3D4F
:100CA0003D3D4C697374206F6620436F6D6D616EBE
:100CB00064733D3D3D0A0A41202D20446973706CE8
:100CC000617973203331206279746573206F6620F7
:100CD00063757272656E7453746174757320766196
:100CE0006C75657320696E2062696E617279202867
:100CF0006C6976652064617461290A42202D204266
:100D000075726E2063757272656E74206D617020ED
:100D1000616E6420636F6E666967506167652076F7
:100D2000616C75657320746F20656570726F6D0AF4
:100D300043202D205465737420434F4D20706F72F3
:100D4000742E2020557365642062792054756E6579
:100D50007273747564696F20746F20736565207792
:100D600068657468657220616E204543552069731B
:100D7000206F6E206120676976656E2073657269E9
:100D8000616C200A20202020706F72742E20526522
:100D90007475726E7320612062696E617279206E63
:100DA000756D6265722E0A4E202D205072696E7428
:100DB000206E6577206C696E652E0A50202D2053B9
:100DC00065742063757272656E7420706167652E3C
:100DD000202053796E7461783A2020502B3C70614A
:100DE00067654E756D6265723E0A52202D20536113
:100DF0006D65206173204120636F6D6D616E640AC3
:100E000053202D20446973706C6179207369676E7B
:100E10006174757265206E756D6265720A51202D60
:100E20002053616D65206173205320636F6D6D6188
:100E30006E640A56202D20446973706C6179206DB0
:100E40006170206F7220636F6E66696750616765BD
:100E50002076616C75657320696E2062696E6172BF
:100E6000790A57202D20536574206F6E65206279B2
:100E7000746520696E206D6170206F7220636F6EE3
:100E8000666967506167652E2020457870656374D8
:100E9000732062696E61727920706172616D657430
:100EA0006572732E200A2020202053796E74617899
:100EB0003A2020572B3C6F66667365743E2B3C6E60
:100EC0006577627974653E0A74202D20536574201D
:100ED00063616C6962726174696F6E2076616C75B2
:100EE00065732E2020457870656374732062696E87
:100EF00061727920706172616D65746572732E2004
:100F0000205461626C6520696E6465782069732085
:100F100065697468657220302C200A2020202031F9
:100F20002C206F7220322E202053796E7461783A13
:100F30002020742B3C74626C655F6964783E2B3CA6
:100F40006E657756616C7565313E2B3C6E657756E4
:100F5000616C7565323E2B3C6E657756616C7565CC
:100F60004E3E0A5A202D20446973706C61792063CB
:100F7000616C6962726174696F6E2076616C75650F
:100F8000730A54202D20446973706C617973203288
:100F9000353620746F6F7468206C6F6720656E74CF
:100FA0007269657320696E2062696E6172790A7276
:100FB000202D20446973706C61797320323536209E
:100FC000746F6F7468206C6F6720656E74726965EA
:100FD000730A55202D205072657061726520666F0E
:100FE00072206669726D77617265207570646174D4
:100FF000652E20546865206E65787420627974656A
:101000002072656365697665642077696C6C20631E
:1010100061757365207468652041726475696E6FCF
:1010200020746F2072657365742E0A3F202D204452
:101030006973706C61797320746869732068656C7A
:10104000702070616765002C2000575545004F32B5
:1010500000496E6C65742074656D7000436F6F6C31
:10106000616E7400526573657420636F6E74726F85
:101070006C2069732063757272656E746C7920647C
:10108000697361626C65642E00436F6D6D732068D7
:10109000616C7465642E204E657874206279746585
:1010A0002077696C6C2072657365742074686520A4
:1010B00041726475696E6F2E005370656564756961
:1010C0006E6F20323032332E3035007370656564B8
:1010D00075696E6F20323032333035004552523BE5
:1010E00020496E636F727265637420454550524F9C
:1010F0004D2073697A6500303032002000200020D6
:10110000002000202020200000008000200120017D
:10111000800020018000F0008001C000C00020019C
:10112000C000800020010001040E11161A1C212AA3
:101130002C2E30323436383A3C3E40424446484CFD
:101140004E505256585A5D5F63686F7953706565AB
:101150006475696E6F00537065656475696E6F20A4
:10116000323031392E30382D736572005370656519
:101170006475696E6F2063737830323031392E3880
:1011800000000020002300260029002C002F003240
:10119000000001000003010601090100000A0B0222
:1011A000090C0D0E080703040100000000000000F8
:1011B000000000000000000000000000000000002F
:1011C00000000000000000121110000000000000EC
:1011D000000000000000000000000000000000000F
:1011E0000000002200250028002B002E00310034D2
:1011F0000002010000050108010B0100002100248C
:101200000027002A002D00300033000101000004F7
:101210000107010A01050505050705080808080278
:101220000202020A0A08080404040401010101017F
:101230000101010303030303030303040707070C6E
:101240000C0C0C0C0C0C0C02020202060606060624
:101250000606060B0B0B0B0B0B0B0B0102102020D1
:1012600008081020401020408002010201080402FA
:101270000101020408102040808040201008040270
:1012800001800402018040201008040201080402C9
:1012900001010204081020408001020408102040CF
:1012A0008000000000963007772C610EEEBA5109DD
:1012B0009919C46D078FF46A7035A563E9A3956425
:1012C0009E3288DB0EA4B8DC791EE9D5E088D9D23D
:1012D000972B4CB609BD7CB17E072DB8E7911DBF99
:1012E000906410B71DF220B06A4871B9F3DE41BEB8
:1012F000847DD4DA1AEBE4DD6D51B5D4F4C785D31F
:101300008356986C13C0A86B647AF962FDECC965CA
:101310008A4F5C0114D96C0663633D0FFAF50D0822
:101320008DC8206E3B5E10694CE44160D5727167D8
:10133000A2D1E4033C47D4044BFD850DD26BB50A22
:10134000A5FAA8B5356C98B242D6C9BBDB40F9BC4A
:10135000ACE36CD832755CDF45CF0DD6DC593DD19E
:10136000ABAC30D9263A00DE518051D7C81661D0D7
:10137000BFB5F4B42123C4B3569995BACF0FA5BD18
:10138000B89EB802280888055FB2D90CC624E90BBC
:10139000B1877C6F2F114C6858AB1D61C13D2D6624
:1013A000B69041DC760671DB01BC20D2982A10D5BC
:1013B000EF8985B1711FB5B606A5E4BF9F33D4B8D8
:1013C000E8A2C9077834F9000F8EA8099618980E7C
:1013D000E1BB0D6A7F2D3D6D08976C6491015C63E4
:1013E000E6F4516B6B62616C1CD83065854E00620F
:1013F000F2ED95066C7BA5011BC1F4088257C40F62
:10140000F5C6D9B06550E9B712EAB8BE8B7C88B989
:10141000FCDF1DDD62492DDA15F37CD38C654CD4DD
:10142000FB5861B24DCE51B53A7400BCA3E230BB5B
:10143000D441A5DF4AD795D83D6DC4D1A4FBF4D6DD
:10144000D36AE96943FCD96E34468867ADD0B86089
:10145000DA732D0444E51D03335F4C0AAAC97C0DE1
:10146000DD3C710550AA41022710100BBE86200CEE
:10147000C925B56857B3856F2009D466B99FE46163
:10148000CE0EF9DE5E98C9D9292298D0B0B4A8D77B
:10149000C7173DB359810DB42E3B5CBDB7AD6CBAD7
:1014A000C02083B8EDB6B3BF9A0CE2B6039AD2B1AE
:1014B000743947D5EAAF77D29D1526DB048316DC55
:1014C00073120B63E3843B64943E6A6D0DA85A6A01
:1014D0007A0BCF0EE49DFF099327AE000AB19E0759
:1014E0007D44930FF0D2A3088768F2011EFEC20666
:1014F000695D5762F7CB67658071366C19E7066BDB
:101500006E761BD4FEE02BD3895A7ADA10CC4ADDF2
:10151000676FDFB9F9F9EFBE8E43BEB717D58EB04E
:1015200060E8A3D6D67E93D1A1C4C2D83852F2DFE8
:101530004FF167BBD16757BCA6DD06B53F4B36B24E
:1015400048DA2B0DD84C1B0AAFF64A0336607A04F2
:1015500041C3EF60DF55DF67A8EF8E6E3179BE695A
:10156000468CB361CB1A8366BCA0D26F2536E26885
:101570005295770CCC03470BBBB91602222F2605D8
:1015800055BE3BBAC5280BBDB2925AB42B046AB300
:101590005CA7FFD7C231CFD0B58B9ED92C1DAEDE54
:1015A0005BB0C2649B26F263EC9CA36A750A936DE0
:1015B00002A906099C3F360EEB8567077213570098
:1015C00005824ABF95147AB8E2AE2BB17B381BB6C0
:1015D0000C9B8ED2920DBED5E5B7EFDC7C21DFDB14
:1015E0000BD4D2D38642E2D4F1F8B3DD686E83DA4D
:1015F0001FCD16BE815B26B9F6E177B06F7747B78E
:1016000018E65A0888706A0FFFCA3B06665C0B0131
:1016100011FF9E658F69AE62F8D3FF6B6145CF6C99
:101620001678E20AA0EED20DD75483044EC2B3035B
:1016300039612667A7F71660D04D476949DB776E99
:101640003E4A6AD1AEDC5AD6D9660BDF40F03BD8B1
:101650003753AEBCA9C59EBBDE7FCFB247E9FFB50D
:10166000301CF2BDBD8AC2BACA3093B353A6A3B42C
:10167000240536D0BA9306D7CD2957DE54BF67D993
:10168000232E7A66B3B84A61C4021B685D942B6F3F
:101690002A37BE0BB4A18E0CC31BDF055A8DEF0297
:1016A0002D0000000041311B1982623632C3532DD8
:1016B0002B04C56C6445F4777D86A75A56C79641BE
:1016C0004F088AD9C849BBC2D18AE8EFFACBD9F40E
:1016D000E30C4FB5AC4D7EAEB58E2D839ECF1C98DE
:1016E000875112C24A1023D953D370F4789241EF34
:1016F0006155D7AE2E14E6B537D7B5981C968483BE
:101700000559981B8218A9009BDBFA2DB09ACB369D
:10171000A95D5D77E61C6C6CFFDF3F41D49E0E5ADD
:10172000CDA2248495E3159F8C2046B2A76177A9AA
:10173000BEA6E1E8F1E7D0F3E82483DEC365B2C5D5
:10174000DAAAAE5D5DEB9F464428CC6B6F69FD70F5
:1017500076AE6B3139EF5A2A202C09070B6D381CF5
:1017600012F33646DFB2075DC6715470ED30656B1B
:10177000F4F7F32ABBB6C231A275911C8934A007D5
:1017800090FBBC9F17BA8D840E79DEA92538EFB285
:101790003CFF79F373BE48E86A7D1BC5413C2ADEF5
:1017A00058054F79F0447E62E9872D4FC2C61C541C
:1017B000DB018A159440BB0E8D83E823A6C2D9387D
:1017C000BF0DC5A0384CF4BB218FA7960ACE968DCD
:1017D000130900CC5C4831D7458B62FA6ECA53E1DD
:1017E00077545DBBBA156CA0A3D63F8D88970E9633
:1017F000915098D7DE11A9CCC7D2FAE1EC93CBFA7D
:10180000F55CD762721DE6796BDEB554409F844F5C
:101810005958120E161923150FDA7038249B4123DC
:101820003DA76BFD65E65AE67C2509CB576438D0A9
:101830004EA3AE9101E29F8A1821CCA73360FDBC74
:101840002AAFE124ADEED03FB42D83129F6CB209D4
:1018500086AB2448C9EA1553D029467EFB687765D4
:10186000E2F6793F2FB7482436741B091D352A123A
:1018700004F2BC534BB38D485270DE657931EF7E74
:1018800060FEF3E6E7BFC2FDFE7C91D0D53DA0CB64
:10189000CCFA368A83BB07919A7854BCB13965A7D4
:1018A000A84B98833B0AA99822C9FAB50988CBAE00
:1018B000104F5DEF5F0E6CF446CD3FD96D8C0EC2BC
:1018C0007443125AF3022341EAC1706CC18041771C
:1018D000D847D7369706E62D8EC5B500A584841B5C
:1018E000BC1A8A41715BBB5A6898E87743D9D96CB6
:1018F0005A1E4F2D155F7E360C9C2D1B27DD1C00BC
:101900003E120098B9533183A09062AE8BD153B58B
:101910009216C5F4DD57F4EFC494A7C2EFD596D95B
:10192000F6E9BC07AEA88D1CB76BDE319C2AEF2A06
:1019300085ED796BCAAC4870D36F1B5DF82E2A46D3
:10194000E1E136DE66A007C57F6354E8542265F303
:101950004DE5F3B202A4C2A91B6791843026A09F73
:1019600029B8AEC5E4F99FDEFD3ACCF3D67BFDE89D
:10197000CFBC6BA980FD5AB2993E099FB27F3884D3
:10198000ABB0241C2CF115073532462A1E73773173
:1019900007B4E17048F5D06B513683467A77B25D73
:1019A000634ED7FACB0FE6E1D2CCB5CCF98D84D714
:1019B000E04A1296AF0B238DB6C870A09D8941BB3B
:1019C00084465D2303076C381AC43F1531850E0E1B
:1019D0002842984F6703A9547EC0FA795581CB629B
:1019E0004C1FC538815EF423989DA70EB3DC961575
:1019F000AA1B0054E55A314FFC996262D7D853793B
:101A0000CE174FE149567EFA50952DD77BD41CCC8A
:101A100062138A8D2D52BB963491E8BB1FD0D9A09A
:101A200006ECF37E5EADC265476E91486C2FA05305
:101A300075E836123AA90709236A5424082B653F32
:101A400011E479A796A548BC8F661B91A4272A8A22
:101A5000BDE0BCCBF2A18DD0EB62DEFDC023EFE692
:101A6000D9BDE1BC14FCD0A70D3F838A267EB2917C
:101A70003FB924D070F815CB693B46E6427A77FD32
:101A80005BB56B65DCF45A7EC5370953EE76384892
:101A9000F7B1AE09B8F09F12A133CC3F8A72FD2492
:101AA0009300000000376AC2016ED4840359BE4619
:101AB00002DCA80907EBC2CB06B27C8D0485164F69
:101AC00005B851130E8F3BD10FD685970DE1EF5519
:101AD0000C64F91A095393D8080A2D9E0A3D475CF5
:101AE0000B70A3261C47C9E41D1E77A21F291D6089
:101AF0001EAC0B2F1B9B61ED1AC2DFAB18F5B5694D
:101B000019C8F23512FF98F713A626B111914C733C
:101B100010145A3C152330FE147A8EB8164DE47A10
:101B200017E0464D38D72C8F398E92C93BB9F80B48
:101B30003A3CEE443F0B84863E523AC03C6550022C
:101B40003D58175E366F7D9C3736C3DA3501A918CC
:101B50003484BF5731B3D59530EA6BD332DD0111F0
:101B60003390E56B24A78FA925FE31EF27C95B2DA4
:101B7000264C4D62237B27A0222299E62015F324D0
:101B80002128B4782A1FDEBA2B4660FC29710A3E50
:101B900028F41C712DC376B32C9AC8F52EADA2374C
:101BA0002FC08D9A70F7E75871AE591E739933DCC8
:101BB000721C2593772B4F517672F11774459BD584
:101BC0007578DC897E4FB64B7F16080D7D2162CF7C
:101BD0007CA4748079931E4278CAA0047AFDCAC698
:101BE0007BB02EBC6C87447E6DDEFA386FE990FACC
:101BF0006E6C86B56B5BEC776A025231683538F3F0
:101C000069087FAF623F156D6366AB2B6151C1E917
:101C100060D4D7A665E3BD6464BA0322668D69E02B
:101C20006720CBD74817A115494E1F534B797591A3
:101C30004AFC63DE4FCB091C4E92B75A4CA5DD9887
:101C40004D989AC446AFF00647F64E4045C12482EF
:101C5000444432CD4173580F402AE649421D8C8BD3
:101C6000435068F154670233553EBC755709D6B7E7
:101C7000568CC0F853BBAA3A52E2147C50D57EBEB3
:101C800051E839E25ADF53205B86ED6659B187A4EB
:101C9000583491EB5D03FB295C5A456F5E6D2FADA7
:101CA0005F801B35E1B771F7E0EECFB1E2D9A573E4
:101CB000E35CB33CE66BD9FEE73267B8E5050D7A25
:101CC000E4384A26EF0F20E4EE569EA2EC61F46061
:101CD000EDE4E22FE8D388EDE98A36ABEBBD5C6931
:101CE000EAF0B813FDC7D2D1FC9E6C97FEA9065549
:101CF000FF2C101AFA1B7AD8FB42C49EF975AE5C11
:101D0000F848E900F37F83C2F2263D84F01157467C
:101D1000F1944109F4A32BCBF5FA958DF7CDFF4F44
:101D2000F6605D78D95737BAD80E89FCDA39E33EC8
:101D3000DBBCF571DE8B9FB3DFD221F5DDE54B37E0
:101D4000DCD80C6BD7EF66A9D6B6D8EFD481B22D0C
:101D5000D504A462D033CEA0D16A70E6D35D1A2434
:101D6000D210FE5EC527949CC47E2ADAC64940186C
:101D7000C7CC5657C2FB3C95C3A282D3C195E8118C
:101D8000C0A8AF4DCB9FC58FCAC67BC9C8F1110B88
:101D9000C9740744CC436D86CD1AD3C0CF2DB90288
:101DA000CE4096AF9177FC6D902E422B921928E988
:101DB000939C3EA696AB546497F2EA2295C580E0C8
:101DC00094F8C7BC9FCFAD7E9E9613389CA179FA3C
:101DD0009D246FB598130577994ABB319B7DD1F34C
:101DE0009A3035898D075F4B8C5EE10D8E698BCF04
:101DF0008FEC9D808ADBF7428B82490489B523C62C
:101E00008888649A83BF0E5882E6B01E80D1DADCDF
:101E10008154CC938463A651853A1817870D72D5E7
:101E200086A0D0E2A997BA20A8CE0466AAF96EA42B
:101E3000AB7C78EBAE4B1229AF12AC6FAD25C6ADC3
:101E4000AC1881F1A72FEB33A6765575A4413FB7A7
:101E5000A5C429F8A0F3433AA1AAFD7CA39D97BE8F
:101E6000A2D073C4B5E71906B4BEA740B689CD8227
:101E7000B70CDBCDB23BB10FB3620F49B155658BE7
:101E8000B06822D7BB5F4815BA06F653B8319C91AB
:101E9000B9B48ADEBC83E01CBDDA5E5ABFED34986B
:101EA000BE000000006567BCB88BC809AAEEAFB5DC
:101EB000125797628F32F0DE37DC5F6B25B938D767
:101EC0009DEF28B4C58A4F087D64E0BD6F0187018E
:101ED000D7B8BFD64ADDD86AF23377DFE056106351
:101EE000589F571950FA30A5E8149F10FA71F8ACB2
:101EF00042C8C07BDFADA7C76743087275266FCEA7
:101F0000CD707FAD951518112DFBB7A43F9ED0184D
:101F10008727E8CF1A428F73A2AC20C6B0C9477A90
:101F2000083EAF32A05BC88E18B5673B0AD0008769
:101F3000B26938502F0C5FEC97E2F059858797E52E
:101F40003DD1878665B4E03ADD5A4F8FCF3F2833C5
:101F5000778610E4EAE37758520DD8ED4068BF5118
:101F6000F8A1F82BF0C49F97482A30225A4F579E69
:101F7000E2F66F497F9308F5C77DA740D518C0FCEE
:101F80006D4ED09F352BB7238DC518969FA07F2A05
:101F9000271947FDBA7C204102928FF410F7E848D8
:101FA000A83D58149B583FA823B6901D31D3F7A1E4
:101FB000896ACF76140FA8CAACE1077FBE8460C3DC
:101FC00006D270A05EB7171CE659B8A9F43CDF151D
:101FD0004C85E7C2D1E0807E690E2FCB7B6B4877C2
:101FE000C3A20F0DCBC768B17329C704614CA0B859
:101FF000D9F5986F4490FFD3FC7E5066EE1B37DA1C
:10200000564D27B90E284005B6C6EFB0A4A3880CDC
:102010001C1AB0DB817FD767399178D22BF41F6E01
:102020009303F7263B66909A83883F2F91ED589350
:1020300029546044B43107F80CDFA84D1EBACFF123
:10204000A6ECDF92FE89B82E4667179B54027027D4
:10205000ECBB48F071DE2F4CC93080F9DB55E74509
:10206000639CA03F6BF9C783D3176836C1720F8A90
:1020700079CB375DE4AE50E15C40FF544E2598E8E3
:10208000F673888BAE16EF3716F84082049D273E14
:10209000BC241FE92141785599AFD7E08BCAB05CC9
:1020A000333BB659ED5ED1E555B07E5047D519ECBE
:1020B000FF6C213B62094687DAE7E932C8828E8EDF
:1020C00070D49EED28B1F951905F56E4823A3158B0
:1020D0003A83098FA7E66E331F08C1860D6DA63AB5
:1020E000B5A4E140BDC186FC052F2949174A4EF52C
:1020F000AFF376223296119E8A78BE2B981DD9971F
:10210000204BC9F4782EAE48C0C001FDD2A566416F
:102110006A1C5E96F779392A4F97969F5DF2F123F4
:10212000E505196B4D607ED7F58ED162E7EBB6DE23
:102130005F528E09C237E9B57AD9460068BC21BC26
:10214000D0EA31DF888F56633061F9D622049E6A67
:102150009ABDA6BD07D8C101BF366EB4AD530908FC
:10216000159A4E721DFF29CEA511867BB774E1C763
:102170000FCDD91092A8BEAC2A461119382376A5E6
:10218000807566C6D810017A60FEAECF729BC973A7
:10219000CA22F1A457479618EFA939ADFDCC5E11BC
:1021A0004506EE4D766389F1CE8D2644DCE841F894
:1021B0006451792FF9341E9341DAB12653BFD69A70
:1021C000EBE9C6F9B38CA1450B620EF01907694C17
:1021D000A1BE519B3CDB3627843599929650FE2E4A
:1021E0002E99B95426FCDEE89E12715D8C7716E1BB
:1021F00034CE2E36A9AB498A1145E63F03208183B0
:10220000BB7691E0E313F65C5BFD59E949983E55D6
:10221000F12106826C44613ED4AACE8BC6CFA93789
:102220007E38417FD65D26C36EB389767CD6EECAF2
:10223000C46FD61D590AB1A1E1E41E14F38179A837
:102240004BD769CB13B20E77AB5CA1C2B939C67E4E
:102250000180FEA99CE59915240B36A0366E511C11
:102260008EA7166686C271DA3E2CDE6F2C49B9D372
:1022700094F081040995E6B8B17B490DA31E2EB1F7
:102280001B483ED2432D596EFBC3F6DBE9A691678E
:10229000511FA9B0CC7ACE0C749461B966F10605D1
:1022A000DE00BE0211241FBECFEFD1E2DEBFCDBFE4
:1022B00000E00CBF12E0A0E0B2E0E4E9F1E703E0E7
:1022C0000BBF02C007900D92AE37B107D9F720E2DD
:1022D000AEE7B2E001C01D92AE32B207E1F711E104
:1022E000C2E5D1E100E006C021970109802FFE017F
:1022F0000F9423B7C135D10780E00807A9F70F94E1
:10230000A9790D94C8B80C9400008091A40A90910A
:10231000A50A20912D1D30912E1DAC01445051096C
:102320002417350714F080539D4F821B930B97FDA4
:102330000196959587950497909331068093300682
:10234000A091710AB091720ABD01645071092617FB
:10235000370714F0A053BD4FA21BB30BB7FD119666
:10236000B595A7951497B0932F06A0932E06E091EC
:102370006F0AF091700ACF0104972817390714F0FB
:10238000E053FD4FE21BF30BF7FD3196F595E79512
:102390003497F0932D06E0932C06A0916B0AB09130
:1023A0006C0AAD01445051092417350714F0A053AD
:1023B000BD4FA21BB30BB7FD1196B595A79514970A
:1023C000B0932B06A0932A0608958F929F92AF9206
:1023D000BF92CF92DF92EF92FF920F931F93CF9312
:1023E000DF93F894C090700BD090710BE090720B5B
:1023F000F090730B80906C0B90906D0BA0906E0B17
:10240000B0906F0BC0915807D09159070F9439794C
:1024100060930C0670930D0680930E0690930F0642
:102420007894CE010197880F991F20912D1D30912E
:102430002E1D820F931FA6010D2C000C660B770B2F
:1024400000910C0610910D0620910E0630910F069A
:10245000041B150B260B370BA6014819590957FF0A
:1024600002C04F5F5F4F55954795052E000C660BD8
:10247000770B401751076207730708F40196803DF8
:1024800022E0920714F0805D9240809005029090C7
:1024900006028816990614F48819990997FF02C054
:1024A00088599E4FDF91CF911F910F91FF90EF9030
:1024B000DF90CF90BF90AF909F908F900895CF9274
:1024C000DF92EF92FF928091A61E882309F474C0D8
:1024D000C090700BD090710BE090720BF090730B6A
:1024E000CD28CE28CF2809F467C020916C0B3091FD
:1024F0006D0B40916E0B50916F0B232B242B252BD2
:1025000009F45AC04091181F5091191F60911A1F69
:1025100070911B1F423051056105710508F453C0CD
:10252000F8948091940790919507A0919607B091A7
:102530009707C0905407D0905507E0905607F09049
:1025400057078C199D09AE09BF09B695A7959795B0
:1025500087958093750B9093760BA093770BB09330
:10256000780B7894C090750BD090760BE090770B39
:10257000F090780B60E077E883E993E0A70196019B
:102580000F9494B6C901803526E4920720F080911B
:10259000A71E9091A81ECC0CDD1CEE1CFF1CC09247
:1025A0001C02D0921D02E0921E02F0921F02FF90C8
:1025B000EF90DF90CF90089590E080E0FF90EF9053
:1025C000DF90CF900895F8942091700B3091710BAB
:1025D0004091720B5091730B60916C0B70916D0B6D
:1025E00080916E0B90916F0B261B370B480B590B8C
:1025F000A4EBB0E00F94E5B66093750B7093760B87
:102600008093770B9093780B7894ACCF0F943979B3
:1026100060932406709325068093260690932706E0
:102620008091240690912506A0912606B091270658
:1026300040912D0B50912E0B60912F0B7091300B10
:10264000841B950BA60BB70B809320069093210655
:10265000A0932206B09323062091240630912506EC
:10266000409126065091270620932D0B30932E0B78
:1026700040932F0B5093300B6091331D562F5170A8
:10268000A0912A0BB0912B0BAB2B39F1E0914607AF
:10269000F0914707908130914507932371E031F124
:1026A0007517D9F0209158073091590740912A0B9E
:1026B00050912B0B241BB091A61EB1111BC0409151
:1026C000910D407F403439F1403609F448C040381C
:1026D00009F452C01092A61E0895E0915807F09197
:1026E0005907F0932B0BE0932A0B089570E07513B4
:1026F000D9CFF3CF67FF0895F091910DF07FF034BB
:10270000D1F72F502330B8F780E190E0909359072C
:10271000809358070895E1EFE20FE330B0F095EFB2
:10272000920F9330B8F139EF320F3330E8F1235084
:10273000233008F043C082E191E0909359078093E1
:102740005807B1E0B093A61E0895A0E1B0E0B093A1
:102750005907A093580751E05093A61E089523509F
:10276000233048F6ACE7B0E0B0935907A093580780
:1027700051E05093A61E08952650233008F0BBCF99
:1027800028E330E0309359072093580761E06093C5
:10279000A61E089526E630E0309359072093580787
:1027A00061E06093A61E08954CEB50E050935907EA
:1027B00040935807F1E0F093A61E08951092A61ECC
:1027C0007091551F7F5F7093551F08950895089568
:1027D00008950F94397960932406709325068093A9
:1027E0002606909327068091200690912106A091BD
:1027F0002206B09123068093040690930506A093C9
:102800000606B09307068091240690912506A091B4
:102810002606B091270640912D0B50912E0B60910A
:102820002F0B7091300B841B950BA60BB70B80936D
:10283000200690932106A0932206B09323062091B0
:1028400024063091250640912606509127062093B4
:102850002D0B30932E0B40932F0B5093300B309158
:10286000A61E31114CC060912A0B70912B0B623067
:10287000710509F445C08CED95E0A0E0B0E08093CF
:10288000600790936107A0936207B093630740913C
:10289000040650910506609106067091070676952C
:1028A000679557954795409310065093110660938E
:1028B0001206709313062091200630912106409154
:1028C00022065091230660911006709111068091A6
:1028D000120690911306261737074807590730F458
:1028E000A2E0B0E0B0932B0BA0932A0BE0912A0B4F
:1028F000F0912B0B3196F0932B0BE0932A0B08955C
:1029000081E090E090935907809358078093A61E2A
:10291000EDCF9091DD1E8091391D8C718C3071F15D
:102920009A30BCF41916A4F421E030E0309331065B
:102930002093300643E050E050932F0640932E063C
:1029400030932D0620932C0650932B0640932A0695
:10295000089564E070E07093310660933006A2E061
:10296000B0E0B0932F06A0932E0670932D066093CF
:102970002C06B0932B06A0932A0608959A30DCF417
:10298000191634F7E1E0F0E0F0933106E0933006F9
:1029900083E090E090932F0680932E0625E030E0B0
:1029A00030932D0620932C0647E050E050932B06E1
:1029B00040932A06089568E070E0709331066093B2
:1029C0003006A2E0B0E0B0932F06A0932E06E4E01C
:1029D000F0E0F0932D06E0932C0686E090E09093D3
:1029E0002B0680932A0608958F929F92AF92BF92F2
:1029F000CF92DF92EF92FF92CF93DF932091A71EA9
:102A00003091A81E8091441F9091451F28173907C7
:102A100008F037C1A090A61EAA2009F48EC0A0908D
:102A2000700BB090710BC090720BD090730BAB28F1
:102A3000AC28AD2809F4F0C0C0906C0BD0906D0BA1
:102A4000E0906E0BF0906F0BCD28CE28CF2809F4C4
:102A5000E3C0F89480906A0B90906B0B8091700BA0
:102A60009091710BA091720BB091730B40916C0B14
:102A700050916D0B60916E0B70916F0B841B950BD9
:102A8000A60BB70B78946C017D01CC0CDD1CEE1C01
:102A9000FF1CCC0CDD1CEE1CFF1CCC0CDD1CEE1C4A
:102AA000FF1C8C0D9D1DAE1DBF1D6C017D01CC0C4E
:102AB000DD1CEE1CFF1CCC0CDD1CEE1CFF1C092CCD
:102AC000000CAA08BB08A501940160E87DE88BE52D
:102AD00090E00F9407B7A70196010F9494B6E9010F
:102AE000D701C601880F991FAA1FBB1F880F991F06
:102AF000AA1FBB1FC80ED91EEA1EFB1EC701B601C6
:102B0000660F771F881F991FA50194010F9494B633
:102B10002093750B3093760B4093770B5093780B83
:102B20008BE498E9A5E0B0E080931C0290931D022D
:102B3000A0931E02B0931F0271C0B090A61EBB20CE
:102B400009F478C04091181F5091191F60911A1F05
:102B500070911B1F452B462B472B09F46FC06091CA
:102B60009407709195078091960790919707672B2E
:102B7000682B692B09F462C02091540730915507E6
:102B80004091560750915707232B242B252B09F4EE
:102B900055C0F8948091940790919507A09196075D
:102BA000B09197078090540790905507A0905607D2
:102BB000B090570788199909AA09BB098093750B2A
:102BC0009093760BA093770BB093780B7894C0908A
:102BD000750BD090760BE090770BF090780BF69415
:102BE000E794D794C794C092750BD092760BE0927D
:102BF000770BF092780B60E077E883E993E0A70128
:102C000096010F9494B6E9012035364408F1C0913D
:102C1000A71ED091A81E1CC0D0E0C0E0CE01DF915D
:102C2000CF91FF90EF90DF90CF90BF90AF909F90AB
:102C30008F900895C090461FC4FC84CFC090750B40
:102C4000D090760BE090770BF090780BD0E0C0E05E
:102C5000CC0CDD1CEE1CFF1C8BE4C81688E9D806E2
:102C600085E0E806F104B0F44BE458E965E070E073
:102C700040931C0250931D0260931E0270931F022A
:102C8000CDCF8090A61E81106ACF9090461F94FCF5
:102C900066CFD4CFC0921C02D0921D02E0921E02D9
:102CA000F0921F02BBCF0F94397960932406709382
:102CB00025068093260690932706809124069091FE
:102CC0002506A0912606B091270640912D0B509124
:102CD0002E0B60912F0B7091300B841B950BA60B64
:102CE000B70B8093200690932106A0932206B09301
:102CF00023062091FA1E21FD4AC03091A61E3323DF
:102D000009F445C0409120065091210660912206A9
:102D10007091230680915C0790915D07A0915E07FA
:102D2000B0915F07481759076A077B0778F1209130
:102D300024063091250640912606509127062093BF
:102D40002D0B30932E0B40932F0B5093300B609133
:102D500020067091210680912206909123066093AF
:102D60000406709305068093060690930706A091CB
:102D70002A0BB0912B0B1196B0932B0BA0932A0B1F
:102D8000E0915807F0915907319771F008956CED73
:102D900075E080E090E06093600770936107809336
:102DA000620790936307AECF4091240650912506A9
:102DB00060912606709127068091700B9091710B9F
:102DC000A091720BB091730B84179507A607B707F4
:102DD000E8F68091240690912506A0912606B091F0
:102DE00027062091700B3091710B4091720B50911E
:102DF000730B821B930BA40BB50B8093E905909387
:102E0000EA05A093EB05B093EC0508950895809131
:102E1000A61E811104C02091461F24FF67C0409167
:102E2000A71E5091A81E6091441F7091451F461720
:102E3000570768F48091181F9091191FA0911A1FCD
:102E4000B0911B1F892B8A2B8B2B09F44FC020912B
:102E50009407309195074091960750919707232B3F
:102E6000242B252B09F442C040915407509155075B
:102E70006091560770915707452B462B472BB1F1B0
:102E8000F8948091940790919507A0919607B0913E
:102E9000970720915407309155074091560750915C
:102EA0005707821B930BA40BB50B8093750B909364
:102EB000760BA093770BB093780B78942091750BD9
:102EC0003091760B4091770B5091780B60E077E86A
:102ED00083E993E00F9494B6C901803526E4920704
:102EE00038F08091A71E9091A81E089590E080E090
:102EF0000895089580911C0690911D06A0911E06CC
:102F0000B0911F068093040690930506A0930606D1
:102F1000B09307060F9439796093140670931506E1
:102F200080931606909317068091140690911506CB
:102F3000A0911606B09117064091700B5091710B3D
:102F40006091720B7091730B841B950BA60BB70BE2
:102F500080931C0690931D06A0931E06B0931F0637
:102F6000A0915807B09159071196B0935907A093B3
:102F700058072091740B20622093740B60915807BE
:102F8000709159076D30710509F459C0E0915807E7
:102F9000F0915907319709F45CC080910406909133
:102FA0000506A0910606B0910706B695A7959795D8
:102FB00087958093100690931106A0931206B09304
:102FC000130640911C0650911D0660911E067091DB
:102FD0001F068091100690911106A0911206B091E3
:102FE0001306481759076A077B0708F12091700BF1
:102FF0003091710B4091720B5091730B20936C0BBD
:1030000030936D0B40936E0B50936F0B60911406D1
:103010007091150680911606909117066093700BBB
:103020007093710B8093720B9093730B08951092B1
:1030300059071092580771E07093A61E08953091B9
:10304000A61E332309F4A2CF1092590710925807F5
:1030500008955091A61E552309F49FCF40919407DF
:103060005091950760919607709197074093540788
:103070005093550760935607709357078091140635
:1030800090911506A0911606B091170680939407AB
:1030900090939507A0939607B09397072091181FD8
:1030A0003091191F40911A1F50911B1F2F5F3F4FE6
:1030B0004F4F5F4F2093181F3093191F40931A1FD3
:1030C00050931B1F6091700B7091710B8091720B6C
:1030D0009091730B60936C0B70936D0B80936E0BE0
:1030E00090936F0B4091140650911506609116064F
:1030F000709117064093700B5093710B6093720B95
:103100007093730B089508958091A61E811104C0D9
:103110002091461F24FF67C04091A71E5091A81E12
:103120006091441F7091451F4617570768F48091BE
:10313000181F9091191FA0911A1FB0911B1F892B66
:103140008A2B8B2B09F44FC020919407309195075F
:103150004091960750919707232B242B252B09F498
:1031600042C04091540750915507609156077091A5
:103170005707452B462B472BB1F1F89480919407C4
:1031800090919507A0919607B091970720915407C9
:10319000309155074091560750915707821B930B6A
:1031A000A40BB50B8093750B9093760BA093770BC4
:1031B000B093780B78942091750B3091760B4091F9
:1031C000770B5091780B60E077E883E993E00F94F8
:1031D00094B6C901803526E4920738F08091A71E85
:1031E0009091A81E089590E080E008958091A61E19
:1031F000882301F12091331D27FD2AC04091181F1B
:103200005091191F60911A1F70911B1F4436510570
:103210006105710558F460915807709159076D3236
:10322000710521F0109259071092580791E0909380
:1032300053070895109259071092580751E0509380
:10324000A61E73E070932C0B91E0909353070895A2
:10325000109259071092580733E030932C0B91E0ED
:103260009093530708950F943979609314067093DF
:103270001506809316069093170680911406909178
:103280001506A0911606B091170640914005509181
:1032900041056091420570914305841B950BA60B77
:1032A000B70B80931C0690931D06A0931E06B09347
:1032B0001F0620911C0630911D0640911E0650915C
:1032C0001F0660916007709161078091620790917D
:1032D0006307621773078407950768F08091181FCA
:1032E0009091191FA0911A1FB0911B1F892B8A2B37
:1032F0008B2B09F0B8C030912C0B3F5F30932C0B17
:103300005091A61E552309F49EC070912C0B73306A
:1033100008F4A9C09091740B90629093740B409143
:103320001406509115066091160670911706409389
:1033300040055093410560934205709343051092F8
:103340002C0BA0915807B09159071196B0935907CB
:10335000A0935807E0915807F0915907319741F031
:1033600020915807309159072E32310508F440C09A
:1033700061E070E07093590760935807809194075B
:1033800090919507A0919607B09197078093540765
:1033900090935507A0935607B09357074091140692
:1033A0005091150660911606709117064093940788
:1033B000509395076093960770939707B0915307C2
:1033C000F1E0BF27B09353072091181F3091191FC8
:1033D00040911A1F50911B1F2F5F3F4F4F4F5F4F60
:1033E0002093181F3093191F40931A1F50931B1FCF
:1033F00040911C0650911D0660911E0670911F069B
:103400003091391D307639F03032D1F1303409F451
:1034100048C0303649F1109260071092610710924F
:103420006207109263076091700B7091710B80912D
:10343000720B9091730B60936C0B70936D0B809378
:103440006E0B90936F0B8091140690911506A091CE
:103450001606B09117068093700B9093710BA09392
:10346000720BB093730B0895DB01CA01880F991F8B
:10347000AA1FBB1F840F951FA61FB71FAC01BD015C
:10348000769567955795479576956795579547959E
:1034900040936007509361076093620770936307DE
:1034A000C2CF76956795579547954093600750939F
:1034B00061076093620770936307B5CF08958091A9
:1034C000A61E811104C02091461F24FF67C04091B1
:1034D000A71E5091A81E6091441F7091451F46176A
:1034E000570768F48091181F9091191FA0911A1F17
:1034F000B0911B1F892B8A2B8B2B09F44FC0209175
:103500009407309195074091960750919707232B88
:10351000242B252B09F442C04091540750915507A4
:103520006091560770915707452B462B472BB1F1F9
:10353000F8948091940790919507A0919607B09187
:1035400097072091540730915507409156075091A5
:103550005707821B930BA40BB50B8093750B9093AD
:10356000760BA093770BB093780B78942091750B22
:103570003091760B4091770B5091780B60E077E8B3
:1035800083E993E00F9494B6C901803526E492074D
:1035900038F08091A71E9091A81E089590E080E0D9
:1035A000089510925907109258070895809158076E
:1035B000909159070D9709F4A9C00F943979609338
:1035C0001406709315068093160690931706809143
:1035D000140690911506A0911606B0911706409119
:1035E000700B5091710B6091720B7091730B841B77
:1035F000950BA60BB70B80931C0690931D06A0930A
:103600001E06B0931F0620911C0630911D064091A6
:103610001E0650911F0660916007709161078091AE
:10362000620790916307261737074807590708F480
:103630006CC0A0915807B0915907AB2B09F469C031
:10364000E0915807F09159073196F0935907E093AC
:103650005807A0915807B0915907E0915807F09189
:103660005907AA0FBB1FAE59B84FEE0FFF1FE05A04
:10367000F84F8D919C9140815181841B950B9093C3
:103680006B0B80936A0B40911C0650911D06609154
:103690001E0670911F069091391D907649F0903268
:1036A00009F487C0903409F495C0903609F475C0C8
:1036B00010926007109261071092620710926307E0
:1036C0005091740B50625093740B2091700B309199
:1036D000710B4091720B5091730B20936C0B3093D4
:1036E0006D0B40936E0B50936F0B609114067091AD
:1036F000150680911606909117066093700B7093D3
:10370000710B8093720B9093730B08951092A61E09
:10371000089521E030E030935907209358076091D5
:103720009407709195078091960790919707609301
:1037300054077093550780935607909357078091CD
:10374000140690911506A0911606B0911706809365
:10375000940790939507A0939607B093970731E04D
:103760003093A61E4091181F5091191F60911A1F87
:1037700070911B1F4F5F5F4F6F4F7F4F4093181F1C
:103780005093191F60931A1F70931B1FACE3B0E096
:10379000B0936B0BA0936A0B76CFDB01CA01880F45
:1037A000991FAA1FBB1F840F951FA61FB71FAC012F
:1037B000BD01769567955795479576956795579589
:1037C0004795409360075093610760936207709339
:1037D000630776CF76956795579547954093600731
:1037E00050936107609362077093630769CF80917C
:1037F000A61E811104C02091461F24FF67C040917E
:10380000A71E5091A81E6091441F7091451F461736
:10381000570768F48091181F9091191FA0911A1FE3
:10382000B0911B1F892B8A2B8B2B09F44FC0209141
:103830009407309195074091960750919707232B55
:10384000242B252B09F442C0409154075091550771
:103850006091560770915707452B462B472BB1F1C6
:10386000F8948091940790919507A0919607B09154
:103870009707209154073091550740915607509172
:103880005707821B930BA40BB50B8093750B90937A
:10389000760BA093770BB093780B78942091750BEF
:1038A0003091760B4091770B5091780B60E077E880
:1038B00083E993E00F9494B6C901803526E492071A
:1038C00038F08091A71E9091A81E089590E080E0A6
:1038D0000895109259071092580781E0809353077A
:1038E00008958091580790915907499709F4AEC0FF
:1038F0000F94397960931406709315068093160619
:10390000909317068091140690911506A0911606C3
:10391000B09117064091700B5091710B6091720B32
:103920007091730B841B950BA60BB70B80931C0631
:1039300090931D06A0931E06B0931F06A0915807F2
:10394000B0915907AB2BC9F1E0915807F091590795
:103950003196F0935907E0935807A0915807B0911A
:103960005907E0915807F0915907AA0FBB1FAE59AC
:10397000B84FEE0FFF1FE05AF84F6D917C912081F8
:103980003181621B730B70936B0B60936A0B5091C8
:10399000740B50625093740B80911406909115062D
:1039A000A0911606B09117068093700B9093710B3F
:1039B000A093720BB093730B089581E090E0909305
:1039C000590780935807409194075091950760914B
:1039D000960770919707409354075093550760934B
:1039E00056077093570760911406709115068091E1
:1039F000160690911706609394077093950780932D
:103A00009607909397073091530791E039273093A9
:103A100053079093A61E2091181F3091191F4091B3
:103A20001A1F50911B1F2F5F3F4F4F4F5F4F209327
:103A3000181F3093191F40931A1F50931B1FAFE09C
:103A4000B0E0B0936B0BA0936A0BA1CF1092A61EAF
:103A500008958091910D807F8034F1F08036D9F403
:103A60002091391D2C712C3089F146E050E05093A3
:103A700031064093300662E070E070932F06609349
:103A80002E06A4E0B0E0B0932D06A0932C06709310
:103A90002B0660932A0608953091391D3C713C3005
:103AA000A9F0E4E0F0E0F0933106E093300682E024
:103AB00090E090932F0680932E06F0932D06E093CE
:103AC0002C0690932B0680932A06089528E030E078
:103AD000309331062093300642E050E050932F0699
:103AE00040932E0664E070E070932D0660932C06E0
:103AF000A6E0B0E0B0932B06A0932A06089580912B
:103B0000A61E0F943979609324067093250680933E
:103B10002606909327068091240690912506A09171
:103B20002606B091270640912D0B50912E0B6091E7
:103B30002F0B7091300B841B950BA60BB70B80934A
:103B4000200690932106A0932206B093230620918D
:103B50002006309121064091220650912306609163
:103B60005C0770915D0780915E0790915F07261753
:103B700037074807590708F473C0809124069091CD
:103B80002506A0912606B091270680932D0B9093D1
:103B90002E0BA0932F0BB093300B3091740B30622F
:103BA0003093740B409120065091210660912206BB
:103BB00070912306769567955795479540935C07D6
:103BC00050935D0760935E0770935F075091A61E48
:103BD000511132C02CED35E040E050E020936007F9
:103BE00030936107409362075093630760915C07CD
:103BF00070915D0780915E0790915F07969587951C
:103C00007795679560935C0770935D0780935E0777
:103C100090935F07E0914907F0914A079081709176
:103C20004807A091910DA07F972301F1A03409F4DA
:103C300054C0A03609F448C06091A71E7091A81E18
:103C4000E091441FF091451F6E177F0750F43091AB
:103C5000A61E332329F05091910D507F503491F0DE
:103C60000895F091331DF7FDF2CF0895A03421F7A8
:103C700080915807909159070597F1F6B1E0B093FC
:103C8000A61EDACF0F94397980913C0590913D05BD
:103C9000A0913E05B0913F05E0914907F0914A0798
:103CA0007081909148077923D9F2A0915807B0917B
:103CB0005907A830B105D1F01092A61E8091551F6A
:103CC0008F5F8093551F0895409158075091590771
:103CD0004730510509F0B0CFD1CF2091580730912E
:103CE00059072830310509F0A7CFC8CFB09359073D
:103CF000A093580708958091DD1E82319CF026E044
:103D000030E0309331062093300641E050E050938C
:103D10002F0640932E0664E070E070932D066093AA
:103D20002C060895A7E0B0E0B0933106A0933006CA
:103D3000E2E0F0E0F0932F06E0932E0685E090E0BD
:103D400090932D0680932C0608958091A61E8111D4
:103D500004C02091461F24FF67C04091A71E5091C8
:103D6000A81E6091441F7091451F4617570768F4BD
:103D70008091181F9091191FA0911A1FB0911B1FBD
:103D8000892B8A2B8B2B09F44FC0209194073091FB
:103D900095074091960750919707232B242B252BAD
:103DA00009F442C04091540750915507609156075D
:103DB00070915707452B462B472BB1F1F894809112
:103DC000940790919507A0919607B091970720913D
:103DD0005407309155074091560750915707821B61
:103DE000930BA40BB50B8093750B9093760BA0935C
:103DF000770BB093780B78942091750B3091760BFC
:103E00004091770B5091780B60E077E883E993E07D
:103E10000F9494B6C901803526E4920738F080915A
:103E2000A71E9091A81E089590E080E008958091CB
:103E3000A40A9091A50A20912D1D30912E1D821B60
:103E4000930B409117025091180284179507F4F1D3
:103E5000841B950B3091910D32953F70343009F4ED
:103E60003FC0353008F44DC0363009F44CC038300E
:103E700009F0A2C0BC016B5571096A35710508F4DF
:103E80006FC0DC01A55BB109AA35B10508F4A8C073
:103E900001978E30914008F0BCC0E1E0F0E0F09373
:103EA0003106E093300682E090E090932F068093F5
:103EB0002E0623E030E030932D0620932C0644E0BC
:103EC00050E050932B0640932A06089597FFC2CFE7
:103ED000840F951F3091910D32953F70343009F663
:103EE0000197843B910578F162E070E070933106B0
:103EF00060933006A1E0B0E0B0932F06A0932E06A9
:103F000008953330F9F4BC016957710968377105B8
:103F100008F43FC00197803F910508F44EC023E0AC
:103F200030E0309331062093300641E050E050936A
:103F30002F0640932E0662E070E070932D0660938A
:103F40002C060895089521E030E030933106209347
:103F5000300642E050E050932F0640932E0608951D
:103F6000E2E0F0E0F0933106E093300683E090E089
:103F700090932F0680932E0624E030E030932D0698
:103F800020932C0641E050E050932B0640932A06E4
:103F90000895A2E0B0E0B0933106A0933006E3E0CC
:103FA000F0E0F0932F06E0932E0681E090E09093EE
:103FB0002D0680932C0608950895A1E0B0E0B093FB
:103FC0003106A0933006E2E0F0E0F0932F06E09394
:103FD0002E0683E090E090932D0680932C060895A2
:103FE00023E030E0309331062093300644E050E087
:103FF00050932F0640932E0661E070E070932D06DB
:1040000060932C06A2E0B0E0B0932B06A0932A06A2
:10401000089564E070E07093310660933006A1E08B
:10402000B0E0B0932F06A0932E06E2E0F0E0F0930C
:104030002D06E0932C0683E090E090932B0680936E
:104040002A06089520913C1D30E08091391D8C7125
:104050008C3009F479C0E0912D1DF0912E1D6091F6
:104060006A0B70916B0B8091A40A9091A50A8E1B2C
:104070009F0B0F944DB6261737070CF047C0621BF5
:10408000730B709331066093300660916A0B7091E8
:104090006B0B8091710A9091720A8E1B9F0B0F948B
:1040A0004DB6261737070CF048C0621B730B709390
:1040B0002F0660932E0660916A0B70916B0B8091B6
:1040C0006F0A9091700A8E1B9F0B0F944DB62617A6
:1040D00037076CF5621B730B70932D0660932C06EB
:1040E00060916A0B70916B0B80916B0A90916C0AD6
:1040F0008E1B9F0B0F944DB62617370774F4621B67
:10410000730B70932B0660932A06089516161706F4
:104110000CF4B7CF620F731FB4CF161617068CF3CB
:10412000620F731F70932B0660932A06089516166C
:10413000170694F2620F731FCFCF161617060CF4F2
:10414000B6CF620F731FB3CF4091321D41FD83CFB5
:10415000220F331F80CFCF92DF92EF92FF92CF9347
:10416000DF930F943979609324067093250680932A
:104170002606909327068091240690912506A0910B
:104180002606B091270640912D0B50912E0B609181
:104190002F0B7091300B841B950BA60BB70B8093E4
:1041A000200690932106A0932206B0932306C09088
:1041B0002006D0902106E0902206F0902306209160
:1041C0005C0730915D0740915E0750915F07C21612
:1041D000D306E406F50608F465C0809124069091A4
:1041E0002506A0912606B091270680932D0B90936B
:1041F0002E0BA0932F0BB093300B409120065091C3
:104200002106609122067091230676956795579551
:104210004795769567955795479540935C075093DA
:104220005D0760935E0770935F07D090A61EDD2048
:1042300009F453C0C090181FD090191FE0901A1FA6
:10424000F0901B1F8091381D90E0B0E0A0E08C152D
:104250009D05AE05BF0508F040C080913C1D90E073
:10426000E0905807F09059078E159F0591F0209126
:10427000181F3091191F40911A1F50911B1F233096
:1042800031054105510528F03091551F3F5F3093AE
:10429000551FF090331DF7FE56C090935907809339
:1042A000580751C06091750B7091760B8091770B18
:1042B0009091780B969587957795679560935C07B5
:1042C00070935D0780935E0790935F07DF91CF91B6
:1042D000FF90EF90DF90CF9008950F94397960931D
:1042E000700B7093710B8093720B9093730B0F9400
:1042F00039796B017C01C0913C1D2C2F30E050E0DE
:1043000040E060E87DE88BE590E00F9461B6C21A6A
:10431000D30AE40AF50AC0926C0BD0926D0BE092BE
:104320006E0BF0926F0BD0E0D0935907C0935807F3
:104330001092600710926107109262071092630753
:1043400051E05093A61E71E070935307DF91CF9117
:10435000FF90EF90DF90CF900895EF92FF920F9330
:104360001F93CF93DF9300913C1D10E08091391D86
:104370008C718C3009F4CAC0F80130E020E0E09084
:104380002D1DF0902E1D60916A0B70916B0B80912A
:10439000A40A9091A50A8E199F090F944DB66150F9
:1043A0007109E617F7070CF0A2C06E1B7F0BC091D6
:1043B0005A07D0915B07C617D70720F406171707CF
:1043C0000CF0A2C02C0F3D1F922F432F62177307D2
:1043D00010F4962F472F909330064093310660914A
:1043E0006A0B70916B0B8091710A9091720A8E1911
:1043F0009F090F944DB661507109E617F7070CF04D
:104400006FC06E1B7F0BC617D70720F40617170760
:104410000CF078C0522FA32F6217730710F4562F99
:10442000A72F50932E06A0932F0660916A0B7091D0
:104430006B0B80916F0A9091700A8E199F090F94EF
:104440004DB661507109E617F7070CF042C06E1BBC
:104450007F0BC617D70720F4061717070CF050C0BC
:10446000B22F832F6217730710F4B62F872FB093E4
:104470002C0680932D0660916A0B70916B0B8091D6
:104480006B0A90916C0A8E199F090F944DB661507A
:104490007109E617F707BCF46E1B7F0BC617D70729
:1044A00018F40617170754F52617370708F09B016D
:1044B00030932B0620932A06DF91CF911F910F9105
:1044C000FF90EF9008951616170644F36E0F7F1FA6
:1044D000E5CF161617060CF4BCCF6E0F7F1FB9CFB1
:1044E000161617060CF48FCF6E0F7F1F8CCF161683
:1044F00017060CF45CCF6E0F7F1F59CFBE01D4CFCF
:10450000BE01AECFBE0186CFBE015CCFE090321DB2
:10451000E1FC32CF9801F801EE0FFF1F30CFCF92B0
:10452000DF92EF92FF920F94397960933805709380
:10453000390580933A0590933B0580913805909119
:104540003905A0913A05B0913B0540913405509151
:1045500035056091360570913705841B950BA60BC8
:10456000B70B8093300590933105A0933205B0933B
:104570003305C0903405D0903505E0903605F090B5
:104580003705CD28CE28CF28C1F4109230051092DF
:104590003105109232051092330520913805309183
:1045A000390540913A0550913B05209334053093ED
:1045B00035054093360550933705409130055091AD
:1045C0003105609132057091330580912C059091F1
:1045D0002D05A0912E05B0912F05481759076A07A0
:1045E0007B0708F4AFC0A0914B07B0914C07119620
:1045F000B0934C07A0934B07609130057091310543
:1046000080913205909133059695879577956795BA
:1046100060932C0570932D0580932E0590932F05A4
:10462000E091BC0AF091BD0A1995AC01893621E0F0
:1046300092070CF443C09C0129563140A3E8BDE227
:104640000F94F8B60024880F991F001C880F991F3B
:10465000001C892F902D8770992748565140493664
:1046600021E052075CF1009719F181309105D1F0FA
:1046700082309105A9F08330910581F08430910555
:1046800059F08530910531F0069711F048565140A8
:10469000485651404856514048565140485651405E
:1046A0004856514048565140493621E0520734F0AF
:1046B00040545B40493681E05807D4F7E0902D1D07
:1046C000F0902E1D4E195F093091AB1F33703230C0
:1046D00031F4C090A61DD090A71D4C195D09E09142
:1046E000A91D9A01220F331FF0E0A0E0B1E0AE1B3C
:1046F000BF0B0F9432B76B017C01A0916E1FB0917C
:104700006F1F9F010F943AB7C60ED71EE81EF91E01
:10471000CD2CDE2CEF2CFF24E7FCFA94D0926F1FF7
:10472000C0926E1F209138053091390540913A05AD
:1047300050913B0520933405309335054093360561
:1047400050933705FF90EF90DF90CF900895CF9270
:10475000DF92EF92FF920F94397960932406709361
:104760002506809326069093270680912406909133
:104770002506A0912606B091270640912D0B509159
:104780002E0B60912F0B7091300B841B950BA60B99
:10479000B70B8093200690932106A0932206B09336
:1047A0002306C0902D0BD0902E0BE0902F0BF09095
:1047B000300BCD28CE28CF28C1F4109220061092BD
:1047C0002106109222061092230620912406309191
:1047D0002506409126065091270620932D0B3093F5
:1047E0002E0B40932F0B5093300B4091200650918D
:1047F0002106609122067091230680915C079091BA
:104800005D07A0915E07B0915F07481759076A07D7
:104810007B07C0F13091351D3F77313009F4C1C0BD
:10482000311120C051E050935307609120067091E0
:10483000210680912206909123069695879577957B
:10484000679560935C0770935D0780935E07909314
:104850005F07A0912A0BB0912B0B1196B0932B0BF5
:10486000A0932A0BC0902406D0902506E09026063F
:10487000F0902706C0922D0BD0922E0BE0922F0BBA
:10488000F092300BD090A51FD5FE86C0E090530764
:10489000EE2009F481C0E091BC0AF091BD0A19959F
:1048A000AC01893621E092070CF442C09C012956E4
:1048B0003140A3E8BDE20F94F8B60024880F991F99
:1048C000001C880F991F001C892F902D8770992735
:1048D00048565140493621E0520754F1009711F1F2
:1048E00081309105C9F082309105A1F083309105A6
:1048F00079F08430910551F08530910529F00697C3
:1049000009F0B5C0485651404856514048565140AC
:10491000485651404856514048565140493621E08A
:10492000520734F040545B40493681E05807D4F7D1
:1049300020912D1D30912E1D421B530B7091AB1FEA
:104940007370723031F48091681E9091691E481B1B
:10495000590BE091A91D9A01220F331FF0E0A0E04E
:10496000B1E0AE1BBF0B0F9432B76B017C01A0917D
:104970005A1FB0915B1F9F010F943AB7C60ED71E06
:10498000E81EF91ECD2CDE2CEF2CFF24E7FCFA9458
:10499000D0925B1FC0925A1FFF90EF90DF90CF9094
:1049A000089580912D0B90912E0BA0912F0BB0911B
:1049B000300BC0904F07D0905007E0905107F09017
:1049C00052078C199D09AE09BF09AC01BD01440F06
:1049D000551F661F771F840F951FA61FB71FB6951B
:1049E000A795979587958093180690931906A0939D
:1049F0001A06B0931B0620912D0B30912E0B40917F
:104A00002F0B5091300B20934F073093500740935A
:104A10005107509352074091200650912106609112
:104A20002206709123068091180690911906A09194
:104A30001A06B0911B06481759076A077B0730F41E
:104A4000E0912A0BF0912B0B3497A0F081E090E0DD
:104A500090932B0B80932A0B8093530710925C0743
:104A600010925D0710925E0710925F07FBCE4856CA
:104A7000514048CF60912006709121068091220616
:104A80009091230696958795779567959695879546
:104A90007795679560935C0770935D0780935E07D9
:104AA00090935F07A0912A0BB0912B0B1196B093B6
:104AB0002B0BA0932A0BD6CE0F931F932091F71E9A
:104AC00026FD21C00091581F002301F141111BC098
:104AD000E091FD0AF091FE0AEE0FFF1FEE0FFF1F9F
:104AE000E05DFC4F60837183828393832091FD0A94
:104AF0003091FE0A2E37310508F453C0B091F71EED
:104B0000B064B093F71E1F910F9108958091591FC3
:104B10008823C9F3E091FD0AF091FE0AEF54FD4F9E
:104B20001082E0914907F0914A07A0914607B091A1
:104B30004707843009F446C09081109148079123BB
:104B400049F0E091FD0AF091FE0AEF54FD4F3081EB
:104B500031603083E0914307F0914407833009F4DA
:104B600096C05C9160914507562349F0A091FD0ADB
:104B7000B091FE0AAF54BD4F7C9172607C93B081BE
:104B8000F0914207BF2349F0E091FD0AF091FE0A3F
:104B9000EF54FD4F308134603083442309F44BC01F
:104BA00041C0A091FD0AB091FE0A1196B093FE0A91
:104BB000A093FD0AF091F71EFF7BF093F71E1F9163
:104BC0000F9108955C9160914507562349F0A0919B
:104BD000FD0AB091FE0AAF54BD4F7C9171607C9389
:104BE000A0914307B0914407BC9120914207B223A2
:104BF00049F0A091FD0AB091FE0AAF54BD4F0C914F
:104C000002600C93F08180914807F82349F0E0910D
:104C1000FD0AF091FE0AEF54FD4F108114601083DD
:104C2000423049F4E091FD0AF091FE0AEF54FD4F45
:104C30004081486040839091A61E992349F0E091FD
:104C4000FD0AF091FE0AEF54FD4F30813061308350
:104C500050915307E091FD0AF091FE0AEF54FD4F89
:104C6000552351F17081706270830091FD0A10919B
:104C7000FE0A0F943979000F111F000F111FF80160
:104C8000E05DFC4F60837183828393832FCF20810B
:104C900000914207202349F0E091FD0AF091FE0ABD
:104CA000EF54FD4F8081826080831C919091450775
:104CB000192309F472CF68CF60816F7D6083D5CFEF
:104CC0008091740B8F7D8093740B2091740B206204
:104CD0002093740B30914A053330E1F0323081F08B
:104CE000313029F4E0914805F0914905199570910A
:104CF000591F772321F0A091740BA5FD15C00895CD
:104D0000E0914307F0914407408190914207492385
:104D100049F3EDCFE0914307F09144075081609152
:104D200042075623F9F6E3CF6091300570913105C3
:104D3000809132059091330542E00C945C2580917E
:104D4000740B8F7D8093740B2091740B20622093E1
:104D5000740B30914E053330E1F0323081F0313058
:104D600029F4E0914C05F0914D0519957091591F6A
:104D7000772321F0A091740BA5FD15C00895E09153
:104D80004607F0914707408190914507492349F331
:104D9000EDCFE0914607F0914707508160914507BC
:104DA0005623F9F6E3CF6091200670912106809199
:104DB00022069091230641E00C945C258091740BAF
:104DC0008F7D8093740B20914605233099F122301A
:104DD000A1F02130D9F4E0914405F09145051995F1
:104DE000A091581FAA2321F0B091740BB5FD17C0F4
:104DF000F091591FF11113C00895E0914907F09106
:104E00004A07308190914807392329F36091581F50
:104E1000662371F37091740B75FFEACF089560916A
:104E20001C0670911D0680911E0690911F0640E0A1
:104E30000C945C25E0914907F0914A07408150911C
:104E40004807452341F6E2CFCF92DF92EF92FF92DF
:104E5000AB01DC011396FC91139711962D913C91B7
:104E6000EF2FEF712115310539F52F2FFF0F330B80
:104E7000220F232F221F330B8FEF9FEF0E2E02C026
:104E8000880F991F0A94E2F780959095BA01770FE1
:104E9000660B762F86239723840F951F02C0959566
:104EA0008795EA95E2F782279327821B930BFF9061
:104EB000EF90DF90CF900895DB010F9432B76C0133
:104EC000FF24D7FCF094EF2CC601F6FF0EC02F2F65
:104ED000FF0F330B220F232F221F330BCA01822710
:104EE0009327821B930B8C0D9D1D02C09595879572
:104EF000EA95E2F797FD0196FF90EF90DF90CF9053
:104F00000895EF92FF920F931F93CF93DF939091A9
:104F1000F71E96FF16C154E05093EF0DC82FD0E056
:104F2000CF37D1050CF0FBC0DE01A095B095A37082
:104F3000BB27109709F456C0A130B10549F112976B
:104F400009F081C18E01000F111F000F111F005DBC
:104F50001C4FF80180819181A281B3818B2F0F9426
:104F6000816BF80160817181828193810F94816BE3
:104F7000F80180819181A281B381892F0F94816B87
:104F8000F80180819181A281B3810F94816B219678
:104F90008E01000F111F000F111F005D1C4FF80143
:104FA00080819181A281B3818B2F0F94816BF80155
:104FB00060817181828193810F94816BF80180817E
:104FC0009181A281B381892F0F94816BF801808137
:104FD0009181A281B3810F94816B2196CF37D10546
:104FE00009F49DC08E01000F111F000F111F005DFD
:104FF0001C4FF80180819181A281B3818B2F0F9486
:10500000816BF80160817181828193810F94816B42
:10501000F80180819181A281B381892F0F94816BE6
:10502000F80180819181A281B3810F94816B7E010F
:10503000FFEFEF1AFF0A8701000F111F000F111F6A
:10504000005D1C4FF80180819181A281B3818B2F7B
:105050000F94816BF80160817181828193810F943B
:10506000816BF80180819181A281B381892F0F9496
:10507000816BF80180819181A281B3810F94816B52
:105080008701000F111F000F111F0C5C1C4FF8014E
:1050900080819181A281B3818B2F0F94816BF80164
:1050A00060817181828193810F94816BF80180818D
:1050B0009181A281B381892F0F94816BF801808146
:1050C0009181A281B3810F94816B8E01000F111F1A
:1050D000000F111F045C1C4FF80180819181A28197
:1050E000B3818B2F0F94816BF80160817181828174
:1050F00093810F94816BF80180819181A281B381AA
:10510000892F0F94816BF80180819181A281B381F5
:105110000F94816B2496CF37D10509F063CF40916E
:10512000F71E4F7B4093F71E1092EF0D1092FE0A70
:105130001092FD0ADF91CF911F910F91FF90EF9098
:1051400008954CEF51E061E06093AD0FE090B00F37
:105150008091B10FE091A50FF091A60FE81609F428
:105160005EC02091B00F30E02F5F3F4F2F73332789
:10517000022F03C00FB607FE22C01091B10F011716
:10518000C9F3E091B00FF0E0EE50F04F10823FB75E
:10519000F8942093B00FE091A70FF091A80F208111
:1051A000206220833FBF4150510971F61092EF0DEC
:1051B000DF91CF911F910F91FF90EF900895708133
:1051C00075FFDBCFE091B10FF0E0EE50F04FA08122
:1051D000E091B10FF0E03196EF73FF27E093B10F4C
:1051E000C091AB0FD091AC0FA883E091A50FF091C7
:1051F000A60FB081B370B064B083D091B00FF091BE
:10520000B10FDF1307C0C091A70FD091A80F9881ED
:105210009F7D9883E091A50FF091A60FAECFF0800F
:10522000F5FE9FCFEFB6F894C091AB0FD091AC0FC5
:105230001882E091A50FF091A60F808183708064A1
:105240008083EFBEB0CF8E01000F111F000F111F22
:10525000005D1C4FF80180819181A281B3818B2F69
:105260000F94816BF80160817181828193810F9429
:10527000816BF80180819181A281B381892F0F9484
:10528000816BF80180819181A281B3810F94816B40
:10529000219658CECF93C82F0F94FC6B892BE1F346
:1052A0008C2FCF910D94816BCF93C82F892F0E94A3
:1052B0004A298C2FCF910C944A290F931F930F9456
:1052C000B67500918F021091900220919102309159
:1052D0009202601B710B820B930B21E0693B7B40B8
:1052E0008105910508F420E0822F1F910F91089508
:1052F0000F943979609314067093150680931606FF
:10530000909317068091140690911506A0911606A9
:10531000B09117064091700B5091710B6091720B18
:105320007091730B841B950BA60BB70B80931C0617
:1053300090931D06A0931E06B0931F0620911C0695
:1053400030911D0640911E0650911F066091600726
:105350007091610780916207909163072617370764
:105360004807590708F48FC03091740B30623093AE
:10537000740BA0915807B09159071196B093590733
:10538000A0935807E0915807F0915907319709F415
:105390007BC08091580790915907059709F474C014
:1053A0007091A61E772309F46EC09091FA1E91FFAA
:1053B00013C0B091391DB7FF0FC0A0915807B0912D
:1053C0005907119709F4B4C0E0915807F0915907B3
:1053D000339711F40E940398409158075091590750
:1053E0004130510509F48DC020915807309159077B
:1053F0002330310509F485C06CE670E070936B0BC7
:1054000060936A0B40911C0650911D0660911E0628
:1054100070911F06DB01CA01880F991FAA1FBB1FCD
:10542000840F951FA61FB71F33E0B695A7959795D4
:1054300087953A95D1F78093600790936107A09381
:105440006207B09363072091700B3091710B40910C
:10545000720B5091730B20936C0B30936D0B409338
:105460006E0B50936F0B609114067091150680912E
:105470001606909117066093700B7093710B8093D2
:10548000720B9093730B089541E050E050935907CD
:1054900040935807209194073091950740919607C3
:1054A0005091970720935407309355074093560720
:1054B0005093570760911406709115068091160657
:1054C00090911706609394077093950780939607C1
:1054D0009093970751E05093A61E8091181F9091CA
:1054E000191FA0911A1FB0911B1F0196A11DB11D7C
:1054F0008093181F9093191FA0931A1FB0931B1F1E
:105500004FCF88E490E090936B0B80936A0B4091AF
:105510001C0650911D0660911E0670911F06409357
:1055200060075093610760936207709363078BCFA6
:105530000E94D59851CF982F803110F00F94BCB8AD
:10554000E82FF0E08827E855F54D8F4F0D9423B7ED
:10555000ED2AEF2AD52AF52AFC2A022B092B0F2B3C
:10556000372B742B7B2B822B8A2BAD2BB82ADC2A72
:10557000603281E07807F0F483E997E16F3F7105CD
:1055800009F008F422C16031F1E07F0708F041C161
:10559000660F770B861B970BFC01EB5DFE4F60815E
:1055A00071818DE592E00C942427603221E072072E
:1055B00008F4DAC080E008956035710508F4DAC0B7
:1055C0006F3F710509F0B0F7605571098DE79BE0F9
:1055D000680F791FFB0180810895892F0895603835
:1055E000710540F78DE69DE0F3CF603231E073073F
:1055F00008F78AED98E1C2CF60387105D8F68DE2E0
:105600009DE1E6CF603281E07807A0F68CE496E178
:10561000B5CF6038710570F685EA9FE1D9CF603566
:10562000710508F4AAC0603A710508F4B1C0603F82
:10563000710508F0BFCF605A710985EE95E1262FFC
:105640006034710508F4B8C06834710508F0F0C022
:10565000205430E0220F331F821B930BFC01EB5AC6
:10566000FF4F608171818DE592E00C9424276033B7
:10567000710508F485C06036710508F48EC0603984
:10568000710508F4B4C0603C710508F4ECC0603FDB
:10569000710508F4EDC06032E1E07E0708F4EDC06A
:1056A0006035F1E07F0708F4EDC0603821E0720753
:1056B00008F080CF605571408AEC91E1262F64326A
:1056C000710508F486C06A32710508F095C024524D
:1056D00030E0220F331F821B930BFC0165A976A9D2
:1056E0008DE592E00C942427603C710508F062CFB0
:1056F0008DEA9CE06DCF603C710508F05BCF86EED3
:105700009DE166CF603231E0730708F053CF81E24C
:105710009AE134CF6035710550F1603A710598F126
:10572000683B710508F046CF605A71096031710518
:10573000C8F16431710508F088C06051E62FF0E0CF
:10574000EE0FFF1FF195E195F109E054FE4E6081E7
:1057500071818DE592E00C9424276038710508F082
:1057600029CF8DE29CE034CF88E69BE107CF82EE23
:1057700093E165CF87E195E162CF8EE795E15FCF59
:105780008FE993E19BCF6055710989E494E157CF8C
:105790006055710980EB94E152CF605371098CE53B
:1057A00093E18CCFE62FE370EA5FEE0FE61BF0E0AB
:1057B000ED55FE4E878108952770245E220F261B2B
:1057C000820F911DFC0187810895262F2F70285884
:1057D000F5CF2BEA629F412D112446954695342F33
:1057E000330F430F440F262F241B215FE7CF605652
:1057F000710989E193E162CF2A52220F330B821B98
:10580000930BFC01EF5BFF4F80819181959587950C
:1058100008956051262F30E0220F331F821B930B17
:10582000FC01EB5BFE4F80819181959587950895F2
:105830002854220F330B821B930BFC01EB59FF4FB3
:10584000808191819595879508956451660F770BB6
:10585000EE27FF27E61BF70BE853FE4E8081918170
:105860009595879508956059710986ED92E126CF47
:10587000605C710983E992E121CF605F710980E585
:1058800092E11CCF605271408DE092E117CF8031E0
:1058900010F00F94BCB8E82FF0E08827ED5AF34DD4
:1058A0008F4F0D9423B78E2CA82CAF2CB72CBF2C68
:1058B000C62CCE2C632CD52C192D202D272D462D12
:1058C000722D8F2C972C6035710508F422C1603A37
:1058D000710508F429C1603F710500F5605A71092E
:1058E000E5EEF5E1862F6034710508F431C16834C6
:1058F000710508F07CC1805490E0880F991FDF018A
:10590000A81BB90BAB5ABF4F54E6459FA001112409
:105910004D935C936FEF7FE77383628308956032EA
:10592000E1E07E0708F0EDC0E3E9F7E197C06035FC
:10593000710508F4E8C06F3F710509F078F760550C
:1059400071098DE79BE0680F791FFB014083089583
:105950006038710508F0CFC08DE69DE0F4CF60326D
:1059600081E0780708F0CCC0E8E6FBE177C0603260
:10597000E1E07E0708F0C3C0EAEDF8E16FC06038EF
:10598000710508F0BBC08DE29DE1DDCF6032F1E032
:105990007F0708F0B2C0ECE4F6E160C06038710542
:1059A00008F0AAC085EA9FE1CECF6033710508F404
:1059B000B3C06036710508F4BCC06039710508F4E5
:1059C000F1C0603C710508F431C1603F710508F415
:1059D00032C1603281E0780708F432C16035E1E01D
:1059E0007E0708F432C16038F1E07F0708F096CFF7
:1059F00060557140AAECB1E1862F6432710508F45C
:105A0000BDC06A32710508F0D2C0845290E0880FA0
:105A1000991FFD01E81BF90B34E6439FC0011124D7
:105A200096AB85AB2FEF3FE713963C932E931297DF
:105A30000895603C710508F05DC08DEA9CE083CF5D
:105A4000603C710508F055C086EE9DE17CCF603268
:105A500081E0780708F04CC0E1E2FAE16F3F7105A0
:105A600009F008F480C0603181E0780708F0AEC02A
:105A7000660F770BDF01A61BB70BAB5DBE4F84E64D
:105A8000489FA00111244D935C9344CF603571056C
:105A9000E8F1603A710508F442C0683B710508F00E
:105AA0003DCF605A71096031710508F447C0643117
:105AB000710508F0ABC06051E62FF0E0EE0FFF1F5C
:105AC000F195E195F109E054FE4E24E6429FA001D4
:105AD0001124518340836FEF7FE77093A611609389
