:100000000C94B2120D9450A60D9425A60D94FAA549
:100010000D94CFA50D94A4A50D9479A50D944EA58E
:100020000D9423A50C94E3120C94E3120C94E312A8
:100030000C94E3120C94E3120C94E3120D94874990
:100040000C94E3120C94F1860C94D5840D94F41561
:100050000C94E3120C94E3120C94E3120D94ABA3F2
:100060000C94E3120D9461A70D9421A70C94E31254
:100070000C94E3120C94E3120C94E3120C94E3122C
:100080000C944CA80C94CAA70C9448A70C94E312A7
:100090000C94E3120C94E3120C94E3120C94E3120C
:1000A0000C94E3120C94E3120C94C2A50C94C6A613
:1000B0000C9444A60C94E3120C94E3120C94D0A478
:1000C0000C94DEA30C94ECA20C94E3120C94E312B7
:1000D0000C94E3120C94E3120D94EAA60D94AAA6D4
:1000E0000C94E3120C940EC60D94E3AA0C9425C351
:1000F0000C941AC70C940AC30C94178F0D9431C436
:100100000D94950B0C949E770C9429B40C9435C6E1
:100110000C944D8E0C9414ED0C9436680C941B8F3B
:100120000C949D290C9478480D94D5AA0D94E23135
:100130000D94E2950C94E31D0C94F0C50C94296782
:100140000C94F1C20C9456B10C94A67E0C94C1DEB2
:100150000C94D0C30D94EE8A0D94241B0C9407C309
:100160000C9422E80D94FA950C945FC30D941896A4
:100170000C9420C70D94A2A60C94197D0C94E5E86C
:100180000C943DC50C94B9C50C94838F0C943C3BE6
:100190000C94B3C50C9495920C947F8B0C94FAC676
:1001A0000C94F7C20C9432C60C94BA150C94F3B1AB
:1001B0000D94E4A40C9491B00C94E5120D94040FEA
:1001C0000C942C9D0D94CD320C94E7C50C940DC36A
:1001D0000C9470C40C9431C30D94F8A40C9415299C
:1001E0000C94E98C0C944F1A0C9487E30C944A3BC2
:1001F0000C94958C0C9479970D947A710C9476E00C
:100200000C94BFE30C9444C60C949BC50C94C11C85
:100210000C9438AD0C9414E30C941D670C94FB4DB6
:100220000C94F3C60D948AA40D94E91E0C948FAD22
:100230000D94FE320C94E8E00C9430B10C941FC382
:100240000C941AE90C9456C40C9490140C94B3C3F7
:100250000D9446970C9423F40C94EBC20C9407B2C3
:100260000C943AC50C9441FB0C9413C30C94CB1A18
:100270000C947F8F0C94BCC50C94C4C20C944AC6D9
:100280000C94D3B10C945CC50C94998D0C94A8C2B9
:100290000D9406960D942C120D949B020C9437C36A
:1002A0000C9469940C94D3C30C949F7C0C94A09AE6
:1002B0000C948FC30C946D780D94F0320C9477C528
:1002C0000C94967D0D9497A40C94E3B30C947B8FBF
:1002D0000C94EB2B0D9455A40C94C2DE0C94C7D354
:1002E0000C94CF8B0C94E74F0C94AB1B0C94E58BC8
:1002F0000C9418DE0C94844C0C94E7AC0C941DC642
:100300000C945CC30C94DBB30D947B880D94E10DCD
:100310000C9444C50C9454290C94F8200D942AA4F0
:100320000D94EE950C94B4C20C9423190C942C7774
:100330000C947DC30C94C88B0C9420670C94DCC285
:100340000C94FE990C94A5C20C9437C50C94887833
:100350000C9495C50C944DDD0C94A54C0C94ADC338
:100360000C9410C30D9495A40D94922D0D94D695D4
:100370000C94A2B30D94A0A60C94EBB30D949EA67E
:100380000C94CBC30C94E48B0D943E0A0C94D7438D
:100390000C9438C70C94CCE70C94A69E0C94D73BD5
:1003A0000C9496770C94EC770D94E0960C94EF5F98
:1003B0000C946AC40C941A670C9471B10D94ECC33C
:1003C0000C9451F50D94C4550C94C19D0D94AD0938
:1003D0000C94604B0D949DA40C940D1E0C941D4325
:1003E0000C94F37D0D9459950D94CC950C9465ADBA
:1003F0000C94B6420C9477C30C94A97E0C94E1C57E
:100400000C942AAD0C94EBB10C946BC30C942EC5D8
:100410000D94EDAA0C94144E0D9433300D94D1AA82
:100420000C94B3AC0D9400100C9498C30C94AFE8EA
:100430000C949A290C9440960C94C0B30C9438B444
:100440000C94CB440C94678B0C94E1C60C9458CF5D
:100450000C94C2C30C9445C40C9439EA0C946D8B73
:100460000C947E480C94AAE30C94A0E20C94E04D0A
:100470000C9498C50C94D6C20C9483A00C9498C785
:100480000D94DD1A0C94A6770C9428C30D94C8958E
:100490000C94FA7C0D94EBAA0C9463AB0C945E77ED
:1004A0000D9464C70C94DB7C0D9431070C94CEAD95
:1004B0000C9401CB0C94EFC10D94A2570C941945E8
:1004C0000C94BDC20C946E770C9430B40C94A4C5FB
:1004D0000C947CB20D9451100D94D3AA0C946EC35D
:1004E0000C9484B20C94A5C70C94BCC30C94B7585C
:1004F0000C9471C30C9498D10D94D8050C947DC5BF
:100500000D94501E0C9495C30C94498E0C94A7C561
:100510000C940CC70C94DAFB0D94BC570C9406C7D2
:100520000D9469A40C9480C50D943BC50C9458C6D9
:100530000C940CAD0C94D8C50C94D0C20C946DC422
:100540000D9431380C9411C60C9442150C944377D9
:100550000D94261A0C94974D0C9413140C94CBB054
:100560000C9439C40D94F4950C9489170C945C91F7
:100570000C949EC30C9483C30D94DCA40C94B0C360
:100580000C9486C50C94F9C50D943BA40C94079566
:100590000C94569E0C9417DD0C943EC60C948A9CC9
:1005A0000C946EB20D9429960C94FAB30C9445AE4B
:1005B0000C944DC30C9428C50C9466CF0C94C23B8C
:1005C0000C94458D0D94A1A40C94B4180C94EBA933
:1005D0000C948EC20C9453C40C9469C60D942718C5
:1005E0000C94847D0C9413230C94798B0C94D68BEF
:1005F0000D940A130C9429C70C9427C40C944A1721
:100600000C94FFC50C9404C30C94FBAA0C94C35522
:100610000C94C7C20C9462F20C94FEAC0D94E78962
:100620000C94F0C60C94694B0C9440C50D94129632
:100630000C94FAB10C94D8D40C949DB30C9484E32C
:100640000C94E4C60D9421570C9453230C94D2C5FA
:100650000D94F6260C94B58E0C942FC60C9468C39A
:100660000C94949F0D940C960C94A24D0C94DACE9D
:100670000C94864B0C943FC40D94490C0C9474C399
:100680000C94FFE10C94D5B30C945FCF0D94C81A71
:100690000C94C31A0C94C2AC0C948FC50C9468C50E
:1006A0000C9455C60C94A1C30D94F0A40D949A8A91
:1006B0000D94F0560C9417C60D946D950C9456D766
:1006C0000C9412B10C946DF70C94DBC50C94459FFF
:1006D0000C9423C70C94948B0D9444270C9430C431
:1006E0000C94A98B0C9470C60D94921E0D94005717
:1006F0000D9499A40C94B98E0C9426B10C94DCAD95
:100700000C94AD4F0C94A28B0D9404A50C945FAB8C
:100710000C94BC200C940E4E0C941DC70C94EDC58B
:100720000C94F3C50C948A7D0C94C97C0C94FF67DF
:100730000C9486C30C94BC7C0C94D9430D94352D39
:100740000C94A2950C945FC50C94DEC50D94D757FC
:100750000C948C4F0C94F58D0D949FA40C9489C52A
:100760000C94BD8E0C947AC50C9400B20C9400C706
:100770000D9476060C9459C50C941CC30D9466BB5D
:100780000D94FA320D94870D0C941FCD0D94B70182
:100790000C94FCB00C9414C40C941BAD0C9416C3B4
:1007A0000C94A7C30C94A1E20C94011C0C9441C6B8
:1007B0000C94E1440C9498440C94A24F0C94347D16
:1007C0000C94DEC60C94007D0C9415E30D9401335B
:1007D0000C9421C40C94883C0D946E1E0D945DA461
:1007E0000C94449B0C94398C0C94BF7D0C94C0DE0B
:1007F0000C9473480C94618B0D949F2F0C94E2C35E
:100800000C9492C30C941BAE0C94D43B0C9419C35F
:100810000C947AC30C9442C40C9416C70C94FFAA8F
:100820000C94D6280C94CE7C0C942BC50C9456C3F7
:100830000C9446AD0C9460D90D94EFAA0D94AF0EB4
:100840000C94B6C60C94F6C50C94BE900C941EC4C1
:100850000C945D430D945C890C949D1F0C9459C3BA
:100860000C94047E0C9467CC0C94C3DB0C94B3E41E
:100870000C9462C30C94138F0C9424900D94A6A630
:100880000C9445EF0C9492C50C94FBC30C9450C48B
:100890000C94FAC20C94EAC50D9487570D94040881
:1008A0000C94B0C50C94B8B10C9422B40C94ADE384
:1008B0000C94AAC30C948D4B0C946EC50C9423C657
:1008C0000C9498A90D9453570C94D5C50C94F2B37D
:1008D0000C94067D0D9432560C9414980C941F7D44
:1008E0000D9402890C947F7C0C940BC60C942819EF
:1008F0000D942A960C946BC50C94907D0C94D8C6DC
:100900000D94E1C60C945BB30C94E47D0D94410509
:100910000C9408C60D9426C60D94E8950D941F0CF2
:100920000C9433C40C94DD430C94878F0C949B443B
:100930000C941F8F0C94753B0D94DFAA0C9426C762
:100940000C94B7C20C94B08B0C945BE40C94DC4F09
:100950000D94DBAA0C9475E40D9400960C94E9C3F5
:100960000D94F7570C942BC30D9410570C9443150A
:100970000C94EEC20C9482210C9489C30C944CC448
:100980000D94E3C20C9471C50C9495780C9431C508
:100990000C9480F90C942C510C9453C30C9402C603
:1009A0000C94E2C20C94EDB10C944AC50C943093B3
:1009B0000C9420C60D9463570C945A4B0D94031F4E
:1009C0000D9438320C940DB20C9448C40C941CB1A4
:1009D0000C94E44D0C94A2440C94F4C20D94DE37B4
:1009E0000C94137D0C9405C40C94B6C50C94CADD0C
:1009F0000C9462B40C94DFC20C94CA480C948EC45C
:100A00000C9408C40C948D8B0C945A990C94EDC6DC
:100A10000C94A2C20C9443AA0C94B3180C9423C552
:100A20000C94EAC60C94F9CF0D94C7950C94974F8B
:100A30000C9421DF0C940FC70C9498E60C9414C608
:100A40000D9412A50C943CC40D94E7AA0C94B6C363
:100A50000C949EC50D949CA60C94D77D0D94FF32EA
:100A60000D94EF2F0C941A5D0C94868B0C94A3AA12
:100A70000C94931E0C94F7910C9482C60C94558E92
:100A80000C9439D00C9426670C9426C60C94A94D6E
:100A90000C947C440D94DDAA0D941E960D94E5AA49
:100AA0000C94A4C30D94C52E0D9468030C947F443C
:100AB0000C949F440C94867C0C9414D50C94ABC27B
:100AC0000D94E0550D94070B0C9453C50C948CC5F4
:100AD0000C949BC30C9483C50D94D9AA0C94A1C506
:100AE0000C943FE10C9466770C9406250D94D095F8
:100AF0000C94C5160C94BF8E0C9420480C9423675C
:100B00000D94140D0C94AEB00D9486300C9447C522
:100B10000D9426AB0C94ED4D0C9486B10C94C6D379
:100B20000C941AC60D940F310D946E380D94E1AAF1
:100B30000C94A8130C94E7C60C9434C50C949BD960
:100B40000C94E4C50D94987A0C944D480C9407B11C
:100B50000C94D9C20C94518E0D94A5110C9403C71A
:100B60000C9475B20C9474C50C948CC30D9482973C
:100B70000C94BFC30C94B68B0D94268A0C94BC8B3A
:100B80000C9438C60C949D520C9434C30C9409C731
:100B90000C94DB960C94FB4F0C9444660C9450C55B
:100BA0000C94C2480D94BDA40C9431450C9433A010
:100BB0000C9429C60D94238B0C94B9C30D940AA4EC
:100BC0000C9450C30C9465C50C94AEC20C946CC9C3
:100BD0000C943EFD0C94B1C20C943BB10C94615E3C
:100BE0000D94DC950C94779D0C942AC40C94C41637
:100BF0000C9491B10D94F5320C942DC40D94A8A6CB
:100C00000C94CDC20C9477E00C9405C60C9462C58C
:100C10000C94CAC20D9400880C9422C30D94EC2D40
:100C20000C942CC70C944DC50C94C0C20D94181D87
:100C30000C94738B0C9495500D9469790D946155B7
:100C40000C94E5C20C9493C60C9433B20C94E1B0AE
:100C50000C94558B0C9456C50C9473C40C942CC6F0
:100C60000C94FDC60C94AAC50D943B2F0C94ADC5F5
:100C70000C9442510D94E9AA0D94A1880D949BA463
:100C80000C94DBC60C947BB10D94D7AA0C94EA2388
:100C90000D945A2E0C9480C30C94BA760C9432DACC
:100CA0000C94C5C30C94F5CB0C949B8B0C9401B4A1
:100CB0000C945B8B0C9437510C94A5B20D94B30833
:100CC0000C94CE930D944F190C946D480C94E49FA2
:100CD0000C94FCC50C947E7D0C9424C40C948A5016
:100CE0000C9426CF0C94E8C20C9473FC0C9445E44D
:100CF0000D94C2950C94BB150C944E1A0C940BC415
:100D00000C943BC60C9450C60C9493E40C942EC3E4
:100D10000C94BAC20D9400040C946C610C9465C3DD
:100D20000C94E69B0C9406E40C94FAAD0C94B898E1
:100D30000D9449A40C94598E0C94DD8B0D94AA79D2
:100D40000C94DAB10D94A4A60C94D3C20C945368FD
:100D50000D94C11B0D94E00C0C94C28B0C9447C6EF
:100D60000C94ED7C0C94323C0C9412C70C94807E55
:100D70000C94F59E0C94F7E70C940C9E0D9477312F
:100D80000C9436C40D94CEA40C948477526573658C
:100D90007420636F6E74726F6C2069732063757258
:100DA00072656E746C792064697361626C65642E1F
:100DB00000436F6D6D732068616C7465642E204E06
:100DC00065787420627974652077696C6C2072652F
:100DD000736574207468652041726475696E6F2E46
:100DE0000000537065656475696E6F20323032346F
:100DF0002E303200737065656475696E6F20323015
:100E00003234303200000030303200FF0A50616767
:100E10006520686173206E6F74206265656E20695D
:100E20006D706C656D656E74656420796574000A1B
:100E3000426F6F7374206C6F6F6B7570207461629A
:100E40006C65000A326E642049676E6974696F6E62
:100E5000204D6170000A326E64204675656C204D2D
:100E60006170000A50616765203920436667000A97
:100E70005472696D2031205461626C65000A5656C7
:100E800054204D6170000A426F6F7374204D617081
:100E9000000A5067203620436F6E666967000A417A
:100EA0004652204D6170000A506720342043666727
:100EB000000A49676E6974696F6E204D6170000A9F
:100EC0005067203220436667000A5645204D617006
:100ED000000A3D3D3D436F6D6D616E642048656C59
:100EE000703D3D3D0A0A416C6C20636F6D6D616E13
:100EF0006473206172652073696E676C6520636836
:100F00006172616374657220616E64206172652034
:100F1000636F6E636174656E617465642077697474
:100F20006820746865697220706172616D657465AE
:100F30007273200A776974686F75742073706163C7
:100F400065732E53796E7461783A20203C636F6D1F
:100F50006D616E643E2B3C706172616D657465728B
:100F6000313E2B3C706172616D65746572323E2B4F
:100F70003C706172616D657465724E3E0A0A3D3D5A
:100F80003D4C697374206F6620436F6D6D616E64B4
:100F9000733D3D3D0A0A41202D20446973706C6108
:100FA0007973203331206279746573206F66206312
:100FB000757272656E745374617475732076616CAA
:100FC00075657320696E2062696E61727920286C84
:100FD0006976652064617461290A42202D2042757A
:100FE000726E2063757272656E74206D617020611F
:100FF0006E6420636F6E6669675061676520766115
:101000006C75657320746F20656570726F6D0A432F
:10101000202D205465737420434F4D20706F7274DF
:101020002E2020557365642062792054756E657298
:1010300073747564696F20746F20736565207768B9
:10104000657468657220616E204543552069732080
:101050006F6E206120676976656E207365726961C5
:101060006C200A20202020706F72742E205265742C
:1010700075726E7320612062696E617279206E757F
:101080006D6265722E0A4E202D205072696E74209A
:101090006E6577206C696E652E0A50202D20536591
:1010A000742063757272656E7420706167652E209E
:1010B0002053796E7461783A2020502B3C70616720
:1010C000654E756D6265723E0A52202D2053616D2A
:1010D00065206173204120636F6D6D616E640A53FA
:1010E000202D20446973706C6179207369676E618B
:1010F00074757265206E756D6265720A51202D20BF
:1011000053616D65206173205320636F6D6D616E57
:10111000640A56202D20446973706C6179206D61DA
:1011200070206F7220636F6E66696750616765201B
:1011300076616C75657320696E2062696E61727983
:101140000A57202D20536574206F6E6520627974D4
:101150006520696E206D6170206F7220636F6E660E
:101160006967506167652E202045787065637473E8
:101170002062696E61727920706172616D6574655B
:1011800072732E200A2020202053796E7461783AE1
:101190002020572B3C6F66667365743E2B3C6E6552
:1011A00077627974653E0A74202D2053657420633C
:1011B000616C6962726174696F6E2076616C7565CD
:1011C000732E2020457870656374732062696E61A8
:1011D000727920706172616D65746572732E202062
:1011E0005461626C6520696E64657820697320655E
:1011F000697468657220302C200A20202020312C50
:10120000206F7220322E202053796E7461783A203C
:1012100020742B3C74626C655F6964783E2B3C6E75
:10122000657756616C7565313E2B3C6E657756610E
:101230006C7565323E2B3C6E657756616C75654EFC
:101240003E0A5A202D20446973706C6179206361D5
:101250006C6962726174696F6E2076616C7565731A
:101260000A54202D20446973706C617973203235E3
:101270003620746F6F7468206C6F6720656E7472AF
:1012800069657320696E2062696E6172790A7220E5
:101290002D20446973706C61797320323536207467
:1012A0006F6F7468206C6F6720656E747269657308
:1012B0000A55202D205072657061726520666F722C
:1012C000206669726D7761726520757064617465FE
:1012D0002E20546865206E657874206279746520CC
:1012E00072656365697665642077696C6C206361FB
:1012F000757365207468652041726475696E6F202E
:10130000746F2072657365742E0A3F202D20446926
:1013100073706C61797320746869732068656C7090
:101320002070616765002C2000575545004F320042
:10133000496E6C65742074656D7000436F6F6C61ED
:101340006E7400526573657420636F6E74726F6C97
:101350002069732063757272656E746C792064699C
:101360007361626C65642E00436F6D6D73206861FC
:101370006C7465642E204E657874206279746520E3
:1013800077696C6C207265736574207468652041A0
:10139000726475696E6F2E004552523B20496E6330
:1013A0006F727265637420454550524F4D207369CA
:1013B0007A6500303032002000200020002000201C
:1013C00020202000537065656475696E6F2032308F
:1013D00032342E303200737065656475696E6F202B
:1013E00032303234303200537065656475696E6F27
:1013F0002063737830323031392E3800000080009D
:1014000020012001800020018000F0008001C00048
:10141000C0002001C000800020010001040E111650
:101420001A1C212A2C2E30323436383A3C3E4042A7
:101430004446484C4E505256585A5D5F63686F7927
:101440007D000020002300260029002C002F003200
:10145000000001000003010601090100000A0B025F
:10146000090C0D0E08070304010000000000000035
:10147000000000000000000000000000000000006C
:101480000000000000000012111000000000000029
:10149000000000000000000000000000000000004C
:1014A0000000000000963007772C610EEEBA51095B
:1014B0009919C46D078FF46A7035A563E9A3956423
:1014C0009E3288DB0EA4B8DC791EE9D5E088D9D23B
:1014D000972B4CB609BD7CB17E072DB8E7911DBF97
:1014E000906410B71DF220B06A4871B9F3DE41BEB6
:1014F000847DD4DA1AEBE4DD6D51B5D4F4C785D31D
:101500008356986C13C0A86B647AF962FDECC965C8
:101510008A4F5C0114D96C0663633D0FFAF50D0820
:101520008DC8206E3B5E10694CE44160D5727167D6
:10153000A2D1E4033C47D4044BFD850DD26BB50A20
:10154000A5FAA8B5356C98B242D6C9BBDB40F9BC48
:10155000ACE36CD832755CDF45CF0DD6DC593DD19C
:10156000ABAC30D9263A00DE518051D7C81661D0D5
:10157000BFB5F4B42123C4B3569995BACF0FA5BD16
:10158000B89EB802280888055FB2D90CC624E90BBA
:10159000B1877C6F2F114C6858AB1D61C13D2D6622
:1015A000B69041DC760671DB01BC20D2982A10D5BA
:1015B000EF8985B1711FB5B606A5E4BF9F33D4B8D6
:1015C000E8A2C9077834F9000F8EA8099618980E7A
:1015D000E1BB0D6A7F2D3D6D08976C6491015C63E2
:1015E000E6F4516B6B62616C1CD83065854E00620D
:1015F000F2ED95066C7BA5011BC1F4088257C40F60
:10160000F5C6D9B06550E9B712EAB8BE8B7C88B987
:10161000FCDF1DDD62492DDA15F37CD38C654CD4DB
:10162000FB5861B24DCE51B53A7400BCA3E230BB59
:10163000D441A5DF4AD795D83D6DC4D1A4FBF4D6DB
:10164000D36AE96943FCD96E34468867ADD0B86087
:10165000DA732D0444E51D03335F4C0AAAC97C0DDF
:10166000DD3C710550AA41022710100BBE86200CEC
:10167000C925B56857B3856F2009D466B99FE46161
:10168000CE0EF9DE5E98C9D9292298D0B0B4A8D779
:10169000C7173DB359810DB42E3B5CBDB7AD6CBAD5
:1016A000C02083B8EDB6B3BF9A0CE2B6039AD2B1AC
:1016B000743947D5EAAF77D29D1526DB048316DC53
:1016C00073120B63E3843B64943E6A6D0DA85A6AFF
:1016D0007A0BCF0EE49DFF099327AE000AB19E0757
:1016E0007D44930FF0D2A3088768F2011EFEC20664
:1016F000695D5762F7CB67658071366C19E7066BD9
:101700006E761BD4FEE02BD3895A7ADA10CC4ADDF0
:10171000676FDFB9F9F9EFBE8E43BEB717D58EB04C
:1017200060E8A3D6D67E93D1A1C4C2D83852F2DFE6
:101730004FF167BBD16757BCA6DD06B53F4B36B24C
:1017400048DA2B0DD84C1B0AAFF64A0336607A04F0
:1017500041C3EF60DF55DF67A8EF8E6E3179BE6958
:10176000468CB361CB1A8366BCA0D26F2536E26883
:101770005295770CCC03470BBBB91602222F2605D6
:1017800055BE3BBAC5280BBDB2925AB42B046AB3FE
:101790005CA7FFD7C231CFD0B58B9ED92C1DAEDE52
:1017A0005BB0C2649B26F263EC9CA36A750A936DDE
:1017B00002A906099C3F360EEB8567077213570096
:1017C00005824ABF95147AB8E2AE2BB17B381BB6BE
:1017D0000C9B8ED2920DBED5E5B7EFDC7C21DFDB12
:1017E0000BD4D2D38642E2D4F1F8B3DD686E83DA4B
:1017F0001FCD16BE815B26B9F6E177B06F7747B78C
:1018000018E65A0888706A0FFFCA3B06665C0B012F
:1018100011FF9E658F69AE62F8D3FF6B6145CF6C97
:101820001678E20AA0EED20DD75483044EC2B30359
:1018300039612667A7F71660D04D476949DB776E97
:101840003E4A6AD1AEDC5AD6D9660BDF40F03BD8AF
:101850003753AEBCA9C59EBBDE7FCFB247E9FFB50B
:10186000301CF2BDBD8AC2BACA3093B353A6A3B42A
:10187000240536D0BA9306D7CD2957DE54BF67D991
:10188000232E7A66B3B84A61C4021B685D942B6F3D
:101890002A37BE0BB4A18E0CC31BDF055A8DEF0295
:1018A0002D0000000041311B1982623632C3532DD6
:1018B0002B04C56C6445F4777D86A75A56C79641BC
:1018C0004F088AD9C849BBC2D18AE8EFFACBD9F40C
:1018D000E30C4FB5AC4D7EAEB58E2D839ECF1C98DC
:1018E000875112C24A1023D953D370F4789241EF32
:1018F0006155D7AE2E14E6B537D7B5981C968483BC
:101900000559981B8218A9009BDBFA2DB09ACB369B
:10191000A95D5D77E61C6C6CFFDF3F41D49E0E5ADB
:10192000CDA2248495E3159F8C2046B2A76177A9A8
:10193000BEA6E1E8F1E7D0F3E82483DEC365B2C5D3
:10194000DAAAAE5D5DEB9F464428CC6B6F69FD70F3
:1019500076AE6B3139EF5A2A202C09070B6D381CF3
:1019600012F33646DFB2075DC6715470ED30656B19
:10197000F4F7F32ABBB6C231A275911C8934A007D3
:1019800090FBBC9F17BA8D840E79DEA92538EFB283
:101990003CFF79F373BE48E86A7D1BC5413C2ADEF3
:1019A00058054F79F0447E62E9872D4FC2C61C541A
:1019B000DB018A159440BB0E8D83E823A6C2D9387B
:1019C000BF0DC5A0384CF4BB218FA7960ACE968DCB
:1019D000130900CC5C4831D7458B62FA6ECA53E1DB
:1019E00077545DBBBA156CA0A3D63F8D88970E9631
:1019F000915098D7DE11A9CCC7D2FAE1EC93CBFA7B
:101A0000F55CD762721DE6796BDEB554409F844F5A
:101A10005958120E161923150FDA7038249B4123DA
:101A20003DA76BFD65E65AE67C2509CB576438D0A7
:101A30004EA3AE9101E29F8A1821CCA73360FDBC72
:101A40002AAFE124ADEED03FB42D83129F6CB209D2
:101A500086AB2448C9EA1553D029467EFB687765D2
:101A6000E2F6793F2FB7482436741B091D352A1238
:101A700004F2BC534BB38D485270DE657931EF7E72
:101A800060FEF3E6E7BFC2FDFE7C91D0D53DA0CB62
:101A9000CCFA368A83BB07919A7854BCB13965A7D2
:101AA000A84B98833B0AA99822C9FAB50988CBAEFE
:101AB000104F5DEF5F0E6CF446CD3FD96D8C0EC2BA
:101AC0007443125AF3022341EAC1706CC18041771A
:101AD000D847D7369706E62D8EC5B500A584841B5A
:101AE000BC1A8A41715BBB5A6898E87743D9D96CB4
:101AF0005A1E4F2D155F7E360C9C2D1B27DD1C00BA
:101B00003E120098B9533183A09062AE8BD153B589
:101B10009216C5F4DD57F4EFC494A7C2EFD596D959
:101B2000F6E9BC07AEA88D1CB76BDE319C2AEF2A04
:101B300085ED796BCAAC4870D36F1B5DF82E2A46D1
:101B4000E1E136DE66A007C57F6354E8542265F301
:101B50004DE5F3B202A4C2A91B6791843026A09F71
:101B600029B8AEC5E4F99FDEFD3ACCF3D67BFDE89B
:101B7000CFBC6BA980FD5AB2993E099FB27F3884D1
:101B8000ABB0241C2CF115073532462A1E73773171
:101B900007B4E17048F5D06B513683467A77B25D71
:101BA000634ED7FACB0FE6E1D2CCB5CCF98D84D712
:101BB000E04A1296AF0B238DB6C870A09D8941BB39
:101BC00084465D2303076C381AC43F1531850E0E19
:101BD0002842984F6703A9547EC0FA795581CB6299
:101BE0004C1FC538815EF423989DA70EB3DC961573
:101BF000AA1B0054E55A314FFC996262D7D8537939
:101C0000CE174FE149567EFA50952DD77BD41CCC88
:101C100062138A8D2D52BB963491E8BB1FD0D9A098
:101C200006ECF37E5EADC265476E91486C2FA05303
:101C300075E836123AA90709236A5424082B653F30
:101C400011E479A796A548BC8F661B91A4272A8A20
:101C5000BDE0BCCBF2A18DD0EB62DEFDC023EFE690
:101C6000D9BDE1BC14FCD0A70D3F838A267EB2917A
:101C70003FB924D070F815CB693B46E6427A77FD30
:101C80005BB56B65DCF45A7EC5370953EE76384890
:101C9000F7B1AE09B8F09F12A133CC3F8A72FD2490
:101CA0009300000000376AC2016ED4840359BE4617
:101CB00002DCA80907EBC2CB06B27C8D0485164F67
:101CC00005B851130E8F3BD10FD685970DE1EF5517
:101CD0000C64F91A095393D8080A2D9E0A3D475CF3
:101CE0000B70A3261C47C9E41D1E77A21F291D6087
:101CF0001EAC0B2F1B9B61ED1AC2DFAB18F5B5694B
:101D000019C8F23512FF98F713A626B111914C733A
:101D100010145A3C152330FE147A8EB8164DE47A0E
:101D200017E0464D38D72C8F398E92C93BB9F80B46
:101D30003A3CEE443F0B84863E523AC03C6550022A
:101D40003D58175E366F7D9C3736C3DA3501A918CA
:101D50003484BF5731B3D59530EA6BD332DD0111EE
:101D60003390E56B24A78FA925FE31EF27C95B2DA2
:101D7000264C4D62237B27A0222299E62015F324CE
:101D80002128B4782A1FDEBA2B4660FC29710A3E4E
:101D900028F41C712DC376B32C9AC8F52EADA2374A
:101DA0002FC08D9A70F7E75871AE591E739933DCC6
:101DB000721C2593772B4F517672F11774459BD582
:101DC0007578DC897E4FB64B7F16080D7D2162CF7A
:101DD0007CA4748079931E4278CAA0047AFDCAC696
:101DE0007BB02EBC6C87447E6DDEFA386FE990FACA
:101DF0006E6C86B56B5BEC776A025231683538F3EE
:101E000069087FAF623F156D6366AB2B6151C1E915
:101E100060D4D7A665E3BD6464BA0322668D69E029
:101E20006720CBD74817A115494E1F534B797591A1
:101E30004AFC63DE4FCB091C4E92B75A4CA5DD9885
:101E40004D989AC446AFF00647F64E4045C12482ED
:101E5000444432CD4173580F402AE649421D8C8BD1
:101E6000435068F154670233553EBC755709D6B7E5
:101E7000568CC0F853BBAA3A52E2147C50D57EBEB1
:101E800051E839E25ADF53205B86ED6659B187A4E9
:101E9000583491EB5D03FB295C5A456F5E6D2FADA5
:101EA0005F801B35E1B771F7E0EECFB1E2D9A573E2
:101EB000E35CB33CE66BD9FEE73267B8E5050D7A23
:101EC000E4384A26EF0F20E4EE569EA2EC61F4605F
:101ED000EDE4E22FE8D388EDE98A36ABEBBD5C692F
:101EE000EAF0B813FDC7D2D1FC9E6C97FEA9065547
:101EF000FF2C101AFA1B7AD8FB42C49EF975AE5C0F
:101F0000F848E900F37F83C2F2263D84F01157467A
:101F1000F1944109F4A32BCBF5FA958DF7CDFF4F42
:101F2000F6605D78D95737BAD80E89FCDA39E33EC6
:101F3000DBBCF571DE8B9FB3DFD221F5DDE54B37DE
:101F4000DCD80C6BD7EF66A9D6B6D8EFD481B22D0A
:101F5000D504A462D033CEA0D16A70E6D35D1A2432
:101F6000D210FE5EC527949CC47E2ADAC64940186A
:101F7000C7CC5657C2FB3C95C3A282D3C195E8118A
:101F8000C0A8AF4DCB9FC58FCAC67BC9C8F1110B86
:101F9000C9740744CC436D86CD1AD3C0CF2DB90286
:101FA000CE4096AF9177FC6D902E422B921928E986
:101FB000939C3EA696AB546497F2EA2295C580E0C6
:101FC00094F8C7BC9FCFAD7E9E9613389CA179FA3A
:101FD0009D246FB598130577994ABB319B7DD1F34A
:101FE0009A3035898D075F4B8C5EE10D8E698BCF02
:101FF0008FEC9D808ADBF7428B82490489B523C62A
:102000008888649A83BF0E5882E6B01E80D1DADCDD
:102010008154CC938463A651853A1817870D72D5E5
:1020200086A0D0E2A997BA20A8CE0466AAF96EA429
:10203000AB7C78EBAE4B1229AF12AC6FAD25C6ADC1
:10204000AC1881F1A72FEB33A6765575A4413FB7A5
:10205000A5C429F8A0F3433AA1AAFD7CA39D97BE8D
:10206000A2D073C4B5E71906B4BEA740B689CD8225
:10207000B70CDBCDB23BB10FB3620F49B155658BE5
:10208000B06822D7BB5F4815BA06F653B8319C91A9
:10209000B9B48ADEBC83E01CBDDA5E5ABFED349869
:1020A000BE000000006567BCB88BC809AAEEAFB5DA
:1020B000125797628F32F0DE37DC5F6B25B938D765
:1020C0009DEF28B4C58A4F087D64E0BD6F0187018C
:1020D000D7B8BFD64ADDD86AF23377DFE05610634F
:1020E000589F571950FA30A5E8149F10FA71F8ACB0
:1020F00042C8C07BDFADA7C76743087275266FCEA5
:10210000CD707FAD951518112DFBB7A43F9ED0184B
:102110008727E8CF1A428F73A2AC20C6B0C9477A8E
:10212000083EAF32A05BC88E18B5673B0AD0008767
:10213000B26938502F0C5FEC97E2F059858797E52C
:102140003DD1878665B4E03ADD5A4F8FCF3F2833C3
:10215000778610E4EAE37758520DD8ED4068BF5116
:10216000F8A1F82BF0C49F97482A30225A4F579E67
:10217000E2F66F497F9308F5C77DA740D518C0FCEC
:102180006D4ED09F352BB7238DC518969FA07F2A03
:10219000271947FDBA7C204102928FF410F7E848D6
:1021A000A83D58149B583FA823B6901D31D3F7A1E2
:1021B000896ACF76140FA8CAACE1077FBE8460C3DA
:1021C00006D270A05EB7171CE659B8A9F43CDF151B
:1021D0004C85E7C2D1E0807E690E2FCB7B6B4877C0
:1021E000C3A20F0DCBC768B17329C704614CA0B857
:1021F000D9F5986F4490FFD3FC7E5066EE1B37DA1A
:10220000564D27B90E284005B6C6EFB0A4A3880CDA
:102210001C1AB0DB817FD767399178D22BF41F6EFF
:102220009303F7263B66909A83883F2F91ED58934E
:1022300029546044B43107F80CDFA84D1EBACFF121
:10224000A6ECDF92FE89B82E4667179B54027027D2
:10225000ECBB48F071DE2F4CC93080F9DB55E74507
:10226000639CA03F6BF9C783D3176836C1720F8A8E
:1022700079CB375DE4AE50E15C40FF544E2598E8E1
:10228000F673888BAE16EF3716F84082049D273E12
:10229000BC241FE92141785599AFD7E08BCAB05CC7
:1022A000333BB659ED5ED1E555B07E5047D519ECBC
:1022B000FF6C213B62094687DAE7E932C8828E8EDD
:1022C00070D49EED28B1F951905F56E4823A3158AE
:1022D0003A83098FA7E66E331F08C1860D6DA63AB3
:1022E000B5A4E140BDC186FC052F2949174A4EF52A
:1022F000AFF376223296119E8A78BE2B981DD9971D
:10230000204BC9F4782EAE48C0C001FDD2A566416D
:102310006A1C5E96F779392A4F97969F5DF2F123F2
:10232000E505196B4D607ED7F58ED162E7EBB6DE21
:102330005F528E09C237E9B57AD9460068BC21BC24
:10234000D0EA31DF888F56633061F9D622049E6A65
:102350009ABDA6BD07D8C101BF366EB4AD530908FA
:10236000159A4E721DFF29CEA511867BB774E1C761
:102370000FCDD91092A8BEAC2A461119382376A5E4
:10238000807566C6D810017A60FEAECF729BC973A5
:10239000CA22F1A457479618EFA939ADFDCC5E11BA
:1023A0004506EE4D766389F1CE8D2644DCE841F892
:1023B0006451792FF9341E9341DAB12653BFD69A6E
:1023C000EBE9C6F9B38CA1450B620EF01907694C15
:1023D000A1BE519B3CDB3627843599929650FE2E48
:1023E0002E99B95426FCDEE89E12715D8C7716E1B9
:1023F00034CE2E36A9AB498A1145E63F03208183AE
:10240000BB7691E0E313F65C5BFD59E949983E55D4
:10241000F12106826C44613ED4AACE8BC6CFA93787
:102420007E38417FD65D26C36EB389767CD6EECAF0
:10243000C46FD61D590AB1A1E1E41E14F38179A835
:102440004BD769CB13B20E77AB5CA1C2B939C67E4C
:102450000180FEA99CE59915240B36A0366E511C0F
:102460008EA7166686C271DA3E2CDE6F2C49B9D370
:1024700094F081040995E6B8B17B490DA31E2EB1F5
:102480001B483ED2432D596EFBC3F6DBE9A691678C
:10249000511FA9B0CC7ACE0C749461B966F10605CF
:1024A000DE00002200250028002B002E0031003421
:1024B0000002010000050108010B010000210024B9
:1024C0000027002A002D0030003300010100000425
:1024D0000107010A010505050507050808080802A6
:1024E0000202020A0A0808040404040101010101AD
:1024F0000101010303030303030303040707070C9C
:102500000C0C0C0C0C0C0C02020202060606060651
:102510000606060B0B0B0B0B0B0B0B0102102020FE
:102520000808102040102040800201020108040227
:10253000010102040810204080804020100804029D
:1025400001800402018040201008040201080402F6
:1025500001010204081020408001020408102040FC
:102560008000880511241FBECFEFD1E2DEBFCDBFB2
:1025700000E00CBF12E0A0E0B2E0E4EAF4E903E01E
:102580000BBF02C007900D92A837B107D9F72FE112
:10259000A8E7B2E001C01D92A03FB207E1F712E147
:1025A000C2EBD2E100E006C021970109802FFE01B5
:1025B0000F94C3C9C13BD10780E00807A9F70F9466
:1025C0000EB00D9450CA0C9400003FB7F89480915F
:1025D000250B9091260BA091270BB091280B26B5C7
:1025E000A89B05C02F3F19F00196A11DB11D3FBF4B
:1025F0006627782F892F9A2F620F711D811D911DDB
:10260000660F771F881F991F660F771F881F991FF6
:102610006093A3057093A4058093A5059093A605E8
:102620004091140650911506609116067091170698
:1026300040939705509398056093990570939A0578
:102640008091A3059091A405A091A505B091A60540
:102650002091FD063091FE064091FF065091000743
:10266000821B930BA40BB50B809314069093150655
:10267000A0931606B09317066091A3057091A40568
:102680008091A5059091A6056093FD067093FE06C6
:102690008093FF06909300075091B91D50FD4BC0E9
:1026A000A091FA06B091FB06129709F445C04CEDD3
:1026B00055E060E070E04093D4075093D5076093F5
:1026C000D6077093D7078091970590919805A091B0
:1026D0009905B0919A05B695A7959795879580939A
:1026E0009B0590939C05A0939D05B0939E0520911A
:1026F0001406309115064091160650911706609108
:102700009B0570919C0580919D0590919E052617D3
:1027100037074807590730F4E2E0F0E0F093FB0692
:10272000E093FA068091FA069091FB060196909349
:10273000FB068093FA060895A1E0B0E0B0931F066F
:10274000A0931E067091B91D71607093B91DEACFF8
:102750009091F01D80914C1C8C718C3071F19A30ED
:10276000BCF41916A4F421E030E03093BA052093AC
:10277000B90543E050E05093B8054093B705309356
:10278000B6052093B5055093A8054093A705089575
:1027900064E070E07093BA056093B905A2E0B0E020
:1027A000B093B805A093B7057093B6056093B505CF
:1027B000B093A805A093A70508959A30DCF41916E4
:1027C00034F7E1E0F0E0F093BA05E093B90583E077
:1027D00090E09093B8058093B70525E030E0309302
:1027E000B6052093B50547E050E05093A805409307
:1027F000A705089568E070E07093BA056093B90585
:10280000A2E0B0E0B093B805A093B705E4E0F0E033
:10281000F093B605E093B50586E090E09093A805A7
:102820008093A7050895CF92DF92EF92FF92F894DC
:10283000E0911E06F0911F06C090C507D090C60714
:10284000E090C707F090C8073FB7F8948091250B38
:102850009091260BA091270BB091280B26B5A89B31
:1028600005C02F3F19F00196A11DB11D3FBF66277E
:10287000782F892F9A2F620F711D811D911D660F70
:10288000771F881F991F660F771F881F991F6093F6
:10289000B1057093B2058093B3059093B405789415
:1028A0002091B1053091B2054091B3055091B40526
:1028B0002C193D094E095F09A091ED06B091EE0675
:1028C0000F9463C9DC01CB01905CAF4FBF4F5FE059
:1028D000B695A795979587955A95D1F7EE0FFF1F57
:1028E000E652FA4F40815181E090401CF090411C2B
:1028F000E40EF51E8E0D9F1D803D22E092073CF0F8
:10290000805D9240FF90EF90DF90CF90089597FF09
:10291000F9CF88599E4FFF90EF90DF90CF900895A8
:102920000F9485A36093A3057093A4058093A505D8
:102930009093A6058091A3059091A405A091A5056B
:10294000B091A6054091FD065091FE066091FF06EC
:1029500070910007841B950BA60BB70B8093140690
:1029600090931506A0931606B093170620910D1E9E
:1029700021FD49C03091B91D30FF45C0409114067A
:102980005091150660911606709117068091D80532
:102990009091D905A091DA05B091DB054817590748
:1029A0006A077B0778F12091A3053091A405409137
:1029B000A5055091A6052093FD063093FE06409391
:1029C000FF065093000760911406709115068091E0
:1029D000160690911706609397057093980580935B
:1029E000990590939A05A091FA06B091FB0611966D
:1029F000B093FB06A093FA06E0911E06F0911F0625
:102A0000319771F008956CED75E080E090E060938F
:102A1000D4077093D5078093D6079093D707AECF8E
:102A20004091A3055091A4056091A5057091A6055C
:102A30008091C5079091C607A091C707B091C807BC
:102A400084179507A607B707E8F68091A30590912C
:102A5000A405A091A505B091A6052091C5073091C8
:102A6000C6074091C7075091C807821B930BA40B60
:102A7000B50B80934D0590934E05A0934F05B093F1
:102A8000500508950895CF92DF92EF92FF92CF9371
:102A9000DF93F894C0911E06D0911F06C090C50721
:102AA000D090C607E090C707F090C8070F9485A3A1
:102AB0006093B1057093B2058093B3059093B4050C
:102AC000789480912006909121062097C9F53BE0EB
:102AD000389FF001399FF00D11244091401C509116
:102AE000411CE40FF51F2091B1053091B2054091D2
:102AF000B3055091B4052C193D094E095F09A09109
:102B0000ED06B091EE060F9463C9DC01CB01905C39
:102B1000AF4FBF4F2FE0B695A795979587952A950C
:102B2000D1F78E0F9F1F803D22E09207C4F0805D99
:102B30009240DF91CF91FF90EF90DF90CF9008957A
:102B40002197C89FF001C99FF00DD89FF00D112467
:102B50002091401C3091411CE20FF31FC4CF97FF1E
:102B6000E8CF88599E4FDF91CF91FF90EF90DF9093
:102B7000CF90089508958091100690911106A0912C
:102B80001206B09113068093970590939805A09331
:102B90009905B0939A050F9485A36093A905709346
:102BA000AA058093AB059093AC058091A9059091FF
:102BB000AA05A091AB05B091AC054091C507509115
:102BC000C6076091C7077091C807841B950BA60BB9
:102BD000B70B8093100690931106A0931206B09342
:102BE0001306A0911E06B0911F061196B0931F0602
:102BF000A0931E062091C30720622093C307609113
:102C00001E0670911F066D30710509F45BC0E091DE
:102C10001E06F0911F06319709F45DC0809197055B
:102C200090919805A0919905B0919A05B695A795B0
:102C30009795879580939B0590939C05A0939D0500
:102C4000B0939E05409110065091110660911206B6
:102C50007091130680919B0590919C05A0919D0514
:102C6000B0919E05481759076A077B0708F1209124
:102C7000C5073091C6074091C7075091C8072093F8
:102C80000C0630930D0640930E0650930F0660918C
:102C9000A9057091AA058091AB059091AC05609350
:102CA000C5077093C6078093C7079093C807089518
:102CB00010921F0610921E067091B91D71607093DC
:102CC000B91D08953091B91D30FFA1CF10921F0694
:102CD00010921E0608955091B91D50FF9FCF40914C
:102CE000D4055091D5056091D6057091D7054093D4
:102CF000D0055093D1056093D2057093D305809190
:102D0000A9059091AA05A091AB05B091AC0580935F
:102D1000D4059093D505A093D605B093D7052091FF
:102D20002B1E30912C1E40912D1E50912E1E2F5F78
:102D30003F4F4F4F5F4F20932B1E30932C1E4093DD
:102D40002D1E50932E1E6091C5077091C60780916D
:102D5000C7079091C80760930C0670930D06809387
:102D60000E0690930F064091A9055091AA05609117
:102D7000AB057091AC054093C5075093C6076093AF
:102D8000C7077093C80708950895CF92DF92EF9216
:102D9000FF921F93CF93DF93F894C0911E06D091BA
:102DA0001F06C090C507D090C607E090C707F090F7
:102DB000C8071091CF050F9485A36093B105709358
:102DC000B2058093B3059093B4057894FE013197D2
:102DD000CD2B11F4ECE2F0E0C0912006D091210659
:102DE0002091B1053091B2054091B3055091B405E1
:102DF0002C193D094E095F09A091ED06B091EE0630
:102E00000F9463C9DC01CB01905CAF4FBF4F2FE043
:102E1000B695A795979587952A95D1F72091401C4F
:102E20003091411C820F931FCE9FB001CF9F700D38
:102E3000DE9F700D1124860F971F112311F0885902
:102E40009E4F803D22E0920754F0805D9240DF91DA
:102E5000CF911F91FF90EF90DF90CF90089597FF53
:102E6000F6CF4091260250912702E0902802F09080
:102E70002902E416F50654F08E0D9F1DDF91CF91C7
:102E80001F91FF90EF90DF90CF9008957A018E0D03
:102E90009F1DF4CF8091B91D80FF20C02091461C5A
:102EA00027FD2CC040912B1E50912C1E60912D1E91
:102EB00070912E1E443651056105710558F46091DC
:102EC0001E0670911F066D32710521F010921F06CB
:102ED00010921E0691E09093CF05089510921F0660
:102EE00010921E065091B91D51605093B91D73E0A8
:102EF0007093FC0691E09093CF05089510921F0601
:102F000010921E0633E03093FC0691E09093CF05BB
:102F100008950F9485A36093A9057093AA058093E3
:102F2000AB059093AC058091A9059091AA05A0915D
:102F3000AB05B091AC054091490550914A056091AF
:102F40004B0570914C05841B950BA60BB70B80931A
:102F5000100690931106A0931206B09313062091C9
:102F6000100630911106409112065091130660919F
:102F7000D4077091D5078091D6079091D707621733
:102F800073078407950768F080912B1E90912C1E83
:102F9000A0912D1EB0912E1E892B8A2B8B2B09F010
:102FA000B7C03091FC063F5F3093FC065091B91DCD
:102FB00050FF9EC07091FC06733008F4A9C0909138
:102FC000C30790629093C3074091A9055091AA0549
:102FD0006091AB057091AC054093490550934A054B
:102FE00060934B0570934C051092FC06A0911E0651
:102FF000B0911F061196B0931F06A0931E06E09194
:103000001E06F0911F06319741F020911E06309167
:103010001F062E32310508F440C061E070E0709365
:103020001F0660931E068091D4059091D505A0914E
:10303000D605B091D7058093D0059093D105A09384
:10304000D205B093D3054091A9055091AA0560918E
:10305000AB057091AC054093D4055093D5056093B2
:10306000D6057093D705B091CF05F1E0BF27B09397
:10307000CF0520912B1E30912C1E40912D1E50917A
:103080002E1E2F5F3F4F4F4F5F4F20932B1E3093CD
:103090002C1E40932D1E50932E1E409110065091D1
:1030A0001106609112067091130630914C1C307617
:1030B00039F03032D1F1303409F448C0303649F1BA
:1030C0001092D4071092D5071092D6071092D70706
:1030D0006091C5077091C6078091C7079091C80796
:1030E00060930C0670930D0680930E0690930F0666
:1030F0008091A9059091AA05A091AB05B091AC056E
:103100008093C5079093C607A093C707B093C807DD
:103110000895DB01CA01880F991FAA1FBB1F840FE6
:10312000951FA61FB71FAC01BD01769567955795F2
:10313000479576956795579547954093D407509353
:10314000D5076093D6077093D707C2CF769567955A
:10315000579547954093D4075093D5076093D6076A
:103160007093D707B5CF0895CF92DF92EF92FF9279
:10317000CF93DF93F894C0911E06D0911F06C090A4
:10318000C507D090C607E090C707F090C8070F9416
:1031900085A36093B1057093B2058093B3059093B6
:1031A000B405789480911E0690911F06892B99F59D
:1031B000E091401CF091411CEE58FF4F2091B10569
:1031C0003091B2054091B3055091B4052C193D09D9
:1031D0004E095F09A091ED06B091EE060F9463C908
:1031E000DC01CB01905CAF4FBF4F2FE0B695A795A8
:1031F000979587952A95D1F78E0F9F1F803D22E0E6
:103200009207B4F0805D9240DF91CF91FF90EF90F4
:10321000DF90CF900895CC0FDD1FC652DA4FE881C2
:10322000F9812091401C3091411CE20FF31FC6CF61
:1032300097FFEACF88599E4FDF91CF91FF90EF9093
:10324000DF90CF90089510921F0610921E060895E9
:1032500080911E0690911F060D9709F4A9C00F9446
:1032600085A36093A9057093AA058093AB059093FD
:10327000AC058091A9059091AA05A091AB05B091EC
:10328000AC054091C5075091C6076091C707709182
:10329000C807841B950BA60BB70B80931006909361
:1032A0001106A0931206B0931306209110063091D8
:1032B000110640911206509113066091D407709147
:1032C000D5078091D6079091D7072617370748076B
:1032D000590708F46CC0A0911E06B0911F06AB2BD5
:1032E00009F46CC0E0911E06F0911F063196F09330
:1032F0001F06E0931E06A0911E06B0911F06E091E6
:103300001E06F0911F06AA0FBB1FA652BA4FEE0F62
:10331000FF1FE852FA4F8D919C9140815181841B8F
:10332000950B9093210680932006409110065091B2
:103330001106609112067091130690914C1C9076C4
:1033400049F0903209F48CC0903409F49AC0903658
:1033500009F47AC01092D4071092D5071092D607BC
:103360001092D7075091C30750625093C307209122
:10337000C5073091C6074091C7075091C8072093F1
:103380000C0630930D0640930E0650930F06609185
:10339000A9057091AA058091AB059091AC05609349
:1033A000C5077093C6078093C7079093C807089511
:1033B0007091B91D7E7F7093B91D089521E030E0B2
:1033C00030931F0620931E066091D4057091D50599
:1033D0008091D6059091D7056093D0057093D10563
:1033E0008093D2059093D3058091A9059091AA0569
:1033F000A091AB05B091AC058093D4059093D50511
:10340000A093D605B093D7053091B91D31603093A4
:10341000B91D40912B1E50912C1E60912D1E709154
:103420002E1E4F5F5F4F6F4F7F4F40932B1E509369
:103430002C1E60932D1E70932E1EACE3B0E0B09353
:103440002106A093200671CFDB01CA01880F991FC6
:10345000AA1FBB1F840F951FA61FB71FAC01BD017C
:1034600076956795579547957695679557954795BE
:103470004093D4075093D5076093D6077093D7072E
:1034800071CF76956795579547954093D40750939C
:10349000D5076093D6077093D70764CF0895CF926E
:1034A000DF92EF92FF920F931F93CF93F8940091C6
:1034B0001E0610911F06C090C507D090C607E09069
:1034C000C707F090C807C091CF050F9485A36093FC
:1034D000B1057093B2058093B3059093B4057894C9
:1034E000E091401CF091411C0115110571F0000F95
:1034F000111FF801E652FA4F0190F081E02D809102
:10350000401C9091411CE80FF91F2091B1053091AA
:10351000B2054091B3055091B4052C193D094E09EF
:103520005F09A091ED06B091EE060F9463C9DC012E
:10353000CB01905CAF4FBF4F2FE0B695A795979505
:1035400087952A95D1F78E0F9F1FCC2311F08859AC
:103550009E4F803D22E0920754F0805D9240CF91D3
:103560001F910F91FF90EF90DF90CF90089597FFFC
:10357000F6CF88599E4FCF911F910F91FF90EF90FA
:10358000DF90CF90089510921F0610921E0681E0E2
:103590008093CF05089580911E0690911F0649974C
:1035A00009F4D3C03FB7F8944091250B5091260BF6
:1035B0006091270B7091280B26B5A89B06C02F3F62
:1035C00021F04F5F5F4F6F4F7F4F3FBF962F852F8B
:1035D000742F6627620F711D811D911D660F771F65
:1035E000881F991F660F771F881F991F6093A90571
:1035F0007093AA058093AB059093AC058091A905C3
:103600009091AA05A091AB05B091AC054091C5077A
:103610005091C6076091C7077091C807841B950B2E
:10362000A60BB70B8093100690931106A093120679
:10363000B0931306A0911E06B0911F06AB2BC9F1E3
:10364000E0911E06F0911F063196F0931F06E0935D
:103650001E06A0911E06B0911F06E0911E06F09175
:103660001F06AA0FBB1FA652BA4FEE0FFF1FE8524C
:10367000FA4F6D917C9120813181621B730B7093A5
:10368000210660932006B091C307B062B093C307D0
:103690008091A9059091AA05A091AB05B091AC05C8
:1036A0008093C5079093C607A093C707B093C80738
:1036B000089581E090E090931F0680931E0640914C
:1036C000D4055091D5056091D6057091D7054093EA
:1036D000D0055093D1056093D2057093D3056091C6
:1036E000A9057091AA058091AB059091AC056093F6
:1036F000D4057093D5058093D6059093D705509146
:10370000CF0591E059275093CF057091B91D716095
:103710007093B91D20912B1E30912C1E40912D1EAF
:1037200050912E1E2F5F3F4F4F4F5F4F20932B1E08
:1037300030932C1E40932D1E50932E1EAFE0B0E010
:10374000B0932106A09320069ECFF091B91DFE7F75
:10375000F093B91D08958091490E807F8034F1F077
:103760008036D9F420914C1C2C712C3089F146E024
:1037700050E05093BA054093B90562E070E0709351
:10378000B8056093B705A4E0B0E0B093B605A09388
:10379000B5057093A8056093A705089530914C1C5A
:1037A0003C713C30A9F0E4E0F0E0F093BA05E0931E
:1037B000B90582E090E09093B8058093B705F09347
:1037C000B605E093B5059093A8058093A7050895E5
:1037D00028E030E03093BA052093B90542E050E08C
:1037E0005093B8054093B70564E070E07093B60558
:1037F0006093B505A6E0B0E0B093A805A093A70537
:1038000008958F929F92AF92BF92CF92DF92EF92E4
:10381000FF920F931F93CF93DF938091B91D80FD8B
:103820000FC090E080E0DF91CF911F910F91FF904A
:10383000EF90DF90CF90BF90AF909F908F900895C2
:10384000F894E0911E06F0911F064091C507509133
:10385000C6076091C7077091C8073FB7F894809179
:10386000250B9091260BA091270BB091280B26B524
:10387000A89B05C02F3F19F00196A11DB11D3FBFA8
:103880008824982EA92EBA2E820E911CA11CB11C40
:10389000880C991CAA1CBB1C880C991CAA1CBB1C5C
:1038A0008092B1059092B205A092B305B092B40592
:1038B0007894EE0FFF1FE652FA4FC081D181A0909D
:1038C000401CB090411CCA0DDB1D8091B105909148
:1038D000B205A091B305B091B4057C018D01E41A45
:1038E000F50A060B170BA8019701F8949090C307EF
:1038F00096FC1CC07894A091ED06B091EE060F9452
:1039000063C9DC01CB01905CAF4FBF4F2FE0B69590
:10391000A795979587952A95D1F78C0F9D1F803D88
:1039200002E090074CF1805D92407DCFC090C507CA
:10393000D090C607E090C707F090C80780900C06AB
:1039400090900D06A0900E06B0900F06A091200654
:10395000B091210678940F9463C9A70196012819A4
:1039600039094A095B090F9476C9C9018C0F9D1F5B
:10397000803D02E09007BCF697FF55CF88599E4FD7
:1039800052CF8091B91D3FB7F8948091250B90914B
:10399000260BA091270BB091280B26B5A89B05C03C
:1039A0002F3F19F00196A11DB11D3FBF6627782F4B
:1039B000892F9A2F620F711D811D911D660F771F30
:1039C000881F991F660F771F881F991F6093A30593
:1039D0007093A4058093A5059093A6058091A305F7
:1039E0009091A405A091A505B091A6054091FD0672
:1039F0005091FE066091FF0670910007841B950BA5
:103A0000A60BB70B8093140690931506A093160689
:103A1000B0931706209114063091150640911606B2
:103A2000509117066091D8057091D9058091DA05FB
:103A30009091DB05261737074807590708F473C02C
:103A40008091A3059091A405A091A505B091A6052C
:103A50008093FD069093FE06A093FF06B0930007A7
:103A60005091C30750625093C30740911406509180
:103A7000150660911606709117067695679557950D
:103A800047954093D8055093D9056093DA05709314
:103A9000DB057091B91D70FD32C02CED35E040E0C2
:103AA00050E02093D4073093D5074093D607509326
:103AB000D7076091D8057091D9058091DA0590916A
:103AC000DB0596958795779567956093D8057093F4
:103AD000D9058093DA059093DB05E091C205F0915A
:103AE000C3059081A091C105B091490EB07F9A2382
:103AF00001F1B03409F459C0B03609F44DC06091F9
:103B0000BA1D7091BB1DE091571EF091581E6E17A3
:103B10007F0750F45091B91D50FF05C07091490EB8
:103B2000707F7034A1F008953091461C37FDF2CFBC
:103B30000895B03421F780911E0690911F060597D5
:103B4000F1F6F091B91DF160F093B91DD8CF0F9443
:103B500085A38091450590914605A0914705B091B8
:103B60004805E091C205F091C305A0819091C1057F
:103B7000A923C9F280911E0690911F0688309105F5
:103B8000E9F0B091B91DBE7FB093B91D4091681E98
:103B90004F5F4093681E089540911E0650911F0686
:103BA0004730510509F0ABCFCCCF20911E063091A4
:103BB0001F062830310509F0A2CFC3CF90931F060E
:103BC00080931E0608958091F01D82319CF026E0BE
:103BD00030E03093BA052093B90541E050E05093AE
:103BE000B8054093B70564E070E07093B605609344
:103BF000B5050895A7E0B0E0B093BA05A093B90564
:103C0000E2E0F0E0F093B805E093B70585E090E0DE
:103C10009093B6058093B5050895CF92DF92EF9209
:103C2000FF92CF93DF93F894C0911E06D0911F06A8
:103C3000C090C507D090C607E090C707F090C807AE
:103C40000F9485A36093B1057093B2058093B3057B
:103C50009093B4057894C330D1050CF040C0209106
:103C60002006309121062197C29FA001C39F500DCD
:103C7000D29F500D1124E091401CF091411CBA9646
:103C8000E40FF51F2091B1053091B2054091B305C5
:103C90005091B4052C193D094E095F09A091ED061C
:103CA000B091EE060F9463C9DC01CB01905CAF4F7D
:103CB000BF4F2FE0B695A795979587952A95D1F791
:103CC0008E0F9F1F803D22E0920714F1805D92408D
:103CD000DF91CF91FF90EF90DF90CF900895E0E7D4
:103CE000F0E0C330D10571F2809120069091210659
:103CF0002297C89FB001C99F700DD89F700D1124E5
:103D0000E091401CF091411CBA96E60FF71FBACF24
:103D100097FFDECF88599E4FDF91CF91FF90EF90B4
:103D2000DF90CF9008958091BB079091BC072091C0
:103D3000401C3091411C821B930B409128025091F2
:103D4000290297FD77C048175907DCF13091490ED9
:103D500032953F703430E9F1353008F44BC03630DD
:103D600009F44AC0383009F0A2C0BC016B55710992
:103D70006A35710508F482C0DC01A55BB109AA357A
:103D8000B10508F4A8C001978E30914008F0BCC07E
:103D9000E1E0F0E0F093BA05E093B90582E090E04D
:103DA0009093B8058093B70523E030E03093B605D3
:103DB0002093B50544E050E05093A8054093A70533
:103DC0000895841B950B3091490E32953F70343025
:103DD00019F60197843B910580F162E070E07093E1
:103DE000BA056093B905A1E0B0E0B093B805A0931F
:103DF000B7050895333071F5BC016957710968370B
:103E0000710548F10197803F910508F451C023E006
:103E100030E03093BA052093B90541E050E050936B
:103E2000B8054093B70562E070E07093B605609303
:103E3000B5050895840F951F89CF21E030E03093B8
:103E4000BA052093B90542E050E05093B80540937D
:103E5000B70508950895A2E0B0E0B093BA05A09325
:103E6000B905E3E0F0E0F093B805E093B70581E031
:103E700090E09093B6058093B5050895E2E0F0E0F8
:103E8000F093BA05E093B90583E090E09093B8050C
:103E90008093B70524E030E03093B6052093B50554
:103EA00041E050E05093A8054093A7050895089578
:103EB000A1E0B0E0B093BA05A093B905E2E0F0E06C
:103EC000F093B805E093B70583E090E09093B605D2
:103ED0008093B505089523E030E03093BA05209330
:103EE000B90544E050E05093B8054093B70561E050
:103EF00070E07093B6056093B505A2E0B0E0B093B2
:103F0000A805A093A705089564E070E07093BA0532
:103F10006093B905A1E0B0E0B093B805A093B705F0
:103F2000E2E0F0E0F093B605E093B50583E090E0C1
:103F30009093A8058093A70508958F929F92AF92C2
:103F4000BF92CF92DF92EF92FF92CF93DF93F894DC
:103F5000C0911E06D0911F06C090C507D090C6071D
:103F6000E090C707F090C8070F9485A36093B10550
:103F70007093B2058093B3059093B40578948091C3
:103F8000200690912106AE0141505109489FE00161
:103F9000499FD00D589FD00D11248090401C9090C7
:103FA000411CC80DD91D2091B1053091B205409139
:103FB000B3055091B4052C193D094E095F09F894D9
:103FC0009090C30796FC36C07894A091ED06B0910E
:103FD000EE060F9463C9DC01CB01905CAF4FBF4F7D
:103FE0002FE0B695A795979587952A95D1F78C0FD1
:103FF0009D1F803D22E092076CF0805D9240DF9132
:10400000CF91FF90EF90DF90CF90BF90AF909F90B7
:104010008F90089597FFF3CFA0902602B0902702CB
:1040200040912802509129024A155B0524F1840F22
:10403000951FE5CFC090C507D090C607E090C70791
:10404000F090C80780900C0690900D06A0900E0688
:10405000B0900F06A0912006B091210678940F949D
:1040600063C9A7019601281939094A095B090F9408
:1040700076C9C901BCCFA501840F951FC0CFCF92CF
:10408000DF92EF92FF92CF93462F2091401C309108
:10409000411CFC01E21BF30BC091CE052091CC0525
:1040A0003091CD055C2F5F7121153105A9F52C2FBD
:1040B000CC0F330B220F232F221F330B8FEF9FEFD9
:1040C000052E02C0880F991F0A94E2F780959095FB
:1040D000BF01770F660B762F862397238E0F9F1FC6
:1040E00002C0959587955A95E2F782279327821B00
:1040F000930B20914F1C240F3327331F18161906DA
:104100009CF52817390714F4821B930BCF91FF906D
:10411000EF90DF90CF900895DF010F94E4C96C0118
:10412000FF24D7FCF094EF2CC601C6FF0EC02C2F45
:10413000CC0F330B220F232F221F330BCF018227EB
:104140009327821B930B8C0D9D1D02C0959587951F
:104150005A95E2F797FD019620914F1C240F3327C3
:10416000331F181619066CF2820F931FCF91FF9020
:10417000EF90DF90CF900895CF9380914C1C8C717D
:104180008C3079F1C0E06C2F8091BB079091BC0717
:104190000E943F209093BA058093B9056C2F8091BF
:1041A000B9079091BA070E943F209093B805809379
:1041B000B7056C2F8091B7079091B8070E943F20F8
:1041C0009093B6058093B5056C2F8091B5079091BB
:1041D000B6070E943F209093A8058093A705CF9132
:1041E00008952091451CC0914F1C21FFCCCFCACF10
:1041F000CF92DF92EF92FF921F93CF93DF93F894C9
:10420000C0911E06D0911F06C090C507D090C6076A
:10421000E090C707F090C8071091CF050F9485A3D1
:104220006093B1057093B2058093B3059093B40584
:104230007894209719F4C0914F1CD0E0E0912006AB
:10424000F09121062091B1053091B2054091B3055E
:104250005091B4052C193D094E095F09A091ED0656
:10426000B091EE060F9463C9DC01CB01905CAF4FB7
:10427000BF4F2FE0B695A795979587952A95D1F7CB
:104280002091401C3091411C820F931F2197CE9F9B
:10429000B001CF9F700DDE9F700D1124860F971F08
:1042A000112321F0D090451CD1FE25C0803D22E095
:1042B000920754F0805D9240DF91CF911F91FF9063
:1042C000EF90DF90CF90089597FFF6CF40912602B0
:1042D00050912702E0902802F0902902E416F5069A
:1042E0006CF08E0D9F1DDF91CF911F91FF90EF908D
:1042F000DF90CF90089588599E4FD8CF7A018E0DC8
:104300009F1DF1CFCF92DF92EF92FF92CF93DF9379
:104310000F9485A36093A3057093A4058093A505CE
:104320009093A6058091A3059091A405A091A50561
:10433000B091A6054091FD065091FE066091FF06E2
:1043400070910007841B950BA60BB70B8093140686
:1043500090931506A0931606B0931706C090140606
:10436000D0901506E0901606F09017062091D8051B
:104370003091D9054091DA055091DB05C216D3067C
:10438000E406F50608F464C08091A3059091A405A5
:10439000A091A505B091A6058093FD069093FE0619
:1043A000A093FF06B09300074091140650911506A4
:1043B0006091160670911706769567955795479503
:1043C00076956795579547954093D8055093D905AD
:1043D0006093DA057093DB05D090B91DD0FE53C011
:1043E000C0902B1ED0902C1EE0902D1EF0902E1E03
:1043F00080914B1C90E0B0E0A0E08C159D05AE05CF
:10440000BF0508F040C080914F1C90E0E0901E0670
:10441000F0901F068E159F0591F020912B1E309174
:104420002C1E40912D1E50912E1E2330310541052A
:10443000510528F03091681E3F5F3093681EF09060
:10444000461CF7FE58C090931F0680931E0653C06B
:104450006091E9067091EA068091EB069091EC0676
:1044600096958795779567956093D8057093D9054C
:104470008093DA059093DB05DF91CF91FF90EF9069
:10448000DF90CF9008950F9485A36093C507709334
:10449000C6078093C7079093C8070F9485A36B0145
:1044A0007C01C0914F1C2C2F30E050E040E060E8D0
:1044B0007DE88BE590E00F9476C9C21AD30AE40A2E
:1044C000F50AC0920C06D0920D06E0920E06F0920C
:1044D0000F06D0E0D0931F06C0931E061092D4079B
:1044E0001092D5071092D6071092D7075091B91D98
:1044F00051605093B91D71E07093CF05DF91CF915A
:10450000FF90EF90DF90CF900895CF92DF92EF92DF
:10451000FF92CF93462F2091401C3091411CFC010B
:10452000E21BF30BC091CE052091CC053091CD0557
:104530005C2F5F712115310509F04CC08C2FCC0F19
:10454000990B880F892F881F990B2FEF3FEF052EAE
:1045500002C0220F331F0A94E2F720953095BF0165
:10456000770F660B762F262337232E0F3F1F02C0AF
:10457000359527955A95E2F728273927281B390BB7
:1045800060914F1C6D3010F02150310970E0842F84
:1045900090E06B01C80ED91E121613060CF040C035
:1045A000C216D306D4F1E0901C06F0901D06E21668
:1045B000F30620F46217730708F097018E0D9F1D14
:1045C0002817390708F4C901CF91FF90EF90DF90C9
:1045D000CF900895DF010F94E4C96C01FF24D7FC4C
:1045E000F094EF2C9601C6FF0EC08C2FCC0F990BC8
:1045F000880F892F881F990B9F0128273927281B8F
:10460000390B2C0D3D1D02C0359527955A95E2F7C3
:10461000832F880F211D311DB3CF2C193D09C3CF26
:104620002C0D3D1DC0CFCF9380914C1C8C718C30D4
:1046300079F1C0E06C2F8091BB079091BC070E947C
:1046400085229093BA058093B9056C2F8091B907A4
:104650009091BA070E9485229093B8058093B70580
:104660006C2F8091B7079091B8070E948522909394
:10467000B6058093B5056C2F8091B5079091B6076C
:104680000E9485229093A8058093A705CF91089555
:104690002091451C21FDCDCF3091490EC0914F1C7A
:1046A00032FFC8CFC6CFCF92DF92EF92FF92F8943D
:1046B00020911E0630911F069091CF05C090C5072E
:1046C000D090C607E090C707F090C8077894409153
:1046D00020065091210621503109249FF001259F89
:1046E000F00D349FF00D11246091401C7091411C1D
:1046F000E60FF71F992321F08091451C81FF63C0CD
:104700003FB7F8944091250B5091260B6091270BF1
:104710007091280BA6B5A89B06C0AF3F21F04F5F54
:104720005F4F6F4F7F4F3FBF2227342F452F562FAC
:104730002A0F311D411D511D220F331F441F551FCC
:10474000220F331F441F551F2093B1053093B2052C
:104750004093B3055093B4052C193D094E095F09E8
:10476000A091ED06B091EE060F9463C9DC01CB0178
:10477000905CAF4FBF4F7FE0B695A7959795879513
:104780007A95D1F78E0F9F1F803D22E092073CF073
:10479000805D9240FF90EF90DF90CF90089597FF5B
:1047A000F9CFE0902602F090270240912802509124
:1047B00029024E155F0554F0840F951FFF90EF906E
:1047C000DF90CF900895E859FE4F9ACFA701840F4C
:1047D000951FF4CFCF92DF92EF92FF920F9485A3B3
:1047E000609341057093420580934305909344057F
:1047F0008091410590914205A0914305B0914405F7
:1048000040913D0550913E0560913F0570914005F6
:10481000841B950BA60BB70B809318069093190673
:10482000A0931A06B0931B06C0903D05D0903E059C
:10483000E0903F05F0904005CD28CE28CF28C1F468
:10484000109218061092190610921A0610921B0662
:104850002091410530914205409143055091440516
:1048600020933D0530933E0540933F05509340050E
:10487000409118065091190660911A0670911B0616
:104880008091390590913A05A0913B05B0913C0586
:10489000481759076A077B0708F4B3C0A091C405FD
:1048A000B091C5051196B093C505A093C40560915C
:1048B00018067091190680911A0690911B0696951C
:1048C0008795779567959695879577956795609382
:1048D000390570933A0580933B0590933C05E09130
:1048E0000A02F0910B021995AC01893621E092077A
:1048F0000CF443C09C0129563140A3E8BDE20F945B
:1049000098C90024880F991F001C880F991F001C4C
:10491000892F902D8770992748565140493621E0BC
:1049200052075CF1009719F181309105D1F0823086
:104930009105A9F08330910581F08430910559F0FB
:104940008530910531F0069711F048565140485690
:10495000514048565140485651404856514048569B
:10496000514048565140493621E0520734F04054F6
:104970005B40493681E05807D4F7E090401CF09046
:10498000411C4E195F093091BE1E3370323031F434
:10499000C090B91CD090BA1C4C195D09E091BC1CA8
:1049A0009A01220F331FF0E0A0E0B1E0AE1BBF0B75
:1049B0000F94E4C96B017C01A091811EB091821E0D
:1049C0009F010F94ECC9C60ED71EE81EF91ECD2C10
:1049D000DE2CEF2CFF24E7FCFA94D092821EC092CA
:1049E000811E20914105309142054091430550912F
:1049F000440520933D0530933E0540933F05509379
:104A00004005FF90EF90DF90CF900895CF92DF9216
:104A1000EF92FF920F9485A36093A3057093A40572
:104A20008093A5059093A6058091A3059091A40578
:104A3000A091A505B091A6054091FD065091FE06F6
:104A40006091FF0670910007841B950BA60BB70BB6
:104A50008093140690931506A0931606B09317063C
:104A6000C090FD06D090FE06E090FF06F090000793
:104A7000CD28CE28CF28C1F4109214061092150626
:104A800010921606109217062091A3053091A405E6
:104A90004091A5055091A6052093FD063093FE0692
:104AA0004093FF065093000740911406509115065D
:104AB00060911606709117068091D8059091D905DE
:104AC000A091DA05B091DB05481759076A077B0703
:104AD00008F443C03091481C3F77313009F442C09C
:104AE00008F434C1343049F5A091FA06B091FB06C0
:104AF0001196B093FB06A093FA066091FA067091A6
:104B0000FB066230710509F4BDC1809114069091D5
:104B10001506A0911606B0911706B695A79597951C
:104B20008795B695A795979587958093D805909387
:104B3000D905A093DA05B093DB054091A305509108
:104B4000A4056091A5057091A6054093FD065093BC
:104B5000FE066093FF0670930007FF90EF90DF90D2
:104B6000CF9008958091FD069091FE06A091FF06DA
:104B7000B0910007C090C805D090C905E090CA0563
:104B8000F090CB058C199D09AE09BF09AC01BD01A0
:104B9000440F551F661F771F840F951FA61FB71F51
:104BA000B695A7959795879580939F059093A005B7
:104BB000A093A105B093A2052091FD063091FE06B9
:104BC0004091FF06509100072093C8053093C90516
:104BD0004093CA055093CB05409114065091150699
:104BE000609116067091170680919F059091A0051F
:104BF000A091A105B091A205481759076A077B0744
:104C000040F46091FA067091FB066430710508F477
:104C100017C181E090E09093FB068093FA068093A1
:104C2000CF051092D8051092D9051092DA0510928E
:104C3000DB053091B81E35FF80CF5091CF0555234D
:104C400009F47BCFE0910A02F0910B021995AC01B7
:104C5000893621E092070CF443C09C01295631406B
:104C6000A3E8BDE20F9498C90024880F991F001C87
:104C7000880F991F001C892F902D877099274856FF
:104C80005140493621E052075CF1009719F181301B
:104C90009105D1F082309105A9F08330910581F022
:104CA0008430910559F08530910531F0069711F067
:104CB0004856514048565140485651404856514038
:104CC000485651404856514048565140493621E0D7
:104CD000520734F040545B40493681E05807D4F71E
:104CE000E090401CF090411C4E195F097091BE1E6F
:104CF0007370723031F420917B1D30917C1D421B0A
:104D0000530BD090BC1C9A01220F331F4D2D50E045
:104D1000A0E0B1E0A41BB50B0F94E4C96B017C01CA
:104D2000A0916D1EB0916E1E9A010F94ECC9C60E33
:104D3000D71EE81EF91ECD2CDE2CEF2CFF24E7FC3D
:104D4000FA94D0926E1EC0926D1EF7CE91E09093B1
:104D5000CF0560911406709115068091160690910A
:104D6000170696958795779567956093D805709304
:104D7000D9058093DA059093DB05A091FA06B091EE
:104D8000FB061196B093FB06A093FA06B091B81EED
:104D9000B5FFD3CEF091CF05FF2309F4CECEE0913D
:104DA0000A02F0910B021995AC01893621E09207B5
:104DB0000CF496CF9C0129563140A3E8BDE20F9434
:104DC00098C90024880F991F001C880F991F001C88
:104DD000892F902D8770992748565140493621E0F8
:104DE00052070CF47DCF009721F181309105D1F06D
:104DF00082309105A9F08330910581F084309105CE
:104E000059F08530910531F0069711F04856514020
:104E100048565140485651404856514048565140D6
:104E20004856514048565140493681E058070CF4E5
:104E300057CF40545B40493681E05807D4F750CFF4
:104E4000C0901406D0901506E0901606F090170654
:104E5000F694E794D794C794F694E794D794C794BC
:104E6000C092D805D092D905E092DA05F092DB0520
:104E7000A091FA06B091FB061196B093FB06A093A1
:104E8000FA065BCE51E05093CF05D090B81ED5FE08
:104E90003CCEE090CF05EE2009F437CEE0910A0237
:104EA000F0910B021995AC01893621E092070CF4C0
:104EB00043C09C0129563140A3E8BDE20F9498C934
:104EC0000024880F991F001C880F991F001C892F30
:104ED000902D8770992748565140493621E0520756
:104EE0005CF1009719F181309105D1F08230910584
:104EF000A9F08330910581F08430910559F0853017
:104F0000910531F0069711F04856514048565140EE
:104F100048565140485651404856514048565140D5
:104F200048565140493621E0520734F040545B4026
:104F3000493681E05807D4F7C090401CD090411CFE
:104F40004C195D097091BE1E7370723031F420915E
:104F50007B1D30917C1D421B530BF090BC1C9A01B1
:104F6000220F331F4F2D50E0A0E0B1E0A41BB50B82
:104F70000F94E4C96B017C01A0916D1EB0916E1E6F
:104F80009A010F94ECC9C60ED71EE81EF91ECD2C4F
:104F9000DE2CEF2CFF24E7FCFA94D0926E1EC09218
:104FA0006D1EB3CD0F931F9320910A1E26FD21C0C5
:104FB00000916B1E002301F141111BC0E091C90754
:104FC000F091CA07EE0FFF1FEE0FFF1FE35CFC4FCF
:104FD00060837183828393832091C9073091CA07CC
:104FE0002E37310508F453C0B0910A1EB064B09357
:104FF0000A1E1F910F91089580916C1E8823C9F39A
:10500000E091C907F091CA07E254FD4F1082E09188
:10501000C205F091C305A091BF05B091C0058430D1
:1050200009F446C090811091C105912349F0E091A7
:10503000C907F091CA07E254FD4F308131603083D7
:10504000E091BC05F091BD05833009F496C05C91F8
:105050006091BE05562349F0A091C907B091CA07D7
:10506000A254BD4F7C9172607C93B081F091BB05DE
:10507000BF2349F0E091C907F091CA07E254FD4F00
:10508000308134603083442309F44BC041C0A09187
:10509000C907B091CA071196B093CA07A093C90770
:1050A000F0910A1EFF7BF0930A1E1F910F91089545
:1050B0005C916091BE05562349F0A091C907B0915B
:1050C000CA07A254BD4F7C9171607C93A091BC052E
:1050D000B091BD05BC912091BB05B22349F0A091D0
:1050E000C907B091CA07A254BD4F0C9102600C933E
:1050F000F0818091C105F82349F0E091C907F09152
:10510000CA07E254FD4F108114601083423049F405
:10511000E091C907F091CA07E254FD4F4081486011
:1051200040839091B91D90FF09C0E091C907F091AB
:10513000CA07E254FD4F3081306130835091CF0572
:10514000E091C907F091CA07E254FD4F552351F190
:105150007081706270830091C9071091CA070F9423
:1051600085A3000F111F000F111FF801E35CFC4F16
:1051700060837183828393832FCF20810091BB054D
:10518000202349F0E091C907F091CA07E254FD4F8E
:105190008081826080831C919091BE05192309F45F
:1051A00072CF68CF60816F7D6083D5CF8091C30758
:1051B0008F7D8093C3072091C30720622093C3078C
:1051C000309153053330E1F0323081F0313029F441
:1051D000E0910402F0910502199570916C1E7723FD
:1051E00021F0A091C307A5FD15C00895E091BC056D
:1051F000F091BD0540819091BB05492349F3EDCF66
:10520000E091BC05F091BD0550816091BB0556232E
:10521000F9F6E3CF609118067091190680911A068D
:1052200090911B0642E00C94D2278091C3078F7D9A
:105230008093C3072091C30720622093C307309156
:1052400055053330E1F0323081F0313029F4E0910E
:105250000602F0910702199570916C1E772321F0D8
:10526000A091C307A5FD15C00895E091BF05F09179
:10527000C00540819091BE05492349F3EDCFE091EF
:10528000BF05F091C00550816091BE055623F9F627
:10529000E3CF6091140670911506809116069091E7
:1052A000170641E00C94D2278091C3078F7D80932D
:1052B000C30720915105233099F12230A1F021300C
:1052C000D9F4E0910202F09103021995A0916B1EAE
:1052D000AA2321F0B091C307B5FD17C0F0916C1E51
:1052E000F11113C00895E091C205F091C30530811A
:1052F0009091C105392329F360916B1E662371F3E8
:105300007091C30775FFEACF089560911006709100
:105310001106809112069091130640E00C94D2275A
:10532000E091C205F091C30540815091C10545232C
:1053300041F6E2CF90E080E0089590E080E00895AB
:10534000EF92FF920F931F93CF93DF9390910A1EDA
:1053500096FF16C154E050930507C82FD0E0CF3711
:10536000D1050CF0FBC0DE01A095B095A370BB2762
:10537000109709F456C0A130B10549F1129709F010
:1053800081C18E01000F111F000F111F035C1C4F04
:10539000F80180819181A281B3818B2F0F94CC9AE7
:1053A000F80160817181828193810F94CC9AF80118
:1053B00080819181A281B381892F0F94CC9AF801C9
:1053C00080819181A281B3810F94CC9A21968E0124
:1053D000000F111F000F111F035C1C4FF80180818B
:1053E0009181A281B3818B2F0F94CC9AF8016081B7
:1053F0007181828193810F94CC9AF801808191818F
:10540000A281B381892F0F94CC9AF8018081918178
:10541000A281B3810F94CC9A2196CF37D10509F49C
:105420009DC08E01000F111F000F111F035C1C4F48
:10543000F80180819181A281B3818B2F0F94CC9A46
:10544000F80160817181828193810F94CC9AF80177
:1054500080819181A281B381892F0F94CC9AF80128
:1054600080819181A281B3810F94CC9A7E01FFEF5C
:10547000EF1AFF0A8701000F111F000F111F035CB5
:105480001C4FF80180819181A281B3818B2F0F94F1
:10549000CC9AF80160817181828193810F94CC9ABA
:1054A000F80180819181A281B381892F0F94CC9AD8
:1054B000F80180819181A281B3810F94CC9A8701F8
:1054C000000F111F000F111F0F5B1C4FF80180818F
:1054D0009181A281B3818B2F0F94CC9AF8016081C6
:1054E0007181828193810F94CC9AF801808191819E
:1054F000A281B381892F0F94CC9AF8018081918188
:10550000A281B3810F94CC9A8E01000F111F000F5E
:10551000111F075B1C4FF80180819181A281B3812B
:105520008B2F0F94CC9AF8016081718182819381D5
:105530000F94CC9AF80180819181A281B381892F47
:105540000F94CC9AF80180819181A281B3810F944C
:10555000CC9A2496CF37D10509F063CF40910A1E2B
:105560004F7B40930A1E109205071092CA071092B3
:10557000C907DF91CF911F910F91FF90EF90089590
:105580004CEF51E061E06093BD0EE090C00E809161
:10559000C10EE091B50EF091B60EE81609F45EC0AA
:1055A0002091C00E30E02F5F3F4F2F733327022F23
:1055B00003C00FB607FE22C01091C10E0117C9F338
:1055C000E091C00EF0E0EE5FF04F10823FB7F8942C
:1055D0002093C00EE091B70EF091B80E20812062AA
:1055E00020833FBF4150510971F610920507DF91AA
:1055F000CF911F910F91FF90EF900895708175FFEB
:10560000DBCFE091C10EF0E0EE5FF04FA081E091C2
:10561000C10EF0E03196EF73FF27E093C10EC09109
:10562000BB0ED091BC0EA883E091B50EF091B60EE2
:10563000B081B370B064B083D091C00EF091C10E50
:10564000DF1307C0C091B70ED091B80E98819F7D2F
:105650009883E091B50EF091B60EAECFF080F5FED6
:105660009FCFEFB6F894C091BB0ED091BC0E1882BC
:10567000E091B50EF091B60E8081837080648083D6
:10568000EFBEB0CF8E01000F111F000F111F035C82
:105690001C4FF80180819181A281B3818B2F0F94DF
:1056A000CC9AF80160817181828193810F94CC9AA8
:1056B000F80180819181A281B381892F0F94CC9AC6
:1056C000F80180819181A281B3810F94CC9A2196B7
:1056D00058CEDF92EF92FF920F931F93CF93DF93F9
:1056E0008C01EB0180910002882321F010920002CE
:1056F00010921F1E4091B91D90910B1ED0900B1E51
:10570000242F217030E03195219531092927207807
:1057100033272D2520930B1E1092290BD12CED2C15
:10572000F12CEC16FD0658F4C701800F911F0E9462
:105730008EC4F701E75DF44F8183D394F0CF1091CD
:10574000591E177F1093591EDF91CF911F910F9112
:10575000FF90EF90DF900895CF93C82F0F94C29BD6
:10576000892BE1F38C2FCF910D94CC9ACF93C82F36
:10577000892F0E94AC2B8C2FCF910C94AC2B809155
:10578000BE0E2091BF0E90E0805C9F4F821B91095E
:105790008F739927892B19F00F94B49AF0CF08953D
:1057A0000F931F930F94699A00919F021091A0028A
:1057B0002091A1023091A202601B710B820B930B0E
:1057C00021E0693B7B408105910508F420E0822FB0
:1057D0001F910F9108953FB7F8948091250B9091F8
:1057E000260BA091270BB091280B26B5A89B05C0CE
:1057F0002F3F19F00196A11DB11D3FBF6627782FDD
:10580000892F9A2F620F711D811D911D660F771FC1
:10581000881F991F660F771F881F991F6093A9051E
:105820007093AA058093AB059093AC058091A90570
:105830009091AA05A091AB05B091AC054091C50728
:105840005091C6076091C7077091C807841B950BDC
:10585000A60BB70B8093100690931106A093120627
:10586000B093130620911006309111064091120654
:10587000509113066091D4077091D5078091D60797
:105880009091D707261737074807590708F48EC0A5
:105890005091C30750625093C307A0911E06B09168
:1058A0001F061196B0931F06A0931E06E0911E06D8
:1058B000F0911F06319709F47AC080911E069091ED
:1058C0001F06059709F473C09091B91D90FF6EC033
:1058D000B0910D1EB1FF13C0F0914C1CF7FF0FC02B
:1058E000A0911E06B0911F06119709F4B6C0E09171
:1058F0001E06F0911F06339711F40E94F58D40911A
:105900001E0650911F064130510509F48FC02091A9
:105910001E0630911F062330310509F487C06CE65E
:1059200070E070932106609320064091100650911C
:1059300011066091120670911306DB01CA01880FEF
:10594000991FAA1FBB1F840F951FA61FB71F33E007
:10595000B695A795979587953A95D1F78093D407F3
:105960009093D507A093D607B093D7072091C5078A
:105970003091C6074091C7075091C80720930C0685
:1059800030930D0640930E0650930F066091A905C3
:105990007091AA058091AB059091AC056093C50705
:1059A0007093C6078093C7079093C807089541E096
:1059B00050E050931F0640931E062091D40530916D
:1059C000D5054091D6055091D7052093D005309349
:1059D000D1054093D2055093D3056091A9057091EC
:1059E000AA058091AB059091AC056093D4057093A6
:1059F000D5058093D6059093D7057091B91D716038
:105A00007093B91D80912B1E90912C1EA0912D1E7C
:105A1000B0912E1E0196A11DB11D80932B1E909357
:105A20002C1EA0932D1EB0932E1E4ECF88E490E026
:105A30009093210680932006409110065091110604
:105A400060911206709113064093D4075093D507C6
:105A50006093D6077093D70789CF0E94BF8E4FCF30
:105A6000CF92DF92EF92FF920F931F93CF9380918B
:105A7000FE0D807390914C1C90FD1EC0803109F486
:105A800069C08032F1F430917A1E333009F429C1B3
:105A900008F4E7C0353009F4D9C008F437C136300E
:105AA00081F4F090060E78ECF79ED0011124B093AB
:105AB000341EA093331E05C0803159F0803209F4A2
:105AC00087C0CF911F910F91FF90EF90DF90CF9003
:105AD000089510917A1E133009F4E8C008F498C0B4
