:100000000C94B3120D9417A60D94ECA50D94C1A5F4
:100010000D9496A50D946BA50D9440A50D9415A572
:100020000D94EAA40C94E4120C94E4120C94E412DF
:100030000C94E4120C94E4120C94E4120D944749CD
:100040000C94E4120C94D5850C94B9830D949E15F0
:100050000C94E4120C94E4120C94E4120D9472A328
:100060000C94E4120D9428A70D94E8A60C94E412C5
:100070000C94E4120C94E4120C94E4120C94E41228
:100080000C943AA70C94B8A60C9436A60C94E412DF
:100090000C94E4120C94E4120C94E4120C94E41208
:1000A0000C94E4120C94E4120C94B0A40C94B4A537
:1000B0000C9432A50C94E4120C94E4120C94BEA39C
:1000C0000C94CCA20C94DAA10C94E4120C94E412DB
:1000D0000C94E4120C94E4120D94B1A60D9471A644
:1000E0000C94E4120D94B30C0C940AB00C94678A2F
:1000F0000D94FA2D0C94A1C40C94EDC40C94DEC59F
:100100000C94BEC20C94BB7C0C9402970C941EC33E
:100110000C9429E60D94310B0C942F760C9490C11D
:100120000C943EC40D9484550C94E2F40D9463A693
:100130000D94BB950C94A5EC0D9447570C94AEDD33
:100140000C9418760C9493C60C945EC30C944DAA30
:100150000C94219F0D94BB2F0C943C3A0C9404C238
:100160000C94CCC50C9425C20D948F950C9457C556
:100170000C94E5C10C94E1C40C9476FB0C9417C666
:100180000C94D8C40D949AAA0C94F6C20C94D1B2D3
:100190000C94F9C20C94837B0C9461180C94747CBD
:1001A0000C94187C0C94CA470C94B0AB0C9489D86E
:1001B0000C94EB2A0C945DE70D9489950D94C2196B
:1001C0000C9441C40C94FBC10C943BDC0D945EA4D4
:1001D0000C94558A0C9492C40C9459C20D948F2D92
:1001E0000C94F3F10C9415C30C940AC20C942CC516
:1001F0000C94637B0C9498C40C943EC50D94778842
:100200000C94A48A0D94A2AA0C941D420C9411C4BF
:100210000C94A2430C945B8A0C94E9A90C9444D6E8
:100220000C94F9140C9449230C94FEF60C94954FFD
:100230000D9447110C9444C30C949BC20C9490B23F
:100240000C949D280C9441C30C9402D40D94370255
:100250000C94C3B20C941A9C0C94C23A0C9492C2A3
:100260000C94E44C0C94144D0C9451130C9400B069
:100270000C9405DC0C94E87C0C9412C30C941EB313
:100280000C9426AC0C94627C0C94B5D20C94338CF8
:100290000C94694A0C9481770C94AD8D0C94E2C156
:1002A0000C94B0C20C94829E0C940E4D0C94618AF6
:1002B0000D9420950C94D5C50C9468C20C947B8A3F
:1002C0000C9421B10C9402E20C94A2C10C94E1B004
:1002D0000C94ADC20C94BC920C9444C20C94C3C454
:1002E0000C948FC40C94D29E0C94A1AB0D9444300A
:1002F0000C947E470C94F6C40D94D1A30C9462C464
:100300000C94659C0C94CDC10D94C0560C9470C592
:100310000D94CBA40C94C8CD0C94615D0C94B3E700
:100320000D94A0070C946AB10D9460A40D94BF3293
:100330000C94D77C0C940FC30C94C9C40C947C43CC
:100340000C9424C30C9490940C942C500C943BE388
:100350000C945FC40C94EEB00D94AF950C947AC2DB
:100360000D94D3170C94B8DC0C94D9420C94C48A25
:100370000D9413570C9425C40D941CA40D946A0F6E
:100380000C941FC40C94B7570C942DE00C94878CDC
:100390000D94B7A40D947C570C9464DF0C947AC42C
:1003A0000C94D5C40C9433AD0D9468A40D9465A63B
:1003B0000D9462A40C9411C60C946A7B0C9429B021
:1003C0000C94DDC00C9432C40C940FDE0D94A995EE
:1003D0000D946D310C941FC20C94FAAB0C9419C29D
:1003E0000C94F2170D9463790C94BBC10C944A3AA7
:1003F0000D94DF950D94C01A0C94037C0C94D0C11D
:100400000C9472220C94DD420C9401C20C9489C4A9
:100410000D94E28A0C9418C30C9449B20C94407762
:100420000D94D81D0C94D6270C94C7160C94D3C1E8
:100430000C9410C20C94DE7B0C9430C30C94EC989A
:100440000D94B5950D94A30E0C948CC40C94E1C539
:100450000C944AC20C94EA7B0C94E8AC0C941D6694
:100460000C94D6EE0D94C1320C9481140C94EFB21E
:100470000C94AAC20C94687C0D9417310C944250D1
:100480000C94DCC10C946C600C9471C40C94577681
:100490000C9459C40D9493950D9421550C94719F0F
:1004A0000C9486C40D942B260D94DA090C9458C331
:1004B0000D94C72C0C94A54B0C944DCE0C94FB4E74
:1004C0000C94A6970C9436200D94BBC30C945AC878
:1004D0000C94ED4C0C9462C20C94EFC90C94B64190
:1004E0000C9486D00C94ABE80C94C6C50C94DDFA41
:1004F0000C94329A0C94AF9C0C94F5C10C94E5903A
:100500000C940DC20C9467960C94AAC40D94625777
:100510000D94F40E0D94BA320D943D710D9433C7C1
:100520000C9474B00C9456C40C9435C50C94ECAB7C
:100530000D94A7960D946A2C0C949EC40C94661886
:100540000C9454CE0C94D28A0C9480C20C94EEC5B8
:100550000D94E50B0C94438D0D94A4AA0C94375084
:100560000D94D1880C942EC40C9469B00C9474C46E
:100570000C945A4A0C94438A0C94E91A0D94601E08
:100580000C94EAAF0C9457930C942E950C94AEB245
:100590000C94B2220C946E7C0C9416C40C94CFAFC5
:1005A0000C94AEC10D945D1B0D94DD040C94BD8ABA
:1005B0000D94B6AA0D9402A40C94E4C40C946BC4DC
:1005C0000D94EF870D94B0560C9420C50C948E9921
:1005D0000D94E5950C9493B10C943EC20C9417C500
:1005E0000C94D6E30C94D2C50C94C4C10C9474C280
:1005F0000C949FC10C94AD4E0D94517A0D94CD0680
:100600000C94A7C40D9424A40C94E04C0C944AC4FC
:100610000C9471C20D94E1560C9486C60C94C2479A
:100620000C94C1C10C9456770C94B0DD0D9469A65E
:100630000C94FD7B0C94C0200C94908A0C9486C280
:100640000C94D49A0D94212D0C9420470C94FF66A1
:100650000C94C9C50D94B7570C9403160C94D43A56
:100660000C943AC30C94789B0D944E0E0D94F25555
:100670000C9473470C9419C40C94C0750C94D876E0
:100680000C948D4A0C9402C30C948D7D0C94011A29
:100690000C9472E20C944ED80C94F4C50C949BC448
:1006A0000C9429C50C9440E80D94CD950C94F5B0AC
:1006B0000C94D17B0C94F2C10C9409AC0C94DEC464
:1006C0000C94F5AF0D94A6AA0C94D38A0C9466777B
:1006D0000C94EAC40D94A3950C9446CE0C940BC6CE
:1006E0000C94098E0C94A94C0D94B0C60C94D2C4F1
:1006F0000C94D73A0C9421C30D948D320C94CAAC4F
:100700000C94F5930D94702E0D94D9A40C9450B3C1
:100710000D94638A0C94BF7B0D94ABA40C94CFC44E
:100720000D94091E0C94EDE00C94B68A0C9495C4BB
:100730000C94ABC10C9431A90C94A6B00C9427C3B3
:100740000C9480C40D9498AA0C9415280C9418E36A
:100750000C9411F90C9446C50C9418AC0D944909ED
:100760000C94DAFC0C9426C60C941E920C94BCAC2F
:100770000D948E950C94898A0C94864A0D94D99583
:100780000D949CAA0C941CC20C9465C20C94F11795
:100790000C9436C30C9483910C9426660C9427CF4A
:1007A0000C9432C50C945BC30C9420D90C9483C474
:1007B0000D94D42E0C94211D0C9410B30C9400C6EF
:1007C0000C949CAF0C9424E40C94D6DF0C94CE13C0
:1007D0000C94A7C20C94D9C10D94C7950D94251FF4
:1007E0000D94B2C20D945C890C944A760D94F1A3D9
:1007F0000C94D9B20C947CC10C9411C50C9417B311
:100800000D94C1950D9451A40C94A37C0C9461C3D8
:100810000C949CC10D942DBB0D94E51D0C941AC530
:100820000D949E370C947FAF0C94C1C20C94AB8D89
:100830000C94DBC40C9495C20C944D470C94F1C5F8
:100840000C94604A0C94E6120D94F1950C944DC2F0
:100850000D9474050C94E1430C9443C50C9468C446
:100860000C946D8A0C94CCC40C948FE10C94296682
:100870000C9426C50C9444C40C94C0C40D949C03E1
:100880000C945CC20D949EAA0C94D8C50D94A8AA91
:100890000C9486A80C94F9C40C9435C40C94DB1EFB
:1008A0000C9406E40D9484A40C94E8B00C940EC54A
:1008B0000C947A7C0C94B5C10C94DFC10C9422C4C6
:1008C0000C94AD7B0C9497E30C9428C40C943B8D52
:1008D0000C94B4D20C94C1B00D9400C40D94A3A494
:1008E0000C9414CE0C949B430C9477C40C9438C590
:1008F0000C9472B10C94091A0C941BC30C94D7C2BB
:100900000C94D7420D94A30A0C94B8C10C943F8D5B
:100910000D949B890C9444650D942E380C94498A4F
:100920000C94C6D30C94D78B0C94FA9C0C941AC6D6
:100930000C9409AD0D940F8A0C94D0C20C94974C72
:100940000D94D0560C94CAC10C942AC30C94E74E53
:100950000C9403E20C9413C20D94ACAA0C94058E73
:100960000C948C4E0C948D190C9402C50D94B532D8
:100970000C9481C50D9443120C947DC40C94FA1F01
:100980000C947FB00C94BEC10C9416C20C94DC4E37
:100990000C948CC20C94A24E0C9496C10C942366B9
:1009A0000C94F0C40C94974E0C945CC40C948BB2D1
:1009B0000C9459670C9414C50C94FB4C0C9465244E
:1009C0000D9412060C94A24C0C94128F0D94AEAAA6
:1009D0000C9498C20C9455CB0C94B2C10D946FA694
:1009E0000C9447C20C942FC50C943F1B0C94E39DB0
:1009F0000D94260D0C946EC20C9465C40C94A38DBA
:100A00000C9420660C94A78D0C947F430C94CFC556
:100A10000C94F7C50C942DC30C9444B00C94A4C54D
:100A20000D94A0AA0C943BC20C945CB10D94691E69
:100A30000D940AC50C948A4F0D94641A0C942E7769
:100A40000C94E3CA0C94E47B0C948A7D0C94698E1C
:100A50000C94C9950D944F080C94D9A80C9480144B
:100A60000C94A07B0C94B9AF0C940FFC0C94B4F3D1
:100A70000C94AC8F0C94278B0D94D3950C94D11DB2
:100A80000C9426770D9410A40C94F8140C94A4C420
:100A90000C948FC20C94AFDD0C94838B0C94C8B073
:100AA0000C94AA8A0D9415880D94AAAA0C94B3C22A
:100AB0000D947F0C0D9497950C9408C50C94EF5EE3
:100AC0000C949F430C94FCC40D94242F0C94C87C6C
:100AD0000C9451AA0C940CC30C941DC50C945FC2C9
:100AE0000D9423570C94D9B00C9414B00D945CA4BD
:100AF0000C9402160C94EDA90C949A280C946D8E0B
:100B00000D946DA60C943EE30C945D420C945E77BC
:100B10000C945FB00D9479260C940D8E0D94F5C550
:100B20000C9422C20C94E7CE0D94A0550C9434ACD6
:100B30000C94323B0C94C7C10D946BA60C941CC44E
:100B40000C94F77B0C9407C20C941A5C0C9489C229
:100B50000C94883B0D9467A60C9438C40C9415E350
:100B60000D94BE320C9450C20C94F3C40C94EBC59B
:100B70000C94A1C20C9453AC0C94E0B20C9491A9C7
:100B80000C94647D0C94DBC50D9404030C94FBB0B1
:100B90000D94791A0C94758E0C94E8C50C9483C24C
:100BA0000C9477C20D94B4AA0C94A4C20C94C354B0
:100BB0000C941A660C94FAC50C94E9C20C94753A1C
:100BC0000D9422790C94D5AB0D94682F0C94949DC0
:100BD0000C949D510C94449D0D9466A40C94ECE3EC
:100BE0000C94E7C40C9444E40C945EC50D94B0AA34
:100BF0000C94DBB00C94718E0C94FFC40C9493C1D4
:100C00000D94B2AA0D94BA870D94BB0B0C9423C516
:100C10000D94800D0C9450E30C94B27B0C941EB098
:100C20000C94A8C10C94D6C10C946BC20C9414C63D
:100C30000C94B9C20C941E770C94378D0C94489880
:100C40000D9449970C946D470D9430A40C94C6C430
:100C50000C947DC20D94C0100C9478470D94BFA4E1
:100C60000C94478D0C94E8C10D94F0950C94B08AC7
:100C70000C9488160C9406DD0C948EE10D940D975F
:100C80000C9450C40D94B0320C9404C60C94C9B2A8
:100C90000D9495A40C943EC30D9464A40C9465DF4C
:100CA0000C9426B30D9434950C944B1D0C94339EE8
:100CB0000C94CB8A0C94748A0C9453C40D94F13721
:100CC0000C948C190C9463B10C9431440C9408C6A8
:100CD0000C94CAE90C9499C10C9498430C949EC24C
:100CE0000D949D950C940EC60C94B1DA0C94FDC530
:100CF0000C9441C20D94AC300C940DCC0C947CC37C
:100D00000C9476E80C9419440C94A5C10C944DC431
:100D10000C9488E70C9447C40C9433C30C940BC513
:100D20000C94CB430C94844B0C94F3C20C947DAC88
:100D30000D94EDAA0C94978A0C943C670C9454285B
:100D40000C94FF1B0C944A900C94FEC10D94975781
:100D50000D94F3180C9405C50C94F8C10C946EC452
:100D60000C943BC40C9453C20C949E8A0C94E8B22D
:100D70000C94E38C0C94828A0C944F8A0C9456C287
:100D80000C94018E0C942BC40D9453015265736521
:100D90007420636F6E74726F6C2069732063757258
:100DA00072656E746C792064697361626C65642E1F
:100DB00000436F6D6D732068616C7465642E204E06
:100DC00065787420627974652077696C6C2072652F
:100DD000736574207468652041726475696E6F2E46
:100DE0000000537065656475696E6F20323032346F
:100DF0002E30322E3100737065656475696E6F2018
:100E000032303234303200000030303200FF0A50CD
:100E100061676520686173206E6F74206265656E1E
:100E200020696D706C656D656E746564207965749C
:100E3000000A426F6F7374206C6F6F6B7570207453
:100E400061626C65000A326E642049676E6974697C
:100E50006F6E204D6170000A326E64204675656CBD
:100E6000204D6170000A5061676520392043666734
:100E7000000A5472696D2031205461626C65000A69
:100E8000565654204D6170000A426F6F7374204DA6
:100E90006170000A5067203620436F6E66696700F4
:100EA0000A414652204D6170000A506720342043A9
:100EB0006667000A49676E6974696F6E204D6170DC
:100EC000000A5067203220436667000A5645204DCD
:100ED0006170000A3D3D3D436F6D6D616E64204859
:100EE000656C703D3D3D0A0A416C6C20636F6D6D11
:100EF000616E6473206172652073696E676C652032
:100F000063686172616374657220616E64206172EE
:100F10006520636F6E636174656E617465642077CC
:100F200069746820746865697220706172616D65AA
:100F300074657273200A776974686F7574207370B2
:100F4000616365732E53796E7461783A20203C6337
:100F50006F6D6D616E643E2B3C706172616D657486
:100F60006572313E2B3C706172616D6574657232E1
:100F70003E2B3C706172616D657465724E3E0A0A6B
:100F80003D3D3D4C697374206F6620436F6D6D610C
:100F90006E64733D3D3D0A0A41202D204469737003
:100FA0006C617973203331206279746573206F66C8
:100FB0002063757272656E745374617475732076F4
:100FC000616C75657320696E2062696E617279204B
:100FD000286C6976652064617461290A42202D209D
:100FE0004275726E2063757272656E74206D6170E9
:100FF00020616E6420636F6E66696750616765206B
:1010000076616C75657320746F20656570726F6DA5
:101010000A43202D205465737420434F4D20706F78
:1010200072742E2020557365642062792054756E89
:10103000657273747564696F20746F2073656520C1
:101040007768657468657220616E20454355206934
:1010500073206F6E206120676976656E20736572FC
:1010600069616C200A20202020706F72742E20523B
:10107000657475726E7320612062696E6172792089
:101080006E756D6265722E0A4E202D205072696E4B
:1010900074206E6577206C696E652E0A50202D20B5
:1010A0005365742063757272656E74207061676534
:1010B0002E202053796E7461783A2020502B3C709A
:1010C0006167654E756D6265723E0A52202D205330
:1010D000616D65206173204120636F6D6D616E6489
:1010E0000A53202D20446973706C617920736967FD
:1010F0006E6174757265206E756D6265720A51203D
:101100002D2053616D65206173205320636F6D6DD9
:10111000616E640A56202D20446973706C617920D9
:101120006D6170206F7220636F6E666967506167D2
:10113000652076616C75657320696E2062696E61E9
:1011400072790A57202D20536574206F6E652062D6
:1011500079746520696E206D6170206F7220636FF5
:101160006E666967506167652E20204578706563FB
:1011700074732062696E61727920706172616D654D
:10118000746572732E200A2020202053796E7461BA
:10119000783A2020572B3C6F66667365743E2B3C73
:1011A0006E6577627974653E0A74202D20536574EC
:1011B0002063616C6962726174696F6E2076616C24
:1011C0007565732E2020457870656374732062699D
:1011D0006E61727920706172616D65746572732ED3
:1011E00020205461626C6520696E646578206973A3
:1011F0002065697468657220302C200A2020202028
:10120000312C206F7220322E202053796E74617839
:101210003A2020742B3C74626C655F6964783E2BC5
:101220003C6E657756616C7565313E2B3C6E65771B
:1012300056616C7565323E2B3C6E657756616C75F8
:10124000654E3E0A5A202D20446973706C617920E6
:1012500063616C6962726174696F6E2076616C752E
:1012600065730A54202D20446973706C6179732072
:1012700032353620746F6F7468206C6F6720656E2E
:10128000747269657320696E2062696E6172790A91
:1012900072202D20446973706C6179732032353669
:1012A00020746F6F7468206C6F6720656E7472694C
:1012B00065730A55202D2050726570617265206635
:1012C0006F72206669726D776172652075706461F6
:1012D00074652E20546865206E6578742062797478
:1012E000652072656365697665642077696C6C203A
:1012F0006361757365207468652041726475696EF9
:101300006F20746F2072657365742E0A3F202D2044
:10131000446973706C6179732074686973206865BF
:101320006C702070616765002C2000575545004F98
:101330003200496E6C65742074656D7000436F6F88
:101340006C616E7400526573657420636F6E7472A5
:101350006F6C2069732063757272656E746C79208E
:1013600064697361626C65642E00436F6D6D7320F8
:1013700068616C7465642E204E657874206279749F
:10138000652077696C6C207265736574207468657C
:101390002041726475696E6F2E004552523B2049A0
:1013A0006E636F727265637420454550524F4D20D5
:1013B00073697A6500303032002000200020002060
:1013C000002020202000537065656475696E6F20D1
:1013D0003230323430322E31007370656564756995
:1013E0006E6F203230323430320053706565647570
:1013F000696E6F2063737830323031392E380000D7
:1014000000800020012001800020018000F0008089
:1014100001C000C0002001C00080002001000104C4
:101420000E11161A1C212A2C2E30323436383A3C32
:101430003E40424446484C4E505256585A5D5F63B7
:10144000686F797D000020002300260029002C0011
:101450002F00320000010000030106010901000015
:101460000A0B02090C0D0E0807030401000000001E
:10147000000000000000000000000000000000006C
:101480000000000000000000000012111000000029
:10149000000000000000000000000000000000004C
:1014A0000000000000000000963007772C610EEE6F
:1014B000BA51099919C46D078FF46A7035A563E9AB
:1014C000A395649E3288DB0EA4B8DC791EE9D5E0D2
:1014D00088D9D2972B4CB609BD7CB17E072DB8E7D1
:1014E000911DBF906410B71DF220B06A4871B9F326
:1014F000DE41BE847DD4DA1AEBE4DD6D51B5D4F45F
:10150000C785D38356986C13C0A86B647AF962FDC3
:10151000ECC9658A4F5C0114D96C0663633D0FFA10
:10152000F50D088DC8206E3B5E10694CE44160D516
:10153000727167A2D1E4033C47D4044BFD850DD200
:101540006BB50AA5FAA8B5356C98B242D6C9BBDB13
:1015500040F9BCACE36CD832755CDF45CF0DD6DC0E
:10156000593DD1ABAC30D9263A00DE518051D7C8B5
:101570001661D0BFB5F4B42123C4B3569995BACF40
:101580000FA5BDB89EB802280888055FB2D90CC661
:1015900024E90BB1877C6F2F114C6858AB1D61C1DA
:1015A0003D2D66B69041DC760671DB01BC20D298F9
:1015B0002A10D5EF8985B1711FB5B606A5E4BF9F86
:1015C00033D4B8E8A2C9077834F9000F8EA8099679
:1015D00018980EE1BB0D6A7F2D3D6D08976C6491E4
:1015E000015C63E6F4516B6B62616C1CD8306585FD
:1015F0004E0062F2ED95066C7BA5011BC1F40882DA
:1016000057C40FF5C6D9B06550E9B712EAB8BE8B1A
:101610007C88B9FCDF1DDD62492DDA15F37CD38CA3
:10162000654CD4FB5861B24DCE51B53A7400BCA3A1
:10163000E230BBD441A5DF4AD795D83D6DC4D1A4D3
:10164000FBF4D6D36AE96943FCD96E34468867ADAA
:10165000D0B860DA732D0444E51D03335F4C0AAA49
:10166000C97C0DDD3C710550AA41022710100BBE4C
:1016700086200CC925B56857B3856F2009D466B993
:101680009FE461CE0EF9DE5E98C9D9292298D0B0C8
:10169000B4A8D7C7173DB359810DB42E3B5CBDB775
:1016A000AD6CBAC02083B8EDB6B3BF9A0CE2B603F6
:1016B0009AD2B1743947D5EAAF77D29D1526DB04AB
:1016C0008316DC73120B63E3843B64943E6A6D0DF6
:1016D000A85A6A7A0BCF0EE49DFF099327AE000A41
:1016E000B19E077D44930FF0D2A3088768F2011ED4
:1016F000FEC206695D5762F7CB67658071366C196B
:10170000E7066B6E761BD4FEE02BD3895A7ADA108B
:10171000CC4ADD676FDFB9F9F9EFBE8E43BEB7176C
:10172000D58EB060E8A3D6D67E93D1A1C4C2D838F6
:1017300052F2DF4FF167BBD16757BCA6DD06B53F5C
:101740004B36B248DA2B0DD84C1B0AAFF64A03369B
:10175000607A0441C3EF60DF55DF67A8EF8E6E311A
:1017600079BE69468CB361CB1A8366BCA0D26F2563
:1017700036E2685295770CCC03470BBBB9160222B0
:101780002F260555BE3BBAC5280BBDB2925AB42BC5
:10179000046AB35CA7FFD7C231CFD0B58B9ED92CDA
:1017A0001DAEDE5BB0C2649B26F263EC9CA36A753F
:1017B0000A936D02A906099C3F360EEB85670772F6
:1017C00013570005824ABF95147AB8E2AE2BB17B5D
:1017D000381BB60C9B8ED2920DBED5E5B7EFDC7CE4
:1017E00021DFDB0BD4D2D38642E2D4F1F8B3DD683B
:1017F0006E83DA1FCD16BE815B26B9F6E177B06F36
:101800007747B718E65A0888706A0FFFCA3B066622
:101810005C0B0111FF9E658F69AE62F8D3FF6B61AF
:1018200045CF6C1678E20AA0EED20DD75483044E51
:10183000C2B30339612667A7F71660D04D476949DF
:10184000DB776E3E4A6AD1AEDC5AD6D9660BDF40F2
:10185000F03BD83753AEBCA9C59EBBDE7FCFB247A5
:10186000E9FFB5301CF2BDBD8AC2BACA3093B3538A
:10187000A6A3B4240536D0BA9306D7CD2957DE5493
:10188000BF67D9232E7A66B3B84A61C4021B685D6C
:10189000942B6F2A37BE0BB4A18E0CC31BDF055AE5
:1018A0008DEF022D0000000041311B19826236329B
:1018B000C3532D2B04C56C6445F4777D86A75A5617
:1018C000C796414F088AD9C849BBC2D18AE8EFFA06
:1018D000CBD9F4E30C4FB5AC4D7EAEB58E2D839EC7
:1018E000CF1C98875112C24A1023D953D370F47871
:1018F0009241EF6155D7AE2E14E6B537D7B5981C97
:101900009684830559981B8218A9009BDBFA2DB099
:101910009ACB36A95D5D77E61C6C6CFFDF3F41D446
:101920009E0E5ACDA2248495E3159F8C2046B2A723
:101930006177A9BEA6E1E8F1E7D0F3E82483DEC32E
:1019400065B2C5DAAAAE5D5DEB9F464428CC6B6FED
:1019500069FD7076AE6B3139EF5A2A202C09070BDE
:101960006D381C12F33646DFB2075DC6715470ED58
:1019700030656BF4F7F32ABBB6C231A275911C89AE
:1019800034A00790FBBC9F17BA8D840E79DEA92581
:1019900038EFB23CFF79F373BE48E86A7D1BC5415E
:1019A0003C2ADE58054F79F0447E62E9872D4FC20C
:1019B000C61C54DB018A159440BB0E8D83E823A618
:1019C000C2D938BF0DC5A0384CF4BB218FA7960AE9
:1019D000CE968D130900CC5C4831D7458B62FA6EE8
:1019E000CA53E177545DBBBA156CA0A3D63F8D886E
:1019F000970E96915098D7DE11A9CCC7D2FAE1EC98
:101A000093CBFAF55CD762721DE6796BDEB5544074
:101A10009F844F5958120E161923150FDA70382467
:101A20009B41233DA76BFD65E65AE67C2509CB5714
:101A30006438D04EA3AE9101E29F8A1821CCA7331F
:101A400060FDBC2AAFE124ADEED03FB42D83129FE0
:101A50006CB20986AB2448C9EA1553D029467EFBEF
:101A6000687765E2F6793F2FB7482436741B091D65
:101A7000352A1204F2BC534BB38D485270DE65799F
:101A800031EF7E60FEF3E6E7BFC2FDFE7C91D0D56C
:101A90003DA0CBCCFA368A83BB07919A7854BCB16F
:101AA0003965A7A84B98833B0AA99822C9FAB509BA
:101AB00088CBAE104F5DEF5F0E6CF446CD3FD96D15
:101AC0008C0EC27443125AF3022341EAC1706CC1F6
:101AD000804177D847D7369706E62D8EC5B500A545
:101AE00084841BBC1A8A41715BBB5A6898E87743AF
:101AF000D9D96C5A1E4F2D155F7E360C9C2D1B2795
:101B0000DD1C003E120098B9533183A09062AE8B69
:101B1000D153B59216C5F4DD57F4EFC494A7C2EFC4
:101B2000D596D9F6E9BC07AEA88D1CB76BDE319C03
:101B30002AEF2A85ED796BCAAC4870D36F1B5DF82C
:101B40002E2A46E1E136DE66A007C57F6354E854DD
:101B50002265F34DE5F3B202A4C2A91B679184305C
:101B600026A09F29B8AEC5E4F99FDEFD3ACCF3D696
:101B70007BFDE8CFBC6BA980FD5AB2993E099FB2AC
:101B80007F3884ABB0241C2CF115073532462A1E51
:101B900073773107B4E17048F5D06B513683467ADC
:101BA00077B25D634ED7FACB0FE6E1D2CCB5CCF974
:101BB0008D84D7E04A1296AF0B238DB6C870A09DD6
:101BC0008941BB84465D2303076C381AC43F153135
:101BD000850E0E2842984F6703A9547EC0FA7955A6
:101BE00081CB624C1FC538815EF423989DA70EB34C
:101BF000DC9615AA1B0054E55A314FFC996262D756
:101C0000D85379CE174FE149567EFA50952DD77BA0
:101C1000D41CCC62138A8D2D52BB963491E8BB1F25
:101C2000D0D9A006ECF37E5EADC265476E91486CDC
:101C30002FA05375E836123AA90709236A542408DD
:101C40002B653F11E479A796A548BC8F661B91A42C
:101C5000272A8ABDE0BCCBF2A18DD0EB62DEFDC0AD
:101C600023EFE6D9BDE1BC14FCD0A70D3F838A2643
:101C70007EB2913FB924D070F815CB693B46E6425D
:101C80007A77FD5BB56B65DCF45A7EC5370953EE98
:101C9000763848F7B1AE09B8F09F12A133CC3F8A2D
:101CA00072FD249300000000376AC2016ED48403E1
:101CB00059BE4602DCA80907EBC2CB06B27C8D04F4
:101CC00085164F05B851130E8F3BD10FD685970D52
:101CD000E1EF550C64F91A095393D8080A2D9E0AAE
:101CE0003D475C0B70A3261C47C9E41D1E77A21F4D
:101CF000291D601EAC0B2F1B9B61ED1AC2DFAB18B8
:101D0000F5B56919C8F23512FF98F713A626B11177
:101D1000914C7310145A3C152330FE147A8EB81669
:101D20004DE47A17E0464D38D72C8F398E92C93B57
:101D3000B9F80B3A3CEE443F0B84863E523AC03C25
:101D40006550023D58175E366F7D9C3736C3DA35D5
:101D500001A9183484BF5731B3D59530EA6BD3321B
:101D6000DD01113390E56B24A78FA925FE31EF2704
:101D7000C95B2D264C4D62237B27A0222299E620A9
:101D800015F3242128B4782A1FDEBA2B4660FC29DB
:101D9000710A3E28F41C712DC376B32C9AC8F52E17
:101DA000ADA2372FC08D9A70F7E75871AE591E73E8
:101DB0009933DC721C2593772B4F517672F117748F
:101DC000459BD57578DC897E4FB64B7F16080D7D17
:101DD0002162CF7CA4748079931E4278CAA0047AD1
:101DE000FDCAC67BB02EBC6C87447E6DDEFA386FB0
:101DF000E990FA6E6C86B56B5BEC776A02523168DB
:101E00003538F369087FAF623F156D6366AB2B61B0
:101E100051C1E960D4D7A665E3BD6464BA03226604
:101E20008D69E06720CBD74817A115494E1F534B4A
:101E30007975914AFC63DE4FCB091C4E92B75A4C20
:101E4000A5DD984D989AC446AFF00647F64E40453A
:101E5000C12482444432CD4173580F402AE649429E
:101E60001D8C8B435068F154670233553EBC755747
:101E700009D6B7568CC0F853BBAA3A52E2147C502C
:101E8000D57EBE51E839E25ADF53205B86ED6659B4
:101E9000B187A4583491EB5D03FB295C5A456F5E12
:101EA0006D2FAD5F801B35E1B771F7E0EECFB1E28A
:101EB000D9A573E35CB33CE66BD9FEE73267B8E5BE
:101EC000050D7AE4384A26EF0F20E4EE569EA2EC88
:101ED00061F460EDE4E22FE8D388EDE98A36ABEBFC
:101EE000BD5C69EAF0B813FDC7D2D1FC9E6C97FEC9
:101EF000A90655FF2C101AFA1B7AD8FB42C49EF98A
:101F000075AE5CF848E900F37F83C2F2263D84F0A9
:101F1000115746F1944109F4A32BCBF5FA958DF7AF
:101F2000CDFF4FF6605D78D95737BAD80E89FCDA05
:101F300039E33EDBBCF571DE8B9FB3DFD221F5DDEB
:101F4000E54B37DCD80C6BD7EF66A9D6B6D8EFD403
:101F500081B22DD504A462D033CEA0D16A70E6D36D
:101F60005D1A24D210FE5EC527949CC47E2ADAC670
:101F7000494018C7CC5657C2FB3C95C3A282D3C177
:101F800095E811C0A8AF4DCB9FC58FCAC67BC9C805
:101F9000F1110BC9740744CC436D86CD1AD3C0CF61
:101FA0002DB902CE4096AF9177FC6D902E422B92C8
:101FB0001928E9939C3EA696AB546497F2EA2295C1
:101FC000C580E094F8C7BC9FCFAD7E9E9613389C29
:101FD000A179FA9D246FB598130577994ABB319B77
:101FE0007DD1F39A3035898D075F4B8C5EE10D8E84
:101FF000698BCF8FEC9D808ADBF7428B8249048905
:10200000B523C68888649A83BF0E5882E6B01E80C6
:10201000D1DADC8154CC938463A651853A181787B2
:102020000D72D586A0D0E2A997BA20A8CE0466AAE0
:10203000F96EA4AB7C78EBAE4B1229AF12AC6FAD4E
:1020400025C6ADAC1881F1A72FEB33A6765575A444
:10205000413FB7A5C429F8A0F3433AA1AAFD7CA348
:102060009D97BEA2D073C4B5E71906B4BEA740B60B
:1020700089CD82B70CDBCDB23BB10FB3620F49B152
:1020800055658BB06822D7BB5F4815BA06F653B8C2
:10209000319C91B9B48ADEBC83E01CBDDA5E5ABFC4
:1020A000ED3498BE000000006567BCB88BC809AA73
:1020B000EEAFB5125797628F32F0DE37DC5F6B25DB
:1020C000B938D79DEF28B4C58A4F087D64E0BD6F4D
:1020D000018701D7B8BFD64ADDD86AF23377DFE08F
:1020E000561063589F571950FA30A5E8149F10FAFC
:1020F00071F8AC42C8C07BDFADA7C76743087275F3
:10210000266FCECD707FAD951518112DFBB7A43F6E
:102110009ED0188727E8CF1A428F73A2AC20C6B092
:10212000C9477A083EAF32A05BC88E18B5673B0A34
:10213000D00087B26938502F0C5FEC97E2F05985D8
:102140008797E53DD1878665B4E03ADD5A4F8FCF5A
:102150003F2833778610E4EAE37758520DD8ED40F4
:1021600068BF51F8A1F82BF0C49F97482A30225A33
:102170004F579EE2F66F497F9308F5C77DA740D57C
:1021800018C0FC6D4ED09F352BB7238DC518969F78
:10219000A07F2A271947FDBA7C204102928FF410B4
:1021A000F7E848A83D58149B583FA823B6901D3126
:1021B000D3F7A1896ACF76140FA8CAACE1077FBE16
:1021C0008460C306D270A05EB7171CE659B8A9F4A4
:1021D0003CDF154C85E7C2D1E0807E690E2FCB7BBA
:1021E0006B4877C3A20F0DCBC768B17329C70461D1
:1021F0004CA0B8D9F5986F4490FFD3FC7E5066EEA2
:102200001B37DA564D27B90E284005B6C6EFB0A4E5
:10221000A3880C1C1AB0DB817FD767399178D22B49
:10222000F41F6E9303F7263B66909A83883F2F91A5
:10223000ED589329546044B43107F80CDFA84D1EC3
:10224000BACFF1A6ECDF92FE89B82E4667179B54F1
:10225000027027ECBB48F071DE2F4CC93080F9DBEF
:1022600055E745639CA03F6BF9C783D3176836C118
:10227000720F8A79CB375DE4AE50E15C40FF544E7B
:102280002598E8F673888BAE16EF3716F84082046F
:102290009D273EBC241FE92141785599AFD7E08B9B
:1022A000CAB05C333BB659ED5ED1E555B07E5047C0
:1022B000D519ECFF6C213B62094687DAE7E932C8A1
:1022C000828E8E70D49EED28B1F951905F56E482D3
:1022D0003A31583A83098FA7E66E331F08C1860D3D
:1022E0006DA63AB5A4E140BDC186FC052F2949176A
:1022F0004A4EF5AFF376223296119E8A78BE2B981D
:102300001DD997204BC9F4782EAE48C0C001FDD22C
:10231000A566416A1C5E96F779392A4F97969F5DAC
:10232000F2F123E505196B4D607ED7F58ED162E79A
:10233000EBB6DE5F528E09C237E9B57AD94600683E
:10234000BC21BCD0EA31DF888F56633061F9D622D8
:10235000049E6A9ABDA6BD07D8C101BF366EB4AD52
:10236000530908159A4E721DFF29CEA511867BB719
:1023700074E1C70FCDD91092A8BEAC2A4611193806
:102380002376A5807566C6D810017A60FEAECF723E
:102390009BC973CA22F1A457479618EFA939ADFD1E
:1023A000CC5E114506EE4D766389F1CE8D2644DC78
:1023B000E841F86451792FF9341E9341DAB126537C
:1023C000BFD69AEBE9C6F9B38CA1450B620EF019A2
:1023D00007694CA1BE519B3CDB3627843599929608
:1023E00050FE2E2E99B95426FCDEE89E12715D8CAB
:1023F0007716E134CE2E36A9AB498A1145E63F0364
:10240000208183BB7691E0E313F65C5BFD59E949DB
:10241000983E55F12106826C44613ED4AACE8BC60B
:10242000CFA9377E38417FD65D26C36EB389767CCF
:10243000D6EECAC46FD61D590AB1A1E1E41E14F349
:102440008179A84BD769CB13B20E77AB5CA1C2B927
:1024500039C67E0180FEA99CE59915240B36A0366D
:102460006E511C8EA7166686C271DA3E2CDE6F2C6A
:1024700049B9D394F081040995E6B8B17B490DA31D
:102480001E2EB11B483ED2432D596EFBC3F6DBE92D
:10249000A69167511FA9B0CC7ACE0C749461B9662D
:1024A000F10605DE00002200250028002B002E008A
:1024B0003100340002010000050108010B01000099
:1024C0002100240027002A002D00300033000101E4
:1024D0000000040107010A010505050507050808B4
:1024E0000808020202020A0A08080404040401019E
:1024F00001010101010103030303030303030407B3
:1025000007070C0C0C0C0C0C0C0C02020202060649
:102510000606060606060B0B0B0B0B0B0B0B01023C
:1025200010202008081020401020408002010201E5
:10253000080402010102040810204080804020109D
:1025400008040201800402018040201008040201F6
:10255000080402010102040810204080010204085E
:1025600010204080980611241FBECFEFD1E2DEBFBD
:10257000CDBF00E00CBF12E0A0E0B2E0E2E4F4E97D
:1025800003E00BBF02C007900D92A837B107D9F73F
:102590002FE1A8E7B2E001C01D92AE3EB207E1F71D
:1025A00012E1C3EBD2E100E006C021970109802FC0
:1025B000FE010F9492C9C23BD10780E00807A9F73A
:1025C0000F94D5AF0D941FCA0C9400009091EE1D8E
:1025D00080914A1C8C718C3071F19A30BCF41916C0
:1025E000A4F421E030E03093BA052093B90543E02C
:1025F00050E05093B8054093B7053093B60520934B
:10260000B5055093A8054093A705089564E070E0D0
:102610007093BA056093B905A2E0B0E0B093B80535
:10262000A093B7057093B6056093B505B093A80560
:10263000A093A70508959A30DCF4191634F7E1E069
:10264000F0E0F093BA05E093B90583E090E0909351
:10265000B8058093B70525E030E03093B6052093A8
:10266000B50547E050E05093A8054093A7050895AD
:1026700068E070E07093BA056093B905A2E0B0E03D
:10268000B093B805A093B705E4E0F0E0F093B60589
:10269000E093B50586E090E09093A8058093A705A8
:1026A0000895CF92DF92EF92FF92F894E0911E0688
:1026B000F0911F06C090C307D090C407E090C507F3
:1026C000F090C6073FB7F8948091230B9091240BAC
:1026D000A091250BB091260B26B5A89B05C02F3FD6
:1026E00019F00196A11DB11D3FBF6627782F892FD4
:1026F0009A2F620F711D811D911D660F771F881F14
:10270000991F660F771F881F991F6093B1057093FB
:10271000B2058093B3059093B40578942091B105E8
:102720003091B2054091B3055091B4052C193D0983
:102730004E095F09A091EB06B091EC060F9432C9E7
:10274000DC01CB01905CAF4FBF4F5FE0B695A79522
:10275000979587955A95D1F7EE0FFF1FE652FA4FDE
:1027600040815181E0903E1CF0903F1CE40EF51E2C
:102770008E0D9F1D803D22E092073CF0805D9240CF
:10278000FF90EF90DF90CF90089597FFF9CF885991
:102790009E4FFF90EF90DF90CF9008950F944CA341
:1027A0006093A3057093A4058093A5059093A60557
:1027B0008091A3059091A405A091A505B091A605CF
:1027C0004091FB065091FC066091FD067091FE065B
:1027D000841B950BA60BB70B8093140690931506DC
:1027E000A0931606B093170620910B1E21FD49C039
:1027F0003091B71D30FF45C0409114065091150629
:1028000060911606709117068091D8059091D905B0
:10281000A091DA05B091DB05481759076A077B07D5
:1028200078F12091A3053091A4054091A505509120
:10283000A6052093FB063093FC064093FD065093BB
:10284000FE0660911406709115068091160690910F
:102850001706609397057093980580939905909358
:102860009A05A091F806B091F9061196B093F90671
:10287000A093F806E0911E06F0911F06319771F0C3
:1028800008956CED75E080E090E06093D20770935E
:10289000D3078093D4079093D507AECF4091A3057B
:1028A0005091A4056091A5057091A6058091C3077C
:1028B0009091C407A091C507B091C60784179507EA
:1028C000A607B707E8F68091A3059091A405A0910B
:1028D000A505B091A6052091C3073091C40740918A
:1028E000C5075091C607821B930BA40BB50B8093B1
:1028F0004D0590934E05A0934F05B0935005089554
:102900000895CF92DF92EF92FF92CF93DF93F894E6
:10291000C0911E06D0911F06C090C307D090C40777
:10292000E090C507F090C6070F944CA36093B105E3
:102930007093B2058093B3059093B4057894809119
:102940002006909121062097C9F53BE0389FF001C1
:10295000399FF00D112440913E1C50913F1CE40F13
:10296000F51F2091B1053091B2054091B30550910A
:10297000B4052C193D094E095F09A091EB06B091F1
:10298000EC060F9432C9DC01CB01905CAF4FBF4F16
:102990002FE0B695A795979587952A95D1F78E0F35
:1029A0009F1F803D22E09207C4F0805D9240DF913E
:1029B000CF91FF90EF90DF90CF9008952197C89F1F
:1029C000F001C99FF00DD89FF00D112420913E1CFD
:1029D00030913F1CE20FF31FC4CF97FFE8CF885917
:1029E0009E4FDF91CF91FF90EF90DF90CF900895B1
:1029F00008958091100690911106A0911206B09151
:102A000013068093970590939805A0939905B0932A
:102A10009A050F944CA36093A9057093AA0580931F
:102A2000AB059093AC058091A9059091AA05A09162
:102A3000AB05B091AC054091C3075091C4076091BC
:102A4000C5077091C607841B950BA60BB70B809327
:102A5000100690931106A0931206B0931306A0914E
:102A60001E06B0911F061196B0931F06A0931E0676
:102A70002091C10720622093C10760911E067091CA
:102A80001F066D30710509F45BC0E0911E06F091E0
:102A90001F06319709F45DC08091970590919805C4
:102AA000A0919905B0919A05B695A79597958795A8
:102AB00080939B0590939C05A0939D05B0939E05E4
:102AC0004091100650911106609112067091130604
:102AD00080919B0590919C05A0919D05B0919E05CC
:102AE000481759076A077B0708F12091C3073091FF
:102AF000C4074091C5075091C60720930C06309338
:102B00000D0640930E0650930F066091A905709133
:102B1000AA058091AB059091AC056093C3077093B3
:102B2000C4078093C5079093C607089510921F06A7
:102B300010921E067091B71D71607093B71D0895B5
:102B40003091B71D30FFA1CF10921F0610921E06C4
:102B500008955091B71D50FF9FCF4091D4055091DB
:102B6000D5056091D6057091D7054093D005509357
:102B7000D1056093D2057093D3058091A9059091FA
:102B8000AA05A091AB05B091AC058093D4059093B4
:102B9000D505A093D605B093D7052091291E309175
:102BA0002A1E40912B1E50912C1E2F5F3F4F4F4FDE
:102BB0005F4F2093291E30932A1E40932B1E509363
:102BC0002C1E6091C3077091C4078091C507909136
:102BD000C60760930C0670930D0680930E069093C3
:102BE0000F064091A9055091AA056091AB0570911F
:102BF000AC054093C3075093C4076093C507709317
:102C0000C60708950895CF92DF92EF92FF921F9327
:102C1000CF93DF93F894C0911E06D0911F06C09009
:102C2000C307D090C407E090C507F090C607109185
:102C3000CF050F944CA36093B1057093B2058093B8
:102C4000B3059093B4057894FE013197CD2B11F420
:102C5000ECE2F0E0C0912006D09121062091B10570
:102C60003091B2054091B3055091B4052C193D093E
:102C70004E095F09A091EB06B091EC060F9432C9A2
:102C8000DC01CB01905CAF4FBF4F2FE0B695A7950D
:102C9000979587952A95D1F720913E1C30913F1C3E
:102CA000820F931FCE9FB001CF9F700DDE9F700DDE
:102CB0001124860F971F112311F088599E4F803DD4
:102CC00022E0920754F0805D9240DF91CF911F91F6
:102CD000FF90EF90DF90CF90089597FFF6CF40914F
:102CE000260250912702E0902802F0902902E41673
:102CF000F50654F08E0D9F1DDF91CF911F91FF902F
:102D0000EF90DF90CF9008957A018E0D9F1DF4CF44
:102D10008091B71D80FF20C02091441C27FD2CC04E
:102D20004091291E50912A1E60912B1E70912C1EDD
:102D3000443651056105710558F460911E06709185
:102D40001F066D32710521F010921F0610921E06AB
:102D500091E09093CF05089510921F0610921E06E1
:102D60005091B71D51605093B71D73E07093FA06F0
:102D700091E09093CF05089510921F0610921E06C1
:102D800033E03093FA0691E09093CF0508950F94C5
:102D90004CA36093A9057093AA058093AB0590930B
:102DA000AC058091A9059091AA05A091AB05B091C1
:102DB000AC054091490550914A0560914B057091D1
:102DC0004C05841B950BA60BB70B809310069093B4
:102DD0001106A0931206B0931306209110063091AD
:102DE000110640911206509113066091D20770911E
:102DF000D3078091D4079091D50762177307840792
:102E0000950768F08091291E90912A1EA0912B1E93
:102E1000B0912C1E892B8A2B8B2B09F0B7C03091D7
:102E2000FA063F5F3093FA065091B71D50FF9EC0DF
:102E30007091FA06733008F4A9C09091C1079062AE
:102E40009093C1074091A9055091AA056091AB05E7
:102E50007091AC054093490550934A0560934B052A
:102E600070934C051092FA06A0911E06B0911F06B1
:102E70001196B0931F06A0931E06E0911E06F091D6
:102E80001F06319741F020911E0630911F062E3209
:102E9000310508F440C061E070E070931F06609354
:102EA0001E068091D4059091D505A091D605B091CC
:102EB000D7058093D0059093D105A093D205B09308
:102EC000D3054091A9055091AA056091AB05709179
:102ED000AC054093D4055093D5056093D605709307
:102EE000D705B091CF05F1E0BF27B093CF05209172
:102EF000291E30912A1E40912B1E50912C1E2F5FAF
:102F00003F4F4F4F5F4F2093291E30932A1E40930F
:102F10002B1E50932C1E409110065091110660916B
:102F200012067091130630914A1C307639F0303217
:102F3000D1F1303409F448C0303649F11092D2074B
:102F40001092D3071092D4071092D5076091C3074F
:102F50007091C4078091C5079091C60760930C06D5
:102F600070930D0680930E0690930F068091A9052D
:102F70009091AA05A091AB05B091AC058093C307D1
:102F80009093C407A093C507B093C6070895DB01CB
:102F9000CA01880F991FAA1FBB1F840F951FA61F68
:102FA000B71FAC01BD017695679557954795769506
:102FB0006795579547954093D2075093D3076093F1
:102FC000D4077093D507C2CF7695679557954795E7
:102FD0004093D2075093D3076093D4077093D507DB
:102FE000B5CF0895CF92DF92EF92FF92CF93DF9308
:102FF000F894C0911E06D0911F06C090C307D090D0
:10300000C407E090C507F090C6070F944CA36093E7
:10301000B1057093B2058093B3059093B40578948D
:1030200080911E0690911F06892B99F5E0913E1C18
:10303000F0913F1CEE58FF4F2091B1053091B20541
:103040004091B3055091B4052C193D094E095F0913
:10305000A091EB06B091EC060F9432C9DC01CB01D4
:10306000905CAF4FBF4F2FE0B695A795979587958A
:103070002A95D1F78E0F9F1F803D22E09207B4F072
:10308000805D9240DF91CF91FF90EF90DF90CF90E5
:103090000895CC0FDD1FC652DA4FE881F9812091E7
:1030A0003E1C30913F1CE20FF31FC6CF97FFEACFC3
:1030B00088599E4FDF91CF91FF90EF90DF90CF9096
:1030C000089510921F0610921E06089580911E0604
:1030D00090911F060D9709F4A9C00F944CA360931B
:1030E000A9057093AA058093AB059093AC058091D8
:1030F000A9059091AA05A091AB05B091AC054091AE
:10310000C3075091C4076091C5077091C607841B1F
:10311000950BA60BB70B8093100690931106A09306
:103120001206B093130620911006309111064091BB
:103130001206509113066091D2077091D3078091C7
:10314000D4079091D507261737074807590708F481
:103150006CC0A0911E06B0911F06AB2B09F46CC089
:10316000E0911E06F0911F063196F0931F06E09342
:103170001E06A0911E06B0911F06E0911E06F0915A
:103180001F06AA0FBB1FA652BA4FEE0FFF1FE85231
:10319000FA4F8D919C9140815181841B950B9093A6
:1031A00021068093200640911006509111066091EF
:1031B00012067091130690914A1C907649F0903255
:1031C00009F48CC0903409F49AC0903609F47AC09E
:1031D0001092D2071092D3071092D4071092D507FD
:1031E0005091C10750625093C1072091C30730919D
:1031F000C4074091C5075091C60720930C06309331
:103200000D0640930E0650930F066091A90570912C
:10321000AA058091AB059091AC056093C3077093AC
:10322000C4078093C5079093C60708957091B71D92
:103230007E7F7093B71D089521E030E030931F0624
:1032400020931E066091D4057091D5058091D60516
:103250009091D7056093D0057093D1058093D205E6
:103260009093D3058091A9059091AA05A091AB05F3
:10327000B091AC058093D4059093D505A093D60565
:10328000B093D7053091B71D31603093B71D409191
:10329000291E50912A1E60912B1E70912C1E4F5F8B
:1032A0005F4F6F4F7F4F4093291E50932A1E6093AC
:1032B0002B1E70932C1EACE3B0E0B0932106A093BC
:1032C000200671CFDB01CA01880F991FAA1FBB1FFF
:1032D000840F951FA61FB71FAC01BD01769567959A
:1032E0005795479576956795579547954093D2079B
:1032F0005093D3076093D4077093D50771CF769519
:103300006795579547954093D2075093D30760939D
:10331000D4077093D50764CF0895CF92DF92EF92D0
:10332000FF920F931F93CF93F89400911E06109174
:103330001F06C090C307D090C407E090C507F09067
:10334000C607C091CF050F944CA36093B10570934D
:10335000B2058093B3059093B4057894E0913E1C38
:10336000F0913F1C0115110571F0000F111FF801BC
:10337000E652FA4F0190F081E02D80913E1C909131
:103380003F1CE80FF91F2091B1053091B205409123
:10339000B3055091B4052C193D094E095F09A09160
:1033A000EB06B091EC060F9432C9DC01CB01905CC6
:1033B000AF4FBF4F2FE0B695A795979587952A9564
:1033C000D1F78E0F9F1FCC2311F088599E4F803D5F
:1033D00022E0920754F0805D9240CF911F910F91AF
:1033E000FF90EF90DF90CF90089597FFF6CF885928
:1033F0009E4FCF911F910F91FF90EF90DF90CF9054
:10340000089510921F0610921E0681E08093CF054A
:10341000089580911E0690911F06499709F4D3C024
:103420003FB7F8944091230B5091240B6091250BEA
:103430007091260B26B5A89B06C02F3F21F04F5F49
:103440005F4F6F4F7F4F3FBF962F852F742F66279B
:10345000620F711D811D911D660F771F881F991FB7
:10346000660F771F881F991F6093A9057093AA059F
:103470008093AB059093AC058091A9059091AA0526
:10348000A091AB05B091AC054091C3075091C40722
:103490006091C5077091C607841B950BA60BB70BEF
:1034A0008093100690931106A0931206B093130612
:1034B000A0911E06B0911F06AB2BC9F1E0911E062C
:1034C000F0911F063196F0931F06E0931E06A0911F
:1034D0001E06B0911F06E0911E06F0911F06AA0F6E
:1034E000BB1FA652BA4FEE0FFF1FE852FA4F6D9165
:1034F0007C9120813181621B730B70932106609354
:103500002006B091C107B062B093C1078091A905B0
:103510009091AA05A091AB05B091AC058093C3072B
:103520009093C407A093C507B093C607089581E0A0
:1035300090E090931F0680931E064091D405509111
:10354000D5056091D6057091D7054093D00550936D
:10355000D1056093D2057093D3056091A905709150
:10356000AA058091AB059091AC056093D40570934A
:10357000D5058093D6059093D7055091CF0591E05E
:1035800059275093CF057091B71D71607093B71D87
:103590002091291E30912A1E40912B1E50912C1EE5
:1035A0002F5F3F4F4F4F5F4F2093291E30932A1EAE
:1035B00040932B1E50932C1EAFE0B0E0B093210639
:1035C000A09320069ECFF091B71DFE7FF093B71D0C
:1035D00008958091470E807F8034F1F08036D9F4D1
:1035E00020914A1C2C712C3089F146E050E0509318
:1035F000BA054093B90562E070E07093B805609336
:10360000B705A4E0B0E0B093B605A093B5057093FC
:10361000A8056093A705089530914A1C3C713C3081
:10362000A9F0E4E0F0E0F093BA05E093B90582E098
:1036300090E09093B8058093B705F093B605E093BA
:10364000B5059093A8058093A705089528E030E07C
:103650003093BA052093B90542E050E05093B80585
:103660004093B70564E070E07093B6056093B505CC
:10367000A6E0B0E0B093A805A093A70508958F92A7
:103680009F92AF92BF92CF92DF92EF92FF920F93F1
:103690001F93CF93DF938091B71D80FD0FC090E003
:1036A00080E0DF91CF911F910F91FF90EF90DF901D
:1036B000CF90BF90AF909F908F900895F894E09135
:1036C0001E06F0911F064091C3075091C4076091F8
:1036D000C5077091C6073FB7F8948091230B90916E
:1036E000240BA091250BB091260B26B5A89B05C0F5
:1036F0002F3F19F00196A11DB11D3FBF8824982EC0
:10370000A92EBA2E820E911CA11CB11C880C991CEA
:10371000AA1CBB1C880C991CAA1CBB1C8092B1055E
:103720009092B205A092B305B092B4057894EE0FD2
:10373000FF1FE652FA4FC081D181A0903E1CB0908D
:103740003F1CCA0DDB1D8091B1059091B205A0917F
:10375000B305B091B4057C018D01E41AF50A060B9E
:10376000170BA8019701F8949090C10796FC1CC014
:103770007894A091EB06B091EC060F9432C9DC016D
:10378000CB01905CAF4FBF4F2FE0B695A7959795B3
:1037900087952A95D1F78C0F9D1F803D02E09007F9
:1037A0004CF1805D92407DCFC090C307D090C4079C
:1037B000E090C507F090C60780900C0690900D062B
:1037C000A0900E06B0900F06A0912006B0912106A1
:1037D00078940F9432C9A7019601281939094A092A
:1037E0005B090F9445C9C9018C0F9D1F803D02E004
:1037F0009007BCF697FF55CF88599E4F52CF8091C6
:10380000B71D3FB7F8948091230B9091240BA091A2
:10381000250BB091260B26B5A89B05C02F3F19F0AC
:103820000196A11DB11D3FBF6627782F892F9A2FC2
:10383000620F711D811D911D660F771F881F991FD3
:10384000660F771F881F991F6093A3057093A405C7
:103850008093A5059093A6058091A3059091A4055A
:10386000A091A505B091A6054091FB065091FC06DC
:103870006091FD067091FE06841B950BA60BB70B9D
:103880008093140690931506A0931606B09317061E
:103890002091140630911506409116065091170696
:1038A0006091D8057091D9058091DA059091DB057A
:1038B000261737074807590708F473C08091A305F6
:1038C0009091A405A091A505B091A6058093FB0653
:1038D0009093FC06A093FD06B093FE065091C1079D
:1038E00050625093C10740911406509115066091A3
:1038F00016067091170676956795579547954093EC
:10390000D8055093D9056093DA057093DB05709163
:10391000B71D70FD32C02CED35E040E050E0209343
:10392000D2073093D3074093D4075093D5076091C3
:10393000D8057091D9058091DA059091DB059695AF
:103940008795779567956093D8057093D90580938F
:10395000DA059093DB05E091C205F091C3059081F3
:10396000A091C105B091470EB07F9A2301F1B03408
:1039700009F459C0B03609F44DC06091B81D70917A
:10398000B91DE091551EF091561E6E177F0750F439
:103990005091B71D50FF05C07091470E707F703475
:1039A000A1F008953091441C37FDF2CF0895B03452
:1039B00021F780911E0690911F060597F1F6F09170
:1039C000B71DF160F093B71DD8CF0F944CA3809131
:1039D000450590914605A0914705B0914805E091B5
:1039E000C205F091C305A0819091C105A923C9F238
:1039F00080911E0690911F0688309105E9F0B091E4
:103A0000B71DBE7FB093B71D4091661E4F5F4093B8
:103A1000661E089540911E0650911F0647305105BD
:103A200009F0ABCFCCCF20911E0630911F06283075
:103A3000310509F0A2CFC3CF90931F0680931E06D5
:103A400008958091EE1D82319CF026E030E03093A5
:103A5000BA052093B90541E050E05093B805409372
:103A6000B70564E070E07093B6056093B5050895FE
:103A7000A7E0B0E0B093BA05A093B905E2E0F0E0AA
:103A8000F093B805E093B70585E090E09093B60514
:103A90008093B5050895CF92DF92EF92FF92CF9376
:103AA000DF93F894C0911E06D0911F06C090C30703
:103AB000D090C407E090C507F090C6070F944CA3C0
:103AC0006093B1057093B2058093B3059093B405EC
:103AD0007894C330D1050CF040C02091200630917D
:103AE00021062197C29FA001C39F500DD29F500D68
:103AF0001124E0913E1CF0913F1CBA96E40FF51F93
:103B00002091B1053091B2054091B3055091B405B3
:103B10002C193D094E095F09A091EB06B091EC0606
:103B20000F9432C9DC01CB01905CAF4FBF4F2FE047
:103B3000B695A795979587952A95D1F78E0F9F1FD4
:103B4000803D22E0920714F1805D9240DF91CF9199
:103B5000FF90EF90DF90CF900895E0E7F0E0C33062
:103B6000D10571F280912006909121062297C89F7D
:103B7000B001C99F700DD89F700D1124E0913E1CBB
:103B8000F0913F1CBA96E60FF71FBACF97FFDECF32
:103B900088599E4FDF91CF91FF90EF90DF90CF90AB
:103BA00008958091B9079091BA0720913E1C3091F9
:103BB0003F1C821B930B409128025091290297FDD4
:103BC00077C048175907DCF13091470E32953F70A6
:103BD0003430E9F1353008F44BC0363009F44AC0CE
:103BE000383009F0A2C0BC016B5571096A35710506
:103BF00008F482C0DC01A55BB109AA35B10508F45F
:103C0000A8C001978E30914008F0BCC0E1E0F0E020
:103C1000F093BA05E093B90582E090E09093B8057F
:103C20008093B70523E030E03093B6052093B505C7
:103C300044E050E05093A8054093A7050895841BE5
:103C4000950B3091470E32953F70343019F601973D
:103C5000843B910580F162E070E07093BA05609357
:103C6000B905A1E0B0E0B093B805A093B7050895F9
:103C7000333071F5BC01695771096837710548F136
:103C80000197803F910508F451C023E030E0309364
:103C9000BA052093B90541E050E05093B805409330
:103CA000B70562E070E07093B6056093B5050895BE
:103CB000840F951F89CF21E030E03093BA0520931F
:103CC000B90542E050E05093B8054093B705089518
:103CD0000895A2E0B0E0B093BA05A093B905E3E07F
:103CE000F0E0F093B805E093B70581E090E09093A1
:103CF000B6058093B5050895E2E0F0E0F093BA05CB
:103D0000E093B90583E090E09093B8058093B70500
:103D100024E030E03093B6052093B50541E050E053
:103D20005093A8054093A70508950895A1E0B0E039
:103D3000B093BA05A093B905E2E0F0E0F093B805BE
:103D4000E093B70583E090E09093B6058093B505C6
:103D5000089523E030E03093BA052093B90544E09C
:103D600050E05093B8054093B70561E070E0709360
:103D7000B6056093B505A2E0B0E0B093A805A093A6
:103D8000A705089564E070E07093BA056093B905E3
:103D9000A1E0B0E0B093B805A093B705E2E0F0E091
:103DA000F093B605E093B50583E090E09093A80505
:103DB0008093A70508958F929F92AF92BF92CF9262
:103DC000DF92EF92FF92CF93DF93F894C0911E069B
:103DD000D0911F06C090C307D090C407E090C507DC
:103DE000F090C6070F944CA36093B1057093B20591
:103DF0008093B3059093B4057894809120069091B8
:103E00002106AE0141505109489FE001499FD00D64
:103E1000589FD00D112480903E1C90903F1CC80DDF
:103E2000D91D2091B1053091B2054091B305509153
:103E3000B4052C193D094E095F09F8949090C1070B
:103E400096FC36C07894A091EB06B091EC060F94E6
:103E500032C9DC01CB01905CAF4FBF4F2FE0B6956C
:103E6000A795979587952A95D1F78C0F9D1F803D33
:103E700022E092076CF0805D9240DF91CF91FF903D
:103E8000EF90DF90CF90BF90AF909F908F9008956C
:103E900097FFF3CFA0902602B0902702409128020E
:103EA000509129024A155B0524F1840F951FE5CF37
:103EB000C090C307D090C407E090C507F090C60734
:103EC00080900C0690900D06A0900E06B0900F0604
:103ED000A0912006B091210678940F9432C9A701D1
:103EE0009601281939094A095B090F9445C9C90186
:103EF000BCCFA501840F951FC0CFCF92DF92EF9268
:103F0000FF92CF93462F20913E1C30913F1CFC0125
:103F1000E21BF30BC091CE052091CC053091CD056D
:103F20005C2F5F7121153105A9F52C2FCC0F330BB8
:103F3000220F232F221F330B8FEF9FEF052E02C07E
:103F4000880F991F0A94E2F780959095BF01770F2B
:103F5000660B762F862397238E0F9F1F02C09595A1
:103F600087955A95E2F782279327821B930B20911E
:103F70004D1C240F3327331F181619069CF52817DC
:103F8000390714F4821B930BCF91FF90EF90DF90D1
:103F9000CF900895DF010F94B3C96C01FF24D7FCC3
:103FA000F094EF2CC601C6FF0EC02C2FCC0F330BA4
:103FB000220F232F221F330BCF0182279327821B2F
:103FC000930B8C0D9D1D02C0959587955A95E2F730
:103FD00097FD019620914D1C240F3327331F18168F
:103FE00019066CF2820F931FCF91FF90EF90DF9034
:103FF000CF900895CF9380914A1C8C718C3079F1C9
:10400000C0E06C2F8091B9079091BA070E947D1F84
:104010009093BA058093B9056C2F8091B707909162
:10402000B8070E947D1F9093B8058093B7056C2F49
:104030008091B5079091B6070E947D1F9093B605B9
:104040008093B5056C2F8091B3079091B4070E94BF
:104050007D1F9093A8058093A705CF910895209187
:10406000431CC0914D1C21FFCCCFCACFCF92DF9211
:10407000EF92FF921F93CF93DF93F894C0911E06A7
:10408000D0911F06C090C307D090C407E090C50729
:10409000F090C6071091CF050F944CA36093B10523
:1040A0007093B2058093B3059093B40578942097EC
:1040B00019F4C0914D1CD0E0E0912006F09121064A
:1040C0002091B1053091B2054091B3055091B405EE
:1040D0002C193D094E095F09A091EB06B091EC0641
:1040E0000F9432C9DC01CB01905CAF4FBF4F2FE082
:1040F000B695A795979587952A95D1F720913E1C5F
:1041000030913F1C820F931F2197CE9FB001CF9F0C
:10411000700DDE9F700D1124860F971F112321F063
:10412000D090431CD1FE25C0803D22E0920754F080
:10413000805D9240DF91CF911F91FF90EF90DF90D3
:10414000CF90089597FFF6CF409126025091270215
:10415000E0902802F0902902E416F5066CF08E0D2E
:104160009F1DDF91CF911F91FF90EF90DF90CF9037
:10417000089588599E4FD8CF7A018E0D9F1DF1CF9B
:10418000CF92DF92EF92FF92CF93DF933FB7F894F5
:104190008091230B9091240BA091250BB091260BBD
:1041A00026B5A89B05C02F3F19F00196A11DB11D92
:1041B0003FBFCC24D82EE92EFA2EC20ED11CE11C12
:1041C000F11CCC0CDD1CEE1CFF1CCC0CDD1CEE1C11
:1041D000FF1CC092A305D092A405E092A505F09221
:1041E000A6058091A3059091A405A091A505B09185
:1041F000A6054091FB065091FC066091FD0670916A
:10420000FE06841B950BA60BB70B809314069093A8
:104210001506A0931606B093170620911406309148
:10422000150640911606509117066091D8057091B9
:10423000D9058091DA059091DB05261737074807E5
:10424000590708F464C08091A3059091A405A0913A
:10425000A505B091A6058093FB069093FC06A0935C
:10426000FD06B093FE06409114065091150660912C
:10427000160670911706769567955795479576952A
:104280006795579547954093D8055093D905609306
:10429000DA057093DB05D090B71DD0FE53C0209196
:1042A000291E30912A1E40912B1E50912C1E809168
:1042B000491C90E0B0E0A0E082179307A407B5077F
:1042C00008F040C080914D1C90E0E0901E06F090F8
:1042D0001F068E159F0591F04091291E50912A1EB0
:1042E00060912B1E70912C1E4330510561057105A4
:1042F00028F05091661E5F5F5093661EF090441C3C
:10430000F7FE58C090931F0680931E0653C0C090BE
:10431000E706D090E806E090E906F090EA06F69409
:10432000E794D794C794C092D805D092D905E0926B
:10433000DA05F092DB05DF91CF91FF90EF90DF90EF
:10434000CF9008950F944CA36093C3077093C40754
:104350008093C5079093C6070F944CA36B017C0113
:10436000C0914D1C2C2F30E050E040E060E87DE82B
:104370008BE590E00F9445C9C21AD30AE40AF50A06
:10438000C0920C06D0920D06E0920E06F0920F0637
:10439000D0E0D0931F06C0931E061092D207109251
:1043A000D3071092D4071092D5077091B71D716092
:1043B0007093B71D91E09093CF05DF91CF91FF905F
:1043C000EF90DF90CF900895CF92DF92EF92FF921F
:1043D000CF93462F20913E1C30913F1CFC01E21BE5
:1043E000F30BC091CE052091CC053091CD055C2F0B
:1043F0005F712115310509F04CC08C2FCC0F990B42
:10440000880F892F881F990B2FEF3FEF052E02C0D1
:10441000220F331F0A94E2F720953095BF01770FE2
:10442000660B762F262337232E0F3F1F02C03595AC
:1044300027955A95E2F728273927281B390B6091D1
:104440004D1C6D3010F02150310970E0842F90E048
:104450006B01C80ED91E121613060CF040C0C2160E
:10446000D306D4F1E0901C06F0901D06E216F30688
:1044700020F46217730708F097018E0D9F1D28170F
:10448000390708F4C901CF91FF90EF90DF90CF90EA
:104490000895DF010F94B3C96C01FF24D7FCF09499
:1044A000EF2C9601C6FF0EC08C2FCC0F990B880FF6
:1044B000892F881F990B9F0128273927281B390B23
:1044C0002C0D3D1D02C0359527955A95E2F7832F97
:1044D000880F211D311DB3CF2C193D09C3CF2C0DE1
:1044E0003D1DC0CFCF9380914A1C8C718C3079F1E7
:1044F000C0E06C2F8091B9079091BA070E94E42127
:104500009093BA058093B9056C2F8091B70790916D
:10451000B8070E94E4219093B8058093B7056C2FEB
:104520008091B5079091B6070E94E4219093B6055B
:104530008093B5056C2F8091B3079091B4070E94CA
:10454000E4219093A8058093A705CF910895209129
:10455000431C21FDCDCF3091470EC0914D1C32FF41
:10456000C8CFC6CFCF92DF92EF92FF92F8942091FE
:104570001E0630911F069091CF05C090C307D090C2
:10458000C407E090C507F090C607789440912006D4
:104590005091210621503109249FF001259FF00DF3
:1045A000349FF00D112460913E1C70913F1CE60F6A
:1045B000F71F992321F08091431C81FF63C03FB70F
:1045C000F8944091230B5091240B6091250B70912E
:1045D000260BA6B5A89B06C0AF3F21F04F5F5F4FEB
:1045E0006F4F7F4F3FBF2227342F452F562F2A0F63
:1045F000311D411D511D220F331F441F551F220F16
:10460000331F441F551F2093B1053093B2054093CB
:10461000B3055093B4052C193D094E095F09A091CB
:10462000EB06B091EC060F9432C9DC01CB01905C33
:10463000AF4FBF4F7FE0B695A795979587957A9531
:10464000D1F78E0F9F1F803D22E092073CF0805DE6
:104650009240FF90EF90DF90CF90089597FFF9CFB1
:10466000E0902602F0902702409128025091290202
:104670004E155F0554F0840F951FFF90EF90DF906B
:10468000CF900895E859FE4F9ACFA701840F951F48
:10469000F4CFCF92DF92EF92FF920F944CA36093EE
:1046A00041057093420580934305909344058091A2
:1046B000410590914205A0914305B0914405409178
:1046C0003D0550913E0560913F0570914005841B6A
:1046D000950BA60BB70B8093180690931906A09321
:1046E0001A06B0931B06C0903D05D0903E05E090A1
:1046F0003F05F0904005CD28CE28CF28C1F4109278
:1047000018061092190610921A0610921B06209194
:104710004105309142054091430550914405209355
:104720003D0530933E0540933F0550934005409131
:1047300018065091190660911A0670911B06809117
:10474000390590913A05A0913B05B0913C05481779
:1047500059076A077B0708F4B3C0A091C405B0915C
:10476000C5051196B093C505A093C40560911806C0
:104770007091190680911A0690911B06969587955F
:1047800077956795969587957795679560933905A1
:1047900070933A0580933B0590933C05E0910A02A3
:1047A000F0910B021995AC01893621E092070CF4C7
:1047B00043C09C0129563140A3E8BDE20F9467C96C
:1047C0000024880F991F001C880F991F001C892F37
:1047D000902D8770992748565140493621E052075D
:1047E0005CF1009719F181309105D1F0823091058B
:1047F000A9F08330910581F08430910559F085301E
:10480000910531F0069711F04856514048565140F5
:1048100048565140485651404856514048565140DC
:1048200048565140493621E0520734F040545B402D
:10483000493681E05807D4F7E0903E1CF0903F1CC9
:104840004E195F093091BC1E3370323031F4C09084
:10485000B71CD090B81C4C195D09E091BA1C9A01A4
:10486000220F331FF0E0A0E0B1E0AE1BBF0B0F94AE
:10487000B3C96B017C01A0917F1EB091801E9F0186
:104880000F94BBC9C60ED71EE81EF91ECD2CDE2C18
:10489000EF2CFF24E7FCFA94D092801EC0927F1E7A
:1048A00020914105309142054091430550914405C6
:1048B00020933D0530933E0540933F0550934005BE
:1048C000FF90EF90DF90CF900895CF92DF92EF921C
:1048D000FF920F944CA36093A3057093A40580935B
:1048E000A5059093A6058091A3059091A405A0919C
:1048F000A505B091A6054091FB065091FC0660917C
:10490000FD067091FE06841B950BA60BB70B8093DA
:10491000140690931506A0931606B0931706C09040
:10492000FB06D090FC06E090FD06F090FE06CD2838
:10493000CE28CF28C1F410921406109215061092BA
:104940001606109217062091A3053091A4054091F8
:10495000A5055091A6052093FB063093FC064093D5
:10496000FD065093FE064091140650911506609185
:104970001606709117068091D8059091D905A091DF
:10498000DA05B091DB05481759076A077B0708F479
:1049900046C03091461C3F77313009F445C008F4D9
:1049A00056C1323009F4B2C0343049F5A091F8064E
:1049B000B091F9061196B093F906A093F8066091AC
:1049C000F8067091F9066230710509F4DCC1C090F7
:1049D0001406D0901506E0901606F0901706F6948F
:1049E000E794D794C794F694E794D794C794C09269
:1049F000D805D092D905E092DA05F092DB05C09097
:104A0000A305D090A405E090A505F090A605C0925E
:104A1000FB06D092FC06E092FD06F092FE06FF90A7
:104A2000EF90DF90CF9008958091FB069091FC0667
:104A3000A091FD06B091FE06C090C805D090C905B2
:104A4000E090CA05F090CB058C199D09AE09BF090D
:104A5000AC01BD01440F551F661F771F840F951FC2
:104A6000A61FB71FB695A7959795879580939F0525
:104A70009093A005A093A105B093A2052091FB06F9
:104A80003091FC064091FD065091FE062093C8052A
:104A90003093C9054093CA055093CB054091140645
:104AA00050911506609116067091170680919F052A
:104AB0009091A005A091A105B091A20548175907B2
:104AC0006A077B0738F4A091F806B091F9061497AD
:104AD00008F437C181E090E09093F9068093F806DE
:104AE0008093CF051092D8051092D9051092DA055F
:104AF0001092DB055091B61E55FF81CFF090CF0587
:104B0000FF2009F47CCF0F94023279CF2091140654
:104B10003091150640911606509117065695479507
:104B2000379527952093D8053093D9054093DA051A
:104B30005093DB05F090B61EF5FE61CF7091CF0566
:104B4000772309F45CCFE0910A02F0910B021995EA
:104B5000AC01893621E092070CF443C09C01295630
:104B60003140A3E8BDE20F9467C90024880F991F64
:104B7000001C880F991F001C892F902D8770992782
:104B800048565140493621E052075CF1009719F12F
:104B900081309105D1F082309105A9F083309105E3
:104BA00081F08430910559F08530910531F00697F8
:104BB00011F04856514048565140485651404856C9
:104BC0005140485651404856514048565140493648
:104BD00081E0580734F040545B40493681E0580783
:104BE000D4F760913E1C70913F1C461B570B3091CF
:104BF000BC1E3370323031F4E090791DF0907A1D94
:104C00004E195F09D090BA1C9A01220F331F4D2D07
:104C100050E0A0E0B1E0A41BB50B0F94B3C96B0149
:104C20007C01A0916B1EB0916C1E9A010F94BBC9C0
:104C3000C60ED71EE81EF91ECD2CDE2CEF2CFF244D
:104C4000E7FCFA94D0926C1EC0926B1ED8CE91E015
:104C50009093CF058091140690911506A0911606A9
:104C6000B0911706B695A795979587958093D80527
:104C70009093D905A093DA05B093DB05A091F806CF
:104C8000B091F9061196B093F906A093F806B09189
:104C9000B61EB5FFB4CEF091CF05FF2309F4AFCE19
:104CA000E0910A02F0910B021995AC01893621E0DE
:104CB00092070CF496CF9C0129563140A3E8BDE23F
:104CC0000F9467C90024880F991F001C880F991F33
:104CD000001C892F902D87709927485651404936DE
:104CE00021E052070CF47DCF009721F1813091052E
:104CF000D1F082309105A9F08330910581F08430A4
:104D0000910559F08530910531F0069711F048561C
:104D100051404856514048565140485651404856D7
:104D200051404856514048565140493621E05207BB
:104D30000CF457CF40545B40493681E05807D4F714
:104D400050CF6091140670911506809116069091CF
:104D50001706969587957795679596958795779594
:104D600067956093D8057093D9058093DA05909381
:104D7000DB05E091F806F091F9063196F093F9061B
:104D8000E093F8063CCE51E05093CF05D090B61E8C
:104D9000D5FE1DCEE090CF05EE2009F418CE0F947D
:104DA000023215CE0F931F932091081E26FD21C0BD
:104DB0000091691E002301F141111BC0E091C7075A
:104DC000F091C807EE0FFF1FEE0FFF1FE35CFC4FD3
:104DD00060837183828393832091C7073091C807D2
:104DE0002E37310508F453C0B091081EB064B0935B
:104DF000081E1F910F91089580916A1E8823C9F3A0
:104E0000E091C707F091C807E254FD4F1082E0918E
:104E1000C205F091C305A091BF05B091C0058430D3
:104E200009F446C090811091C105912349F0E091A9
:104E3000C707F091C807E254FD4F308131603083DD
:104E4000E091BC05F091BD05833009F496C05C91FA
:104E50006091BE05562349F0A091C707B091C807DD
:104E6000A254BD4F7C9172607C93B081F091BB05E0
:104E7000BF2349F0E091C707F091C807E254FD4F06
:104E8000308134603083442309F44BC041C0A09189
:104E9000C707B091C8071196B093C807A093C7077A
:104EA000F091081EFF7BF093081E1F910F9108954B
:104EB0005C916091BE05562349F0A091C707B0915F
:104EC000C807A254BD4F7C9171607C93A091BC0532
:104ED000B091BD05BC912091BB05B22349F0A091D2
:104EE000C707B091C807A254BD4F0C9102600C9344
:104EF000F0818091C105F82349F0E091C707F09156
:104F0000C807E254FD4F108114601083423049F409
:104F1000E091C707F091C807E254FD4F4081486017
:104F200040839091B71D90FF09C0E091C707F091B1
:104F3000C807E254FD4F3081306130835091CF0576
:104F4000E091C707F091C807E254FD4F552351F196
:104F50007081706270830091C7071091C8070F9429
:104F60004CA3000F111F000F111FF801E35CFC4F51
:104F700060837183828393832FCF20810091BB054F
:104F8000202349F0E091C707F091C807E254FD4F94
:104F90008081826080831C919091BE05192309F461
:104FA00072CF68CF60816F7D6083D5CF8091C1075C
:104FB0008F7D8093C1072091C10720622093C10794
:104FC000309153053330E1F0323081F0313029F443
:104FD000E0910402F0910502199570916A1E772301
:104FE00021F0A091C107A5FD15C00895E091BC0571
:104FF000F091BD0540819091BB05492349F3EDCF68
:10500000E091BC05F091BD0550816091BB05562330
:10501000F9F6E3CF609118067091190680911A068F
:1050200090911B0642E00C94D2268091C1078F7D9F
:105030008093C1072091C10720622093C10730915E
:1050400055053330E1F0323081F0313029F4E09110
:105050000602F0910702199570916A1E772321F0DC
:10506000A091C107A5FD15C00895E091BF05F0917D
:10507000C00540819091BE05492349F3EDCFE091F1
:10508000BF05F091C00550816091BE055623F9F629
:10509000E3CF6091140670911506809116069091E9
:1050A000170641E00C94D2268091C1078F7D809332
:1050B000C10720915105233099F12230A1F0213010
:1050C000D9F4E0910202F09103021995A091691EB2
:1050D000AA2321F0B091C107B5FD17C0F0916A1E57
:1050E000F11113C00895E091C205F091C30530811C
:1050F0009091C105392329F36091691E662371F3EC
:105100007091C10775FFEACF089560911006709104
:105110001106809112069091130640E00C94D2265D
:10512000E091C205F091C30540815091C10545232E
:1051300041F6E2CF90E080E0089590E080E00895AD
:10514000EF92FF920F931F93CF93DF939091081EDE
:1051500096FF16C154E050930307C82FD0E0CF3715
:10516000D1050CF0FBC0DE01A095B095A370BB2764
:10517000109709F456C0A130B10549F1129709F012
:1051800081C18E01000F111F000F111F035C1C4F06
:10519000F80180819181A281B3818B2F0F94939A22
:1051A000F80160817181828193810F94939AF80153
:1051B00080819181A281B381892F0F94939AF80104
:1051C00080819181A281B3810F94939A21968E015F
:1051D000000F111F000F111F035C1C4FF80180818D
:1051E0009181A281B3818B2F0F94939AF8016081F2
:1051F0007181828193810F94939AF80180819181CA
:10520000A281B381892F0F94939AF80180819181B3
:10521000A281B3810F94939A2196CF37D10509F4D7
:105220009DC08E01000F111F000F111F035C1C4F4A
:10523000F80180819181A281B3818B2F0F94939A81
:10524000F80160817181828193810F94939AF801B2
:1052500080819181A281B381892F0F94939AF80163
:1052600080819181A281B3810F94939A7E01FFEF97
:10527000EF1AFF0A8701000F111F000F111F035CB7
:105280001C4FF80180819181A281B3818B2F0F94F3
:10529000939AF80160817181828193810F94939A2E
:1052A000F80180819181A281B381892F0F94939A13
:1052B000F80180819181A281B3810F94939A870133
:1052C000000F111F000F111F0F5B1C4FF801808191
:1052D0009181A281B3818B2F0F94939AF801608101
:1052E0007181828193810F94939AF80180819181D9
:1052F000A281B381892F0F94939AF80180819181C3
:10530000A281B3810F94939A8E01000F111F000F99
:10531000111F075B1C4FF80180819181A281B3812D
:105320008B2F0F94939AF801608171818281938110
:105330000F94939AF80180819181A281B381892F82
:105340000F94939AF80180819181A281B3810F9487
:10535000939A2496CF37D10509F063CF4091081E68
:105360004F7B4093081E109203071092C8071092BB
:10537000C707DF91CF911F910F91FF90EF90089594
:105380004CEF51E061E06093BB0EE090BE0E809167
:10539000BF0EE091B30EF091B40EE81609F45EC0B2
:1053A0002091BE0E30E02F5F3F4F2F733327022F27
:1053B00003C00FB607FE22C01091BF0E0117C9F33C
:1053C000E091BE0EF0E0E050F14F10823FB7F8944C
:1053D0002093BE0EE091B50EF091B60E20812062B2
:1053E00020833FBF4150510971F610920307DF91AE
:1053F000CF911F910F91FF90EF900895708175FFED
:10540000DBCFE091BF0EF0E0E050F14FA081E091E2
:10541000BF0EF0E03196EF73FF27E093BF0EC0910F
:10542000B90ED091BA0EA883E091B30EF091B40EEC
:10543000B081B370B064B083D091BE0EF091BF0E56
:10544000DF1307C0C091B50ED091B60E98819F7D35
:105450009883E091B30EF091B40EAECFF080F5FEDC
:105460009FCFEFB6F894C091B90ED091BA0E1882C2
:10547000E091B30EF091B40E8081837080648083DC
:10548000EFBEB0CF8E01000F111F000F111F035C84
:105490001C4FF80180819181A281B3818B2F0F94E1
:1054A000939AF80160817181828193810F94939A1C
:1054B000F80180819181A281B381892F0F94939A01
:1054C000F80180819181A281B3810F94939A2196F2
:1054D00058CEDF92EF92FF920F931F93CF93DF93FB
:1054E0008C01EB0180910002882321F010920002D0
:1054F00010921D1E4091B71D9091091ED090091E5B
:10550000242F217030E03195219531092927207809
:1055100033272D252093091E1092270BD12CED2C1B
:10552000F12CEC16FD0658F4C701800F911F0E9464
:105530007CC3F701E95DF44F8183D394F0CF1091E0
:10554000571E177F1093571EDF91CF911F910F9118
:10555000FF90EF90DF900895CF93C82F0F94899B11
:10556000892BE1F38C2FCF910D94939ACF93C82F71
:10557000892F0E94AC2A8C2FCF910C94AC2A809159
:10558000BC0E2091BD0E90E0805C9F4F821B910964
:105590008F739927892B19F00F947B9AF0CF089578
:1055A0000F931F930F94309A00919F021091A002C5
:1055B0002091A1023091A202601B710B820B930B10
:1055C00021E0693B7B408105910508F420E0822FB2
:1055D0001F910F9108953FB7F8948091230B9091FC
:1055E000240BA091250BB091260B26B5A89B05C0D6
:1055F0002F3F19F00196A11DB11D3FBF6627782FDF
:10560000892F9A2F620F711D811D911D660F771FC3
:10561000881F991F660F771F881F991F6093A90520
:105620007093AA058093AB059093AC058091A90572
:105630009091AA05A091AB05B091AC054091C3072C
:105640005091C4076091C5077091C607841B950BE4
:10565000A60BB70B8093100690931106A093120629
:10566000B093130620911006309111064091120656
:10567000509113066091D2077091D3078091D4079F
:105680009091D507261737074807590708F48EC0A9
:105690005091C10750625093C107A0911E06B0916E
:1056A0001F061196B0931F06A0931E06E0911E06DA
:1056B000F0911F06319709F47AC080911E069091EF
:1056C0001F06059709F473C09091B71D90FF6EC037
:1056D000B0910B1EB1FF13C0F0914A1CF7FF0FC031
:1056E000A0911E06B0911F06119709F4B6C0E09173
:1056F0001E06F0911F06339711F40E94E38C40912F
:105700001E0650911F064130510509F48FC02091AB
:105710001E0630911F062330310509F487C06CE660
:1057200070E070932106609320064091100650911E
:1057300011066091120670911306DB01CA01880FF1
:10574000991FAA1FBB1F840F951FA61FB71F33E009
:10575000B695A795979587953A95D1F78093D207F7
:105760009093D307A093D407B093D5072091C30794
:105770003091C4074091C5075091C60720930C068D
:1057800030930D0640930E0650930F066091A905C5
:105790007091AA058091AB059091AC056093C30709
:1057A0007093C4078093C5079093C607089541E09E
:1057B00050E050931F0640931E062091D40530916F
:1057C000D5054091D6055091D7052093D00530934B
:1057D000D1054093D2055093D3056091A9057091EE
:1057E000AA058091AB059091AC056093D4057093A8
:1057F000D5058093D6059093D7057091B71D71603C
:105800007093B71D8091291E90912A1EA0912B1E86
:10581000B0912C1E0196A11DB11D8093291E90935D
:105820002A1EA0932B1EB0932C1E4ECF88E490E02E
:105830009093210680932006409110065091110606
:1058400060911206709113064093D2075093D307CC
:105850006093D4077093D50789CF0E94AD8D4FCF49
:10586000CF92DF92EF92FF920F931F93CF9380918D
:10587000FC0D807390914A1C90FD1EC0803109F48C
:1058800069C08032F1F43091781E333009F429C1B7
:1058900008F4E7C0353009F4D9C008F437C1363010
:1058A00081F4F090040E78ECF79ED0011124B093AF
:1058B000321EA093311E05C0803159F0803209F4A8
:1058C00087C0CF911F910F91FF90EF90DF90CF9005
:1058D00008951091781E133009F4E8C008F498C0B8
:1058E000153009F4E0C008F4A1C0C091040E1630D0
:1058F00041F7C090B81DD090B91DE090CC1DF12C9F
:10590000EE0CFF1C02EE14E122ED34E142E954E119
:1059100068E08BE894E10F94953DC89F90011124B5
:105920003695279536952795ABE7B4E10F9467C96F
:1059300096958795880F991F880F991F811522E0EA
:10594000920708F458C02FEF31E030932E1E2093B9
:105950002D1EB7CF3091781E333009F4AAC008F459
:105960004FC0353009F49CC008F463C0C091040EE8
:10597000363009F0A6CFC090B81DD090B91DE09088
:10598000CC1DF12CEE0CFF1C02EE14E122ED34E1F3
:1059900042E954E168E08BE894E10F94953DC89F9B
:1059A000A0011124440F551F440F551F413127E218
:1059B000520710F040E157E25093321E4093311EDF
:1059C000CF911F910F91FF90EF90DF90CF900895AE
:1059D0000091781E033009F46FC008F452C00530FE
:1059E00059F108F49EC0063009F06BCF8091040E87
:1059F00090E0880F991F90932E1E80932D1E61CFEB
:105A0000313089F0C091000E323009F4B4CF59CF53
:105A1000113031F0C091000E123009F46ACF51CF2D
:105A2000C091FF0D66CFC091FF0DA5CFC091020EB2
:105A300060CFC091020E9FCF8091030E90E0880F3F
:105A4000991F90932E1E80932D1E3BCFF091030E35
:105A500098ECF99F800111241093321E0093311E9F
:105A600030CF313099F1323009F02BCFC090000E99
:105A700048ECC49E70011124F092321EE092311E57
:105A800020CF0130C9F1023009F01BCF8091000E08
:105A900090E0880F991F90932E1E80932D1E11CF9A
:105AA000C091030E68CFC091030E23CFC091010EA9
:105AB00020CFC091010E5FCF8091010E90E0880F42
:105AC000991F90932E1E80932D1EFBCED090FF0D1C
:105AD00058ECD59EB00111247093321E6093311E94
