:100000000C94A00C0D941B880D94F0870D94C5875B
:100010000D949A870D946F870D9444870D941987DA
:100020000D94EE860C94D10C0C94D10C0C94D10C44
:100030000C94D10C0C94D10C0C94D10C0D94144C48
:100040000C94D10C0C94B5700C94996E0C94A0D4B3
:100050000C94D10C0C94D10C0C94D10C0D9478868A
:100060000C94D10C0D94B73A0D94773A0C94D10CB2
:100070000C94D10C0C94D10C0C94D10C0C94D10C8C
:100080000D9472770D94F8760D947E760C94D10CC5
:100090000C94D10C0C94D10C0C94D10C0C94D10C6C
:1000A0000C94D10C0C94D10C0D9410750D94047615
:1000B0000D948A750C94D10C0C94D10C0D9425746C
:1000C0000D943A730D944F720C94D10C0C94D10C86
:1000D0000C94D10C0C94D10C0D94403A0D94003A30
:1000E0000C94D10C0C949D970D941C380C94ADA6D7
:1000F0000C9400940D94D2390C94B4900C94E49325
:100100000D9422570D94F5380D949D1C0C94469136
:100110000C94E7830C94C6900C945D520C9414904C
:100120000C9429D30C94FC920D94A41C0C947CB0D8
:100130000D94AB940C9466900C94D7930C9469D95D
:100140000C9407900D94C6790D94120E0D94043101
:100150000C94E4920C9485910C9400D10C943590FD
:100160000C94F0930D94BA390C942E820D94F439BA
:100170000D94361B0D9467170D94C01B0C9431859C
:100180000D9464700C946A0E0D94B2390C946F90B7
:100190000D94BE170C9436840D94C83F0D94361CF4
:1001A0000D94FA1A0C946E8C0D94AE790D946859D6
:1001B0000D94C6380C94B8380C94FEB00C9438905A
:1001C0000C949C920C94F6920C9435930C94D40D50
:1001D0000C9497820C9444930D94B2120D94D2799E
:1001E0000D9465A40C943F880C94AB800C94D8902B
:1001F0000C94DEA20C9469900D9401130D94C43FED
:100200000D94C77D0D94EF1D0C942C930D945113F8
:100210000D9401390C9482910D94A01B0C94ED92D5
:100220000C94BD900C949C900C948A920D943C5725
:100230000C940C120C9451910D9408390C94A890C4
:100240000C9465DD0D94D03F0C9454910C9453B1F3
:100250000D94E4860C947A920C944D810D94DD1AE1
:100260000D94DD7E0D94EE390C942ECF0C94661A0D
:100270000C941D900C94D59B0D94CE390C947F8CCE
:100280000C9457920D94FE050C948D900C94578B02
:100290000C94ACCD0C9440870C94DDDC0C9426902F
:1002A0000D94FA0F0D94411B0C94EC8B0D946E0D74
:1002B0000C94927B0C9458990C94A6930D949900ED
:1002C0000C947B900C9461910D94E0860C94DE90DC
:1002D0000D9473880D940E090C9450D40C94969040
:1002E0000C9462930C9453100C94C5130C948F913E
:1002F0000C94CC900C9436430C9496920D944A181E
:100300000C94BD3E0C94E41F0C94D5900C941526CF
:100310000D94DB380C946E930C9457A90C9468924E
:100320000D944C310C94638B0C94DC260D940B18BB
:100330000D942BA40D94C7690C94001C0C9461AF10
:100340000C9414930D9479590C943B860D94A03819
:100350000C9428820C9459930D94C97E0D94EDA4AD
:100360000C948B910C947E900C94C0B90D94CC0C91
:100370000C94FC830D94E77D0C946E280C94F392FE
:100380000C94CA460D94121E0C94E7900C9405939D
:100390000C94F88F0D94B8380C94B8840D94E21630
:1003A0000C943D8D0C94C3130D94D32F0C94A290F8
:1003B0000C945EAE0C9423480C94CB930C9429902F
:1003C0000D94AA7E0C94B7BB0C942ADE0C94269351
:1003D0000C94528C0C9447140C94C8930D946F8811
:1003E0000C9451520C941A900D9474310C94BD934A
:1003F0000C9457900C941B160C94D30C0C944B85B6
:100400000D94DE700C943DB10D94DC8A0C9499929D
:100410000C94B7930C945E0F0C94EA930C94329066
:100420000C946A910D94CA3F0D948E380C949516D5
:100430000C9465930D94E6700D9498790C949391B7
:100440000C9451150D94C63F0C9496830C94811115
:100450000D942B1B0C947C910C9490530C94AE90A7
:100460000C94EA920C946B920C945A520C94A7211F
:100470000D94DA100C94E7930C9443810C9425822C
:100480000C947DD20D94A5010D9469300C941790B5
:100490000C94E9500D94DE390D94DA3F0D947517E4
:1004A0000C94BA920C940B930C9410940D941C1C05
:1004B0000C94B7920D9471880C94C6920D941B699C
:1004C0000C940A940D947E310D9494790C94479376
:1004D0000C945C930C941F940C94E6CC0C94B8AFE1
:1004E0000C94C0930D94A2790C9463900D94581EB3
:1004F0000C949ED30C9477920D94FC390C947AC092
:100500000D94CD380C9446140C94CC920C947EA38C
:100510000C9417930D94EC700C949F900D94041E02
:100520000C947C800C9459D10C9487920C944B9130
:100530000D94291E0D94E4790D94EE700C949B1685
:100540000C9402830C946EA70D949C060C94C0929C
:100550000D94EF380D94D4380C94E1450C946783D6
:100560000C9400180D9471570C944D930D94F17EDA
:100570000D948A1D0C9457910D9462120C94DE4CCC
:100580000C945ACE0C94278B0C9456180D94B51BD2
:100590000D94DE3F0C94CF920D945F1B0C94708BE6
:1005A0000C9409510C94B4B50D94DC700C94169411
:1005B0000D94C01A0C94F9920D94021C0C94EDA8A1
:1005C0000C94159C0C94E3A60D94B2380C940293F1
:1005D0000C9473800C94A1D00C94FAC70D94291834
:1005E0000D940F390C94740D0C941A8B0D943B17C9
:1005F0000D9413120D9494300D94E2380C9456938C
:100600000C942F900C9470910C94F28B0C9495FF99
:100610000D94101B0C9490920C94EADC0C947B517A
:100620000C94F9830C94A2820C9423910C940CCC1E
:100630000C94B7B00D94C0790C9411900C9454267E
:100640000D942A040D94291C0D94F6700C94ED93CE
:100650000C94AB900C946DB10C94F2440D94EA7030
:100660000C94A3A20C94A7CC0C94F9930D94BE39CE
:100670000D94FF7E0C94B1D20C940EDD0C94A5B0B9
:100680000C945A900C94FECF0D94F4700C94C2917B
:100690000D942DA50D94B4790C94FD8A0C94A41F8F
:1006A0000C94A5920C94AD910D9474180C943E90FA
:1006B0000C94C9900D946F310D94E8700D94511EF7
:1006C0000C94DA0F0C949F920C94F6930D942411D1
:1006D0000C947ED90C94AB920D94D83F0D94EA58AB
:1006E0000D94B6390D94EA860C941C160D945A6933
:1006F0000C94EA900C948A900D9493790D9449018E
:100700000C94A8920C94B6300C94AB890C9478CDD0
:100710000C94A2920C945DAE0C9493260D94CC1D77
:100720000C94F6830C94B7830C94F8D70C94C413F0
:100730000C946D910D94C6390C9447F70D94DA39E9
:100740000C9439FF0D94BF380C94F1F80C94F6BE5C
:100750000C947C8B0D94FA580C94C3930D94787E72
:100760000D94F0700C945F930C9459820C94C28495
:100770000C9478900D94AC380C94B19D0C94048C2E
:100780000C9451900D94687E0C94F3930C9462DA5F
:100790000D940B590C942C940D94551B0C9445A856
:1007A0000C9420170C9462490C94C9920C94B6AA2C
:1007B0000C9473910D94A1680C9473530D94F530BF
:1007C0000C9407940C946E920C94BD920C9411931B
:1007D0000C94398B0C94F6900D94C3110C9460908A
:1007E0000D9437070C94DF120D94E03F0C947CCCF1
:1007F0000C9474930D94C1560C9418170C94359165
:100800000C94C7D80C94CB3A0C94B1920D94091C5B
:100810000D9445100D94E0700C94B1900C9483F7F6
:100820000C9454520D94E2700D94CC3F0C940284BD
:100830000C94C3920D94F8390C940D910D949C79FD
:100840000D9494170C945D920C946ACF0C9432938F
:100850000C94E0120C9460520D94BB7E0C940E9399
:100860000D940A1E0C947F910D94D6570C94FE8B18
:100870000D94211E0C942AD00D948F100C942FA04F
:100880000D94B40E0C9454900C94281D0C94641D7B
:100890000D9479310C94E1920C94D4930C940490BF
:1008A0000D9459170C9444900C9472900C9493905E
:1008B0000C94F28F0C94FC930C94B4920D94D63F4C
:1008C0000D943C1C0C9447900C94F9900D941D3998
:1008D0000D94E57E0C94EF8F0C9416810C9420906F
:1008E0000D94D23F0D94AB1C0D9470080C9459B527
:1008F0000D94EC860D94E5560C948A830D94AE39D4
:100900000D94267E0D94F2700C9474920C94A8C1F0
:100910000C94FF900D94FB380C94BA900D94221C0B
:100920000C94D8D60C94D9260D94E20A0D94F73184
:100930000C9438930C9438A50D94D17E0D94E71B3C
:100940000C94A38B0C94CE930C94FE8F0D947AA3ED
:100950000D944A170D94E1300D9457570C94B13B08
:100960000C942C8B0C9476910C94A2880D941617F1
:100970000C9423900C9496910D94D0300C94F5F730
:100980000C94A2B00C947F830C9416110C945D8B84
:100990000C9481920C94169C0C940D940C940D90D4
:1009A0000C94C0900D94860B0C9484900C94DD9361
:1009B0000C9487900C9471FA0D944B1B0C94F8B620
:1009C0000D94DA580C94ED9D0C94E1900C943653F0
:1009D0000C94EEA80D949A380D9467880C940591A8
:1009E0000C9484920D946A1B0D94AA1B0C9453933F
:1009F0000D94CC790D9407570D94E23F0D94C504E6
:100A00000C942C900C94A94D0D9474110D94F90133
:100A10000D94470A0C948D930C9441900C944C8F38
:100A20000D94911E0C946C900C94CFD30C942F9336
:100A30000C9464910C947E920C94AE920C94ED9074
:100A40000C9484200C9494930D94DC3F0C941A190C
:100A50000C94E7920D944C7A0C9418820C94DB92CF
:100A60000C94D5D00C941A930D94807E0D94497EED
:100A70000D94621C0C945D900C942D8C0C9477B5A5
:100A80000C9499900D94D41C0D94F1160C944A96E4
:100A90000C9471920D941AA30C94EDD20D94CE3F48
:100AA0000C9467910D9494380C94A2890C948BB19A
:100AB0000C94D2920D94D43F0C94DC150C94F390CA
:100AC0000C94AA910D94607E0D9445000C9436B35D
:100AD0000C947C130D94A6380C94D7870C944E82FA
:100AE0000D94A8790C940F8D0C9457520C948B8113
:100AF0000C9423930D94416A0C94EBD10C943E9387
:100B00000C9451920C9481890D94D5070C94FF920A
:100B10000C947FB00D94D8790C9481900D9463055A
:100B20000C94BD830D94301E0D94F5000D94671E3A
:100B30000D94A9090C943C1A0C94E9FF0C9447CD30
:100B40000C9479910C94DD8A0C940D830D94FD170F
:100B50000C9441930C9475900C945E800C948A8054
:100B60000D94D11D0D94E2390C94C5D90C941C91AF
:100B70000D94F8700C94A5900C94F58F0C94B09192
:100B80000D94BA790C9490900C940A900C94DB0F0D
:100B90000C94B7900C942B820D94F2390C946592BE
:100BA0000D9469880C94768B0D94D6390D941C693C
:100BB0000C947D890D9450590C943B900C94FB8FB0
:100BC0000C9462920C94EF830D94B4370C94AFCED6
:100BD0000C9429930C94F0900D941A7E0C94128727
:100BE0000C945F0F0C94E4AC0C94D5920C94E5FE3D
:100BF0000D948E790D94851B0C943B930D94E470A9
:100C00000D94707E0C94F21D0C9493920D94DE79E9
:100C10000C9404940D9455020D94280C0D947D3180
:100C20000C94F0920C9416820C94AC830D94E639DB
:100C30000D94CA390C9479930D948C030D942F1C48
:100C40000D94BAA20D94E8860C94C7F90D946D2FFB
:100C50000C946B930C94A1830D94127E0C947C9352
:100C60000C94E48A0C9454920D946D880C940A911F
:100C70000D94EA390C944A930C9408930D94163908
:100C80000C94F88B0C94458C0C9405D40D941A1E7E
:100C90000D94D5860C942CB50C941D930C94DE9277
:100CA0000C9450930C94D2900C948D920C94C3900D
:100CB0000D94067E0D94F2020C94FC900C943A8DE7
:100CC0000D946B880C9488910D94B31C0D94F87D51
:100CD0000D94A1370D94580F0C94D1930C94FF836D
:100CE0000C9420930C94F61A0C9401900D94887E29
:100CF0000C94E5960D94E6860C94F2FA0C9450153B
:100D00000C94D8920D94E2860C949A160D94F137B7
:100D10000C944A8B0C94DB900C944DFB0C94E49057
:100D20000C9465D30C94EFA80C94688F0C94999153
:100D30000C9493C80C946EDD0C94B9910D945F1EC5
:100D40000C9468930D941A1C0D942D170C94E0CDFF
:100D50000D94C2390D94E9380C94DA930C941394E1
:100D60000C94CF90526573657420636F6E74726FCC
:100D70006C2069732063757272656E746C7920647F
:100D8000697361626C65642E00436F6D6D732068DA
:100D9000616C7465642E204E657874206279746588
:100DA0002077696C6C2072657365742074686520A7
:100DB00041726475696E6F2E0000537065656475CD
:100DC000696E6F20323032352E30312E360073701E
:100DD00065656475696E6F203230323530310000E0
:100DE0000030303200FF0A5061676520686173206F
:100DF0006E6F74206265656E20696D706C656D65DF
:100E00006E74656420796574000A426F6F73742094
:100E10006C6F6F6B7570207461626C65000A326E66
:100E2000642049676E6974696F6E204D6170000AB5
:100E3000326E64204675656C204D6170000A506109
:100E40006765203920436667000A5472696D203156
:100E5000205461626C65000A565654204D61700042
:100E60000A426F6F7374204D6170000A506720361C
:100E700020436F6E666967000A414652204D6170DB
:100E8000000A5067203420436667000A49676E698C
:100E900074696F6E204D6170000A506720322043E4
:100EA0006667000A5645204D6170000A3D3D3D438E
:100EB0006F6D6D616E642048656C703D3D3D0A0A42
:100EC000416C6C20636F6D6D616E6473206172653F
:100ED0002073696E676C6520636861726163746515
:100EE0007220616E642061726520636F6E6361744D
:100EF000656E6174656420776974682074686569DB
:100F00007220706172616D6574657273200A776911
:100F100074686F7574207370616365732E53796E96
:100F20007461783A20203C636F6D6D616E643E2B76
:100F30003C706172616D65746572313E2B3C70610D
:100F400072616D65746572323E2B3C706172616DC9
:100F5000657465724E3E0A0A3D3D3D4C69737420CE
:100F60006F6620436F6D6D616E64733D3D3D0A0A8F
:100F700041202D20446973706C61797320333120D6
:100F80006279746573206F662063757272656E7422
:100F90005374617475732076616C75657320696E26
:100FA0002062696E61727920286C697665206461BF
:100FB0007461290A42202D204275726E2063757279
:100FC00072656E74206D617020616E6420636F6E57
:100FD000666967506167652076616C75657320741A
:100FE0006F20656570726F6D0A43202D2054657304
:100FF0007420434F4D20706F72742E2020557365FE
:10100000642062792054756E657273747564696FBB
:1010100020746F2073656520776865746865722039
:10102000616E20454355206973206F6E20612067F3
:101030006976656E2073657269616C200A202020D4
:1010400020706F72742E2052657475726E732061F9
:101050002062696E617279206E756D6265722E0A0A
:101060004E202D205072696E74206E6577206C6959
:101070006E652E0A50202D205365742063757272A0
:10108000656E7420706167652E202053796E7461DF
:10109000783A2020502B3C706167654E756D626513
:1010A000723E0A52202D2053616D652061732041EC
:1010B00020636F6D6D616E640A53202D2044697347
:1010C000706C6179207369676E6174757265206EEA
:1010D000756D6265720A51202D2053616D65206126
:1010E00073205320636F6D6D616E640A56202D204E
:1010F000446973706C6179206D6170206F72206338
:101100006F6E666967506167652076616C7565739F
:1011100020696E2062696E6172790A57202D205312
:101120006574206F6E65206279746520696E206D2C
:101130006170206F7220636F6E66696750616765CA
:101140002E2020457870656374732062696E617229
:101150007920706172616D65746572732E200A204A
:1011600020202053796E7461783A2020572B3C6FF1
:1011700066667365743E2B3C6E6577627974653E76
:101180000A74202D205365742063616C696272615A
:1011900074696F6E2076616C7565732E20204578BA
:1011A00070656374732062696E6172792070617218
:1011B000616D65746572732E20205461626C6520C8
:1011C000696E64657820697320656974686572204A
:1011D000302C200A20202020312C206F7220322E2B
:1011E000202053796E7461783A2020742B3C74620D
:1011F0006C655F6964783E2B3C6E657756616C75F3
:1012000065313E2B3C6E657756616C7565323E2BC1
:101210003C6E657756616C75654E3E0A5A202D20EE
:10122000446973706C61792063616C696272617486
:10123000696F6E2076616C7565730A54202D2044A9
:101240006973706C6179732032353620746F6F74F6
:1012500068206C6F6720656E747269657320696EB3
:101260002062696E6172790A72202D204469737060
:101270006C6179732032353620746F6F7468206C1E
:101280006F6720656E74726965730A55202D205052
:1012900072657061726520666F72206669726D7723
:1012A000617265207570646174652E2054686520D4
:1012B0006E657874206279746520726563656976FD
:1012C00065642077696C6C20636175736520746850
:1012D000652041726475696E6F20746F207265734A
:1012E00065742E0A3F202D20446973706C617973F8
:1012F00020746869732068656C7020706167650090
:101300002C2000575545004F3200496E6C65742003
:1013100074656D7000436F6F6C616E74005265731D
:10132000657420636F6E74726F6C206973206375CF
:101330007272656E746C792064697361626C656445
:101340002E00436F6D6D732068616C7465642E2090
:101350004E65787420627974652077696C6C2072B0
:1013600065736574207468652041726475696E6F79
:101370002E004552523B20496E636F727265637452
:1013800020454550524F4D2073697A650030303208
:10139000002000200020002000202020200053708A
:1013A00065656475696E6F20323032352E30312EAE
:1013B0003600737065656475696E6F203230323542
:1013C000303100537065656475696E6F20637378A2
:1013D00030323031392E38000000800020012001E9
:1013E000800020018000F0008001C000C0002001CA
:1013F000C000800020010001040E11161A1C212AD1
:101400002C2E30323436383A3C3E40424446484C2A
:101410004E505256585A5D5F63686F797D000020C8
:10142000002300260029002C002F003200000100BC
:101430000003010601090100000A0B02090C0D0E50
:101440000807030401000000000000000000000085
:10145000000000000000000000000000000000008C
:101460000000001211100000000000000000000049
:10147000000000000000000000000000000000006C
:1014800000963007772C610EEEBA51099919C46D98
:10149000078FF46A7035A563E9A395649E3288DBF3
:1014A0000EA4B8DC791EE9D5E088D9D2972B4CB6CA
:1014B00009BD7CB17E072DB8E7911DBF906410B7C0
:1014C0001DF220B06A4871B9F3DE41BE847DD4DAE2
:1014D0001AEBE4DD6D51B5D4F4C785D38356986C0F
:1014E00013C0A86B647AF962FDECC9658A4F5C0190
:1014F00014D96C0663633D0FFAF50D088DC8206E94
:101500003B5E10694CE44160D5727167A2D1E4037F
:101510003C47D4044BFD850DD26BB50AA5FAA8B59E
:10152000356C98B242D6C9BBDB40F9BCACE36CD891
:1015300032755CDF45CF0DD6DC593DD1ABAC30D92F
:10154000263A00DE518051D7C81661D0BFB5F4B439
:101550002123C4B3569995BACF0FA5BDB89EB80242
:10156000280888055FB2D90CC624E90BB1877C6FC7
:101570002F114C6858AB1D61C13D2D66B69041DC02
:10158000760671DB01BC20D2982A10D5EF8985B18F
:10159000711FB5B606A5E4BF9F33D4B8E8A2C9074A
:1015A0007834F9000F8EA8099618980EE1BB0D6AE1
:1015B0007F2D3D6D08976C6491015C63E6F4516B7F
:1015C0006B62616C1CD83065854E0062F2ED950649
:1015D0006C7BA5011BC1F4088257C40FF5C6D9B0B6
:1015E0006550E9B712EAB8BE8B7C88B9FCDF1DDD17
:1015F00062492DDA15F37CD38C654CD4FB5861B26B
:101600004DCE51B53A7400BCA3E230BBD441A5DF46
:101610004AD795D83D6DC4D1A4FBF4D6D36AE96905
:1016200043FCD96E34468867ADD0B860DA732D04B8
:1016300044E51D03335F4C0AAAC97C0DDD3C7105EE
:1016400050AA41022710100BBE86200CC925B56890
:1016500057B3856F2009D466B99FE461CE0EF9DED9
:101660005E98C9D9292298D0B0B4A8D7C7173DB37E
:1016700059810DB42E3B5CBDB7AD6CBAC02083B8A8
:10168000EDB6B3BF9A0CE2B6039AD2B1743947D51E
:10169000EAAF77D29D1526DB048316DC73120B6349
:1016A000E3843B64943E6A6D0DA85A6A7A0BCF0EB0
:1016B000E49DFF099327AE000AB19E077D44930F76
:1016C000F0D2A3088768F2011EFEC206695D576268
:1016D000F7CB67658071366C19E7066B6E761BD4A5
:1016E000FEE02BD3895A7ADA10CC4ADD676FDFB976
:1016F000F9F9EFBE8E43BEB717D58EB060E8A3D61A
:10170000D67E93D1A1C4C2D83852F2DF4FF167BB65
:10171000D16757BCA6DD06B53F4B36B248DA2B0D74
:10172000D84C1B0AAFF64A0336607A0441C3EF6017
:10173000DF55DF67A8EF8E6E3179BE69468CB361E5
:10174000CB1A8366BCA0D26F2536E2685295770C1F
:10175000CC03470BBBB91602222F260555BE3BBA58
:10176000C5280BBDB2925AB42B046AB35CA7FFD74D
:10177000C231CFD0B58B9ED92C1DAEDE5BB0C2641A
:101780009B26F263EC9CA36A750A936D02A9060975
:101790009C3F360EEB8567077213570005824ABFE0
:1017A00095147AB8E2AE2BB17B381BB60C9B8ED267
:1017B000920DBED5E5B7EFDC7C21DFDB0BD4D2D3B5
:1017C0008642E2D4F1F8B3DD686E83DA1FCD16BE2F
:1017D000815B26B9F6E177B06F7747B718E65A080C
:1017E00088706A0FFFCA3B06665C0B0111FF9E659D
:1017F0008F69AE62F8D3FF6B6145CF6C1678E20A51
:10180000A0EED20DD75483044EC2B30339612667CC
:10181000A7F71660D04D476949DB776E3E4A6AD11B
:10182000AEDC5AD6D9660BDF40F03BD83753AEBC9E
:10183000A9C59EBBDE7FCFB247E9FFB5301CF2BD24
:10184000BD8AC2BACA3093B353A6A3B4240536D016
:10185000BA9306D7CD2957DE54BF67D9232E7A66AF
:10186000B3B84A61C4021B685D942B6F2A37BE0B64
:10187000B4A18E0CC31BDF055A8DEF022D00002290
:1018800000250028002B002E00310034000201004A
:1018900000050108010B0100002100240027002A97
:1018A000002D003000330001010000040107010A8F
:1018B0000105050505070508080808020202020AD5
:1018C0000A080804040404010101010101010103E3
:1018D00003030303030303040707070C0C0C0C0C9E
:1018E0000C0C0C0202020206060606060606060B91
:1018F0000B0B0B0B0B0B0B01021020200808102008
:10190000401020408002010201080402010102048B
:10191000081020408080402010080402018004024A
:1019200001804020100804020108040201010204A1
:1019300008102040800102040810204080000402AA
:1019400011241FBECFEFD1E2DEBFCDBF00E00CBF40
:1019500012E0A0E0B2E0E4E0F6E703E00BBF02C073
:1019600007900D92A637B107D9F72FE1A6E7B2E0AD
:1019700001C01D92A73DB207E1F71CE0C0EADCE020
:1019800000E006C021970109802FFE010F9458BA8C
:10199000CF39D10780E00807A9F70F94C48F0D94C1
:1019A00000BB0C9400008091340A8823F9F0209148
:1019B000340A2330D9F03091340A343090F0109248
:1019C000340A41E050E05093330A4093320A509178
:1019D000491E5E7F5093491E6091F11E6F5F6093B8
:1019E000F11E1092330A1092320A08950F94528613
:1019F00060937105709372058093730590937405DD
:101A00008091710590917205A0917305B091740554
:101A10002091350A3091360A4091370A5091380AA0
:101A2000821B930BA40BB50B80937B0590937C05D5
:101A3000A0937D05B0937E0540917B0550917C0578
:101A400060917D0570917E058091DD069091DE06A6
:101A5000A091DF06B091E00684179507A607B707A7
:101A600020F66091710570917205809173059091D7
:101A700074056093350A7093360A8093370A909301
:101A8000380AA091320AB091330A1196B093330A02
:101A9000A093320A1092340AE091320AF091330A8C
:101AA0003297C8F040917B0550917C0560917D058F
:101AB00070917E05769567955795479576956795CC
:101AC000579547954093DD065093DE066093DF06F9
:101AD0007093E00608951092DD061092DE061092D3
:101AE000DF061092E00608958091190B90911A0B71
:101AF0002091D01C3091D11CAC01445051092417C5
:101B0000350714F080539D4F821B930B97FD019670
:101B10009595879504979093960580939505A09148
:101B20000C08B0910D08BD016450710926173707E4
:101B300014F0A053BD4FA21BB30BB7FD1196B59582
:101B4000A7951497B0939405A0939305E0910A0884
:101B5000F0910B08CF0104972817390714F0E053D0
:101B6000FD4FE21BF30BF7FD3196F595E7953497A2
:101B7000F0939205E0939105A0910608B0910708B3
:101B8000AD01445051092417350714F0A053BD4F3F
:101B9000A21BB30BB7FD1196B595A7951497B093FB
:101BA0007605A093750508958F929F92AF92BF928C
:101BB000CF92DF92EF92FF920F931F93F894409190
:101BC000BF0A5091C00A6091C10A7091C20AC090C8
:101BD000EB06D090EC06E090ED06F090EE068091DA
:101BE000E9069091EA06FFB7F89400917C0D1091F8
:101BF0007D0D20917E0D30917F0DE6B5A89B06C02E
:101C0000EF3F21F00F5F1F4F2F4F3F4FFFBF882443
:101C1000902EA12EB22E8E0E911CA11CB11C880CF0
:101C2000991CAA1CBB1C880C991CAA1CBB1C80926A
:101C30008D0590928E05A0928F05B09290057894B4
:101C40000197880F991F2091D01C3091D11C820FD1
:101C5000931F4A01052E000CAA08BB0800918D05B0
:101C600010918E0520918F05309190050819190962
:101C70002A093B090093890510938A0520938B0557
:101C800030938C054C195D0957FF02C04F5F5F4FC1
:101C900055954795052E000C660B770B401751079D
:101CA0006207730708F40196803D22E092076CF00A
:101CB000805D92401F910F91FF90EF90DF90CF9049
:101CC000BF90AF909F908F90089597FFF3CF885962
:101CD0009E4FF0CF0F9452866093710570937205FA
:101CE00080937305909374058091710590917205AE
:101CF000A0917305B09174054091350A5091360A50
:101D00006091370A7091380A841B950BA60BB70BAC
:101D100080937B0590937C05A0937D05B0937E0511
:101D200020917105309172054091730550917405B1
:101D30002093350A3093360A4093370A5093380A75
:101D40006091D61C562F5170A091320AB091330A7F
:101D5000AB2B51F1E0919D06F0919E069081309160
:101D60009C06932371E049F17517F1F02091E90683
:101D70003091EA064091320A5091330A241BB09107
:101D8000491EB0FD1EC04091440C407F403451F1CB
:101D9000403609F451C0403809F45DC02091491E15
:101DA0002E7F2093491E08958091E9069091EA06BE
:101DB0009093330A8093320A089570E07513D6CF5A
:101DC000F3CF67FF0895F091440CF07FF034D1F722
:101DD0002F502330B8F780E190E09093EA0680938B
:101DE000E906089591EF920F9330D0F035EF320F5E
:101DF000333008F440C079EF720F733008F447C0F5
:101E00002350233008F04FC082E191E09093EA061E
:101E10008093E9064091491E41604093491E089510
:101E2000E0E1F0E0F093EA06E093E9069091491EC4
:101E300091609093491E08952350233018F6ACE723
:101E4000B0E0B093EA06A093E906E091491EE16094
:101E5000E093491E08952650233008F0B3CF68E37D
:101E600070E07093EA066093E9065091491E516054
:101E70005093491E0895A6E6B0E0B093EA06A093F9
:101E8000E9065091491E51605093491E08952CEB6C
:101E900030E03093EA062093E9066091491E6160C4
:101EA0006093491E0895B091491EBE7FB093491EAC
:101EB000F091F11EFF5FF093F11E08950895CF9207
:101EC000DF92EF92FF92CF93DF93F894C091E906EF
:101ED000D091EA06C090BF0AD090C00AE090C10A33
:101EE000F090C20A0F94528660938D0570938E0510
:101EF00080938F05909390057894209719F4C09162
:101F0000DF1CD0E02091F6063091F7062197C29FA2
:101F1000C001C39F900DD29F900D11246091D41CDD
:101F200070E00F9482B9E091D01CF091D11CE60FC3
:101F3000F71F20918D0530918E0540918F055091AE
:101F400090052C193D094E095F09209389053093AE
:101F50008A0540938B0550938C05A0918705B0911D
:101F600088050F94F8B9DC01CB01905CAF4FBF4FEF
:101F70009D01990F221F331FA12DAA1FB12DC90149
:101F80008E0F9F1F803D22E092074CF0805D9240B3
:101F9000DF91CF91FF90EF90DF90CF90089597FF62
:101FA000F7CF88599E4FDF91CF91FF90EF90DF9050
:101FB000CF9008950895CF92DF92EF92FF92CF9342
:101FC000DF938091491E80FD09C090E080E0DF91A1
:101FD000CF91FF90EF90DF90CF900895F894C0914B
:101FE000E906D091EA06C090BF0AD090C00AE090FE
:101FF000C10AF090C20A0F94528660938D057093C7
:102000008E0580938F05909390057894CC0FDD1FFB
:10201000C555D94FE881F9812091D01C3091D11C50
:10202000E20FF31F20918D0530918E0540918F05B1
:10203000509190052C193D094E095F09209389059F
:1020400030938A0540938B0550938C05A0918705AA
:10205000B09188050F94F8B9DC01CB01905CAF4FCB
:10206000BF4F9D01990F221F331FA12DAA1FB12D14
:10207000C9018E0F9F1F803D22E092075CF497FFFD
:10208000A6CF88599E4FDF91CF91FF90EF90DF90C0
:10209000CF900895805D9240DF91CF91FF90EF90B7
:1020A000DF90CF9008953FB7F89480917C0D909188
:1020B0007D0DA0917E0DB0917F0D26B5A89B05C02A
:1020C0002F3F19F00196A11DB11D3FBF6627782F44
:1020D000892F9A2F620F711D811D911D660F771F29
:1020E000881F991F660F771F881F991F60937105BE
:1020F00070937205809373059093740540917B05EE
:1021000050917C0560917D0570917E054093A906F4
:102110005093AA066093AB067093AC06809171054C
:1021200090917205A0917305B09174052091350AC4
:102130003091360A4091370A5091380A821B930B2E
:10214000A40BB50B80937B0590937C05A0937D0534
:10215000B0937E0560917105709172058091730551
:10216000909174056093350A7093360A8093370A0C
:102170009093380A5091491E50FD4BC0A091320AED
:10218000B091330A129709F445C04CED55E060E078
:1021900070E04093F0065093F1066093F20670935E
:1021A000F3068091A9069091AA06A091AB06B09182
:1021B000AC06B695A79597958795809369059093FA
:1021C0006A05A0936B05B0936C0520917B05309157
:1021D0007C0540917D0550917E0560916905709167
:1021E0006A0580916B0590916C05261737074807A3
:1021F000590730F4E2E0F0E0F093330AE093320A5A
:102200008091320A9091330A01969093330A809319
:10221000320A0895A1E0B0E0B093EA06A093E9067F
:102220007091491E71607093491EEACF90917A1E99
:102230008091DC1C8C718C3071F19A30BCF41916D1
:10224000A4F421E030E0309396052093950543E017
:1022500050E050939405409393053093920520935A
:1022600091055093760540937505089564E070E0FC
:102270007093960560939505A2E0B0E0B093940545
:10228000A09393057093920560939105B0937605A2
:10229000A093750508959A30DCF4191634F7E1E03F
:1022A000F0E0F0939605E093950583E090E090933D
:1022B00094058093930525E030E0309392052093B8
:1022C000910547E050E050937605409375050895D9
:1022D00068E070E07093960560939505A2E0B0E029
:1022E000B0939405A0939305E4E0F0E0F093920599
:1022F000E093910586E090E09093760580937505D4
:102300000895EF92FF920F931F93F894E091E906DE
:10231000F091EA064091BF0A5091C00A6091C10A4B
:102320007091C20A3FB7F89480917C0D90917D0D19
:10233000A0917E0DB0917F0D26B5A89B05C02F3FC3
:1023400019F00196A11DB11D3FBFBA2FA92F982FDB
:102350008827820F911DA11DB11D880F991FAA1FEB
:10236000BB1F880F991FAA1FBB1F80938D059093D9
:102370008E05A0938F05B09390057894EE0FFF1F04
:10238000E555F94F0190F081E02DE090D01CF090E0
:10239000D11CEE0DFF1D80918D0590918E05A091B1
:1023A0008F05B09190057C018D01E41AF50A060BAA
:1023B000170BA80197012093890530938A05409354
:1023C0008B0550938C05A0918705B09188050F94DB
:1023D000F8B9DC01CB01905CAF4FBF4F9D01990F65
:1023E000221F331FA12DAA1FB12DC9018E0F9F1FC0
:1023F000803D02E090073CF0805D92401F910F917C
:10240000FF90EF90089597FFF9CF88599E4F1F9145
:102410000F91FF90EF9008953FB7F89480917C0D55
:1024200090917D0DA0917E0DB0917F0D26B5A89B5A
:1024300005C02F3F19F00196A11DB11D3FBF6627B2
:10244000782F892F9A2F620F711D811D911D660FA4
:10245000771F881F991F660F771F881F991F60932A
:102460007105709372058093730590937405809144
:10247000710590917205A0917305B091740540911A
:10248000350A5091360A6091370A7091380A841BD8
:10249000950BA60BB70B80937B0590937C05A093BF
:1024A0007D05B0937E055091991E51FD49C07091F4
:1024B000491E70FF45C040917B0550917C0560919D
:1024C0007D0570917E058091DD069091DE06A091DC
:1024D000DF06B091E006481759076A077B0778F1D5
:1024E00060917105709172058091730590917405EA
:1024F0006093350A7093360A8093370A9093380AAE
:1025000020917B0530917C0540917D0550917E05A1
:102510002093A9063093AA064093AB065093AC06CD
:10252000A091320AB091330A1196B093330AA09366
:10253000320AE091E906F091EA06319771F00895C8
:102540002CED35E040E050E02093F0063093F106AA
:102550004093F2065093F306AECF4091710550912F
:10256000720560917305709174058091BF0A909116
:10257000C00AA091C10AB091C20A84179507A607A4
:10258000B707E8F68091710590917205A0917305E7
:10259000B09174052091BF0A3091C00A4091C10AE0
:1025A0005091C20A821B930BA40BB50B80935E055E
:1025B00090935F05A0936005B09361050895089519
:1025C0000F931F93CF93DF93F894C091E906D091B6
:1025D000EA060F94528660938D0570938E05809362
:1025E0008F05909390050091BF0A1091C00A209129
:1025F000C10A3091C20A601B710B820B930B60936E
:10260000890570938A0580938B0590938C05789447
:10261000E5EDF0E0CE30D10581F0EDE4F1E0C6313A
:10262000D10559F08091F6069091F7068C9FF00144
:102630008D9FF00D9C9FF00D1124A0918705B09106
:1026400088052091890530918A0540918B0550912C
:102650008C050F94F8B9DC01CB01905CAF4FBF4FF4
:102660009D01990F221F331FA12DAA1FB12DC90152
:102670002091D01C3091D11C2E0F3F1F820F931F31
:10268000803D22E09207BCF0805D9240A09116024E
:10269000B091170260910E0270910F026A177B07CA
:1026A00034F16817790714F4861B970BDF91CF91EB
:1026B0001F910F9108954091160250911702609159
:1026C0000E0270910F026417750764F0681779079E
:1026D0005CF397FFEBCF88599E4FDF91CF911F910D
:1026E0000F910895BA01681779079CF7DDCFBD01F6
:1026F00068177907CCF2DACF0F932091DA0A30917C
:10270000DB0A4091DC0A5091DD0A2F3F8FEF38073A
:102710004105510530F521153105E9F0C9019695BE
:102720008795B0E0A0E09957AC46BC4FA217B3071D
:1027300090F400E1880F991FAA1FBB1F18F0A21781
:10274000B30718F0A21BB30B81600A9599F7803587
:1027500026E4920720F080914A1E90914B1E0F9123
:102760000895CA01B9019695879577956795795728
:102770008C469C4F0F940BBAC901803526E4920712
:1027800050F70F91089508950895CF92DF92EF9238
:10279000FF92CF93DF93F894C091E906D091EA06B7
:1027A000C090BF0AD090C00AE090C10AF090C20A5F
:1027B0000F94528660938D0570938E0580938F05DC
:1027C0009093900578948091F6069091F706209763
:1027D00009F042C03BE0389FF001399FF00D112411
:1027E0004091D01C5091D11CE40FF51F20918D0514
:1027F00030918E0540918F05509190052C193D091F
:102800004E095F092093890530938A0540938B0513
:1028100050938C05A0918705B09188050F94F8B965
:10282000DC01CB01905CAF4FBF4F9D01990F221F80
:10283000331FA12DAA1FB12DC9018E0F9F1F803DEF
:1028400022E09207C4F0805D9240DF91CF91FF902B
:10285000EF90DF90CF9008952197C89FF001C99F16
:10286000F00DD89FF00D11242091D01C3091D11C77
:10287000E20FF31FBBCF97FFE8CF88599E4FDF9140
:10288000CF91FF90EF90DF90CF90089508958091C1
:102890007F0590918005A0918105B091820580937C
:1028A000A9069093AA06A093AB06B093AC060F942A
:1028B0005286609383057093840580938505909379
:1028C00086058091830590918405A0918505B0913E
:1028D00086054091BF0A5091C00A6091C10A70916B
:1028E000C20A841B950BA60BB70B80937F059093B0
:1028F0008005A0938105B0938205A091E906B0916F
:10290000EA061196B093EA06A093E9062091270BF8
:1029100020622093270B6091E9067091EA066D30E2
:10292000710509F45BC0E091E906F091EA06319780
:1029300009F45DC08091A9069091AA06A091AB060A
:10294000B091AC06B695A795979587958093690544
:1029500090936A05A0936B05B0936C0540917F0539
:102960005091800560918105709182058091690583
:1029700090916A05A0916B05B0916C0548175907B5
:102980006A077B0708F12091BF0A3091C00A409185
:10299000C10A5091C20A2093EB063093EC06409393
:1029A000ED065093EE066091830570918405809149
:1029B0008505909186056093BF0A7093C00A809345
:1029C000C10A9093C20A08951092EA061092E9068D
:1029D0007091491E71607093491E08953091491E8F
:1029E00030FFA1CF1092EA061092E90608955091A7
:1029F000491E50FF9FCF4091E5065091E606609139
:102A0000E7067091E8064093E1065093E206609372
:102A1000E3067093E4068091830590918405A0916C
:102A20008505B09186058093E5069093E606A09310
:102A3000E706B093E8062091B51E3091B61E40918E
:102A4000B71E5091B81E2F5F3F4F4F4F5F4F2093DF
:102A5000B51E3093B61E4093B71E5093B81E6091BA
:102A6000BF0A7091C00A8091C10A9091C20A609316
:102A7000EB067093EC068093ED069093EE06409182
:102A8000830550918405609185057091860540937A
:102A9000BF0A5093C00A6093C10A7093C20A089596
:102AA00008958F929F92AF92BF92FF920F931F93C0
:102AB000CF93DF93F894C091E906D091EA06809015
:102AC000BF0A9090C00AA090C10AB090C20AF090CC
:102AD000A8060F94528660938D0570938E0580939F
:102AE0008F05909390057894FE013197CD2B11F4CA
:102AF000ECE2F0E00091F6061091F706C091D01CD0
:102B0000D091D11C20918D0530918E0540918F057B
:102B100050919005281939094A095B0920938905C4
:102B200030938A0540938B0550938C05A0918705BF
:102B3000B09188050F94F8B9DC01CB01905CAF4FE0
:102B4000BF4F9D01990F221F331FA12DAA1FB12D29
:102B5000C9010E9F90010F9F300D1E9F300D112453
:102B6000820F931F8C0F9D1FFF2011F088599E4FDD
:102B7000803D22E0920764F0805D9240DF91CF912A
:102B80001F910F91FF90BF90AF909F908F900895ED
:102B900097FFF4CF4091160250911702A0900E02B9
:102BA000B0900F02A416B5061CF08A0D9B1DE6CF4F
:102BB0005A018A0D9B1DE2CF8091491E80FF20C0E3
:102BC0002091D61C27FD2CC04091B51E5091B61EF9
:102BD0006091B71E7091B81E4436510561057105AC
:102BE00058F46091E9067091EA066D32710521F0A2
:102BF0001092EA061092E90691E09093A8060895D3
:102C00001092EA061092E9065091491E51605093C5
:102C1000491E73E07093340A91E09093A8060895DA
:102C20001092EA061092E90633E03093340A91E0FC
:102C30009093A80608950895CF92DF92EF92FF92A5
:102C4000CF93DF93F894C091E906D091EA06C09043
:102C5000BF0AD090C00AE090C10AF090C20A0F9457
:102C6000528660938D0570938E0580938F059093A7
:102C7000900578948091E9069091EA06892B09F0F5
:102C80003CC0E091D01CF091D11CEE58FF4F209138
:102C90008D0530918E0540918F05509190052C192E
:102CA0003D094E095F092093890530938A054093B9
:102CB0008B0550938C05A0918705B09188050F94E2
:102CC000F8B9DC01CB01905CAF4FBF4F9D01990F6C
:102CD000221F331FA12DAA1FB12DC9018E0F9F1FC7
:102CE000803D22E09207B4F0805D9240DF91CF9169
:102CF000FF90EF90DF90CF900895CC0FDD1FC5556A
:102D0000D94FE881F9812091D01C3091D11CE20F7C
:102D1000F31FBDCF97FFEACF88599E4FDF91CF9128
:102D2000FF90EF90DF90CF9008951092EA061092F6
:102D3000E90608950895CF92DF92EF92FF920F93E4
:102D40001F93CF93F8940091E9061091EA06C09082
:102D5000BF0AD090C00AE090C10AF090C20AC091A8
:102D6000A8060F94528660938D0570938E0580930C
:102D70008F05909390057894E091D01CF091D11C30
:102D80000115110571F0000F111FF801E555F94FFC
:102D90000190F081E02D8091D01C9091D11CE80F22
:102DA000F91F20918D0530918E0540918F0550912E
:102DB00090052C193D094E095F0920938905309330
:102DC0008A0540938B0550938C05A0918705B0919F
:102DD00088050F94F8B9DC01CB01905CAF4FBF4F71
:102DE0009D01990F221F331FA12DAA1FB12DC901CB
:102DF0008E0F9F1FCC2311F088599E4F803D22E0FB
:102E0000920754F0805D9240CF911F910F91FF90F7
:102E1000EF90DF90CF90089597FFF6CF88599E4F9F
:102E2000CF911F910F91FF90EF90DF90CF90089579
:102E30001092EA061092E90681E08093A8060895B0
:102E40008091E9069091EA06499709F4D3C03FB70B
:102E5000F89440917C0D50917D0D60917E0D7091A4
:102E60007F0D26B5A89B06C02F3F21F04F5F5F4F17
:102E70006F4F7F4F3FBF962F852F742F6627620FAE
:102E8000711D811D911D660F771F881F991F660F89
:102E9000771F881F991F6093830570938405809323
:102EA0008505909386058091830590918405A09176
:102EB0008505B09186054091BF0A5091C00A609186
:102EC000C10A7091C20A841B950BA60BB70B8093A5
:102ED0007F0590938005A0938105B0938205A09112
:102EE000E906B091EA06AB2BC9F1E091E906F09151
:102EF000EA063196F093EA06E093E906A091E90626
:102F0000B091EA06E091E906F091EA06AA0FBB1F2C
:102F1000A555B94FEE0FFF1FE755F94F6D917C9105
:102F200020813181621B730B7093F7066093F60664
:102F3000B091270BB062B093270B809183059091DD
:102F40008405A0918505B09186058093BF0A909372
:102F5000C00AA093C10AB093C20A089581E090E02C
:102F60009093EA068093E9064091E5065091E606C3
:102F70006091E7067091E8064093E1065093E206FF
:102F80006093E3067093E406609183057091840575
:102F900080918505909186056093E5067093E6061D
:102FA0008093E7069093E8065091A80691E0592790
:102FB0005093A8067091491E71607093491E20912C
:102FC000B51E3091B61E4091B71E5091B81E2F5FAE
:102FD0003F4F4F4F5F4F2093B51E3093B61E409327
:102FE000B71E5093B81EAFE0B0E0B093F706A093C1
:102FF000F6069ECFF091491EFE7FF093491E08957C
:103000008091440C807F8034F1F08036D9F4209197
:10301000DC1C2C712C3089F146E050E05093960571
:103020004093950562E070E070939405609393057A
:10303000A4E0B0E0B0939205A0939105709376055B
:103040006093750508953091DC1C3C713C30A9F00B
:10305000E4E0F0E0F0939605E093950582E090E0DF
:103060009093940580939305F0939205E0939105D6
:103070009093760580937505089528E030E03093AD
:1030800096052093950542E050E0509394054093B7
:10309000930564E070E07093920560939105A6E05B
:1030A000B0E0B0937605A093750508958F929F9236
:1030B000AF92BF92CF92DF92EF92FF920F931F9346
:1030C000CF93DF938091491E80FD0FC090E080E098
:1030D000DF91CF911F910F91FF90EF90DF90CF90F4
:1030E000BF90AF909F908F900895F894E091E9067B
:1030F000F091EA064091BF0A5091C00A6091C10A5E
:103100007091C20A3FB7F89480917C0D90917D0D2B
:10311000A0917E0DB0917F0D26B5A89B05C02F3FD5
:1031200019F00196A11DB11D3FBF8824982EA92E2C
:10313000BA2E820E911CA11CB11C880C991CAA1CD1
:10314000BB1C880C991CAA1CBB1C80928D059092FC
:103150008E05A0928F05B09290057894EE0FFF1F18
:10316000E555F94FC081D181A090D01CB090D11C01
:10317000CA0DDB1D80918D0590918E05A0918F0564
:10318000B09190057C018D01E41AF50A060B170B2E
:10319000A80197012093890530938A0540938B05F8
:1031A00050938C05F8949090270B96FE2EC0C090FB
:1031B000BF0AD090C00AE090C10AF090C20A809085
:1031C000EB069090EC06A090ED06B090EE06A09174
:1031D000F606B091F70678940F94F8B9A701960116
:1031E000281939094A095B090F940BBAC9018C0FD8
:1031F0009D1F803D02E090072CF497FF69CF88590E
:103200009E4F66CF805D924063CF7894A0918705F2
:10321000B09188050F94F8B9DC01CB01905CAF4FF9
:10322000BF4F9D01990F221F331FA12DAA1FB12D42
:10323000C901DDCF8091491E3FB7F89480917C0D84
:1032400090917D0DA0917E0DB0917F0D26B5A89B2C
:1032500005C02F3F19F00196A11DB11D3FBF662784
:10326000782F892F9A2F620F711D811D911D660F76
:10327000771F881F991F660F771F881F991F6093FC
:103280007105709372058093730590937405809116
:10329000710590917205A0917305B09174054091EC
:1032A000350A5091360A6091370A7091380A841BAA
:1032B000950BA60BB70B80937B0590937C05A09391
:1032C0007D05B0937E0520917B0530917C05409172
:1032D0007D0550917E056091DD067091DE0680913E
:1032E000DF069091E006261737074807590708F4CC
:1032F00073C08091710590917205A0917305B09192
:1033000074058093350A9093360AA093370AB093D8
:10331000380A5091270B50625093270B40917B0540
:1033200050917C0560917D0570917E05769567953D
:10333000579547954093DD065093DE066093DF0670
:103340007093E0067091491E70FD32C02CED35E09F
:1033500040E050E02093F0063093F1064093F206EF
:103360005093F3066091DD067091DE068091DF06D2
:103370009091E00696958795779567956093DD0621
:103380007093DE068093DF069093E006E091A0063E
:10339000F091A1069081A0919F06B091440CB07F5E
:1033A0009A2301F1B03409F459C0B03609F44DC084
:1033B00060914A1E70914B1EE091E11EF091E21E59
:1033C0006E177F0750F45091491E50FF05C0709151
:1033D000440C707F7034A1F008953091D61C37FDF5
:1033E000F2CF0895B03421F78091E9069091EA0672
:1033F0000597F1F6F091491EF160F093491ED8CF80
:103400000F9452868091560590915705A0915805CA
:10341000B0915905E091A006F091A106A08190918C
:103420009F06A923C9F28091E9069091EA068830A7
:103430009105E9F0B091491EBE7FB093491E4091BD
:10344000F11E4F5F4093F11E08954091E90650919F
:10345000EA064730510509F0ABCFCCCF2091E90601
:103460003091EA062830310509F0A2CFC3CF9093FE
:10347000EA068093E906089580917A1E82319CF0D5
:1034800026E030E0309396052093950541E050E02A
:10349000509394054093930564E070E07093920517
:1034A000609391050895A7E0B0E0B0939605A093CE
:1034B0009505E2E0F0E0F0939405E093930585E054
:1034C00090E090939205809391050895CF92DF92BA
:1034D000EF92FF92CF93DF93F894C091E906D091D9
:1034E000EA06C090BF0AD090C00AE090C10AF090EE
:1034F000C20A0F94528660938D0570938E05809357
:103500008F05909390057894C330D1050CF049C095
:103510002091F6063091F7062197C29FA001C39F24
:10352000500DD29F500D1124E091D01CF091D11C70
:10353000BA96E40FF51F20918D0530918E054091CC
:103540008F05509190052C193D094E095F09209374
:10355000890530938A0540938B0550938C05A09183
:103560008705B09188050F94F8B9DC01CB01905C18
:10357000AF4FBF4F9D01990F221F331FA12DAA1FCF
:10358000B12DC9018E0F9F1F803D22E092071CF1D3
:10359000805D9240DF91CF91FF90EF90DF90CF90D0
:1035A0000895E0E7F0E0C330D10509F4C4CF80917D
:1035B000F6069091F7062297C89FB001C99F700D3B
:1035C000D89F700D1124E091D01CF091D11CBA96B7
:1035D000E60FF71FB0CF97FFDDCF88599E4FDF91E1
:1035E000CF91FF90EF90DF90CF9008958091190BCD
:1035F00090911A0B2091D01C3091D11C821B930BFF
:1036000040910E0250910F0297FD77C0481759075D
:10361000DCF13091440C32953F703430E9F13530B3
:1036200008F44BC0363009F44AC0383009F0A2C063
:10363000BC016B5571096A35710508F482C0DC0163
:10364000A55BB109AA35B10508F4A8C001978E3071
:10365000914008F0BCC0E1E0F0E0F0939605E09303
:10366000950582E090E0909394058093930523E084
:1036700030E0309392052093910544E050E0509360
:103680007605409375050895841B950B3091440C85
:1036900032953F70343019F60197843B910580F1E3
:1036A00062E070E07093960560939505A1E0B0E04C
:1036B000B0939405A09393050895333071F5BC0140
:1036C000695771096837710548F10197803F910585
:1036D00008F451C023E030E030939605209395051F
:1036E00041E050E0509394054093930562E070E010
:1036F00070939205609391050895840F951F89CF6B
:1037000021E030E0309396052093950542E050E0AB
:10371000509394054093930508950895A2E0B0E076
:10372000B0939605A0939505E3E0F0E0F09394053F
:10373000E093930581E090E090939205809391054A
:103740000895E2E0F0E0F0939605E093950583E0BC
:1037500090E0909394058093930524E030E03093BB
:1037600092052093910541E050E0509376054093F7
:10377000750508950895A1E0B0E0B0939605A09373
:103780009505E2E0F0E0F0939405E093930583E083
:1037900090E09093920580939105089523E030E0A6
:1037A000309396052093950544E050E0509394059E
:1037B0004093930561E070E07093920560939105EA
:1037C000A2E0B0E0B0937605A0937505089564E09B
:1037D00070E07093960560939505A1E0B0E0B0931A
:1037E0009405A0939305E2E0F0E0F0939205E09356
:1037F000910583E090E09093760580937505089598
:103800008F929F92AF92BF92CF92DF92EF92FF92F0
:10381000CF93DF93F894C091E906D091EA06C09067
:10382000BF0AD090C00AE090C10AF090C20A0F947B
:10383000528660938D0570938E0580938F059093CB
:10384000900578948091F6069091F706AE0141506C
:103850005109489FE001499FD00D589FD00D112478
:103860008090D01C9090D11CC80DD91D20918D0541
:1038700030918E0540918F05509190052C193D098E
:103880004E095F092093890530938A0540938B0583
:1038900050938C05F8949090270B96FE43C0C090EF
:1038A000BF0AD090C00AE090C10AF090C20A80908E
:1038B000EB069090EC06A090ED06B090EE06A0917D
:1038C000F606B091F70678940F94F8B9A70196011F
:1038D000281939094A095B090F940BBAC9018C0FE1
:1038E0009D1F803D22E092076CF0805D9240DF9149
:1038F000CF91FF90EF90DF90CF90BF90AF909F90CF
:103900008F90089597FFF3CFA0901602B090170202
:1039100040910E0250910F024A155B05C4F0840FCE
:10392000951FE5CF7894A0918705B09188050F94F5
:10393000F8B9DC01CB01905CAF4FBF4F9D01990FEF
:10394000221F331FA12DAA1FB12DC901C8CFA50168
:10395000840F951FCCCFCF92DF92EF92FF92CF933F
:10396000462F2091D01C3091D11CFC01E21BF30B9F
:10397000C091680520916605309167055C2F5F71E5
:1039800021153105A9F52C2FCC0F330B220F232F36
:10399000221F330B8FEF9FEF052E02C0880F991F58
:1039A0000A94E2F780959095BF01770F660B762F0A
:1039B000862397238E0F9F1F02C0959587955A9552
:1039C000E2F782279327821B930B2091DF1C240FA1
:1039D0003327331F181619069CF52817390714F4D6
:1039E000821B930BCF91FF90EF90DF90CF900895C3
:1039F000DF010F9479BA6C01FF24D7FCF094EF2C0F
:103A0000C601C6FF0EC02C2FCC0F330B220F232F65
:103A1000221F330BCF0182279327821B930B8C0D20
:103A20009D1D02C0959587955A95E2F797FD0196E1
:103A30002091DF1C240F3327331F181619066CF250
:103A4000820F931FCF91FF90EF90DF90CF9008955A
:103A5000CF938091DC1C8C718C3079F1C0E06C2F9D
:103A60008091190B90911A0B0E94AB1C90939605B4
:103A7000809395056C2F80910C0890910D080E9401
:103A8000AB1C90939405809393056C2F80910A084A
:103A900090910B080E94AB1C909392058093910526
:103AA0006C2F80910608909107080E94AB1C9093A0
:103AB000760580937505CF9108952091D51CC0910E
:103AC000DF1C21FFCCCFCACF8F929F92AF92BF92C3
:103AD000FF920F931F93CF93DF93F894C091E90661
:103AE000D091EA068090BF0A9090C00AA090C10AC7
:103AF000B090C20AF090A8060F94528660938D058C
:103B000070938E0580938F059093900578942097FD
:103B100019F4C091DF1CD0E00091F6061091F70671
:103B2000E091D01CF091D11C20918D0530918E0533
:103B300040918F0550919005281939094A095B0970
:103B40002093890530938A0540938B0550938C050B
:103B5000A0918705B09188050F94F8B9705C8F4FDC
:103B60009F4F9C01770F221F331F812D881F912D9E
:103B7000B9012197C09FC001C19F900DD09F900DAA
:103B800011246E0F7F1F860F971FFF2021F02091B9
:103B9000D51C21FF20C0803D22E0920764F0805DAB
:103BA0009240DF91CF911F910F91FF90BF90AF9006
:103BB0009F908F90089597FFF4CF409116025091F7
:103BC0001702A0900E02B0900F02A416B50634F0B2
:103BD0008A0D9B1DE6CF88599E4FDDCF5A018A0D75
:103BE0009B1DDFCFCF92DF92EF92FF92CF93DF93B7
:103BF0003FB7F89480917C0D90917D0DA0917E0D42
:103C0000B0917F0D26B5A89B05C02F3F19F00196F6
:103C1000A11DB11D3FBFCC24D82EE92EFA2EC20E15
:103C2000D11CE11CF11CCC0CDD1CEE1CFF1CCC0CCF
:103C3000DD1CEE1CFF1CC0927105D0927205E09253
:103C40007305F09274058091710590917205A091B1
:103C50007305B09174054091350A5091360A609110
:103C6000370A7091380A841B950BA60BB70B80930B
:103C70007B0590937C05A0937D05B0937E052091F4
:103C80007B0530917C0540917D0550917E056091CA
:103C9000DD067091DE068091DF069091E006261722
:103CA00037074807590708F464C08091710590915F
:103CB0007205A0917305B09174058093350A9093B5
:103CC000360AA093370AB093380A40917B05509189
:103CD0007C0560917D0570917E0576956795579579
:103CE000479576956795579547954093DD06509390
:103CF000DE066093DF067093E006D090491ED0FE8A
:103D000053C02091B51E3091B61E4091B71E509100
:103D1000B81E8091DB1C90E0B0E0A0E08217930712
:103D2000A407B50708F040C08091DF1C90E0E09048
:103D3000E906F090EA068E159F0591F04091B51EB8
:103D40005091B61E6091B71E7091B81E4330510558
:103D50006105710528F05091F11E5F5F5093F11ECF
:103D6000F090D61CF7FE58C09093EA068093E906BF
:103D700053C0C090DA0AD090DB0AE090DC0AF090E1
:103D8000DD0AF694E794D794C794C092DD06D092EA
:103D9000DE06E092DF06F092E006DF91CF91FF9021
:103DA000EF90DF90CF9008950F9452866093BF0AF2
:103DB0007093C00A8093C10A9093C20A0F945286EE
:103DC0006B017C01C091DF1C2C2F30E050E040E003
:103DD00060E87DE88BE590E00F940BBAC21AD30A35
:103DE000E40AF50AC092EB06D092EC06E092ED06EA
:103DF000F092EE06D0E0D093EA06C093E906109266
:103E0000F0061092F1061092F2061092F3067091ED
:103E1000491E71607093491E91E09093A806DF914E
:103E2000CF91FF90EF90DF90CF900895CF92DF92E7
:103E3000EF92FF92CF93462F2091D01C3091D11C4E
:103E4000FC01E21BF30BC0916805209166053091DF
:103E500067055C2F5F712115310509F04CC08C2F6F
:103E6000CC0F990B880F892F881F990B2FEF3FEFED
:103E7000052E02C0220F331F0A94E2F720953095D9
:103E8000BF01770F660B762F262337232E0F3F1F98
:103E900002C0359527955A95E2F728273927281B20
:103EA000390B6091DF1C6D3010F02150310970E04A
:103EB000842F90E06B01C80ED91E121613060CF069
:103EC00040C0C216D306D4F1E090F406F090F50697
:103ED000E216F30620F46217730708F097018E0DBF
:103EE0009F1D2817390708F4C901CF91FF90EF9063
:103EF000DF90CF900895DF010F9479BA6C01FF2411
:103F0000D7FCF094EF2C9601C6FF0EC08C2FCC0F7F
:103F1000990B880F892F881F990B9F012827392714
:103F2000281B390B2C0D3D1D02C0359527955A9540
:103F3000E2F7832F880F211D311DB3CF2C193D09C6
:103F4000C3CF2C0D3D1DC0CFCF938091DC1C84715D
:103F5000843079F1C0E06C2F8091190B90911A0B8D
:103F60000E94161F90939605809395056C2F809163
:103F70000C0890910D080E94161F90939405809351
:103F800093056C2F80910A0890910B080E94161FD0
:103F900090939205809391056C2F809106089091E3
:103FA00007080E94161F9093760580937505CF91A0
:103FB00008952091D51C21FDCDCF3091440CC091A6
:103FC000DF1C32FFC8CFC6CFCF92DF92EF92FF92B5
:103FD000F8942091E9063091EA069091A806C090E5
:103FE000BF0AD090C00AE090C10AF090C20A78944B
:103FF0004091F6065091F70621503109249FF001B7
:10400000259FF00D349FF00D11246091D01C70910C
:10401000D11CE60FF71F992321F08091D51C81FF59
:104020006CC03FB7F89440917C0D50917D0D60912C
:104030007E0D70917F0DA6B5A89B06C0AF3F21F005
:104040004F5F5F4F6F4F7F4F3FBF2227342F452F6A
:10405000562F2A0F311D411D511D220F331F441FA2
:10406000551F220F331F441F551F20938D0530937A
:104070008E0540938F05509390052C193D094E09EC
:104080005F092093890530938A0540938B055093EF
:104090008C05A0918705B09188050F94F8B9DC01D3
:1040A000CB01905CAF4FBF4F9D01990F221F331F73
:1040B000A12DAA1FB12DC9018E0F9F1F803D22E0A7
:1040C00092073CF0805D9240FF90EF90DF90CF90A0
:1040D000089597FFF9CFE0901602F09017024091F3
:1040E0000E0250910F024E155F0554F0840F951F7C
:1040F000FF90EF90DF90CF900895E859FE4F91CF59
:10410000A701840F951FF4CFCF92DF92EF92FF9219
:104110000F94528660934E0570934F05809350051F
:104120009093510580914E0590914F05A0915005B7
:10413000B091510540914A0550914B0560914C0555
:1041400070914D05841B950BA60BB70B80937705DB
:1041500090937805A0937905B0937A05C0904A05AD
:10416000D0904B05E0904C05F0904D05CD28CE2821
:10417000CF28C1F410927705109278051092790536
:1041800010927A0520914E0530914F0540915005CF
:104190005091510520934A0530934B0540934C05AF
:1041A00050934D05409177055091780560917905C0
:1041B00070917A058091460590914705A091480538
:1041C000B0914905481759076A077B0708F4BAC038
:1041D000A0914405B09145051196B0934505A09373
:1041E00044056091770570917805809179059091EB
:1041F0007A0596958795779567959695879577959E
:1042000067956093460570934705809348059093A2
:104210004905E0911202F09113021995AC0189361B
:1042200021E092070CF443C09C0129563140A3E8D9
:10423000BDE20F942DBA0024880F991F001C880F2F
:10424000991F001C892F902D87709927485651403F
:10425000493621E052075CF1009719F18130910550
:10426000D1F082309105A9F08330910581F084303E
:10427000910559F08530910531F0069711F04856B7
:104280005140485651404856514048565140485672
:1042900051404856514048565140493681E05807F0
:1042A00034F040545B40493681E05807D4F7E09041
:1042B000D01CF090D11C4E195F093091461F33700D
:1042C000323031F4C090491DD0904A1D4C195D091F
:1042D000E0914C1D9A01220F331FF0E0A0E0B1E005
:1042E000AE1BBF0B0F9479BA6B017C01A091091F23
:1042F000B0910A1F9F010F9481BAC60ED71EE81E07
:10430000F91EF7FE05C02FEFC20ED11CE11CF11CF7
:104310009927F7FC9A958F2D7E2D6D2D70930A1F8E
:104320006093091F20914E0530914F054091500533
:104330005091510520934A0530934B0540934C050D
:1043400050934D05FF90EF90DF90CF900895CF925E
:10435000DF92EF92FF923FB7F89480917C0D90919D
:104360007D0DA0917E0DB0917F0D26B5A89B05C057
:104370002F3F19F00196A11DB11D3FBFCC24D82EAF
:10438000E92EFA2EC20ED11CE11CF11CCC0CDD1C56
:10439000EE1CFF1CCC0CDD1CEE1CFF1CC09271053A
:1043A000D0927205E0927305F092740580917105C8
:1043B00090917205A0917305B09174054091350AF2
:1043C0005091360A6091370A7091380A841B950B18
:1043D000A60BB70B80937B0590937C05A0937D057E
:1043E000B0937E056091350A7091360A8091370A44
:1043F0009091380A672B682B692BC1F410927B05CA
:1044000010927C0510927D0510927E052091710519
:104410003091720540917305509174052093350ACF
:104420003093360A4093370A5093380AC0907B0580
:10443000D0907C05E0907D05F0907E058091DD06B2
:104440009091DE06A091DF06B091E006C816D9066D
:10445000EA06FB0608F445C05091D81C5F7751303E
:1044600009F444C008F4AAC1523009F439C15430E7
:1044700041F5A091320AB091330A1196B093330AF4
:10448000A093320AE091320AF091330A329709F48C
:1044900031C2C0907B05D0907C05E0907D05F09006
:1044A0007E05F694E794D794C794F694E794D7944E
:1044B000C794C092DD06D092DE06E092DF06F0924D
:1044C000E0064091710550917205609173057091FD
:1044D00074054093350A5093360A6093370A7093F7
:1044E000380AFF90EF90DF90CF9008958091350AC1
:1044F0009091360AA091370AB091380A209162054E
:10450000309163054091640550916505821B930BC2
:10451000A40BB50BAC01BD01440F551F661F771FDF
:10452000840F951FA61FB71FB695A79597958795DA
:1045300080936D0590936E05A0936F05B093700501
:104540006091350A7091360A8091370A9091380A45
:10455000609362057093630580936405909365058D
:10456000C0907B05D0907C05E0907D05F0907E05A5
:1045700080916D0590916E05A0916F05B0917005C9
:10458000C816D906EA06FB0638F4A091320AB091A3
:10459000330A149708F48CC181E090E09093330AB9
:1045A0008093320A8093A8061092DD061092DE06F0
:1045B0001092DF061092E006D090401FD5FE81CF0A
:1045C000E090A806EE2009F47CCFE0911202F09171
:1045D00013021995AC01893621E092070CF443C00F
:1045E0009C0129563140A3E8BDE20F942DBA002466
:1045F000880F991F001C880F991F001C892F902D70
:104600008770992748565140493621E052075CF19E
:10461000009719F181309105D1F082309105A9F010
:104620008330910581F08430910559F085309105F2
:1046300031F0069711F048565140485651404856BF
:1046400051404856514048565140485651404856AE
:104650005140493681E0580734F040545B404936B8
:1046600081E05807D4F76091D01C7091D11C461B93
:10467000570B9091461F9370923031F4C0900B1EEF
:10468000D0900C1E4C195D09F0904C1D9A01220F20
:10469000331F4F2D50E0A0E0B1E0A41BB50B0F94E9
:1046A00079BA6B017C01A091F61EB091F71E9A01B8
:1046B0000F9481BAC60ED71EE81EF91EF7FE05C07C
:1046C0002FEFC20ED11CE11CF11C9927F7FC9A9523
:1046D0008F2D7E2D6D2D7093F71E6093F61EF1CEFB
:1046E00080917B0590917C05A0917D05B0917E0520
:1046F000B695A795979587958093DD069093DE06EE
:10470000A093DF06B093E006B091401FB5FFD9CE6D
:10471000F091A806FF2309F4D4CEE0911202F091A3
:1047200013021995AC01493681E058070CF49BCF70
:104730009A0129563140A3E8BDE20F942DBA002416
:10474000880F991F001C880F991F001C892F902D1E
:104750008770992748565140493621E052070CF49A
:1047600082CF009721F181309105D1F082309105FF
:10477000A9F08330910581F08430910559F085309E
:10478000910531F0069711F0485651404856514076
:10479000485651404856514048565140485651405D
:1047A00048565140493681E058070CF45CCF4054DC
:1047B0005B40493681E05807D4F755CF31E030935C
:1047C000A80640917B0550917C0560917D05709114
:1047D0007E0576956795579547954093DD065093EE
:1047E000DE066093DF067093E006A091320AB09176
:1047F000330A1196B093330AA093320A5091401FA6
:1048000055FF5FCE7091A806772309F45ACEE09148
:104810001202F09113021995AC01493681E0580754
:104820000CF421CF9A0129563140A3E8BDE20F9440
:104830002DBA0024880F991F001C880F991F001C97
:10484000892F902D8770992748565140493621E08D
:1048500052070CF408CF009721F181309105D1F077
:1048600082309105A9F08330910581F08430910563
:1048700059F08530910531F0069711F048565140B6
:10488000485651404856514048565140485651406C
:104890004856514048565140493621E052070CF4E1
:1048A000E2CE40545B40493681E05807D4F7DBCE76
:1048B00020917B0530917C0540917D0550917E05CE
:1048C000569547953795279556954795379527954A
:1048D0002093DD063093DE064093DF065093E0061A
:1048E000E091320AF091330A3196F093330AE09363
:1048F000320AE7CD71E07093A806D090401FD5FE34
:10490000C8CDE090A806EE2009F4C3CDE0911202D4
:10491000F09113021995AC01493681E058070CF467
:1049200043C09A0129563140A3E8BDE20F942DBA45
:104930000024880F991F001C880F991F001C892FC5
:10494000902D8770992748565140493621E05207EB
:104950005CF1009719F181309105D1F08230910519
:10496000A9F08330910581F08430910559F08530AC
:10497000910531F0069711F0485651404856514084
:10498000485651404856514048565140485651406B
:1049900048565140493621E0520734F040545B40BC
:1049A000493681E05807D4F76091D01C7091D11C32
:1049B000461B570B9091461F9370923031F4209113
:1049C0000B1E30910C1E421B530BF0904C1D9A0194
:1049D000220F331F4F2D50E0A0E0B1E0A41BB50B18
:1049E0000F9479BA6B017C01A091F61EB091F71E6D
:1049F0009A010F9481BAC60ED71EE81EF91EF7FE63
:104A000005C02FEFC20ED11CE11CF11C9927F7FC49
:104A10009A958F2D7E2D6D2D7093F71E6093F61E47
:104A200038CD0F931F932091941E26FD21C0009135
:104A3000F41E002301F141111BC0E0911D0CF09107
:104A40001E0CEE0FFF1FEE0FFF1FE85BFC4F608395
:104A500071838283938320911D0C30911E0C2E371D
:104A6000310508F453C0B091941EB064B093941E05
:104A70001F910F9108958091F51E8823C9F3E0914D
:104A80001D0CF0911E0CE753FD4F1082E091A00623
:104A9000F091A106A0919D06B0919E06843009F484
:104AA00046C0908110919F06912349F0E0911D0C22
:104AB000F0911E0CE753FD4F308131603083E0915F
:104AC0009A06F0919B06833009F496C05C91609140
:104AD0009C06562349F0A0911D0CB0911E0CA753C3
:104AE000BD4F7C9172607C93B081F0919906BF2399
:104AF00049F0E0911D0CF0911E0CE753FD4F308101
:104B000034603083442309F44BC041C0A0911D0C94
:104B1000B0911E0C1196B0931E0CA0931D0CF09139
:104B2000941EFF7BF093941E1F910F9108955C914A
:104B300060919C06562349F0A0911D0CB0911E0C6B
:104B4000A753BD4F7C9171607C93A0919A06B09160
:104B50009B06BC9120919906B22349F0A0911D0CAF
:104B6000B0911E0CA753BD4F0C9102600C93F081C5
:104B700080919F06F82349F0E0911D0CF0911E0CE6
:104B8000E753FD4F108114601083423049F4E091E7
:104B90001D0CF0911E0CE753FD4F4081486040838F
:104BA0009091491E90FF09C0E0911D0CF0911E0CE0
:104BB000E753FD4F3081306130835091A806E0917A
:104BC0001D0CF0911E0CE753FD4F552351F17081E0
:104BD0007062708300911D0C10911E0C0F94528610
:104BE000000F111F000F111FF801E85BFC4F6083DD
:104BF0007183828393832FCF208100919906202394
:104C000049F0E0911D0CF0911E0CE753FD4F80819F
:104C1000826080831C9190919C06192309F472CFC5
:104C200068CF60816F7D6083D5CF8091270B8F7DAA
:104C30008093270B2091270B20622093270B309124
:104C4000C0073330E1F0323081F0313029F4E091A7
:104C50000602F091070219957091F51E772321F055
:104C6000A091270BA5FD15C00895E0919A06F0913B
:104C70009B06408190919906492349F3EDCFE0913D
:104C80009A06F0919B065081609199065623F9F699
:104C9000E3CF6091770570917805809179059091C7
:104CA0007A0542E00C9411258091270B8F7D80932B
:104CB000270B2091270B20622093270B3091C207EE
:104CC0003330E1F0323081F0313029F4E0910802E4
:104CD000F091090219957091F51E772321F0A091AA
:104CE000270BA5FD15C00895E0919D06F0919E0645
:104CF000408190919C06492349F3EDCFE0919D06B8
:104D0000F0919E06508160919C065623F9F6E3CF00
:104D100060917B0570917C0580917D0590917E0569
:104D200041E00C9411258091270B8F7D8093270BF8
:104D30002091BE07233099F12230A1F02130D9F41F
:104D4000E0910402F09105021995A091F41EAA23A6
:104D500021F0B091270BB5FD17C0F091F51EF111B0
:104D600013C00895E091A006F091A10630819091C2
:104D70009F06392329F36091F41E662371F3709125
:104D8000270B75FFEACF089560917F05709180052C
:104D9000809181059091820540E00C941125E0916D
:104DA000A006F091A106408150919F06452341F64F
:104DB000E2CF90E080E0089590E080E008950F93C6
:104DC0001F93CF93DF939091941E96FF6CC004E0E5
:104DD00000931F0CC82FD0E0CF3708F058C0A09127
:104DE0009706B09198068E01000F111F000F111F3A
:104DF000085B1C4FF8016081718182819381692F6A
:104E0000772788279927ED91FC9111970190F081E0
:104E1000E02DCD011995A0919706B0919806F80163
:104E20002081318142815381BA0188279927ED91F0
:104E3000FC9111970190F081E02DCD011995A09181
:104E40009706B0919806F801408151816281738183
:104E50009927872F762F652FED91FC91119701905F
:104E6000F081E02DCD011995A0919706B09198069B
:104E7000F8016081718182819381ED91FC9111979C
:104E80000190F081E02DCD0119952196A5CF1091CB
:104E9000941E1F7B1093941E10921F0C10921E0CD8
:104EA00010921D0C12C0CCEFD1E08091970690912A
:104EB0009806DC01ED91FC910190F081E02D60E01D
:104EC0001995219791F710921F0CDF91CF911F91A7
:104ED0000F910895EF92FF920F931F93CF93DF935B
:104EE00040910002442321F0109200021092AB1E68
:104EF000E091491E5091951EE090951E2E2F217035
:104F000030E03195219531092527207833272E254A
:104F10002093951E1092A00D9B012056324F7901CF
:104F2000C0EADDE08C01005A1D40CE15DF0541F0DE
:104F3000C8018C0F9D1F0E94B99189832196F5CFDE
:104F40008091961E877F8093961EDF91CF911F914F
:104F50000F91FF90EF900895CF93C82F80919706FF
:104F600090919806DC01ED91FC910480F581E02D93
:104F70001995892B99F38091970690919806DC01F9
:104F8000ED91FC910190F081E02D6C2FCF9119945F
:104F9000CF93C82F892F0E94AC278C2FCF910C94D0
:104FA000AC278091970690919806DC01ED91FC91D9
:104FB0000084F185E02D19951816190664F4809186
:104FC000970690919806DC01ED91FC910284F3859F
:104FD000E02D1995E6CF08950F931F930F94747CDD
:104FE0000091AD021091AE022091AF023091B0025B
:104FF000601B710B820B930B21E0613971408105BD
:10500000910508F420E0822F1F910F9108950F93CE
:105010001F93CF93DF938C01EC01C60FD71FC017EE
:10502000D107F1F00E94EC2781111AC080919706F8
:1050300090919806DC01ED91FC910084F185E02DC2
:105040001995892B61F38091970690919806DC0160
:10505000ED91FC910284F385E02D19958A93DFCFC1
:10506000DF91CF911F910F910895CF93DF9300D0DF
:105070001F92CDB7DEB764E070E0CE0101960E94CA
:1050800007280E94EC27811105C069817A818B81F4
:105090009C8103C060E070E0CB010F900F900F90F7
:1050A0000F90DF91CF910895CF93DF931F921F92BE
:1050B000CDB7DEB762E070E0CE0101960E9407280E
:1050C0000E94EC27811103C089819A8102C090E07F
:1050D00080E00F900F90DF91CF9108953FB7F89443
:1050E00080917C0D90917D0DA0917E0DB0917F0DF2
:1050F00026B5A89B05C02F3F19F00196A11DB11D33
:105100003FBF6627782F892F9A2F620F711D811D4F
:10511000911D660F771F881F991F660F771F881FC5
:10512000991F609383057093840580938505909300
:1051300086058091830590918405A0918505B091A5
:1051400086054091BF0A5091C00A6091C10A7091D2
:10515000C20A841B950BA60BB70B80937F05909317
:105160008005A0938105B093820520917F05309141
:10517000800540918105509182056091F006709103
:10518000F1068091F2069091F3062617370748073B
:10519000590708F493C05091270B50625093270B86
:1051A000A091E906B091EA061196B093EA06A093A1
:1051B000E906E091E906F091EA06319709F47FC02B
:1051C0008091E9069091EA06059709F478C09091DC
:1051D000491E90FF73C0B091991EB1FF13C0F091AA
:1051E000DC1CF7FF0FC0A091E906B091EA06119709
:1051F00009F4BBC0E091E906F091EA06339711F497
:105200000F94F5004091E9065091EA0641305105AE
:1052100009F494C02091E9063091EA062330310563
:1052200009F48CC06CE670E07093F7066093F606A4
:1052300040917F05509180056091810570918205B4
:10524000DB01CA01880F991FAA1FBB1F840F951F7E
:10525000A61FB71FB695A79597958795B695A7955D
:1052600097958795B695A795979587958093F0061E
:105270009093F106A093F206B093F3062091BF0A33
:105280003091C00A4091C10A5091C20A2093EB06A6
:105290003093EC064093ED065093EE066091830543
:1052A0007091840580918505909186056093BF0A71
:1052B0007093C00A8093C10A9093C20A089541E096
:1052C00050E05093EA064093E9062091E5063091BC
:1052D000E6064091E7065091E8062093E1063093F8
:1052E000E2064093E3065093E406609183057091D3
:1052F000840580918505909186056093E5067093FD
:10530000E6068093E7069093E8067091491E716067
:105310007093491E8091B51E9091B61EA091B71E44
:10532000B091B81E0196A11DB11D8093B51E90933A
:10533000B61EA093B71EB093B81E49CF88E490E084
:105340009093F7068093F60640917F055091800573
:1053500060918105709182054093F0065093F106AB
:105360006093F2067093F30689CF0F94A5014ACF9C
:10537000CF93C82F843690F465E973E18091970646
:10538000909198060F944A8ACA3040F463E973E119
:1053900080919706909198060F944A8A4C2F50E07E
:1053A00070E060E02AE080919706909198060F9453
:1053B000CF8067E973E18091970690919806CF912D
:1053C0000D944A8A0F931F93CF93DF93EC018B01C7
:1053D0008091970690919806C017D10781F0499166
:1053E00050E070E060E02AE00F94CF8061E973E163
:1053F00080919706909198060F944A8AE9CFDF91A1
:10540000CF911F910F910D9475880F931F93CF9398
:10541000DF93EC018B01C017D10741F069918091B6
:105420009706909198060F94107FF5CFDF91CF915A
:105430001F910F910895CF93DF93EC0181E080934A
:105440001F0CCE010E94C827D093AB02C093AA02C2
:10545000BE0190E080E00F94387D9C019093A902FA
:105460008093A802249691E0C217D30709F490E034
:1054700090931F0CDF91CF910895CF92DF92EF921E
:10548000FF920F931F93CF9380914F0D8073909154
:10549000DC1C90FD1EC0803109F469C08032F1F43B
:1054A0003091031F333009F429C108F4E7C03530C7
:1054B00009F4D9C008F437C1363081F4F090570DA3
:1054C00078ECF79ED0011124B093BE1EA093BD1EB0
:1054D00005C0803159F0803209F487C0CF911F9107
:1054E0000F91FF90EF90DF90CF9008951091031FE0
:1054F000133009F4E8C008F498C0153009F4E0C08E
:1055000008F4A1C0C091570D163041F7C0904A1E53
:10551000D0904B1EE0905A1EF12CEE0CFF1C00E7C1
:1055200015E120E635E140E255E168E089E195E1E9
:105530000F949340C89F9001112436952795369576
:105540002795ABE7B4E10F942DBA96958795880F10
:10555000991F880F991F811522E0920708F458C0FF
:105560002FEF31E03093BA1E2093B91EB7CF3091A0
:10557000031F333009F4AAC008F44FC0353009F4D2
:105580009CC008F463C0C091570D363009F0A6CF17
:10559000C0904A1ED0904B1EE0905A1EF12CEE0C8B
:1055A000FF1C00E715E120E635E140E255E168E047
:1055B00089E195E10F949340C89FA0011124440F05
:1055C000551F440F551F413127E2520710F040E1AB
:1055D00057E25093BE1E4093BD1ECF911F910F9175
:1055E000FF90EF90DF90CF9008950091031F03305C
:1055F00009F46FC008F452C0053059F108F49EC098
:10560000063009F06BCF8091570D90E0880F991FFD
:105610009093BA1E8093B91E61CF313089F0C0914A
:10562000530D323009F4B4CF59CF113031F0C0915D
:10563000530D123009F46ACF51CFC091520D66CF8D
:10564000C091520DA5CFC091550D60CFC091550DA1
:105650009FCF8091560D90E0880F991F9093BA1EAE
:105660008093B91E3BCFF091560D98ECF99F8001C5
:1056700011241093BE1E0093BD1E30CF313099F11E
:10568000323009F02BCFC090530D48ECC49E70010E
:105690001124F092BE1EE092BD1E20CF0130C9F150
:1056A000023009F01BCF8091530D90E0880F991FB5
:1056B0009093BA1E8093B91E11CFC091560D68CF3A
:1056C000C091560D23CFC091540D20CFC091540DE1
:1056D0005FCF8091540D90E0880F991F9093BA1E70
:1056E0008093B91EFBCED090520D58ECD59EB001E0
:1056F00011247093BE1E6093BD1EF0CE1091540D08
:10570000C8EC1C9F900111243093BE1E2093BD1E37
:10571000E5CE8091520D90E0880F991F9093BA1EAC
:105720008093B91EDBCEB091550DE8ECBE9FC00151
:1057300011249093BE1E8093BD1ED0CE8091550D36
:1057400090E0880F991F9093BA1E8093B91EC6CE21
:105750009C0121503240283141E03407C0F12F5FD5
:105760003E4F2230310598F1843023E0920709F44E
:10577000F3C3A8F58D3022E0920709F4F5C308F0D1
:105780005BC0853022E0920709F4D9C308F4EEC06B
:10579000893022E0920709F4C1C308F44DC18B306F
:1057A00022E0920709F40CC208F43DC27091BB1EBE
:1057B00071FF05C090913208986090933208A091D3
:1057C0003208A3FDD1C00F94241181E008954091C7
:1057D0004A1E50914B1E452B39F280E008958331CB
:1057E00043E0940709F482C308F047C08B3043E0DC
:1057F000940709F49AC208F4E5C08F3043E0940797
:1058000009F482C208F42CC1813143E0940709F401
:10581000FDC108F473C36091BB1E61FF05C07091A8
:1058200031087062709331089091310895FD9CC0E9
:105830000F94E61481E00895843122E0920709F480
:10584000ACC308F4A9C0883122E0920709F494C3DC
:1058500008F41AC1823023E0920709F4FAC208F072
:10586000E7C28130934009F0B8CFE091BB1EE1FF61
:105870007BC00F94F90181E00895823042E39407E0
:10588000F0F4811522E3920708F06EC0863143E000
:10589000940709F48DC108F40BC1873143E09407E4
:1058A00009F05CC1F091BB1EF1FF5EC00F94A01324
:1058B000209131082F772093310881E008958330BB
:1058C00049E9940709F4D0C108F092C0813049E950
:1058D000940709F46EC208F053C28115994909F082
:1058E0007CCF8091860C8370813009F495C3F89445
:1058F00080918F0A87FD8C5F18160CF0A9C3082EC3
:10590000000C990BFC01EE0FFF1FEE0FFF1FE1587B
:10591000F54F2081318142815381880F991F880F73
:10592000991FFC01E558F54F80819181A281B381D7
:10593000281B390B4A0B5B0B789421153105410567
:10594000510591F060E077E883E993E00F940BBA9A
:105950003093880C2093870C81E00F94745630911B
:10596000961E38603093961E81E00895813022E0C3
:10597000920709F437C208F4E1C0833022E09207AD
:1059800009F445C208F436C27091BB1E71FFECCF1A
:105990000F94B21281E00895803122E0920709F459
:1059A00072C208F497C0823122E0920709F4D7C18D
:1059B00008F4C8C1F091BB1EF1FFD6CF0F94741646
:1059C00081E00895873043E0940709F49FC208F40A
:1059D0009BC0893043E0940709F46AC208F45BC2B3
:1059E0006091BB1E61FFC0CF0E94E9FF81E0089576
:1059F000853029E9920709F4F6C208F4DBC2863043
:105A0000994909F0EACE2091001F3091011F21151C
:105A1000310509F4A9CFA0E1B7E20F942DBA209186
:105A20004A1E30914B1E50E040E00F940BBA309369
:105A3000950C2093940C90CF873022E0920709F4C4
:105A4000DDC008F4CAC08091BB1E81FF8DCF0F94CA
:105A5000C311309132083B7F3093320881E00895C2
:105A60008D3043E0940709F447C108F434C14091F4
:105A7000BB1E41FF79CF0E94E5FE809131088F7EE9
:105A80008093310881E00895863122E0920709F47D
:105A9000E3C008F4D0C09091BB1E91FF65CF0F9476
:105AA0009615A0913208AF77A093320881E008954F
:105AB000843143E0940709F066C07091BB1E71FF0A
:105AC00053CF0F943614909131089F7B90933108F7
:105AD00081E008958E3022E0920709F4FAC18F30F8
